S0180000415050535F57534E5F44454D4F5F45442E7372656315
S1130000F8330020A91D0000A51D0000A51D000057
S113001000000000000000000000000000000000DC
S1130020000000000000000000000000A51D00000A
S11300300000000000000000A51D0000A51D000038
S1130040A51D0000A51D0000A51D0000A51D0000A4
S1130050CD020000A51D0000A51D0000A51D000087
S1130060A51D00003D0800004D0800005D080000CB
S11300706D0800007D0800008D080000A51D00002B
S1130080A51D0000A51D0000851A0000951A00009A
S1130090A51A00000000000000000000A51D0000DB
S11300A0A51D000000000000A51D000000000000C8
S11300B00000000010B5064C2378002B07D1054B37
S11300C0002B02D0044800E000BF0123237010BDC0
S11300D0C0000020000000007C850000084B10B523
S11300E0002B03D00749084800E000BF0748036815
S11300F0002B00D110BD064B002BFBD09847F9E72D
S113010000000000C40000207C8500007C85000005
S11301100000000070B50020084B98470500084C0B
S1130120FA218900A047074B186007492800A04717
S1130130064B18600522064B1A6070BD7D1700003F
S1130140E57100000000002040420F000400002080
S113015010E000E030B5084B1C68084A00258021F7
S11301604902013807D3002CFBD054609560136812
S11301700B42FCD0F5E730BD0400002010E000E0A5
S11301800C4B1B68002B06D1EFF31083002B07D018
S11301900022094B1A70074A136801331360704731
S11301A072B6BFF35F8F0022044B1A700132024B08
S11301B01A70F0E7DC000020E000002008000020B6
S11301C0084B1A68013A1A601B68002B09D1064BC8
S11301D01B78002B05D00122044B1A70BFF35F8FEC
S11301E062B67047DC000020E00000200800002018
S11301F070B582B001AC012363700026A670237031
S113020021005220124DA84721003E20A84721007A
S11302103F20A84721002F20A84721001420A847E9
S11302208022D2020B4B9A610B4B8022D2059A6139
S1130230802212069A61802212029A61802252035D
S1130240064B9A61267021005320A84702B070BD66
S11302503104000000450041804400410044004155
S11302601723002A01D0180070478B00064A9B58B8
S1130270002B03D0834205D01D23F4E78900885066
S11302800023F0E70023EEE7A00300201723002952
S113029001D01800704700221F2800D8024A012309
S11302A08340D3600023F4E700180040172300299B
S11302B001D01800704700221F2800D8024A0123E9
S11302C0834093600023F4E70018004070B50022D7
S11302D0104B1A70002310491F25104E0D4C0AE0D4
S11302E00D4908E023780133DBB223700F2B10D8BB
S11302F000211F2BF4D928001840012282400869EC
S11303001042EFD00A619B009B59002BEAD098471A
S1130310E8E770BD9C03002000180040A003002003
S1130320044A137802210B43137053785BB2002BF9
S1130330FBDB70470018004000B583B0124A936994
S113034040210B43936101A900230B7005200F4B3F
S1130350984705200E4B98470E4A137801210B430A
S1130360137053785BB2002BFBDB0B4B190040314D
S1130370002204C39942FCD11022084B1A60084B96
S1130380984703B000BDC046000400409518000023
S11303900918000000180040A003002000E100E05C
S11303A021030000002303604360012202724272B1
S11303B083720233C3727047F0B583B005000C003A
S11303C001A900234B70CB7023790B70237A8B70B7
S11303D02078154B984700201F2D00D8134807227A
S11303E02A409200E77AA37A002B01D008231F4306
S11303F0EB089B00C31899690F269640B1439740B8
S11304003A000A439A61637A002B06D143690122B8
S1130410AA409343436103B0F0BD42690123AB405A
S113042013434361F7E7C0468D19000000180040EC
S113043000B583B001AB80221A700A785A704A78EA
S11304409A708A78DA701900014B984703B000BD9E
S11304508D190000F0B5DE4657464E464546E0B5D8
S113046087B08046049116001F000022002300215B
S11304708B463F2401202100009601975C4603949B
S11304804446059413E02024641A0500E540A84678
S113049014E0009C019D121BAB415C464D462C436D
S11304A0A346039C45462C430394013925D32024B9
S11304B064420C19E7D40500A540A84604008C400A
S11304C0A14692185B4114001D00059E4F463E4014
S11304D0B446049E47463E40B246664657463E43AF
S11304E003D00600264332002B00009C019D9D4250
S11304F0DBD8CED19442D8D8CBE7039B5846190019
S113050007B03CBC90469946A246AB46F0BD10B538
S1130510490840230024814202D2180010BD1C0067
S1130520091A631C9BB28842F9D94023FF2CF4D8E2
S113053014800023F1E70000F0B583B00F0016002B
S113054008AA117804004C434022BC4202D910008E
S113055003B0F0BD002B14D1020008000021194C97
S1130560A04701003A0000230020174CA0470022B6
S11305700123121A8B41120C1B041A4332800022ED
S1130580E5E70022012BF9D10A00002300210D4CDC
S1130590A04702000B0000920193380000210A4C8E
S11305A0A047050080239B0140229842CFD8790FB1
S11305B0F800009A019BA047EA00821AD2B25203C3
S11305C02A43DBE7D17400005504000010B582B063
S11305D004000E4B1B78002B07D0002905D10B4BD0
S11305E05B78834210D01D200CE001A90C7013200D
S11305F0074B98471320074B9847044B5C70012224
S11306001A70002002B010BD0020FBE7E4000020B7
S11306109518000009180000404B984231D00AD9BF
S11306203F4B98424DD03F4B98425AD03E4B984254
S113063037D0002070473D4B98420CD03C4B984239
S1130640F7D1012917D000295DD0022915D003293B
S113065015D00020EEE7012907D0002951D0022946
S113066005D0032905D00020E4E73248E2E7324808
S1130670E0E73248DEE73248DCE73248DAE732487E
S1130680D8E7012907D000293FD0022905D0032942
S113069005D00020CEE72D48CCE72D48CAE72D48E9
S11306A0C8E7012907D0002931D0022905D0032940
S11306B005D00020BEE72848BCE72848BAE7284808
S11306C0B8E7012907D0002923D0022905D003293E
S11306D005D00020AEE72348ACE72348AAE7234827
S11306E0A8E7012907D0002915D0022905D003293C
S11306F005D000209EE71E489CE71E489AE71E4846
S113070098E71E4896E71E4894E71E4892E71E485D
S113071090E71E488EE71E488CE7C0460010004252
S113072000180042001C004200140042000800426D
S1130730000C004202000900030006000300070049
S1130740020011000200120002001300030009005D
S113075002000E0002000F0005001C000200180039
S11307600200190005003F0005003E00050052008C
S113077003003F00030018000300190002000800F2
S1130780020010000300080005001B0005005300D0
S113079003003E0030B587B00B4B6A4632CB32C201
S11307A032CB32C2009B83420BD001239A006946AC
S11307B05258824206D00133062BF7D1002007B0ED
S11307C030BD0023D8B2FAE720840000704700004F
S11307D0F0B50A4B1B78002B0CD1094F094E0A4D7A
S11307E00024DE515A1914600433182BF9D1012264
S11307F0024B1A708000024BC150F0BDE60000208D
S1130800E8000020CD070000E003002000B583B01D
S113081009236A4613700133537001339370013313
S1130820D3700133137101335371034B98476B46F3
S1130830185603B000BDC0469507000010B5024B22
S11308401B680020984710BDE800002010B5024B3B
S11308505B680120984710BDE800002010B5024BEA
S11308609B680220984710BDE800002010B5024B99
S1130870DB680320984710BDE800002010B5024B48
S11308801B690420984710BDE800002010B5024BF6
S11308905B690520984710BDE8000020F0B5D646F6
S11308A04F4680B58BB081460F00140003001960D9
S11308B00B689B0709D40B680520DB0700D498E07C
S11308C00BB00CBC91469A46F0BD936A0593D36A6B
S11308D00693136B0793536B0893002605AB0193A0
S11308E00AE03800934B98470CE00F2318408142EC
S11308F02DD10136042E2FD0F1B2B300019A9858AD
S11309000028EED0431CF4D00104090C000CC3B23F
S11309109C460023020605D463465B09DB01864A34
S1130920924653441F226046024098184030007893
S1130930824680205546ED07D9D552089B1830339E
S11309401878C0B26346DB07CFD50009CFE7002390
S11309504A4613601C20B3E71320784B984722784B
S11309600025012A27D06368A2681343E268134371
S11309702B43227C617C002901D080210B43A17C84
S1130980002902D0802189020A43E17C002902D097
S1130990802189000A43217D002902D08021890118
S11309A00A433968022003438B4218D000234A4685
S11309B013601C2084E704AA0100A069604B9847D7
S11309C003001720002B00D07AE73B7BDBB204AA9C
S11309D0127805309A4200D072E70C35C3E77B6881
S11309E09342E3D123784A465371237C93710020C8
S11309F066E70800534B9847534A116A851C012344
S1130A00AB400B43136209A92426A35D0B70143079
S1130A10C5B228004D4B984728004D4B9847A05D20
S1130A2000214C4B98472378012B19D04B461E6864
S1130A3004AB80221A7000225A7001219970DA7076
S1130A402378002B01D104AB9A70A36A0593E36A5F
S1130A500693236B0793636B0893002705AD11E09E
S1130A603B680C2213433B60E0E73000314B98476E
S1130A700DE004A90870000CC0B2374B9847013749
S1130A80042F07D0F9B2BB0058590028EDD0431CFD
S1130A90EFD1F4E723784A465371237C9371A37C06
S1130AA0D371237D1372002202ABDA802378012BE9
S1130AB028D06368A2681343E2681343217C627CF4
S1130AC0002A03D1254A9278920701D58022134344
S1130AD0A27C002A02D0802292021143E27C002AE6
S1130AE002D0802292001143227D002A02D080226B
S1130AF09201114332681343336073680B4373608C
S1130B000020DDE64B4618680E4B98471430C0B2FF
S1130B100A4B9847010002AB9A1DA069084B9847FD
S1130B2003001720002B00D0CAE602AB06331B7863
S1130B303373BEE71906000000440041B1180000F9
S1130B400F05000095070000000400409518000000
S1130B5009180000CD0500008D1900000020004197
S1130B6010B544791523012C01D0180010BD047A66
S1130B700023002CF9D1002A58D04B78002B44D004
S1130B8003681B7EDB0710D40A78D10900230029EF
S1130B9004D15309DB012E498C4663441F211140C3
S1130BA001228A409A610523DFE70A78D4090023E9
S1130BB0002C04D15309DB01254CA44663441F24B3
S1130BC014400122A2405A6103681A7ED20701D55B
S1130BD08A789A62C2790023002AC6D10268042165
S1130BE0137E0B42FCD0117E00234907BDD5538BE5
S1130BF05B0701D5042353838379012B02D0936AC5
S1130C000023B2E7936A0023AFE70A78D1090023EF
S1130C10002904D15309DB010D498C4663441F218B
S1130C20114001228A405A6100239EE70A78D109C3
S1130C300023002904D15309DB0105498C46634490
S1130C401F21114001228A409A6100238DE7C0468A
S1130C5000440041F0B5DE4657464E464546E0B5F1
S1130C6091B005000C00160029600800BC4B9847A1
S1130C70020023680520DB0706D511B03CBC904672
S1130C809946A246AB46F0BD236817309B07F4D4BF
S1130C90B449086A971C0123BB4003430B620FA9A4
S1130CA02D27F35D0B701432D3B202931800AE4BB0
S1130CB098470298AD4B9847F05D0021AC4B98479C
S1130CC0F37A6B712423F35CAB712523F35CEB7132
S1130CD0F37E2B72337F6B722B6898461800A04BFF
S1130CE09847143000220E2306A98C4663441A80C8
S1130CF0328A02928023DB019A4200D19EE00FD90E
S1130D00C023DB01029A9A4200D192E080231B02A5
S1130D109A4200D01FE1032306930023079308E0BF
S1130D2080239B019A4200D015E1102306930F3BC8
S1130D30079333680593F368039373690493337ECD
S1130D409B462623F35C9A4673689946002B00D190
S1130D50A0E080235B05994500D184E0737E002BDD
S1130D6002D0B37E424693732A68029FD369002B54
S1130D70FCD10E3306AA944663441B8842469381F1
S1130D80059B039A1343049A13434A4613431F4390
S1130D905B461B021F4353465B071F432723F35C39
S1130DA0002B01D104331F43737E9B02327F520216
S1130DB01343727F120213432422B25C520413437E
S1130DC02522B25C12041343B17AF27A1143194317
S1130DD03389FF2B00D181E0802252041743194349
S1130DE02C23F35C002B03D1624B9B789B0701D52A
S1130DF080231F432A68D369002BFCD143465960E2
S1130E002A68D369002BFCD143461F600EAB8022B5
S1130E101A7000225A70DA709A70336B0A93736BEB
S1130E200B93B36B0C93F36B02930D9300270AAEF1
S1130E3063E008230693073B07937AE73368059337
S1130E40F368039373690493337E9B462623F35C10
S1130E509A4673689946002B18D080235B05994500
S1130E6001D0002025E02723F35C002B00D075E798
S1130E70336A1F00C0B2404B984701000E2206ABF4
S1130E809C46624438003D4B984712E00823069381
S1130E90002307932723F35C002B0ED0069B0093BB
S1130EA0079B0E2206A98C466244B16A306A344F0D
S1130EB0B847002800D0E0E650E7336A1F00C0B20C
S1130EC02D4B98470100069B0093079B0E2206A812
S1130ED08446624438002A4FB847EAE7F37E002B81
S1130EE000D17DE78023DB041F4379E72000254BF5
S1130EF0984707E00137042F0DD0F9B2BB00985989
S1130F000028F3D0431CF5D00EA90870000CC0B221
S1130F101D4B9847EEE70023EB602B616B61AB61DF
S1130F20EB612B62AB626B620022EB85AB853033E5
S1130F30EA540133EA540133EA540133EA54286889
S1130F40074B984704001149114B9847A400114BD3
S1130F50E550002091E61023069300230793E8E66A
S1130F6095070000000400409518000009180000CF
S1130F70CD05000000200041B11800000F0500005D
S1130F8039050000190600008D190000CD1000007D
S1130F90D1070000E0030020C2791C23002A01D1FC
S1130FA018007047C28D92B2173B002AF8D103682B
S1130FB0DA69002AFCD1198502211A7E0A42FCD082
S1130FC00023EDE782791C23002A01D11800704721
S1130FD0828D92B2173B002AF8D10268107E400736
S1130FE0F4D5D369002BFCD1538BDBB298061DD00A
S1130FF0980703D5022353831833E7E7580703D52B
S1131000042353831A33E1E7D80703D50123538319
S11310101233DBE7D80603D5102353833233D5E7E5
S11310209B0603D5202353832133CFE7138D0B80F5
S11310300023CBE7F0B5D64600B584B00400019197
S11310401720002A03D104B004BC9246F0BDA37952
S11310500530002BF7D02668013A93B29A46002552
S1131060042719E0002302AAD380911D2000154B08
S113107098470028E7D1691C89B202ABDB88019A42
S113108053556279012A14D00D005346013B9BB29B
S11310909A460D4B9A45D6D0337E3B42E2D10A4B59
S11310A0327E3A42DED1012B09D0013B002BF7D12D
S11310B0D8E70235ADB21B0A019A5354E5E7122072
S11310C0C1E7C046C50F0000FFFF0000F8B580006F
S11310D0624BC5582C68E369002BFCD1237EA67DA6
S11310E01E403023EB5C3122AF5C1F40F30722D556
S11310F0EB8D9BB2002B1CD0AA6A1378DBB2511C77
S1131100A962697901290ED09BB2DB05DB0D238529
S1131110EB8D013B9BB2EB85002B0CD10133237586
S11311200133A37507E0517809020B430232AA6226
S1131130EBE701232375B30706D5022323750022A9
S11311403133EA54FB071AD4730765D5AB8D9BB2D0
S1131150002B5FD0638BDBB21A0714D43F221340F9
S1131160002B34D09A0711D51A223223EA54303B8B
S113117063837B0750D528006B6998474CE02800AF
S1131180EB689847E0E737221340E9E75A0705D5AB
S11311901E223223EA542E3B6383EAE7DA0705D59D
S11311A013223223EA54313B6383E2E7DA0605D59E
S11311B042223223EA54223B6383DAE720221A4292
S11311C0D7D021323223EA54123B6383D1E7238DF3
S11311D0DB05DB0DDAB2696A0A706A6A511C69625E
S11311E06979012910D0AB8D013B9BB2AB85002BF3
S11311F012D10433237500222E33EA54BB070BD5D6
S113120028002B69984707E01B0A53706B6A013367
S11312106B62E8E704232375F30604D510232375D2
S11312202376FB060ED4B30604D520232375237638
S11312303B070BD4330704D5082323752376BB0659
S113124008D4F8BD2800EB699847ECE72800AB699F
S11312509847EFE72B6A28009847F2E7E00300205D
S113126010B5082803D880001C4B1B589F4600204B
S113127032E01B4B18692FE01A4B1B6A9B059B0F2E
S11312801948D84028E0164B586925E0144B1B68D0
S113129000209B0720D513491022CB681A42FCD0AA
S11312A00F4B1A6824231340042B01D00F4813E07A
S11312B000200F4B98470A4B9B681B041B0C584398
S11312C00AE05023074AD35C00205B0704D5044B93
S11312D0D86801E08020000210BDC04638840000B8
S11312E0000100200008004000127A00006CDC02BB
S11312F0B118000070B50C490B6A04788578407801
S11313000122104080014026B34303432A40D20106
S113131080208343134303222240120203480340E4
S113132013430B6270BDC04600080040FFFCFFFF82
S1131330F0B5CE46474680B5194B99469B6941782E
S11313408C4605780679C77844798078012108406D
S1131350800004229343034360460840C0000432E3
S1131360934303433800084080014027BB430343B1
S113137030000840C0018026B343034307200540E2
S11313802D02084803402B4321400903064803402B
S11313900B434A4693610CBC90469946F0BDC04647
S11313A000080040FFF8FFFFFFEFFFFF10B5037ACE
S11313B09B061B0C42899205920D134318494B60FE
S11313C08379C27913434288848822431343427841
S11313D0D20113430B600378042B11D0202B0ED1C0
S11313E0037B9B06028A1343C28912040D490A40F7
S11313F013430B4A936011680B4B0B43136010BDEE
S1131400037B9B06028A1343C289120405490A40DE
S11314101343034A9360136804210B431360EEE7FC
S1131420000100200000FF0324040000082803D862
S11314308000254B1B589F46172044E0234A136A1B
S113144002210B43136200203DE0204A93690221EC
S11314500B439361002036E01C4A138A02210B439C
S1131460138200202FE0194A938A02210B439382AE
S1131470002028E016490B68022213430B60134B2B
S11314809A8419000E32CB681A42FCD0104A916833
S11314900E4BD96252689A6200229A841900103263
S11314A0CB681A42FCD00A4B1B689BB2074A938450
S11314B0002008E0054944228B5C022003438B543E
S11314C0002000E0002070475C8400000008004019
S11314D000010020F0B5CE46474680B58DB0C2224B
S11314E0D200504B9A60504A53681E218B431A39DC
S11314F00B435360032201AB1A7000244B4DE0B23E
S113150001A9A8470134252CF9D1494D2B68DB04E6
S113151044498A695B0E1B044648024013438B61AD
S11315200AA80123837007220270002444714470C6
S11315300471C370404B98470420404B984705AB57
S113154000225C809C809A71DA713F2159813B3979
S113155019705A702B689B0E3F2B60D005A803723C
S113156004230382033303733833C381344B984712
S113157004A80025457005708570324B98470620F5
S11315802E4FB847304B984701AC01260296657040
S11315900623237025726572210001202B4B994686
S11315A0984701202A4B9846984765706572042332
S11315B0237020236360267221000220C847022082
S11315C0C047267021000020184B98470020214B6B
S11315D098470720B8471349D022CB681340D02B33
S11315E0FBD1104A938C80210B4393841A4A002325
S11315F0137253729372D37201A901224A604B7021
S11316000B724B7207330B700020104B984700206D
S11316100F4B98470DB00CBC90469946F0BD203B4B
S11316209CE7C046000800400040004195180000B7
S113163024608000FFFF80FF311300002D140000A0
S1131640AD130000F51200005D16000081160000C5
S1131650391700000918000000040040064A936985
S113166008210B4393610122044B1A7019000B7873
S11316701342FCD17047C04600040040000C0040F7
S113168070B5060004000D782D0205434B78002B3D
S113169002D08023DB021D434B7A002B02D080232F
S11316A01B031D434868012810D9431E184234D136
S11316B0022830D90223002201325B009842FBD871
S11316C012023243140080235B031D430B7A002B68
S11316D002D080239B031D43134A53785BB2002B33
S11316E0FBDB124B9847124B1E700F4A53785BB2C8
S11316F0002BFBDB0C4B9C601A0053785BB2002B75
S1131700FBDB094A5368802149020B401D435560A5
S1131710084B984770BD0022D2E70402344380236B
S11317209B021D43D2E7C046000C0040810100002B
S1131730080C0040C101000010B504000B4A5378A6
S11317405BB2002BFBDB0A4B98470A4B1C70074A21
S113175053785BB2002BFBDB044A516880235B02A5
S11317600B435360044B984710BDC046000C004027
S113177081010000040C0040C101000070B50400A8
S11317801A4A53785BB2002BFBDB194B9847194B71
S11317901C70164A53785BB2002BFBDB134E706847
S11317A0C004C00E144B98470500124B1C70766899
S11317B0F602F60F114B1C700C4A53785BB2002BE7
S11317C0FBDB0A4B9C682402240C0D4B9847002E2B
S11317D007D1012C07D9210028000A4B984705009E
S11317E001E00134E540280070BDC046000C004013
S11317F081010000040C004061120000080C00404C
S1131800C1010000E571000010B50400064B9847C3
S1131810064B1C70064A53888021C9010B43538030
S1131820044B984710BDC04681010000020C0040E3
S1131830000C0040C101000010B504000F4B984794
S11318400F4B1C700F4A53881B05180F53880E4901
S11318500B40538053880D490B4053801100802264
S1131860D2014B881342FCD106494A880302064838
S1131870024013434B80064B984710BD8101000082
S1131880020C0040000C0040FFF0FFFFFFBFFFFF11
S1131890C101000010B50C7824020443024B9847A0
S11318A0A4B2024B5C8010BD39180000000C00404B
S11318B010B50400064B9847064B1C70064B5C8819
S11318C02405240F054B98472000054B984710BD6D
S11318D081010000020C0040000C0040C101000026
S11318E07D17000030B5D378002B35D11378802BC9
S11318F029D01B0680246402234354780225AC4378
S113190006D19478002C20D18024A4022343416082
S11319105478013C012C1CD90D042D0CA024E405A1
S11319202C431C4384620D0CD02424062C431C43FA
S11319308462D478002C22D15B031CD59378012BCC
S11319401ED0416117E00023D7E7C024E4022343FB
S1131950DDE70D4C2340DFE741600C04240CA02399
S1131960DB05234383620C0CD0231B0623438362D1
S1131970D378002B03D15378013B012B02D930BD1E
S11319808161F8E78160FAE7FFFFFBFF10B50A0009
S1131990C1090023002904D14309DB0105498C4610
S11319A063441F242040012181401800024B9847C2
S11319B010BDC04600440041E51800007047000017
S11319C010B5054B9847054B9847054B9847054B71
S11319D09847054B984710BDD5140000F10100004D
S11319E0BD19000039030000BD190000931C9B00C1
S11319F01950022A09D0032A0CD0012393401A005B
S1131A00037E1343037600207047037E10221343A2
S1131A100376F8E7037E202213430376F3E70000FE
S1131A2070B58000164BC45823689D7B227E637E6C
S1131A3013401D40EB0706D4AB070BD4EB0610D4C0
S1131A40AB0615D470BD2000A36898470123226813
S1131A509373F1E72000E3689847022322689373A5
S1131A60ECE7200023699847102322689373E7E783
S1131A70200063699847236820229A73E2E7C046EE
S1131A80F803002010B50020014B984710BDC04654
S1131A90211A000010B50120014B984710BDC04623
S1131AA0211A000010B50220014B984710BDC04612
S1131AB0211A000030B585B001AA0B4B32CB32C2DB
S1131AC0019B98420DD0029B984208D00023039AB0
S1131AD0824202D0180005B030BD023302E0012377
S1131AE000E00023DBB2F5E780840000F0B587B0A6
S1131AF004000D0016000800854B9847070005AB4D
S1131B001B221A7001325A709A7003AB80221201A0
S1131B101A80802252015A80802292019A800023E6
S1131B20A360E36023616361237663768200794B6B
S1131B30D4502560B378082B06D023712B88052058
S1131B40DB0705D507B0F0BD1720FA07FAD5F4E78F
S1131B50EB7B1730DB06F5D42B889B07F2D4337C60
S1131B60002B79D1337F002B00D081E06A49086AC9
S1131B707A0003ABD35A03430B62B378082B00D12A
S1131B8086E001A933780B7005ABDF5D3800634B49
S1131B9098473800624B98473189B3880B43B17832
S1131BA0B279114319437378002B02D080231B01AF
S1131BB019432268D37B5BB2002BFBDB2980717B4A
S1131BC04B1E99418900B37B002B01D0012319439B
S1131BD02268D37B5BB2002BFBDBFF232B71002934
S1131BE005D02268D37B5BB2002BFBDB6971B17A31
S1131BF0F37A002B01D010231943337B002B01D03F
S1131C00202319432268D37B5BB2002BFBDBA97131
S1131C102268D37B5BB2002BFBDB2379042B3FD000
S1131C20082B5ED01720002B00D08BE7D37B5BB250
S1131C30002BFBDB338D2B822268D37B5BB2002B22
S1131C40FBDB738D2B832268D37B5BB2002BFBDB26
S1131C50B38D6B83002075E702A901238B700022EA
S1131C60CA70327E0A704B70307D2E4B984779E7EC
S1131C7002A901238B700022CA702432B218127890
S1131C800A704B701F33F3181878264B98476DE78A
S1131C90086A7A1C520003ABD35A03430B6270E701
S1131CA0D37B5BB2002BFBDB2823F35C2B74226811
S1131CB0D37B5BB2002BFBDB2923F35C2B752268FF
S1131CC0D37B5BB2002BFBDB2A23F35C2B762268ED
S1131CD0D37B5BB2002BFBDB2B23F35C6B76002006
S1131CE030E7D37B5BB2002BFBDBB36A2B6122684A
S1131CF0D37B5BB2002BFBDBF36AAB612268D37B43
S1131D005BB2002BFBDB336BEB6100201AE7C046B0
S1131D10B51A0000F80300200004004095180000E4
S1131D20091800008D1900000268D37B5BB2002BF8
S1131D30FBDB0379042B05D0082B09D00020002BF2
S1131D4003D07047107CC0B2FBE7108A80B2F8E77A
S1131D501069F6E710B50468E37B5BB2002BFBDB8C
S1131D600379042B05D0082B14D01720002B08D09E
S1131D7010BD17200129FBD8D2B261180A760020C1
S1131D80F6E717200129F3D892B20C3149000A531F
S1131D900020EDE717200129EAD8063189000A510D
S1131DA00020E5E7FEE70000F8B52A4A2A4B9A42EC
S1131DB011D01A00294B9A420DD2294A03339B1A97
S1131DC09B0801339B000022234822498C588450ED
S1131DD004329A42FAD1234A234B9A420AD2D34379
S1131DE021495B1803218B4304339B18002102C251
S1131DF09342FCD11D4AFF211D4B8B439360FD3957
S1131E0090235B001B4AD1501B4AD3780325AB4374
S1131E1002242343D370D3780C27BB4308263343CF
S1131E20D370164B987B3022904320221043987332
S1131E30997BB943314399739A7BAA4322439A739A
S1131E400F4A536880210B4353600E4B98470E4B47
S1131E509847FEE77C85000000000020BC000020BD
S1131E6004000020C0000020F813002000ED00E072
S1131E700000000000700041005000410048004193
S1131E80004000412575000045420000F0B5C646FB
S1131E9000B50C00904600280FD1002A11DD8F18E0
S1131EA0094E0A4D306821002B6898470134BC4222
S1131EB0F8D1404604BC9046F0BD01235B429846ED
S1131EC0F7E78046F5E7C0460C0400200404002030
S1131ED0F0B5C64600B50E0015000138022810D82A
S1131EE0002A11D000240C4B98460C4F4346186826
S1131EF0315D3B689847002808DB0134A542F5D1E1
S1131F0006E00124644203E0140001E00124644279
S1131F10200004BC9046F0BD0C04002008040020FE
S1131F200300064A1268002A04D0044A1068C31841
S1131F30136070470249014A1160F6E71801002056
S1131F40F833002001204042704780239B014B60FE
S1131F50002070470020704770B582B005000E0065
S1131F6000226B46DA80064C6B46991D2800A04778
S1131F700028F9D16B4606331B88337002B070BD5C
S1131F80C50F000070B505008CB2034E2100280077
S1131F90B0470028FAD170BD990F000010B582B087
S1131FA06B46DC1D012221000F48104B984772B686
S1131FB0BFF35F8F00220E4B1A700E4B1B782178F3
S1131FC00D4AD1549B2B0AD001330A4A13700122C3
S1131FD0074B1A70BFF35F8F62B602B010BD0022C8
S1131FE0044B1A70F3E7C0461C01002035100000B2
S1131FF008000020EC01002050010020F0B591B051
S11320008023DB05009300230193FF2269460A81A4
S113201000228B72CB72012424216846445401317E
S1132020445401314354013143540A930531435418
S11320300131435405930382C376027602774276D4
S1132040132383764277C4239B03039301235B42C8
S11320500C930D932D4B0E932D4B0F9396231B0234
S113206008932C4D2C4B1D602C4A2D4B1A602D4A85
S11320702D4B1A606A462D4928002D4B98472D4F49
S11320803B68986800212C4EB0473B685868002193
S1132090B0472E683000294B98471F2318408440CE
S11320A0274B1C602A68D369002BFCD133680222B9
S11320B013433360174B1B68DA69002AFCD1596853
S11320C0802252020A435A600121124AD171DA690C
S11320D0002AFCD1DA69002AFCD1596880229202D4
S11320E00A435A6001210B4A9171DA69002AFCD132
S11320F014490220144B984704220C4B9A758022F1
S113210012010F4B1A6011B0F0BDC04602000E0060
S113211002000F001C0100200C040020851F000099
S113212008040020591F000004040020001000428D
S1132130550C000058000020AD7500000D0800008B
S113214000E100E09D1F0000D107000010B50278F7
S1132150084B1A7042785A700A78074C22704A78F1
S113216062701888054B98472088054B98470120D2
S113217010BDC046140400202C040020552A000081
S1132180352A000010B5002809D10B781A2B07D87E
S1132190044A13701800044B9847012000E0002003
S11321A010BDC0462E040020112A000030B583B0B3
S11321B06C4600900191104B9847104D2B0006CCB3
S11321C006C30F4B9847040001200E4B98470E4B53
S11321D01C700B220D4B1A7068680D4B98470D4B01
S11321E000221A707F215A547F315A547E21FF31C4
S11321F05A54012003B030BDB12900001C04002052
S113220061290000FD290000100400202E04002094
S1132210A52A000030040020F0B5DE4657464E469D
S11322204546E0B5A5B001900E000291111C1400C2
S1132230240A039200932EAA15782FAA13789B469A
S1132240C7B2B806C30F9946C9B2E2B27B0700D53C
S1132250012103233B40012B3BD05C425C41E0B2B3
S1132260824601AC64897B480088A04234D00024B3
S1132270072084468846614608314046002800D03D
S11322800639002A37D00231C9B28C46242139409C
S1132290202934D0032B36D004A9AC4463460B70F8
S11322A053464B7001A94B465B019C46087820239A
S11322B098436346184308708446C1438B072AD069
S11322C04346002B49D0002A2FD0882004A98870C7
S11322D02EE003208246C4E75F48844207D04024AE
S11322E05046204382463F3C05208446C2E70024F2
S11322F007208446BEE70831C9B28C46C6E750467B
S113230008438246C6E701220023994600249A46E0
S113231007339C46C0E704A9802088704F4E30786C
S1132320431C3370C87004212EE0C82004A98870AF
S11323304A490878431C0B7004A9C87001A8837A21
S11323400B71C07A487163465B0718D404A93078CE
S113235088717078C871082116E0002A5CD004A93D
S11323608C2088703D4B1878471C1F70C87001ABD7
S1132370987A0871D87A487163465B0760D504A9D6
S1132380FF208871C8710821002C09D1481CC0B2F3
S113239004AC304E337863540231C9B27678265493
S11323A0002A2AD004A82E4C227842548A1CD2B285
S11323B00131C9B264784454002D0AD000995519EA
S11323C0EDB204AE501C0C78B4540131C2B2954243
S11323D0F8D1244A009B1360234B309A1A60234B94
S11323E05A461A7004A8224B9847012025B03CBCD9
S11323F090469946A246AB46F0BD1E4A50680B0073
S11324000833DBB204AE4A1CD2B2047874540130EF
S113241011009A42F7D1CFE704A9CC2088700F4B62
S113242098461878431C994643464F461F70C87017
S113243001A8837A0B71C07A487163465B079ED406
S1132440002004AB1918335C8B7101300828F8D1D3
S11324500E2199E72C040020FFFF00001004002047
S113246014040020F8010020F0010020F4010020F1
S1132470152900001C040020044B1B78032B04D8EE
S1132480DA01D31A0021024A995470470900002046
S11324903004002070B5FF22CD4B1A70CD4B1B7851
S11324A0002B00D0BDE17F33CA4AD35C002B0BD193
S11324B0FE33D35C002B2ED17E23FF33D35C00206C
S11324C00322002B01D170BD0122C14B1A700020E0
S11324D0032AF8D81000D101891ABE4B5B185D7825
S11324E040242540BC4900240C70CC739B783321D4
S11324F08B43D9B2882900D1C4E00ED9D9B2C829F6
S113250046D0CC2900D18AE08C2900D104E1B34B18
S113251098470020D7E70222D7E7082B00D131E102
S11325208029F4D1AC4B19780424214380246442DB
S1132530214319700121D973A64CD101881A21189D
S11325400D791D7449795974D1018A1A911D09199B
S11325505960015D0B391973083212199A609C4B4A
S11325601B78D901C91A9B4A521851780A0700D519
S113257029E107220A40012A00D131E1002A00D1D1
S113258049E1032A00D13EE1944B984700209AE7A1
S1132590D101891A8F4B5B189B79FF2B1CD08E4974
S11325A00C7880235B4223430B70002D21D0894C8F
S11325B0C301181A23181D790D745B794B74D30168
S11325C09A1A130008331B194B60035D133B0B73FA
S11325D0103212198A60C2E7D101891A7D4B5B1847
S11325E0DB79FF2BDBD17C490B78042423430B706C
S11325F0D5E77949774CC301181A23181D7A0D744D
S11326005B7A4B74D3019A1A13000A331B194B607B
S1132610035D153B0B73123212198A609FE76E49F2
S11326200C7880235B4223430B70002D14D0694C3B
S1132630D301981A23181D790D745B794B74D30157
S11326409A1A13000E331B194B60035D193B0B736D
S1132650163212198A6082E75F495E4CD301981AD8
S113266023189D7B0D74DB7B4B74D3019A1A1300E2
S113267010331B194B60035D1B3B0B73183212198B
S11326808A606CE7D101891A524B5B189B79FF2B46
S11326901FD0514B1C7880214942214319700121DC
S11326A0D973002D22D119004A4CC301181A2318DA
S11326B01D7A0D745B7A4B74D3019A1A13000A3392
S11326C01B194B60035D0F3B0B730C3212198A60AC
S11326D045E7D101891A3F4B5B18DB79FF2BD8D131
S11326E03D490B78042423430B70D2E73A49394C13
S11326F0C301181A23181D790D745B794B74D30127
S11327009A1A130008331B194B60035D0D3B0B73BE
S11327100A3212198A6022E72F4B1C788021494221
S1132720214319700121D973002D15D01900294CAA
S1132730D301981A23181D790D745B794B74D30156
S11327409A1A13000E331B194B60035D133B0B7372
S1132750103212198A6002E71F491E4CD301981ADD
S113276023185D7B0D749B7B4B74D3019A1A130061
S11327700F331B194B60035D153B0B731232121997
S11327808A60ECE6D101891A124B5B189B79FF2B06
S11327900CD011490F4CC301181A035D0A3B0B738B
S11327A0D3019A1A083212198A60D8E6D101891A1B
S11327B0084B5B18DB79FF2BEBD107490B7804241A
S11327C023430B70E5E7054B984700207BE6C046A2
S11327D009000020300400208C130020792400001C
S11327E012490A78032082430A70114AD901CB1A8C
S11327F0985C0E49D3181A18013A12788A731B5C34
S11328004B7301205FE609490A78032082430120C3
S113281002430A70E9E705490A78032002430A7073
S1132820E3E70022034B1A7054E6C0468C130020E1
S11328303004002009000020000170470048704760
S113284000F8FF07024B18700122024B1A70704700
S113285024040020ED01002010B50B4B98470B4BCE
S11328601B68002B03D00A4A1278002A00D110BD3D
S1132870084A1268084909780848007898470022ED
S1132880034B1A70F3E7C046C52A0000F00100208C
S1132890ED010020F801002024040020F4010020B0
S11328A0F8B504000B4F0C4E1F2503210220B84736
S11328B00120B04728400828F7D1064F064E1F25AF
S11328C021000220B8470120B04728408442F7D1B4
S11328D0F8BDC046193900001D38000010B50820A5
S11328E0084B98470F20084B9847084B1B78002B40
S11328F000D110BD1620034B98470122044B1A70D7
S1132900F7E7C046A12800001D3800007C02002023
S11329107D02002010B5040019200C4B98470F20AD
S11329200B4B984721788B1C23700131C9B22000CE
S1132930084B98470322084B1A70084B8022520315
S11329409A61C046C0465A6110BDC046A128000025
S11329501D380000493B00007D0200200044004176
S1132960F0B5C64600B506200D4B98470024002557
S11329700C4F0D4E032398460120B8470620B0475C
S1132980400943461840A0400543ADB20234102C20
S1132990F2D1064B9847280004BC9046F0BDC046CF
S11329A0A1280000550100001D380000DD280000AA
S11329B070B50D4B98470D4B984700220C4B1A707D
S11329C00C4E0D4D1F2408210220B0470120A847BA
S11329D020400828F7D12E210438064CA047A02116
S11329E00C20A04770BDC046D1360000ED37000072
S11329F07C020020193900001D38000010B5024B7C
S1132A001870024B984710BD7C020020DD2800009E
S1132A1010B504000820054B98471F230100994373
S1132A202143C9B20820024B984710BD1D3800004D
S1132A301939000030B583B06B469D1DD880C1B2F2
S1132A402220034CA04769782320A04703B030BD5F
S1132A501939000070B582B06B469E1DD880C4B28F
S1132A6021002020054DA847767831002120A84771
S1132A70A419E1B22D20A84702B070BD1939000095
S1132A8010B50820044B984780225203034B9A61E7
S1132A900222034B1A7010BDA1280000004400411B
S1132AA07D02002070B505002424054E29782000FD
S1132AB0B04701350134E4B22C2CF7D170BDC046C7
S1132AC01939000070B582B0364B1B78022B0AD03E
S1132AD00F20354B9847030705D5324B1B78012B44
S1132AE003D0032B45D002B070BD304B1C78002CB2
S1132AF010D07F232D4AD35C002B0AD0FE23D35C55
S1132B00002B24D07E23FF33D35C0324002BEAD193
S1132B1000E001246B46DD1D01212800244EB0474E
S1132B2029780231C9B22348B04721002878831C90
S1132B30DBB2E201141B1D4AA3547D2B09D91A4DA3
S1132B401F240120A84720401628FAD1CBE70224ED
S1132B50E0E7023001220123CC01611A134C64180E
S1132B60144DA95CA1540133DBB21A008342F8DD91
S1132B70E5E702200C4B98474009C4B2002C04D06E
S1132B80032C0BD0052C0BD001240B4B98470122AE
S1132B90044B1A702000094B9847A4E70224F4E779
S1132BA00324F2E77D0200201D38000030040020D9
S1132BB0193A0000FC010020DD280000452800002F
S1132BC010B5014B984710BDA5340000F0B5DE46A2
S1132BD057464E464546E0B58BB003900D001400B1
S1132BE0049314AB1E7815AB1F7816AB1B789A466A
S1132BF0774B1B78002B07D00222764B1A70764B4A
S1132C0098470022724B1A70072F17D8BB00734ADB
S1132C10D3589F46002398460827BBE001239846D3
S1132C200027B7E0012398460427B3E00123984620
S1132C300827AFE0012398461027ABE007239F4302
S1132C4000D0B5E0B846A5E0654B9847B5E0654BC4
S1132C501B78002B1AD0002C0DD00022002120005C
S1132C60614B9847102221006048614B984700222D
S1132C705C4B1A701EE0574B1B78012B03D05D4B45
S1132C80984702209CE0564B9847F8E7002C11D057
S1132C900F2256491800AC46535CA55C6B400343B5
S1132CA0581E8341D8B2013AF6D265464D4A107097
S1132CB00028D2D1002F29D101232B70049B002B93
S1132CC003D02B78402213432B702B789946002392
S1132CD0AB735346002B2AD1002F03D0EE73434627
S1132CE0012B1AD001232B70039B049A944663444E
S1132CF0180033003A0029003F4CA047354B1B789D
S1132D00012B3DD03B4B9847002059E0059B023BEB
S1132D109B00012213432B70D0E7049B991903985D
S1132D208446614400962A00344CA047DAE74346BF
S1132D30012B0DD0002FE1D0EE73039B5B441800F0
S1132D403A0006A92E4B98470028D7D0032037E035
S1132D502B70039B049A94466344180033003A0092
S1132D602900254CA047002FC8D04B462B70EE738A
S1132D700096049B2A0006A90398204CA047DCE790
S1132D80174B9847BEE700239846042702E0002328
S1132D9098461027039B002B0AD0002D08D0049BD3
S1132DA09B46B34405975B46DB197F2B00DC4EE75B
S1132DB0084B1B78012B00D146E70E4B98470120A6
S1132DC00BB03CBC90469946A246AB46F0BDC0460B
S1132DD09102002090020020A93400008C8400009D
S1132DE0812A00004800002069350000800200208C
S1132DF08B750000F9340000F52E0000692E0000E8
S1132E006D750000F0B585B004000E000F290FD9D0
S1132E100D00103DEDB22D0901352D0145190F4F5F
S1132E2000212000B8471034AC42F9D10F231E40D2
S1132E30002E01D105B0F0BD320021006846084BD8
S1132E4098471022921B300068440021054B984794
S1132E5000216846014B9847ECE7C046FD3400006A
S1132E608B7500009D750000F0B587B005000091DA
S1132E7001921C000CAB1E78002200210020184F88
S1132E80B84700210198174B9847002202210020DF
S1132E90B847002C08D128193100134B98470098E3
S1132EA0124B984707B0F0BD271C0E2C00D90E27F3
S1132EB0FFB2002302AA1370130054703A002900D1
S1132EC0981C0B4B9847B91CC9B202A8064B9847EB
S1132ED0BC42E0D9E11BC9B2E819034B9847DAE7D1
S1132EE069350000FD340000052E0000A136000005
S1132EF08B750000F0B5D6464F464646C0B584B043
S1132F0004000F0016001D00002200210020314B98
S1132F1098470123FB73002D06D101239A462E4BBB
S1132F2099462E4B98462EE0002138002B4B9847AB
S1132F30F3E76846C8472FE053460133DBB29A46AD
S1132F40FB7369463800254B98472B1C102D00D97C
S1132F501023DBB2581EC0B2002B05D111E0DBB246
S1132F60581EC0B2002B1CD0013000236A469A5C64
S1132F70E15C4A40E25401339842F7D1E418102D41
S1132F800FD9103DEDB2102DD6D8002ED1D000238C
S1132F90FB7369463800C0472B1C102DDFD9102362
S1132FA0DDE7002E05D104B01CBC90469946A2462C
S1132FB0F0BD6846084B9847013EF2B20132002347
S1132FC06946595CE05C4140E15401339342F7D1D6
S1132FD0E9E7C04669350000A1360000FD34000071
S1132FE0A0281AD8A4230E4AD35C002B0BD00D4A78
S1132FF0012318001178002906D00133A8320A2BC6
S1133000F7D1002070470020A82343430448C01888
S11330100300A43301221A70F4E70020F2E7C0464B
S1133020140C0020600D002030B50D4B002203E08D
S11330300132A8330A2A10D015001900A4310978E6
S11330400029F5D09842F3D1A8235D43044B5D19C0
S1133050A43500222A70002000E0FF2030BDC046C5
S1133060140C0020F0B5C64600B5070088461500CC
S113307072B6BFF35F8F00221F4B1A70037A002BC6
S113308037D00468002D19D0002C0CD0260000E0A5
S11330901C00696860682B68984700280FD1236872
S11330A02600002BF4D100240122134B1A70BFF325
S11330B05F8F62B6200004BC9046F0BD2600002C51
S11330C0F2D04346002BEFD13B689C420CD02368DE
S11330D033607B689C420AD03B7A013B3B723B687D
S11330E0002BE1D17B60DFE723683B60F1E77E6082
S11330F0F2E70024D8E7C04608000020002303605C
S1133100436003727047000072B6BFF35F8F002202
S11331100A4B1A70037A002B0ED043681960416081
S113312000230B60037A013303720122034B1A70EC
S1133130BFF35F8F62B670470160F0E708000020BC
S113314010B50A000021014B984710BD65300000FE
S113315030B5144B1D68002D1CD0826869688A4202
S113316009D32C00521A2368002B08D059689142C5
S113317003D81C00F6E72B000024891A596042602A
S1133180002C03D023680360206030BD0560054B2C
S11331901860FAE70023036083684360014B1860FA
S11331A0F3E7C0469402002010B5044A13780133B3
S11331B0DBB213700248034B984710BDA4120020E1
S11331C0102700004146000010B50024064B1C7077
S11331D00648074B9847074B98470748074B9847BB
S11331E0074B1C6010BDC046A4120020A93100008A
S11331F031470000AD4600001027000041460000A2
S1133200940200200E4B1A68002A14D0824213D074
S11332101368002B0FD0984201D01A00F8E7002A57
S11332200AD0036813600368002B04D0426859680D
S11332308C4662445A607047014B02681A60F2E798
S113324094020020094B1B68002B0AD083420AD049
S11332501B68002B03D09842FAD1012000E0002023
S113326070470020FCE70120FAE7C04694020020E2
S113327010B50400044B9847002800D010BD20006E
S1133280024B9847FAE7C04645320000513100002E
S1133290F0B583B01D4B1B78002B35D0EFF31082B3
S11332A053425341019372B6BFF35F8F0021184B11
S11332B019700198154A1378DBB21170002805D0F3
S11332C00131134A1170BFF35F8F62B69D00ED1890
S11332D06D00104E370005E020000F4B98470DE0BD
S11332E0200098473468002C0ED063689D4209D3AF
S11332F0ED1A23683B60237B012BEDD02369002B5F
S1133300EED1EFE75D1B656003B0F0BDA4120020B1
S113331008000020940200205131000010B5014B38
S1133320984710BD1547000010B5014B984710BDD4
S1133330CD46000010B50248024B984780B210BD3C
S1133340DC120020291D0000034B10211A681173A0
S11333505A7E8A435A767047DC12002010B50A4C14
S113336020680A4B98470A4B1B5C1F221A40012312
S11333709340084A1360637E1022134363762368E4
S113338010225A7310BDC046DC120020B51A00008A
S1133390AC84000000E100E010B502000021024806
S11333A0024B984710BDC046DC120020551D00009A
S11333B0F8B5CE46474680B52D4A00231370937066
S11333C0002193809171138151709172D1721173A4
S11333D09173517311745361936111771362536242
S11333E013859385013B5385224C23492000234BAD
S11333F09847002222492000224DA8470222224950
S11334002000A8472068214B99469847204B9846AE
S11334101B5C1F26334001252A009A401D4F3A6049
S1133420637E01221343637623685D731800C847E3
S113343043461B5C1E40B5403D60637E102213432F
S11334406376226810235373D37B5BB2002BFBDBC0
S1133450138802210B43138000200F4B98470F4918
S11334600F4B9847C0B20CBC90469946F8BDC04675
S1133470A8120020DC120020002C0042ED1A0000EB
S113348029330000ED1900001D330000B51A0000B7
S1133490AC84000000E100E07D17000040420F0012
S11334A0E57100007047000070B50C4B1B78002BD1
S11334B012D00B490B4C257810232370601C10226A
S11334C0094B9847112221008320084B9847257007
S11334D00122074B1A7070BD0649EBE74900002032
S11334E0AC020020980200208B750000653C0000AF
S11334F0CC020020BC0200207047000070B503001D
S11335000D00144C601C10221900134B9847647C66
S1133510124B1B78002B15D012220E498320104B1E
S1133520984700220D4B1A70002D05D0102209492E
S113353001312800084B9847064B5C741820094B4E
S1133540984770BD1122034901318420044B9847E8
S1133550EAE7C046980200208B750000CC020020E8
S1133560593F000055010000F0B5C64600B584B0CF
S113357005000E001400002817D000223E4B1A70DC
S113358002323E4B1A700E3201003D483D4B9846C4
S113359098473D4F10233B70781C10222900C047E8
S11335A0112239008320394B9847002C03D0012C79
S11335B02FD000201BE0314B1B78012B1BD02F4B4D
S11335C01C70002E02D00020022E10D13601702370
S11335D01E40E400683B1C4034432B4B1C70802687
S11335E0764234435C740122294B1A70012004B0E2
S11335F004BC9046F0BD244D0F332B70681C102280
S11336001F49204B98471122290083201F4B9847BC
S1133610D5E71A4B1B78012BD1D010221A4B1A7004
S1133620154B1B78002B0ED0174D681C102219491E
S1133630144B9847112229008320144B98470E4BB2
S113364001221A70BBE7104D2B7080336B740F3A54
S11336500F4B1A70002168460F4B984710232B70AC
S1133660012229008320094B98471022094984200C
S11336700A4B9847D8E7C046AA0200204900002018
S1133680BC0200208B75000098020020653C0000FD
S1133690CC020020AC020020FD340000D13D00002B
S11336A010B5010010228420014B984710BDC0467C
S11336B0D13D000010B50122034B1A61034B1B6876
S11336C0002B00D0984710BD00180040D002002005
S11336D030B585B0344A0023537093703F21117084
S11336E0324C21706370A370012269464A708B705A
S11336F00A703F202E4B98472278D10900230029D5
S113370004D15309DB012B498C4663441F2111402A
S11337100122100088409861274C227000236360C6
S1133720A36023746374A274E27423752332A354D4
S113373020001830183A0021204B984780235B0260
S1133740E3601F4BA3611F4BA36201235B42E3624F
S11337501D4B23631D4B63631D4D22001D4928002F
S11337601D4B98472A68D369002BFCD113680225A6
S11337702B43136001AC2000184B9847202301937E
S113378080239B0363602572012363720022A2726B
S1133790E37221000020124B9847002200211148B7
S11337A0114B984705B030BDFC12002000130020D7
S11337B03104000000440041041300209D75000002
S11337C000093D000500530005003E0005005200BD
S11337D03C130020001800429D080000A5030000CF
S11337E0B9030000B53600006102000070B5084C52
S11337F080252D02A56180225203064B5A61A52023
S11338004000054EB04765610A20B047A56170BD10
S113381080440041004400415501000070B582B06D
S11338200500EFF310835A425341019372B6BFF37C
S11338305F8F0022334B1A70019C334E013233499F
S11338403000334B9847336801211A7E0A42FCD07A
S11338501A7ED20702D5802215439D6202211A7E68
S11338600A42FCD004211A7E0A42FCD01A7E520776
S11338700CD55A8B520701D504225A83224A9279D5
S1133880012A34D09A6AD2B222490A8001211A7ECE
S11338900A42FCD01A7ED20701D500229A62022184
S11338A01A7E0A42FCD004211A7E0A42FCD01A7EF7
S11338B0002552070AD55A8B520701D504225A8390
S11338C0114A9279012A18D09D6AEDB200220F495B
S11338D00D480F4B9847FF23234205D00122094B83
S11338E01A70BFF35F8F62B6E8B202B070BD9A6A15
S11338F0D205D20D07490A80C8E79D6AED05ED0D92
S1133900E4E7C046080000203C1300200013002018
S1133910610B0000F8120020F0B583B006000C0023
S1133920EFF310835A425341019372B6BFF35F8F92
S11339300022344B1A70019D334F01323349380051
S1133940334B98473B6801211A7E0A42FCD01A7E09
S1133950D20702D5C02216439E6202211A7E0A4271
S1133960FCD004211A7E0A42FCD01A7E52070CD5E0
S11339705A8B520701D504225A83234A9279012A89
S113398033D09A6AD2B223490A8001211A7E0A42AC
S1133990FCD01A7ED20700D59C6202211A7E0A420C
S11339A0FCD004211A7E0A42FCD01A7E52070CD5A0
S11339B05A8B520701D504225A83134A9279012A59
S11339C019D09B6ADBB2134A138000220F490E48B8
S11339D00F4B9847FF232B4205D00122094B1A7045
S11339E0BFF35F8F62B603B0F0BD9A6AD205D20D01
S11339F008490A80C9E79B6ADB05DB0D054A138089
S1133A00E3E7C046080000203C1300200013002018
S1133A10610B0000F8120020F0B5D6464F4646462A
S1133A20C0B582B005000C00EFF310835A42534135
S1133A30019372B6BFF35F8F00223E4B1A70019B55
S1133A4098463D4F01323D4938003D4B98473B680D
S1133A5001211A7E0A42FCD01A7ED20701D5202207
S1133A609A6202211A7E0A42FCD004211A7E0A427A
S1133A70FCD01A7E52070CD55A8B520701D504226A
S1133A805A832D4A9279012A13D09B6ADBB22D4ABC
S1133A901380631EDBB2002C36D001339C46AC4449
S1133AA02027254E012000239A4602240421B146F2
S1133AB00FE09B6ADB05DB0D224A1380E9E74A46E7
S1133AC09279012A1CD09F6AFFB22F700135654597
S1133AD01AD033681A7E0242FCD01A7E024201D008
S1133AE052469A621A7E2242FCD01A7E0A42FCD0C6
S1133AF01A7E0A42E9D05A8B0A42E0D05983DEE7A3
S1133B009F6AFF05FF0DE0E700220C490A480C4BB1
S1133B109847FF234246134205D00122054B1A70F1
S1133B20BFF35F8F62B602B01CBC90469946A246B2
S1133B30F0BDC046080000203C1300200013002004
S1133B40610B0000F8120020F0B5C64600B582B043
S1133B5004000D00EFF310835A425341019372B6EF
S1133B60BFF35F8F00223A4B1A70019B9846394F7E
S1133B70013239493800394B98473B6801211A7E94
S1133B800A42FCD01A7ED20701D560229A62022131
S1133B901A7E0A42FCD004211A7E0A42FCD01A7E04
S1133BA052070CD55A8B520701D504225A83294A4D
S1133BB09279012A0BD09A6AD2B229490A80254AFD
S1133BC09279944621000127022004240DE09A6A88
S1133BD0D205D20D22490A80F1E76246012A1ED09D
S1133BE09A6AD2B21E4E32800131013DEDB2FF2DF0
S1133BF01BD01A7E3A42FCD01A7E3A4201D00A788F
S1133C009A621A7E0242FCD01A7E2242FCD01A7EAC
S1133C102242E9D05A8B2242DFD05C83DDE79A6AE4
S1133C20D205D20D0E4E3280DEE700220A49094841
S1133C300A4B9847FF234246134205D00122044B06
S1133C401A70BFF35F8F62B602B004BC9046F0BD39
S1133C50080000203C13002000130020610B00002A
S1133C60F8120020F0B5C64600B582B006000D007B
S1133C701400EFF310835A425341019372B6BFF319
S1133C805F8F00224D4B1A70019B98464C4F0132B6
S1133C904C4938004C4B98473B6801211A7E0A4234
S1133CA0FCD01A7ED20701D540229A6202211A7EE4
S1133CB00A42FCD004211A7E0A42FCD01A7E520722
S1133CC00CD55A8B520701D504225A833C4A927967
S1133CD0012A2BD09A6AD2B23C490A8001211A7E69
S1133CE00A42FCD01A7ED20700D59E6202211A7EB7
S1133CF00A42FCD004211A7E0A42FCD01A7E5207E2
S1133D000CD55A8B520701D504225A832C4A927936
S1133D10012A11D09A6AD2B22C490A80284A92798F
S1133D209446280001260225042113E09A6AD2054C
S1133D30D20D26490A80D1E79A6AD205D20D2349C9
S1133D400A80EBE76246012A1ED09A6AD2B21F4F5C
S1133D503A800130013CE4B2FF2C1BD01A7E32427F
S1133D60FCD01A7E324201D002789A621A7E2A422C
S1133D70FCD01A7E0A42FCD01A7E0A42E9D05A8B41
S1133D800A42DFD05983DDE79A6AD205D20D0F4F7C
S1133D903A80DEE700220B4909480B4B9847FF2382
S1133DA04246134205D00122044B1A70BFF35F8FC1
S1133DB062B602B004BC9046F0BDC04608000020C4
S1133DC03C13002000130020610B0000F8120020B7
S1133DD0F0B5D6464F464646C0B582B004000D0045
S1133DE017000120564B9847EFF310835A42534172
S1133DF0019372B6BFF35F8F0022524B1A70019B7E
S1133E009846514E013251493000514B984733681E
S1133E1001211A7E0A42FCD01A7ED20701D5002263
S1133E209A6202211A7E0A42FCD004211A7E0A42B6
S1133E30FCD01A7E52070CD55A8B520701D50422A6
S1133E405A83414A9279012A33D09A6AD2B24149BB
S1133E500A8001211A7E0A42FCD01A7ED20700D5BC
S1133E609C6202211A7E0A42FCD004211A7E0A4274
S1133E70FCD01A7E52070CD55A8B520701D5042266
S1133E805A83314A9279012A19D09B6ADBB2314AAA
S1133E9013807B1EDBB2002F3CD001339C46AC4424
S1133EA00027294E012000239A4602240421B1460A
S1133EB015E09A6AD205D20D26490A80C9E79B6AA1
S1133EC0DB05DB0D234A1380E3E74A469279012A96
S1133ED01CD09F6AFFB22F70013565451AD0336834
S1133EE01A7E0242FCD01A7E024201D052469A62E5
S1133EF01A7E2242FCD01A7E0A42FCD01A7E0A4262
S1133F00E9D05A8B0A42E0D05983DEE79F6AFF0565
S1133F10FF0DE0E700220D490B480D4B9847FF23A6
S1133F204246134205D00122064B1A70BFF35F8F3D
S1133F3062B602B01CBC90469946A246F0BDC0468B
S1133F4055010000080000203C130020001300204D
S1133F50610B0000F8120020F0B5D6464F464646E5
S1133F60C0B506008A4614000120764B984700210C
S1133F700020754B9847754F012275493800754BE1
S1133F8098473B6801211A7E0A42FCD01A7ED20768
S1133F9001D540229A6202211A7E0A42FCD00421F1
S1133FA01A7E0A42FCD01A7E52070CD55A8B52074D
S1133FB001D504225A83654A9279012A55D09A6A16
S1133FC0D2B265490A8001211A7E0A42FCD01A7EC7
S1133FD0D20700D59E6202211A7E0A42FCD0042137
S1133FE01A7E0A42FCD01A7E52070CD55A8B52070D
S1133FF001D504225A83554A9279012A3BD09A6A00
S1134000D2B255490A8001211A7E0A42FCD01A7E96
S1134010D20702D5524612789A6202211A7E0A42C7
S1134020FCD004211A7E0A42FCD01A7E52070CD519
S11340305A8B520701D504225A83444A9279012AA1
S11340401FD09B6ADBB2444A13800027002C43D064
S11340505646013CE4B20134A244D04600273B4D0D
S1134060012002240421A9461BE09A6AD205D20D3C
S113407039490A80A7E79A6AD205D20D36490A80DF
S1134080C1E79B6ADB05DB0D334A1380DDE74A4653
S11340909279012A1CD09F6AFFB237700136B0456D
S11340A01AD02B681A7E0242FCD01A7E024201D03A
S11340B072789A621A7E2242FCD01A7E0A42FCD09E
S11340C01A7E0A42E9D05A8B0A42E0D05983DEE7CD
S11340D09F6AFF05FF0DE0E71C4B1B6801211A7E58
S11340E00A42FCD01A7ED20701D500229A6202212C
S11340F01A7E0A42FCD004211A7E0A42FCD01A7E9F
S113410052070AD55A8B520701D504225A830F4A03
S11341109279012A11D09F6AFFB253461F70002280
S11341200B490A480B4B9847002100200B4B98473A
S11341301CBC90469946A246F0BD9F6AFF05FF0D40
S1134140EBE7C04655010000AD0200003C1300201F
S113415000130020610B0000F81200208D02000003
S113416080221203014BDA617047C04600440041CB
S113417010B580221203034B9A610348034B9847FE
S113418010BDC04600440041E80200200532000092
S1134190F8B504000020002902D02378102B00D0A9
S11341A0F8BD0529FCD1124E3000124FB847124D0C
S11341B02800B8476278A3781B021343B360002336
S11341C033730E4B336130000D4EB047E2782379E0
S11341D01B021343AB6001232B730A4B2B61280092
S11341E0B04780221203084B5A610120D8E7C04629
S11341F0D402002005320000E802002071410000D2
S1134200713200006141000000440041054B00226E
S11342101A73054A1A61054B01221A73044A1A617A
S11342207047C046D402002071410000E80200201B
S11342306141000010B5017A4068014B984710BDF8
S11342409141000010B5084B9847084B984701224C
S1134250074B1A70BFF35F8F62B6064B9847064B45
S11342609847064CA047FDE7C1190000150100005E
S113427008000020FD1F0000E94300000144000085
S113428080221203014BDA617047C04600440041AA
S1134290002803D00222034B1A7070470522014BF9
S11342A01A70FAE75003002030B583B0002824D0F8
S11342B04B7A002B1BD10A001B320123DCB2A04233
S11342C017D91D00147801331232002CF6D0EB00FC
S11342D05A19520010328A185B195B00C918087BFE
S11342E0084B009306230221074CA04708E0002551
S11342F0EDE70222054B1A7002E00222034B1A700A
S113430003B030BD91420000B16B000050030020A7
S113431010B5064B1B78082B03D00548054B98476E
S113432010BD0522014B1A70FAE7C0465003002065
S1134330481300207132000010B54368802109033E
S1134340044AD161827A5A76427A9A76024B984725
S113435010BDC046004400413542000010B5802223
S11343601203144B9A61002911D1134B1B78002BB3
S113437004D0124B1B78062B18D010BD0D4B5A617C
S11343800F48104B984701220B4B1A70F1E70A4B68
S11343901B78002BEDD080221203064B9A6108484B
S11343A0094B98470022044B1A70E2E70722034B9B
S11343B01A70E2E700440041380300205003002053
S11343C03C030020053200007132000010B50222C7
S11343D0024B1A700248034B984710BD500300204B
S11343E0481300200532000010B502490248034B6F
S11343F0984710BD0C0000203000002095490000B3
S1134400F0B5C64600B586B0724B9847724B1B7820
S1134410022B64D0DAB2022A0AD9052B69D0072B01
S113442059D16E486E4B984708226B4B1A7052E074
S1134430002B50D16B4801250570022646700024DC
S1134440002242808280C28002810023438188232B
S11344505B04C36080239B040361C27502764476C7
S11344608476C5760C230377030042778277C2777C
S11344701D33DA70030021331A705A709A70DA709F
S1134480030025331A705A709A70DA702032292387
S1134490C2540F3A0133C2542B305349534B9847FB
S11344A04E4B534A9A601C73524A1A61524B1C7009
S11344B05248FA239B0083600573514B0361484BB8
S11344C09847504B98475048504B98475048514B49
S11344D09847414B1E7006B004BC9046F0BD4E4A4E
S11344E0802189040A204D4B984703223A4B1A70C5
S11344F0F1E712256D4401235B422B8005AE338026
S113450017336B449846002342461380354C2300EE
S11345100B2262770022A277E2771D33DA70230040
S1134520213316321A7000225A709A70DA702300FE
S1134530253321321A7000225A709A70DA702900D9
S11345400220374FB8472B88638163801B0CA380FC
S11345500023E38023810020324B9847E075000A52
S11345602076210016310020B84731000120B847D9
S11345703388A382802212032B4B5A6120222923E1
S1134580E2540F3A0133E25420002B301649174B02
S113459098472A88200035302449254B9847254BD5
S11345A0029301230193244B1B78009323003C22A4
S11345B041460220214CA047002803D10722064B84
S11345C01A7088E71C4A1378013313700622024BD1
S11345D01A7080E7D54A00005003002048130020D9
S11345E071320000FC020020B08400008B750000D2
S11345F01027000011430000380300203C03002072
S1134600814200000D42000039430000795D000042
S1134610CD4300008D6F0000A9420000A16C000092
S1134620B54C0000FD4C000000440041BC84000077
S1134630197700005D43000051030020714B000016
S113464010B5041C134B9847134B1A786243811816
S1134650124B59605968090C59605B68002B07D0EC
S11346600E4B59680132801818810D4B984704E0AD
S113467082180A4B1A810B4B9847084B1B89632BF2
S113468002D86433054A1381044B1889064B9847B2
S113469010BDC046353300005C13002054030020D5
S11346A0493300005D3300009933000008B500224F
S11346B0034B1A70034B9847034B187008BDC04650
S11346C054030020B13300005C13002008B50E4BE6
S11346D05B68002B07D00C4A5368013B5360002BE6
S11346E001D10A4B9847084A13780133DBB213709F
S11346F0074A12789A4206D8034B00221A70DB68E4
S1134700002B00D0984708BD540300205D330000FF
S11347105C13002008B5044B9847044B1B69002B1D
S113472000D0984708BDC046493300005403002018
S1134730014B18617047C0465403002070B5012432
S1134740074B1C70074C23681B69002B04D0984747
S1134750054D2068A84770BD1000034DA847F8E731
S11347604A0000208413002029300000F0B546469A
S1134770D6464F46C0B5234E337A002B33D0224B56
S113478000259846214B224F9A46C14616E0437CA9
S1134790002B2DD0013BDBB24374002B28D183685E
S11347A0002B03D0807C2200032198472000194B62
S11347B098470135337AEDB2AB4214D90021300069
S11347C0B847041E0FD0037C002B04D0013BDBB29E
S11347D00374002BDBD021003000C0470135337A4D
S11347E0EDB2AB42EAD81CBC90469946A246F0BD55
S11347F053461B682100DB7A300001332374C84719
S1134800D7E7C04674130020093100006C13002060
S11348104131000029300000F0B5DE4657464546D8
S11348204E46E0B5937883B0824698461000324BEA
S1134830934601919847FF22304B1B881A4256D168
S11348402F4E337A002B31D02E4B00242E4F994615
S113485007E029003000C8470134337AE4B2A342A8
S113486024D900213000B847051E1FD02023C35C83
S11348704345EED1807C5045EBD1019B002B2AD0DF
S11348806B7C002B19D0013BDBB26B74002B14D171
S1134890AB68002B02D05A4601999847164B280062
S11348A098470134337AE4B2A342DAD803B03CBC6B
S11348B090469946A246AB46F0BD144B1B78082B94
S11348C0E6D0290030000F4B9847A989104A2800E8
S11348D0104B9847C0E7104B29001A683000D37A70
S11348E001332B74137B6B74064B9847B4E7019820
S11348F00A4B9847A4E7C04629300000B4130020AF
S113490074130020093100004131000068030020C5
S113491019480000B56300006C130020A16F00006B
S1134920F0B5C646154E00B58046100015000F00C0
S1134930B047134B002113489847FF22124B040041
S11349401B881A4210D1002C13D0A368002B03D06B
S11349502A00390040469847237D002B01D12000CE
S1134960B04704BC9046F0BD3800084B9847002C73
S1134970EBD1074B1B78082BF3D1E6E72930000075
S11349804131000060130020B4130020A16F000027
S11349906803002070B5204B84B018601F4B0125BC
S11349A019601F4B984702211E4C1F4B02AA2380FB
S11349B0137801260B4387210B4040210B43C3216D
S11349C00B40AB43137019490298194B9847194B84
S11349D098476B467642981D2100174B06809847EE
S11349E01649174B00209847164B174C1D70174B50
S11349F017481E80A0471748A0471748A047FA2326
S1134A0016489B008360164B05730361154B98474A
S1134A10012004B070BDC0466C1300207013002048
S1134A20C9310000A0130020341200004C00002003
S1134A30AD210000C12B00004D2100008013002097
S1134A408521000068030020FD300000B41300201D
S1134A507413002060130020A81300206C030020AE
S1134A606D4700007132000030B50C0083B002289D
S1134A7015D080280CD0002802D0002003B030BD0F
S1134A800E4B98470028F9D022780D4B1A70F5E7A1
S1134A900B7801205A1E93410A4A1370EEE70B78F3
S1134AA001AD2B704B7828006B700749074B984772
S1134AB00028E3D02A88064B1A80DFE7852100000E
S1134AC0801300204B000020A01300204D21000083
S1134AD0B413002070B5194B84B098471848037A72
S1134AE0002B03D0174C2378002B0CD1164B98477E
S1134AF0002804D0154B16489847164B9847164B78
S1134B00984704B070BD154B1D78002DEED10021DF
S1134B10134B9847021EE9D0124B1349186043699E
S1134B2002912521415C114E01912421415C0091A7
S1134B30D1698069126AB0472570D7E75928000007
S1134B40A81300204A00002095240000A95F00005B
S1134B508C1300207924000091320000840300208B
S1134B6041310000841300203D4700001922000059
S1134B70F0B557464E464546DE46E0B583B01E00C6
S1134B800CAB1F780DAB1C783D4B15001B78063B16
S1134B90012B07D9002003B03CBC90469946A2469D
S1134BA0AB46F0BD0228F5D14B780A781B021A43B4
S1134BB08E30344B9146984780460028EAD0032231
S1134BC0437E1021934343766A464B46D380D38871
S1134BD08B4699462C4B4A469A461B888283C3834C
S1134BE0012323401A01437E8B4313434376382326
S1134BF0C55400230E9AC374037582608774234BD3
S1134C002A00310039309847214B994514D853462E
S1134C10FF221B88934342469381002C1DD1547478
S1134C2041461C481C4B984743461C4A99894046B8
S1134C301B4B98470120AEE743465A465B7E4146EC
S1134C409343424613485376134B9847134A1549E6
S1134C504046134B984701209DE74146124B1348A9
S1134C601A68D37A01330B74137B4B740A4B98473D
S1134C7043460F4A99894046094B984720008AE7E2
S1134C8068030020E12F0000B41300208B7500009E
S1134C90FCFF0000601300200931000021490000DE
S1134CA0B5630000FFFF00006C13002074130020A4
S1134CB019480000012816D000280FD0022809D076
S1134CC0032809D1094B01201A880A701B881B0A82
S1134CD04B707047064BF6E70020FAE7054B0120BE
S1134CE01B780B70F5E7044BEDE7C0465400002039
S1134CF0B413002080130020A0130020024B188856
S1134D00FF2398437047C046B4130020F0B54E46C5
S1134D10DE4657464546E0B5F54B87B01B78039011
S1134D200E000093002B01D000F065FE11780B02F9
S1134D30490209B218B28C46804660464446ED49A1
S1134D405B0041409BB289B20493181C002C01DA29
S1134D5000F05BFE84B2E7496400614009B289B2A5
S1134D604400030401D500F053FEA0B2E149400021
S1134D70414089B26000230401D500F054FE84B29E
S1134D80DC496400614089B24400030401D500F0A9
S1134D9055FEA0B2D7494000414089B260002304C7
S1134DA001D500F056FE84B2D2496400614089B254
S1134DB04400030401D500F057FEA0B2CD494000E1
S1134DC0414089B26000230401D500F058FE84B24A
S1134DD0C849640061400124145789B22402450083
S1134DE0030401D500F04EFE65402DB2A9B2C148BE
S1134DF04900484080B2002D01DA00F046FEBD486B
S1134E008DB26D004540ADB248000B0401D500F0F1
S1134E1047FE85B2B7496D00694089B24500030475
S1134E2001D500F048FEA8B2B2494000414089B221
S1134E3068002B0401D500F049FE85B2AD496D0030
S1134E40694089B24500030401D500F04AFEA8B2C6
S1134E50A8494000414089B268002B0401D500F004
S1134E604BFE85B2A3496D00694089B24500030435
S1134E7001D500F04CFEA8B29E49400041400220FA
S1134E8010566F0089B20002B9462B0401D500F018
S1134E9041FE4D4645402DB2A9B2490089464F46D0
S1134EA09449794089B28A464946002D01DA00F0D6
S1134EB034FE8DB26D00A9464F468E4D7D40ADB295
S1134EC0A9464D000B0401D500F02AFEA9B2490001
S1134ED089464F46874979406F0089B2B9462B0409
S1134EE001D500F020FE49466B468DB29980814978
S1134EF06D0069404F464D4689B26D003B0401D5B3
S1134F0000F014FEA9B2490089464F467949794018
S1134F106F0089B2B9462B0401D500F00AFE494658
S1134F206B468DB2998073496D0069404F464D467A
S1134F3089B26D003B0401D500F0FEFDA9B2490021
S1134F4089464F466B4979406F0089B2BA462B04B3
S1134F5001D500F0F4FD51466B468DB29980654948
S1134F606D00694089B2894603215546574651561A
S1134F706D0009023B0401D500F0E4FD4D402DB263
S1134F806B46A9465B4FADB26D006F409F80BFB2C8
S1134F90BA464F46002F01DA00F0D7FDAFB27F00CA
S1134FA0BA46544FB94657464B465F403B1C6F4682
S1134FB0BB80BB889A466B0099462B0401D500F050
S1134FC0C7FD4B466D46AB80AD886B00494D5D40D7
S1134FD04B465B009A464B46ADB21B0401D500F02C
S1134FE0BAFD53466D46AB80AD886B00414D5D40C4
S1134FF053465B0099465346ADB21B0401D500F0FD
S1135000ADFD4B466D46AB80AD886B00394D5D40C0
S11350104B465B009A464B46ADB21B0401D500F0EB
S1135020A0FD53466D46AB80AD886B00314D5D40AD
S113503053465B0099465346ADB21B0401D500F0BC
S113504093FD4B466D46AB80AD886B00294D5D40AA
S11350504B465B009A464B46ADB21B0401D500F0AB
S113506086FD53466D46AB80AD886B00214D5D4097
S1135070ABB20425555799462B029B4653465D0017
S11350801B0401D500F076FD5B465D402BB26D46F6
S11350909946AB80174BAD881F006D006F403B1CD9
S11350A06F46BB80BB889A464B46002B01DA00F062
S11350B064FDABB25B009A4657460E4B5F403B1C07
S11350C06F46BB80BB889A466B0099462B0401D57A
S11350D000F056FD4B466D46AB80AD886B00054D28
S11350E05D404B465B009A464B46ADB204E0C04679
S11350F04B000020211000001B0401D500F043FDEB
S113510053466D46AB80AD886B00E94D5D40534618
S11351105B0099465346ADB21B0401D500F036FD41
S11351204B466D46AB80AD886B00E14D5D404B4610
S11351305B009A464B46ADB21B0401D500F029FD35
S113514053466D46AB80AD886B00D94D5D405346E8
S11351505B0099465346ADB21B0401D500F01CFD1B
S11351604B466D46AB80AD886B00D14D5D404B46E0
S11351705B009A464B46ADB21B0401D500F00FFD0F
S113518053466D46AB80AD886B00C94D5D40ABB2F4
S11351900525555799462B02019353465D001B0480
S11351A001D500F0FFFC019B5D402BB26D46994692
S11351B02B81BF4B2D891F006D006F403B1C6F4638
S11351C03B813B899A464B46002B01DA00F0EDFC0B
S11351D0ABB25B009A465746B54B5F403B1C6F46EB
S11351E03B813B899A466B0099462B0401D500F01C
S11351F0DFFC4B466D462B812D896B00AC4D5D4029
S11352004B465B009A464B46ADB21B0401D500F0F9
S1135210D2FC53466D462B812D896B00A44D5D4015
S113522053465B0099465346ADB21B0401D500F0CA
S1135230C5FC4B466D462B812D896B009C4D5D4012
S11352404B465B009A464B46ADB21B0401D500F0B9
S1135250B8FC53466D462B812D896B00944D5D40FF
S113526053465B0099465346ADB21B0401D500F08A
S1135270ABFC4B466D462B812D896B008C4D5D40FC
S11352804B465B009A464B46ADB21B0401D500F079
S11352909EFC53466D462B812D896B00844D5D40E9
S11352A0ABB20625555799462B02029353465D002F
S11352B01B0401D500F08EFC029B5D402BB26D46B1
S11352C09946AB827A4BAD8A1F006D006F403B1C40
S11352D06F46BB82BB8A9A464B46002B01DA00F02C
S11352E07CFCABB25B009A465746714B5F403B1C5B
S11352F06F46BB82BB8A99466B009A462B0401D544
S113530000F06EFC53466D46AB82AD8A6B00684D6F
S11353105D4053465B0099465346ADB21B0401D52C
S113532000F061FC4B466D46AB82AD8A6B00604D6C
S11353305D404B465B009A464B46ADB21B0401D51B
S113534000F054FC53466D46AB82AD8A6B00584D59
S11353505D4053465B0099465346ADB21B0401D5EC
S113536000F047FC4B466D46AB82AD8A6B00504D56
S11353705D404B465B009A464B46ADB21B0401D5DB
S113538000F03AFC53466D46AB82AD8A6B00484D43
S11353905D4053465B0099465346ADB21B0401D5AC
S11353A000F02DFC4B466D46AB82AD8AD2796B0082
S11353B03F4D52B25D4013029A464B46ADB25A007D
S11353C01B0401D500F01EFC53465A40384B12B260
S11353D01F0095B26D006F403B1C6F46BB82BB8AB9
S11353E0ADB2002A00DA0EE32A1C6F4695B26B00B8
S11353F02F4D5D405300BB82BB8AADB29946130466
S113540001D500F0B4FC4A466F4695B26B00284DB6
S11354105D405300BB82BB8AADB29946130400D4ED
S11354204D466F46AAB25300214A5A406B00BB82D4
S1135430BB8A92B299462B0400D44A466F4695B271
S11354406B001B4D5D405300BB82BB8AADB29946D5
S1135450130400D44D466F46AAB25300144A5A406E
S11354606B00BB82BB8A92B299462B0400D44A4695
S113547095B26B000E4D5D40ABB255009946ADB28E
S1135480130401D500F070FC2A1C95B213B21F005E
S11354906B00074D52005D40ABB2059393B2994641
S11354A06346044A45465A406B4692B21B8A03E05F
S11354B0211000000580FFFF002D01DA00F051FCEF
S11354C09DB2E94A6D006A4012B295B25A0092B296
S11354D01B0401D500F042FCE34B95B26D005D4026
S11354E05300ADB29BB2120401D500F034FCDE4A85
S11354F09DB26D0055405A00ADB292B21B0401D565
S113550000F026FCD84B95B26D005D405300ADB25F
S11355109BB2120401D500F018FCD34A9DB26D0071
S113552055405A00ADB292B21B0401D500F00AFCFA
S1135530CD4B95B26D005D405300ADB29BB21204E9
S113554000D5C1E39AB2C84D520055405A00ADB2DD
S113555092B21B0400D5B5E3544024B2A2B2C24BAC
S1135560520053409DB293B2002C00DAA8E3BE4A25
S11355709CB2640054405A00A4B292B21B0400D5F9
S11355809CE3B94B94B264005C405300A4B29BB258
S1135590120400D590E3B44A9CB2640054405A000B
S11355A0A4B292B21B0400D584E3AF4B94B264005E
S11355B05C405300A4B29BB2120400D578E3AA4A1B
S11355C09CB2640054405A00A4B292B21B0400D5A9
S11355D06CE3A54B94B264005C405300A4B29BB24C
S11355E0120400D560E39AB29F4C520054405A0012
S11355F0A4B292B21B0400D554E3504000B282B26C
S1135600994B520053409CB293B2002800DA47E30E
S1135610954A98B2400050405A0080B292B21B049E
S113562000D53BE3904B90B240005840530080B209
S11356309BB2120400D52FE38B4A98B2400050402D
S11356405A0080B292B21B0400D523E3864B90B279
S113565040005840530080B29BB2120400D517E3B7
S1135660814A98B2400050405A0080B292B21B0462
S113567000D50BE37C4B90B240005840530080B2FD
S11356809BB2120400D5FFE29AB277485200504010
S11356905A0080B292B21B0400D5F3E2514009B221
S11356A08BB2714A5B005A4092B2002900DAE7E2F9
S11356B06D4A99B24900514089B25A001B0400D581
S11356C0DCE291B2684B49004B409BB2510012049A
S11356D000D5D1E28AB2644B520053409BB24A00D7
S11356E0090400D5C6E291B25F4B49004B409BB21E
S11356F05100120400D5BBE28AB25B4B5200534006
S11357009BB24A00090400D5B0E291B2564B49005D
S11357104B409BB25100120400D5A5E28AB2524B11
S1135720520053409BB24A00090400D59AE25B46FA
S113573053401AB293B24C495B00594089B2002AD3
S113574000DA8DE299B2484A49004A4092B25900BF
S11357501B0400D582E28AB2434B520053409BB2F1
S11357604A00090400D577E291B23F4B49004B400F
S11357709BB25100120400D56CE28AB23A4B52003B
S113578053409BB24A00090400D561E291B2364B02
S113579049004B409BB25100120400D542E28AB248
S11357A0314B520053409BB24A00090400D543E2F6
S11357B091B22D4B49004B409BB25500120400D5C9
S11357C044E2019B284A6B401DB2ABB25B005A40D5
S11357D092B2002D00DAA7E299B2234A49004A4066
S11357E092B259001B0400D59CE28AB21E4B5200AF
S11357F053409BB24A00090400D591E291B21A4B7E
S113580049004B409BB25100120400D586E28AB293
S1135810154B520053409BB24A00090400D57BE269
S113582091B2114B49004B409BB25100120400D578
S113583070E28AB20C4B520053409BB24A000904F6
S113584000D565E291B2084B49004B409BB255002C
S1135850120400D55AE2029B034A6B401DB2ABB25C
S11358605B005A4092B201E00580FFFF002D00DA90
S11358704AE299B2E84A49004A4092B259001B04EC
S113588000D53FE28AB2E44B520053409BB24A0037
S1135890090400D534E291B2DF4B49004B409BB27E
S11358A05100120400D529E28AB2DB4B5200534066
S11358B09BB24A00090400D51EE291B2D64B4900BE
S11358C04B409BB25100120400D5FFE18AB2D24B87
S11358D0520053409BB248000A0400D500E282B251
S11358E0CD4B520053409BB24200010400D501E26B
S11358F0534653401AB291B2C74B49004B4098B239
S11359008BB2002A00DA1BE2C34A99B24900514023
S11359105A0089B292B21B0400D50FE2BE4B91B279
S113592049005940530089B29BB2120400D503E2E6
S1135930B94A99B2490051405A0089B292B21B0443
S113594000D5F7E1B44B91B249005940530089B2F4
S11359509BB2120400D5EBE1AF4A99B24900514021
S11359605A0089B292B21B0400D5DFE193B2AA4C6B
S11359705B005C40A1B25400A4B2130400D549E119
S113598023B2A2B29B46A44B52005340F5009BB2F3
S11359906400013D9846A4B2EDB2002F00DA36E16E
S11359A048469E4B80B229009A4698475B468946F2
S11359B0002B00DA29E1A0B22900D047CBB2DB08E2
S11359C0039F0133F31A6A46F85C4B46137113794B
S11359D00122DB080133F61A07244B461500234045
S11359E09D40BB5D1D4206D021408A400240501EAE
S11359F08241D3B20093009807B03CBC90469946CC
S1135A00A246AB46F0BD1A1CEFE4081CFFF7A2F94E
S1135A100C1CA0B282494000414089B260002304BA
S1135A2001D4FFF7ACF9081C84B27D4964006140DD
S1135A3089B24400030401D4FFF7ABF90C1CA0B2F3
S1135A4077494000414089B26000230401D4FFF744
S1135A50AAF9081C84B272496400614089B2440006
S1135A60030401D4FFF7A9F90C1CA0B26C4940004F
S1135A70414089B26000230401D4FFF7A8F9081C4F
S1135A80FFF7A5F90D1CFFF7AFF9011C8DB26448AF
S1135A906D004540ADB248000B0401D4FFF7B9F9DD
S1135AA0281C85B25E496D00694089B24500030433
S1135AB001D4FFF7B8F90D1CA8B259494000414080
S1135AC089B268002B0401D4FFF7B7F9081C85B22A
S1135AD053496D00694089B24500030401D4FFF7BE
S1135AE0B6F90D1CA8B24E494000414089B2680085
S1135AF02B0401D4FFF7B5F9081C85B248496D00A1
S1135B00694089B24500030401D4FFF7B4F90D1CC0
S1135B10FFF7B1F98946FFF7BCF95146FFF7C9F918
S1135B204D46FFF7D3F98946FFF7DDF90D1CFFF762
S1135B30E9F98946FFF7F3F90D1CFFF7FFF98A46E7
S1135B40FFF709FA4D46FFF719FA5546FFF726FA0B
S1135B50D146FFF736FAAA46FFF743FAA946FFF7FC
S1135B6050FAAA46FFF75DFAA946FFF76AFAAA4671
S1135B70FFF777FA4D46FFF787FA5546FFF799FA8C
S1135B80D146FFF7A7FAAA46FFF7BAFAA946FFF7E4
S1135B90C7FAAA46FFF7D4FAA946FFF7E1FAAA46DC
S1135BA0FFF7EEFA4D46FFF7FEFA5546FFF710FBF6
S1135BB0D146FFF71EFBAA46FFF72BFBA946FFF7CA
S1135BC038FBAA46FFF745FBA946FFF752FBAA4656
S1135BD0FFF75FFB4D46FFF76FFB5546FFF781FB71
S1135BE0CA46FFF78FFBA946FFF79CFBAA46FFF7BF
S1135BF0A9FBA946FFF7B6FBAA46FFF7C3FBA946D4
S1135C00FFF7D0FB2A1CFFF7DFFB4446D3E66B46C5
S1135C10988AC6E60C1CB3E60580FFFFC574000035
S1135C2021100000191C8AB2524B520053409BB2FF
S1135C304A00090400D4BBE51A1C91B24D4B49003B
S1135C404B409BB25500120400D4BAE51D1CB8E5C4
S1135C501A1C9BE5191C90E51A1C85E5111C7AE5B4
S1135C600B1C6FE51A1C62E5191C57E51A1C4CE560
S1135C70191C41E51A1C36E5191C2BE50A1C20E504
S1135C80131C15E5021C09E5031CFDE4021CF1E4E8
S1135C90031CE5E4021CD9E4031CCDE4021CC1E4AA
S1135CA0231CB5E4221CA8E4231C9CE4221C90E4DD
S1135CB0231C84E4221C78E4231C6CE4221C60E48E
S1135CC02B1C54E42A1C47E42B1C3BE4191C8AB209
S1135CD0284B520053409BB248000A0400D4FEE50E
S1135CE0181C82B2234B520053409BB24200010461
