S02B0000476174657761795F7630315F776974686F75745F504C435F736F757263655F766572332E7372656371
S1130000602E00203955000035550000355500009C
S113001000000000000000000000000000000000DC
S11300200000000000000000000000003555000042
S113003000000000000000003555000035550000A8
S11300403555000035550000355500003555000084
S1130050953F00003555000035550000355500002A
S11300603555000001450000114500002145000000
S11300703145000041450000514500009938000019
S1130080A9380000B93800001552000025520000BC
S1130090355200000000000000000000355500004B
S11300A03555000000000000355500000000000038
S11300B00000000010B5064C2378002B07D1054B37
S11300C0002B02D0044800E000BF0123237010BDC0
S11300D08000002000000000ECA50000084B10B5D3
S11300E0002B03D00749084800E000BF0748036815
S11300F0002B00D110BD064B002BFBD09847F9E72D
S11301000000000084000020ECA50000ECA5000025
S11301100000000010B5034B1B68002B00D098476B
S113012010BDC0469C00002070B5441E002804D0B9
S1130130024D0120A847013CFBD270BD8D3E00005A
S1130140F8B5074C80273F0467618025AD016561E0
S11301500120044EB047A7610A20B047A561F8BD4D
S1130160004400412901000070B582B00023164A02
S1130170136001AC01256570A370257021000D206A
S1130180124EB04721001720B04721001C20B04771
S11301900F4B802212045A61802292015A610D4B46
S11301A01B681D4203D00B4B1B689B0701D40A4BF1
S11301B098470A4B98470122094B1A70BFF35F8F87
S11301C062B6002002B070BD9C000020F94000001F
S11301D00044004110E000E0213E00004101000025
S11301E00C00002010B584B00E4B186001AC200048
S11301F00D4B984716230193B0235B0363600123DF
S113020023720133E37221000620084B9847002231
S113021006210748074B984700210620064B9847BC
S113022004B010BD9C0000206D400000814000001F
S113023015010000293F0000553F000010B50028BB
S113024004D100210620044B984710BD002106204C
S1130250024B9847F9E7C046753F0000553F000040
S113026030B591B0304C2323237000236370A37006
S113027001A901224A708B700A7023202B4B9847E6
S11302802278D1090023002904D15309DB0128492C
S11302908C4663441F21114001221000884098615C
S11302A002AC227000230393049323746374A27436
S11302B0E27423752332A354183A002108A81D4B75
S11302C0984780235B02E3601B4BA36201235B42DC
S11302D0E3621A4B23631A4B63631A4BA361220034
S11302E019491A481A4B984700281AD1174D2C68F7
S11302F02000184B98471F2318401E3B8340164A82
S113030013602A68D369002BFCD1236802221343AB
S11303102360124B98470120114B9847002011B0DD
S113032030BD06204042FAE7E00A0020F940000010
S1130330004400411F800000030022000300360037
S113034003003700001BB700001C0042E40A002031
S113035061450000D144000000E100E041010000DB
S113036029010000F0B5DE4657464E464546E0B545
S113037083B0032800D075E00E684D680C89002214
S11303806B46DA71002D27D0002C65D0002E00D1E9
S113039076E00023984600239B4601223B493C48D3
S11303A03C4B98473A4B9A460127042299465946B2
S11303B04B4259418B46307853461B68197E39426B
S11303C0FCD0197E3942FCD09862197E1142FCD0CF
S11303D0494689798C4611E0002E3AD0002C3ED053
S11303E00023984601339B466B46DD1DD5E76046E6
S11303F001280DD0986AC0B200290DD0197E11428F
S1130400FCD0588B00211042F1D05A831E31EEE704
S1130410986AC005C00DEFE72870013CA4B25D44A2
S1130420434659424B41F618002CC4D1184B196865
S113043002220B7E1342FCD0002214491448154BAF
S11304409847002003B03CBC90469946A246AB4670
S1130450F0BD0F204042F5E70F204042F2E70F20A5
S11304604042EFE7FD220C490C480D4B98470D48DC
S11304700D4B98470D200D4B984701204042E1E772
S1130480012398466B46DE1D85E7C046E00A00203E
S1130490E40A0020394700007492000084920000AE
S11304A031800000989200004D81000065800000BA
S11304B030B583B001AB00221A709A705A70134D94
S11304C02C682000124B98471F2318401E3B834082
S11304D0802210498B502A68D369002BFCD18F33BA
S11304E023752376236802229343236001A93620CF
S11304F0094CA04701A92220A04701A93720A04701
S113050001A92320A047002003B030BDE40A002045
S1130510D144000000E100E0F9400000002A06D0C8
S113052082180B780370013001319042F9D1704781
S1130530002A04D08218017001309042FBD1704728
S113054003000278002A07D00020013080B2013372
S11305501A78002AF9D170470020FCE7024AD378C0
S11305600133DBB2D3707047200B002070470000CA
S113057000B583B000220A4B9A700120094B9847BA
S113058001A90948094B9847002801D003B000BDD0
S11305900221019B194301910348054B9847F5E754
S11305A0200B00203D020000701000007D190000A7
S11305B08919000010B50C4B9B780020002B0DD13D
S11305C0094B5B78002B03D1074B1B78002B06D11A
S11305D0054A53780133DBB25370002010BD034B3E
S11305E098470028F4D0F9E7200B00206516000096
S11305F0054B5B78002B04D0034A5378013BDBB2F4
S1130600537000207047C046200B002010B50B4BE0
S11306105B78002B04D0094A5378013BDBB253705A
S1130620064B5B780020002B03D1044B1B78002B76
S113063000D110BD024B9847FBE7C046200B0020B9
S1130640FD150000F0B5DE46574680B589B08346F7
S11306508A460192009310AB80CB1E8812AB1D8892
S11306607F220A4007AB5A70187008225A80002F64
S11306703DD05A889219AA1892B25A80694B984769
S1130680041E00D0C1E00023059302AAD380049382
S1130690049B5A461A430492049A53461B0213437A
S11306A0049307AB5B88049A1B04134304930499D3
S11306B05D485E4B9847041E57D100230493049B66
S11306C002221343049304995948584B9847041E33
S11306D04BD10022059202ABDA8006331B889BB211
S11306E0544A934249D8544C544B9A4617E007ABAA
S11306F05A8800998C46624492B25A80BEE701201F
S1130700D047049B9B0728D502ABDA88013292B20A
S1130710DA8006331B889BB2464A93422DD804A93B
S11307204348A047002828D102AB06331B889BB25C
S1130730F422FF329342E4D902AB06331B889BB206
S113074001329342DBD83E483E4B98473E483F4BEC
S113075098470D203E4B9847D1E705A93D48364BB5
S11307609847041E09D0002305933B4B984720006B
S113077009B00CBC92469B46F0BD059B002B3FD0B4
S1130780059B069307A94B889BB24B8006980822C9
S1130790324B9847041EE8D1069B08330693019B0D
S11307A0002B0BD00698009A19002C4B9847041E76
S11307B0DBD1069B009A944663440693002F0ED027
S11307C0069B009AAD1AED1806950698320039007A
S11307D0224B9847041EC8D1069BF3180693059B29
S11307E09B000493049B02221343049304991C4822
S11307F00E4B9847041EB8D11A4B98470400B6E72D
S1130800184B984703246442B1E79A22FF321649F1
S113081016480C4B984716480C4B98470D200C4B28
S11308209847A4E7B50500008C1000008919000062
S113083078100000E70300007D1900002901000082
S1130840B495000031800000C09500004D81000087
S11308506580000000041500F1050000FD1900008A
S11308606C1000000D060000CC9200008492000081
S1130870D0950000F0B5CE46474680B587B0CF4B43
S11308809846994681E0CD4B059A5A609D6004AF25
S1130890042239000598CA4B984704007B889BB210
S11308A07B80002834D104AB5B889BB29D4204D08A
S11308B004AB5B88EB1A042B3ADC04AB1B78012BEA
S11308C04FD004AB1B78022B79D004AB1B78042BDC
S11308D000D191E004AB1B78062B00D1A9E004AB56
S11308E01B78072B00D1C1E004AB1B78052B00D18A
S11308F0D8E085229200B349B348B44B9847B44832
S1130900B44B98470D20B44B98470624644215E134
S1130910EB225200AB49AC48AC4B9847AF48AD4BC7
S113092098470D20AC4B98470120AD4B984705E103
S1130930E022FF32A349A448A44CA04704A94A8852
S113094092B20B78DBB2497800912900A548A04700
S11309500D20A14B98470120A14B984706246442DF
S1130960ECE0964BDB68002B1CD0944BDB6804AAAC
S11309705078C0B25188059A0832083989B298472C
S11309808E4B9B78002B00D09DE04346DB78002BF8
S113099000D157E14B46DB78013BDBB24A46D370CA
S11309A0914ED6E0EC22FF3286498748874B984720
S11309B08E48884B98470D20874B9847E0E77F4B3C
S11309C01B69002B0BD07D4B1B6904AA5078C0B265
S11309D05188059A0832083989B29847D0E7F42239
S11309E0FF3278497848794B98478148794B984742
S11309F00D20794B9847C3E7704B5B69002B0BD0F4
S1130A006E4B5B6904AA5078C0B25188059A0832CB
S1130A10083989B29847B3E7FC22FF3269496A482A
S1130A206A4B984773486B4B98470D206A4B98471D
S1130A30A6E7624B1B6A002B0BD0604B1B6A04AA0F
S1130A405078C0B25188059A0832083989B298475B
S1130A5096E7812292005B495B485C4B9847664865
S1130A605C4B98470D205C4B984789E7534B9B6937
S1130A70002B0BD0514B9B6904AA5078C0B251880B
S1130A80059A0832083989B2984779E75B4A4D4993
S1130A904D484E4B98475A484E4B98470D204E4B65
S1130AA098476DE7454B5B6A002B00D168E7434BE1
S1130AB05B6A04AA5078C0B25188059A0832083992
S1130AC089B298475CE74F4A3E493F483F4CA047AC
S1130AD004AB1978C9B25A78D2B24B48A0470D205A
S1130AE03D4B9847494B9847041E27D14DE7484A48
S1130AF034493548354B98474648364B98470D207E
S1130B00354B98470224644218E0434A2D492E4845
S1130B102E4CA04703994148A0470D202E4B9847DF
S1130B200C2464420AE03E4A26492748274B98474A
S1130B303C48284B98470D20274B98473A4A3B4955
S1130B402148224FB84721003948B8470D20224B8D
S1130B50984703A93748B047041EE4D1039BDB0739
S1130B60D3D500201E4B9847012303999943039141
S1130B703048314B9847041EE0D101220F4B9A7044
S1130B80039B9D042D0DB2D00023059305A92B488A
S1130B90154B9847041E00D175E6E6225200094918
S1130BA009480A4B984726480A4B98470D200A4B98
S1130BB0984701200A4B9847C0E7C046200B002005
S1130BC095190000D8920000849200003180000042
S1130BD0349400004D8100006580000030930000D3
S1130BE03D020000489300007D1900008893000036
S1130BF0A8930000CC930000EC9300000B020000CB
S1130C00109400001A0200004C94000071050000CA
S1130C102102000078940000290200008C94000056
S1130C2032020000A894000056020000E092000086
S1130C30CC9400007010000089190000841000009A
S1130C400C930000002007B00CBC90469946F0BD00
S1130C5070B514001D00002803D0002901D0002A1B
S1130C6012D1002D02D0274B984770BD264A274940
S1130C702748284B98472848284B98470D20284B4D
S1130C8098470C204042F0E7264B9B689A421AD8BA
S1130C90244B5B68984226D38618224A536892688C
S1130CA09B189E421FD822001F4B98470028DCD176
S1130CB01C4A536892689B189E4201D0002DD4D0E0
S1130CC0104B9847D1E7194A10491148114DA847CC
S1130CD0144B9A6821001648A8470D20104B9847DA
S1130CE00C204042C1E7134A08490948094B984778
S1130CF011480A4B98470D20094B98470C20404255
S1130D00B3E7C0467105000077020000F0920000CE
S1130D108492000031800000FC9400004D810000AA
S1130D2065800000200B0020951900007F02000060
S1130D301C950000850200006495000070B5040055
S1130D4007281FD88300164AD3589F46154B1961AC
S1130D50002070BD134BD9600020FAE7114B596194
S1130D600020F6E70F4BD9610020F2E70D4B196222
S1130D700020EEE70B4B99610020EAE7094B59622A
S1130D800020E6E7084A094909480A4DA847210016
S1130D900948A8470D20094B98470C204042D8E742
S1130DA0AC920000200B0020BD020000FC92000069
S1130DB08492000031800000A89500006580000046
S1130DC010B5282200210648064B98470648074BD1
S1130DD0984707490320074B9847002010BDC04699
S1130DE0200B0020310500005D050000E501000036
S1130DF06D0500003D0D000030B59FB004001500E6
S1130E002C282FD01B283DD006284BD00E2827D0C5
S1130E10322857D02F2865D0342800D177E0112804
S1130E2000D196E0132800D1ACE0042800D1BBE047
S1130E30652800D1CAE0092800D1D9E02A2800D1C8
S1130E40E8E0202800D1F7E09522520089498A4839
S1130E508A4DA84721008A48A8470D20894B984706
S1130E601FB030BD0023042203A92800864CA047EC
S1130E700028F5D1854B1B68002BF1D003A92C3039
S1130E809847EDE70023082203A928007E4CA047D9
S1130E900028E5D17D4B1B68002BE1D003A91B3052
S1130EA09847DDE70123302203A92800764CA047A8
S1130EB00028D5D1754B1B68002BD1D003A906306F
S1130EC09847CDE70023142203A928006E4CA047BD
S1130ED00028C5D16D4B1B68002BC1D003A932304B
S1130EE09847BDE76422002103A8694B9847002373
S1130EF0642203A92800644CA0470028B0D1634BA6
S1130F001B68002BACD003A92F309847A8E7002317
S1130F10042203A928005C4CA0470028A0D15D4806
S1130F20564DA847039C230AFF200340220C02408D
S1130F30210E204000905848A8470D20514B984757
S1130F40524B1B68002B00D18AE7002134209847BC
S1130F5086E70022514B1A700023043203A92800AB
S1130F60494CA047002800D07AE703AB1A784C4BD1
S1130F701A70464B1B68002B00D171E703A911308E
S1130F8098476DE700232C2203A928003E4CA04774
S1130F90002800D064E73D4B1B68002B00D15FE7BD
S1130FA003A9133098475BE7002304221CA92800F7
S1130FB0354CA047002800D052E7344B1B68002B67
S1130FC000D14DE71CA90430984749E700230422C7
S1130FD01CA928002C4CA047002800D040E72B4B2C
S1130FE01B68002B00D13BE71CA96530984737E705
S1130FF00123642203A92800234CA047002800D021
S11310002EE7224B1B68002B00D129E703A90930E6
S1131010984725E70123042203A928001A4CA04776
S1131020002800D01CE7194B1B68002B00D117E7E0
S113103003A92A30984713E70023082203A92800AC
S1131040114CA047002800D00AE703AB9A88280077
S11310500830012303990C4CA047002800D0FFE678
S11310600A4B1B68002B00D1FAE603A920309847ED
S1131070F6E6C046EC950000849200003180000042
S11310803C96000065800000510C0000A000002088
S113109031050000B49500001C960000A500002056
S11310A0A4000020F0B58FB001220F236B441A7006
S11310B0002861D00268324B1A600022314B1A704A
S11310C00F206844304B9847041E02D020000FB014
S11310D0F0BD00202D4B9847041E49D12C49012016
S11310E02C4B984704AE30002B4B984704002B48F8
S11310F02B4DA847B37972793179308C0090294807
S1131100A8470D20284FB8472448A84726226A44F8
S11311101A2169442548A8470D20B8471F48A84705
S1131120737A327AF1792248A8470D20B8471B48D0
S1131130A8470223052213211E48A8470D20B847BB
S11311401648A8471C4A1D491D48A8470D20B84702
S113115023000D33BAD1F82252001A491A48104B11
S113116098471A481A4B98470D200F4B9847ADE7FC
S11311700020184B9847A9E70C246442A6E7C04610
S1131180A0000020A5000020491B0000C10D0000A4
S1131190F90D00003D0D0000651A0000B495000033
S11311A031800000F8960000658000002097000060
S11311B03C97000060970000789700008497000037
S11311C090970000F895000084920000A897000012
S11311D04D8100001D1C000010B5014B984710BD47
S11311E075080000F0B5CE46474680B5A3B005901B
S11311F00C0015001F002AAB1B8899462BAB1B78EB
S11312009846012A03D0002F40D0022A4CD0631EF6
S11312101F2B00D978E04B46013B9BB20D2B03D921
S11312204B46FF2B00D07DE007AE220005995A20E3
S113123002AB9C466044784B9847341946340023EB
S1131240237044334A46F25243465A1E934167225E
S1131250B3544123F554032D00D171E0022D00D184
S1131260AAE0042D00D1C2E0012D00D0C5E0002386
S11312700293019300936C3307AA28210120674C41
S1131280A04723B00CBC90469946F0BD644A65491A
S11312906548664B98476648664B98470D20664BF1
S11312A098470C204042ECE73800644B98474028AC
S11312B0ADD13B781A00303A362A17D80A3A062AB2
S11312C014D9473B192B11D97A1C380040301378B4
S11312D019003039362909D80A39062906D9473B75
S11312E0192B03D901328242F1D190E7544A4D4976
S11312F04D484E4B984753484E4B98470D204E4B04
S113130098470C204042BCE74F4A46494648474B61
S113131098474E48474B98470D20474B98470C2019
S11313204042AEE74A4A3F493F48404B9847494804
S1131330404B98470D20404B98470C204042A0E773
S11313403B78013BDBB207AA1370032B17D87A78DA
S1131350511E07AB59701023110099430B291DD05E
S11313603D4A30493048314CA04707AB59783B4897
S1131370A0470D20304B98470C20404281E7384A63
S113138028492948294CA04707AB19783548A04774
S11313900D20294B98470C20404272E7B91C1620B7
S11313A002AB9C4660441C4B98477B7807AA944642
S11313B0634400229A705AE73800204B9847431E32
S11313C09BB23F2B05D8421C390007A8124B984703
S11313D04DE7254A13491448144B98472348154BA5
S11313E098470D20144B98470C20404249E73E2271
S11313F0390007A8084B984739E71D4A09490A48A4
S11314000A4B98471B480B4B98470D200A4B9847AB
S11314100C20404235E7C0461D050000450600008B
S11314201F02000008960000849200003180000032
S1131430509600004D8100006580000041050000C9
S11314402B02000064960000360200007096000033
S11314503F020000849600005D020000AC9600008C
S1131460560200009096000069020000C896000031
S113147076020000E496000030B583B006AC248800
S1131480002501950094024CA04703B030BDC0462E
S1131490E511000000207047F0B583B080256D0091
S11314A00543A5246401084F084E29002000B847CD
S11314B00023019301A92000B0470028F5D1019B26
S11314C09D42F2D103B0F0BD891900007D190000DE
S11314D000B583B00023019301A91148114B98472B
S11314E0002801D003B000BD80214900019B1943AD
S11314F001910B480C4B98470028F3D101A9D02047
S11315004001084B98470028ECD180214902019BF7
S113151019430191D0204001034B9847E2E7C046AC
S1131520081400007D1900008919000010B582B06C
S1131530284B1C68002C04D0264B1C68200002B0E9
S113154010BD190080204001234B9847002803D088
S11315500022204B1A60F1E701A920481E4B98474E
S1131560002803D000221B4B1A60E7E7194B1B68C5
S11315701B4A93420ED01B4A934212D01A4A9342FA
S11315801CD01449194A0B681A40A023DB021343E8
S11315900B60D1E7019B012BF3D0154A0D4B1A6068
S11315A0EFE7019B032BECD0042B03D0114A094B2A
S11315B01A60E6E7104A074B1A60E2E70549EC2097
S11315C08003054B98470028DBD00022014B1A60AA
S11315D0B4E7C046A80000207D190000F413000001
S11315E0A0021000B0021000F0001000FFFFF0FF96
S11315F0A1021000B2021000B102100030B583B095
S1131600164C012501A91020A04700281CD1019BDC
S11316102B42F7D101A90130104B9847002813D170
S113162001998B0707D502239943019101300C4B93
S11316309847002808D101A90B20084B9847002897
S113164002D10199CB0701D403B030BD01239943E2
S113165001910B30024B9847F6E7C0467D19000014
S113166089190000F0B583B000230193009301A908
S11316700B20284B9847041E30D10199CB0706D480
S1131680012319430B20244B9847041E26D101A99A
S11316900120204B9847041E20D101998B0720D5A7
S11316A005251C4F1D4E69460F20B847041E20D146
S11316B0009B5B072BD40220B047013D002DF2D1E3
S11316C0AF22520016491748174B98471748184B32
S11316D098470D20174B984704246442200003B018
S11316E0F0BD0223194301200B4B9847041ED7D0A9
S11316F0F4E7AA2252000A490A480B4DA847009A67
S113170021000D48A8470D200A4B9847E6E70B4BEC
S11317109847E3E77D1900008919000029010000BA
S1131720C497000084920000318000000C980000EF
S11317304D81000065800000F497000065190000E9
S1131740F8B507002D4D2E4C2E4E2800A04700283A
S113175002DB0120B047F8E72B48294B9847C30721
S113176009D4284E294C264D0120B0472000A84713
S1131770274B9842F8D1022F21D0032F29D0042FD0
S113178030D024492448254B98470024244B9847BB
S11317900005000D234B98422AD82000224B98477D
S11317A02248234CA0471B492248A0470D20224B26
S11317B0984722491548194B98470020F8BD2049FD
S11317C02048164CA047802149031348A047002411
S11317D0DCE71B491B48114CA04700210E48A047D9
S11317E00024D3E70B490C480C4B98478024CDE7E1
S11317F0022020430C4B9847D2E7C0461410000047
S11318007119000029010000BC0702000C000C0043
S11318109ED0AD10521352138C1000008919000091
S11318202D1500009F03000099140000B4950000DA
S1131830318000002898000065800000612F52EF7D
S11318407DD51C3CAC07020070B582B0154B0193EA
S1131850154B00930238012811D901246442002059
S1131860124E134D009B98420ED00220B0470198AF
S1131870A847013C002CF5D10520404209E00D4B5E
S113188001930D4B0093E8E7009A074B00209A421E
S113189001D002B070BD00210248084B98470020D7
S11318A0F7E7C0468C1000003626530229010000D9
S11318B071190000AC070200C3C15DD7891900008B
S11318C010B582B00023019301A9A0204001144B5C
S11318D09847041E15D11349019B19400191A0207A
S11318E04001114B9847041E16D0104A1049114864
S11318F0114B98471148124B98470D20114B9847AC
S11319000AE0114A0A490B480B4B98470B480C4B09
S113191098470D200B4B9847200002B010BDC046DD
S11319207D190000FFFBFFFF891900000B02000076
S1131930D09700008492000031800000DC97000002
S11319404D810000658000000502000010B5014BC8
S1131950984710BD6102000010B5014B984710BDB7
S1131960B104000010B5014B984710BD11230000CD
S113197010B5014B984710BD4923000010B5014B29
S1131980984710BD5D23000010B5014B984710BD6A
S113199075230000F0B5D6464F464646C0B582B022
S11319A0804689461500134B1F88083FBBB201933C
S11319B01E0004009A421AD90F4B9A46371A43461E
S11319C0E11A4944019A2000D047002809D1AD1BEF
S11319D03919A419B542F2D8AAB249442000064BD9
S11319E0984702B01CBC90469946A246F0BD00211F
S11319F0F2E7C04600000020B9240000F0B5D64646
S1131A004F464646C0B582B0804689461500134B02
S1131A101F88083FBBB201931E0004009A421AD9E2
S1131A200F4B9A46371A4346E11A4944019A20005B
S1131A30D047002809D1AD1B3919A419B542F2D8F1
S1131A40AAB249442000064B984702B01CBC9046F9
S1131A509946A246F0BD0021F2E7C04600000020EE
S1131A601126000070B584B00400002303930822FB
S1131A70002101A82D4B9847002C44D02822002196
S1131A8020002B4B984703A92A482B4B9847002842
S1131A903AD1039B002B39D0C0208002184308227E
S1131AA001A9264B984700282ED1029B1804000C4C
S1131AB003902ED0C0239B021843282221001F4BE1
S1131AC09847002820D121790902A2790F231A40CE
S1131AD00A4361790901FF2529400A43E179090292
S1131AE0667A33400B43217A09010D402B43002AC7
S1131AF012D0002B13D012498B4213D8114B9A42A7
S1131B0002D80D3800E0002004B070BD0C20404223
S1131B10FAE70C204042F7E70C204042F4E70C209F
S1131B204042F1E70D204042EEE7C0461F8000002E
S1131B303105000008000C007D1900009519000013
S1131B40521300005113000070B5002837D00578F7
S1131B506B1E032B00D901250020204B9847041E3F
S1131B602FD11F481F4CA0471F4B984701001F4807
S1131B70A0470D201E4B98471E4B984728001E4B2C
S1131B809847041E17D128001C4B9847041E12D1F5
S1131B90023D012D11D91A4B9847041E0DD0602225
S1131BA0FF32184918480F4B98471848184B984764
S1131BB00D200F4B9847174B9847200070BD012507
S1131BC0CAE7962252000F490F48064B984712481D
S1131BD00F4B98470D20064B9847EEE74D19000030
S1131BE0B4950000318000002D150000F898000025
S1131BF0658000008D230000411700004918000093
S1131C00D11400004098000084920000BC980000A9
S1131C104D81000059190000DC98000010B51C4BE0
S1131C209847041E0BD100201A4B9847041E14D168
S1131C30194B9847041E1DD1184B98470BE0BB2243
S1131C40520017491748184B98471848184B98479B
S1131C500D20184B9847200010BD7E22FF321049FA
S1131C601048114B98471448114B98470D20114BBD
S1131C709847F0E78422FF3209490A480A4B9847FB
S1131C800E480B4B98470D200A4B9847E3E7C04694
S1131C90C11800005931000059190000392300000F
S1131CA04C98000084920000318000005C98000091
S1131CB04D810000658000007C980000A098000021
S1131CC000B585B001AB0190002202921981190080
S1131CD00320024B984705B000BDC04665030000D1
S1131CE070B584B008AC257801AC20703F30C4B224
S1131CF00E2C00D984E0A0004F4C2058874601AB3D
S1131D000A0C5A700A0A9A70D97005214B4B1B7839
S1131D10002B77D00139C9B283E00B0ADBB2002D66
S1131D2007D101AA537001AB99700022DA70052122
S1131D30ECE780225242134301AA5370F3E701AB4C
S1131D4000225A709A70DA700521DFE701AB002295
S1131D505A709A70DA700521D8E701ABFF225A70E5
S1131D609A70DA700521D1E701AA080C5070080AAC
S1131D709070D170190A117153710721C6E701AA35
S1131D80080C5070080A9070D170190C1171190A5E
S1131D90517193710821B9E70B0ADBB2002D0CD104
S1131DA001A8437001AB9970110ED970110C19710F
S1131DB0110A59719A710821A8E78020404203430F
S1131DC001A84370EEE701AB080C5870080A98703C
S1131DD0D970110E1971110C5971110A9971DA71B6
S1131DE0092193E73422FF3215491648164B9847C8
S1131DF01648174B98470D20164B9847002317E0B9
S1131E00002315E04E1E01AA95197F23124C5B0096
S1131E1010784340E35C0132AA42F8D15B0001AA86
S1131E20935589B201A80D4B984701230028D9D1B5
S1131E30180004B070BDC04608990000AC00002032
S1131E40489900008492000031800000D89D000071
S1131E504D81000065800000D4990000C11C000081
S1131E6000B585B001AB00220192029019811900DE
S1131E700320024B984705B000BDC046650300002F
S1131E80F0B5C64600B582B00700CF282BD00300BA
S1131E903B33DBB2012B26D90B246B46DE1D264BCC
S1131EA0984601213000C047051E25D13378BB4236
S1131EB030D0013CE4B2002CF3D10B346B46DE1D70
S1131EC01D4F01213000B847002825D13378002B5D
S1131ED02FD0013CE4B2002CF3D10125280002B03C
S1131EE004BC9046F0BD01216B46D81D124B9847A7
S1131EF000250028D0D0F1E7B72252000F4910483E
S1131F00104B98471048114B98470D20104B984799
S1131F100025E3E70B24D1E7BE2252000749084815
S1131F20084B98470848094B98470D20084B984799
S1131F30D4E70125D2E7C046611E00006099000085
S1131F408492000031800000049E00004D81000056
S1131F5065800000F0B5DE4657464E464546E0B57E
S1131F6087B001908946029200239A4680239B0100
S1131F709B466A46D3813B4B98462FE0C32292008E
S1131F8039493A483A4B98473A483B4B98470D20D1
S1131F903A4B98470025280007B03CBC9046994628
S1131FA0A246AB46F0BD002C2EDD019B5344180025
S1131FB039002C4B9847041E33D1029B002B03D1CC
S1131FC02F4B1B78002B38D05346FB181BB29A4674
S1131FD04B46DF1BBBB29946002B41D04F46D94537
S1131FE001D96B46DF89BFB20A2404ABDE1C012190
S1131FF03000C047051EC1D133781B090F2BD2D046
S1132000013C24B2631CF2D11E4A17491748184CEC
S1132010A04704ABD9781C48A0470D20174B98471C
S1132020B9E71A4A10491148114B98471848124BFE
S113203098470D20114B9847ADE7022105A8094B9D
S113204098470028C0D0134A07490848084B9847C6
S11320501148094B98470D20084B984725009AE7EB
S1132060012598E7611E00006C990000849200002D
S113207031800000389E00004D8100006580000022
S1132080AC000020170300006C9E00002103000038
S11320909C9E00002F030000CC9E0000F0B5D646A5
S11320A04F464646C0B586B00390049130280FD8F9
S11320B0304B1F78FBB205930023302203998A42E8
S11320C05B41DBB29A460A252B4B9846D14633E056
S11320D02A4B1F78EEE70598294B984704000128FE
S11320E041D0284A28492948294EB047039929480C
S11320F0B0470D20284B98470120284EB0470023B5
S1132100009300220021CF201B4FB847CF201C4B47
S11321109847F02292001C491C481D4FB847049B65
S1132120039A29001E48B8470D201B4B98470120ED
S1132130B047013D002D16D04B4600930423049A6A
S1132140039F39000598C04704000128C3D0154AED
S11321500D490E480E4EB04739001348B0470D20C4
S11321600D4B9847C8E7200006B01CBC9046994622
S1132170A246F0BD44990000E11C0000459900000E
S1132180811E0000AD0300008C99000084920000C1
S113219031800000C49F0000658000002901000018
S11321A0FC9F0000A7030000989F0000F0B5DE46E6
S11321B057464E464546E0B587B002908B46FF2809
S11321C00FD8424B1F78FBB203930023FF220299DE
S11321D08A425B41DBB29A460A253D4B9846D1467A
S11321E032E03C4B1F78EEE703983B4B98470400E2
S11321F0012840D08622D20038493948394EB047A8
S113220002993948B0470D20384B98470120384E81
S1132210B0470023009300220021CF202C4FB84761
S1132220CF202D4B9847334A2C492D482D4FB84782
S1132230029A29003048B8470D202C4B98470120BA
S1132240B047013D002D38D04B46009304230022B3
S1132250029F39000398C04704000128C4D0274ACC
S11322601E491F481F4EB04739002548B0470D206E
S11322701E4B9847CAE74A46042105A8214B9847B4
S1132280040001280CD08722D20014491448154BAD
S113229098471D481D4B98470D20144B9847B5E7A8
S11322A005AA53781B02917809040B4311780B4358
S11322B0D278120613435A461360200007B03CBC80
S11322C090469946A246AB46F0BDC04646990000EA
S11322D0E11C000047990000811E0000AC99000039
S11322E084920000318000002C9F00006580000073
S11322F02901000051040000809F0000290400000F
S1132300009F0000551F0000609F00004D810000E9
S113231010B582B00023009300220021CF20044C8A
S1132320A047CF20034B9847002002B010BDC04601
S1132330E11C0000811E00000022024B1A700020E4
S11323407047C046AC00002000B583B001A9024B21
S11323509847019803B000BDAD21000010B5044BAF
S113236098470023012801D1180010BD063BFBE764
S1132370AD21000010B5044B98470023012801D17A
S1132380180010BD063BFBE79D20000010B582B08D
S113239000230093354A137069463548354B9847F6
S11323A0002828D0314B1B78002B0DD17C330099A9
S11323B099432C3B194300912D482F4B9847041EF9
S11323C039D00122294B1A7001A980204001294BE0
S11323D0984700283BD0264C2000284B9847702370
S11323E001009943502001432000254B98470024C5
S11323F0200002B010BD01221C4B1A70214A224950
S11324002248234B98472348234B98470D20234BBE
S1132410984769461648174B9847041EC2D1204A6C
S113242019491A481A4B98471E481B4B98470D20C8
S11324301A4B9847DCE71C4A13491448144B984735
S11324401A48154B98470D20144B9847D0E7184A63
S11324500D490E480E4B984716480F4B98470D20D0
S11324600E4B984706246442C2E7C046AC000020E5
S113247024E80000AD2100009D2000004923000055
S113248075230000DC040000C89900008492000059
S113249031800000D49A00004D8100006580000066
S11324A0DF040000249B0000E9040000509B0000AE
S11324B0F3040000849B0000F0B5DE4657464E4608
S11324C04546E0B587B00290039116000A25002323
S11324D09B4600243F4B9846A94638E001239B467F
S11324E0013636E0C8203C4B9847012846D08F225D
S11324F0D2003A493A483B4FB84702993A48B8475C
S11325000D203A4B98470120394FB84700942300D7
S113251022002100CF202F4DA847CF202E4B9847D3
S1132520344A2E492E482F4B9A4698473300029A34
S113253049463148D0470D202C4B98470120B847D5
S113254001235B429C46E1444B46002B39D0012ECB
S1132550C4D0009433002200029D2900C820C04743
S11325600128BFD0254A1D491D481E4FB8472900E0
S11325702348B8470D201D4B9847C4E75B46002B02
S113258017D005AF2200310038001E4B98473B7826
S1132590039A1370012812D09122D2000F491048D7
S11325A0104B98471848194B98470D200F4B9847E4
S11325B0A9E7220031000398124B9847EAE700206C
S11325C001E00620404207B03CBC90469946A24632
S11325D0AB46F0BDE11C0000811E0000BC99000068
S11325E08492000031800000D89B000065800000C8
S11325F02901000099040000389C000072040000C6
S1132600A89B0000551F0000109C00004D81000095
S1132610F0B5DE46474680B589B004908B460392F8
S11326200A268027BF016B46DF8235002DE0013387
S113263003932DE0824A83498348844CA0473100A8
S11326408348A0470D20834B98470120824CA04724
S11326500023009300220021CF20804EB047CF20DA
S11326607F4B98477F4A77497748784EB047039B1A
S1132670049A29007C48B0470D20764B98470120E6
S1132680A047013D002D00D1D2E0039B012BCED009
S113269000230093039B0022049E3100C7206F4C4B
S11326A0A0470128C6D1C7206D4B984701280BD0FD
S11326B06E4A64496448654CA04704996C48A04735
S11326C00D20644B9847C0E7002207AB1A80039C97
S11326D00026A8463500260021E00023B7425B41CE
S11326E002330B2004AA944660441022524213433E
S11326F0037001215F4B984700281DD15B46581990
S113270021005C4B984700282ED15B4B1B78002B93
S113271037D065192DB2361BB6B2002E52D0341CF8
S1132720BE4201D96B46DC8AA4B2002DD5D1032365
S1132730BE42D6D9023BD4E74546504A50494248A6
S1132740424B98474F48504B98470D20414B984770
S11327504E4A3C493C483D4B98474D484A4B984764
S11327600D203C4B984770E745464A4A4449364851
S1132770364B98474848444B98470D20354B98476B
S1132780E6E7022107A83B4B98470028C1D04546FD
S1132790DD2292003A492C482C4B98473F483A4B4B
S11327A098470D202B4B9847D2E74822FF323C49EB
S11327B02548264B98473B48334B98470D20254BDB
S11327C0984727E045462C4B1C78631E9C410234F5
S11327D0A1B207A8344B98470028E6D108AB1B19CF
S11327E0053B1B78002B06D108AB9C466444063C91
S11327F02378C32B1AD0A722520029491248134C1C
S1132800A04707A98B784A7809782848A0470D2063
S1132810104B9847264A0B490B480C4B98471C48C9
S1132820194B98470D200B4B98470EE7002001E009
S11328300620404209B00CBC90469B46F0BDC04601
S1132840DB0300009C9900008492000031800000AA
S1132850549C00006580000029010000E11C000078
S1132860811E000003040000389C0000E103000006
S1132870849C0000C11C0000AC0000206103000027
S11328807C990000BC9C00004D810000F103000015
S1132890B09D00006A030000F49C0000289D000025
S11328A050990000609D0000611E0000809D0000A2
S11328B0F9030000F0B5DE4657464E464546E0B5FE
S11328C085B001900E0002921D000EAB1C88002CF6
S11328D064D0030135495B58002B5FD00101334BB1
S11328E05B189B889BB2002B58D0304B5B189B7AAB
S11328F0012B53D1F4802D4B9B468B445B460A221B
S11329009046D8448A460095039315E02500012398
S11329101CE00133002200210020254CA0473DE0AB
S11329202448254DA84721002448A8470D20244BBE
S1132930984733E0002C31D05B469B88E31A1BB2E6
S1132940002BE3DD039B9D88ADB20023174A51465B
S113295089582A000098164FB8470028E0D1134B35
S11329605246D3583360B580F3885B1BF380154B14
S11329701B68002B05D0134B1B6832000299019889
S11329809847641BA4B2009B9C46AC4463460093E6
S113299043461B78002BCDD1002CBAD105B03CBCEA
S11329A090469946A246AB46F0BDC0464C0B00206B
S11329B0510C0000B49500003180000018A0000004
S11329C065800000FC0B0020F0B5D6464F46464615
S11329D0C0B59AB00D001400412839D0542837D01E
S11329E0422853D043286AD0442800D1AFE04B2872
S11329F000D1ACE04A2800D1CFE0462800D1E5E080
S1132A00482800D10EE14D2800D1DCE0452800D152
S1132A102CE1472800D14DE107254C2800D126E1BF
S1132A2052282DD10123142209A92000A24CA04729
S1132A30002825D1A14B0A9A1A601B68002B1FD0CD
S1132A409E4B1C6809AB1A7C0B990998A04717E0A8
S1132A500023042209A92000974CA04700280FD185
S1132A6009AB5A7805AB1A70954B1B68002B07D03D
S1132A70934B1B6809AA0020105605AA0121984708
S1132A801AB01CBC90469946A246F0BD002304220D
S1132A9009A92000884CA0470028F1D109AB5A7835
S1132AA005AB1A70864B1B68002BE9D0844B1B685E
S1132AB009AA0020105605AA02219847E0E700233E
S1132AC00C2205A920007C4CA0470028D8D105ABD6
S1132AD009229A56002A24DB180008215956794BFA
S1132AE009015918C97AC9B214011B19D9720121F3
S1132AF099724189083989B2198173490B88013364
S1132B009BB20B800B889BB2002B03D10B88013343
S1132B109BB20B806C4B198889B21001694B1B184E
S1132B20D98009AB1A7002229A8005AA5188D980EB
S1132B30069A0B92624B1B68002BA1D0604B1B685A
S1132B4005AA0820105609AA0421984798E70023EB
S1132B50042209A92000584CA047002800D08FE780
S1132B6009AB0020185605AA10705B785BB253704D
S1132B70002B07D109AB5B88083B9BB20101514A8A
S1132B80521813814E4B1B68002B00D178E74C4B35
S1132B901B6805AA0521984772E70023442209A966
S1132BA02000454CA047002800D069E7474B1B682C
S1132BB0002B00D164E7454B1B68199A039211005E
S1132BC009A898475CE706239A4601E006239A463B
S1132BD00023102205A92000374FB847002800D051
S1132BE04EE705AA0C201056D38907013549C919A7
S1132BF000270F730826975FB8465789B94609AF6F
S1132C0056887E81069A0C92CA8892B293420CD05E
S1132C10102D00D834E70123002200210020264C87
S1132C20A0472DE709239A46D2E74346002B01DD4E
S1132C30A8450FDB09AB42469A8000230993204B39
S1132C401B68002B00D11BE71D4B1B6809AA5146CA
S1132C50984715E723004B44424669468A818A898E
S1132C600092524639001A4CA04709E70725002371
S1132C70082209A92000104CA047002800D0FFE634
S1132C8009AB002018569A88598805AB19800101B0
S1132C900C4B5B18DB889BB29A4200D0F0E6084BE1
S1132CA01B68002B00D1EBE6054B1B6805AA290025
S1132CB09847E5E60825DAE7510C0000000C0020EF
S1132CC0FC0B00204C0B0020AE000020040C002064
S1132CD0B528000010B50A4B1B78002B00D010BD9E
S1132CE0B02200210748084B984708490220084BA6
S1132CF098470122024B1A700022064B1A80EEE715
S1132D00AD0000204C0B002031050000C929000053
S1132D103D0D0000AE000020024B1860024B19600C
S1132D207047C046FC0B0020040C0020F0B5D646CA
S1132D30474680B589B00592022800D09CE001295D
S1132D400AD0022900D170E001256D42280009B0A3
S1132D500CBC90469A46F0BD494C2778FFB22678C1
S1132D60F6B2207801300631464B9847C9B221703B
S1132D703201454B9B189B7A0625002B18D0404EF8
S1132D80404B9A46404B98463778FFB23478E4B2C9
S1132D90307801300721D047C9B231702301434450
S1132DA09B7A002B07D0013DEDB2002DECD1CBE78F
S1132DB0354BD41802E02401334BE4187DB2002DC6
S1132DC0C4DB102200212000304B98470123A3725A
S1132DD02F4A138801339BB2138013889BB2002BB4
S1132DE003D1138801339BB21380294E33889BB2DD
S1132DF0E3802848284FB847328892B229002748F0
S1132E00B8470D20264B9847059BDB079ED507AA9C
S1132E1015702123E372002302930193009304337A
S1132E20502102201F4CA04790E71F4B1D78EDB2A4
S1132E301C7824011D4AA4181978013103220A4080
S1132E401A70A37A002B14D003221749174F0320BA
S1132E500D78EDB20C782401E4190B7801330340AA
S1132E600B70A37A002B04D0013AD2B2002AEFD11E
S1132E706AE707356DB2A2E701256D4266E7C046F1
S1132E80B0000020657F00004C0B002031050000DD
S1132E90AE000020B4950000318000002CA000009A
S1132EA06580000045060000B1000020BC0B002036
S1132EB070B588B0040000292BD000282CDB000159
S1132EC01A4B1B189B7A012B29D1002A2AD0174BA5
S1132ED01B18DB7A4126DB0700D5133605AD2C72AF
S1132EE008222800124B98472401104B1C19E38830
S1132EF06B8100230293019300930C332A00310069
S1132F0002200C4CA047002801D00920404208B000
S1132F1070BD06204042FAE706204042F7E706204B
S1132F204042F4E706204042F1E7C0464C0B002043
S1132F301D0500004506000010B586B000281CDB06
S1132F400201114B9B189B7A012B19D105AA107011
S1132F50517000010C4B1818C3885380002302934E
S1132F6001930093043342210220084CA047002817
S1132F7001D00920404206B010BD06204042FAE7C5
S1132F8006204042F7E7C0464C0B002045060000EF
S1132F90002807DB0001064B1818837A012B04D1A3
S1132FA00020704706204042FBE706204042F8E735
S1132FB04C0B002030B589B0002836DB002937D00F
S1132FC0AF23DB009A4236D804011E4B1B199B7AAF
S1132FD0012B33D104AB18705A802500194C6419A5
S1132FE0E4889C815025062800DD0C3D0401154B26
S1132FF01B19DC7A4523E40705D50001114B181889
S11330000589ADB24C2380201843029501920091AA
S1133010102304AA010002200B4CA047002300281F
S113302000D00E3B180009B030BD06235B42F9E71F
S113303006235B42F6E706235B42F3E706235B4283
S1133040F0E7C0464C0B00204506000030B587B0C1
S1133050002834DB002935D0002A36D005011E4C67
S11330606419A47A012C33D11B4C29516419A28010
S1133070217B002200291DD101212173E27A4531EF
S1133080D20700D50731002B17D1013B049304AAC2
S113309010710001104B1818C388D38000230293C9
S11330A001930093083302200C4CA047002200280F
S11330B000D00E3A100007B030BD0493E7E70622B3
S11330C05242F7E706225242F4E706225242F1E75F
S11330D006225242EEE7C0464C0B00204506000093
S11330E030B587B0041E2ADB0201184B9B189B7A6B
S11330F0012B27D105A90870144B9B18DA884A8044
S113310000229A72DA80DB7A4921DB0700D5053187
S11331100023029301930093043305AA02200C4D6B
S1133120A847051E01D009256D422401074820182F
S113313010220021074B9847280007B030BD062510
S11331406D42F9E706256D42F6E7C0464C0B0020B8
S1133150450600003105000070B582B004002A4B1A
S113316098470005000D294B0025984202D82800F5
S113317002B070BD01A92648264B9847051EF6D11A
S1133180254B019A13402549194301912048244BAA
S11331909847002C20D000212248214CA047AB2185
S11331A02148A04701212148A04700212048A047E9
S11331B081212048A047204E204C3000A047012800
S11331C0FBD1154B019A1340802149021943019107
S11331D00F48134B9847CAE700211248104CA047E8
S11331E0B9211148A04701211048A04700211048E7
S11331F0A04781210F48A0470F4E104C3000A04734
S11332000128FBD1DDE7C0462D1500009F03000017
S1133210101400007D190000FF8F88F800101101C0
S113322089190000080201000C02010014020100C7
S11332301C020100040201001802010071190000BF
S1133240F0B5DE4657464E464546E0B591B005001A
S11332500C00160029600800BC4B98470200236844
S11332600520DB0706D511B03CBC90469946A24622
S1133270AB46F0BD236817309B07F4D4B449086A01
S1133280971C0123BB4003430B620FA92D27F35D59
S11332900B701432D3B202931800AE4B98470298C5
S11332A0AD4B9847F05D0021AC4B9847F37A6B71B6
S11332B02423F35CAB712523F35CEB71F37E2B7257
S11332C0337F6B722B6898461800A04B98471430D4
S11332D000220E2306A98C4663441A80328A029285
S11332E08023DB019A4200D19EE00FD9C023DB0189
S11332F0029A9A4200D192E080231B029A4200D0A3
S11333001FE1032306930023079308E080239B0116
S11333109A4200D015E1102306930F3B07933368BC
S11333200593F368039373690493337E9B462623C2
S1133330F35C9A4673689946002B00D1A0E0802381
S11333405B05994500D184E0737E002B02D0B37EE7
S1133350424693732A68029FD369002BFCD10E3333
S113336006AA944663441B8842469381059B039AAC
S11333701343049A13434A4613431F435B461B02F9
S11333801F4353465B071F432723F35C002B01D1E4
S113339004331F43737E9B02327F52021343727FB6
S11333A0120213432422B25C520413432522B25C5A
S11333B012041343B17AF27A114319433389FF2B70
S11333C000D181E080225204174319432C23F35C7B
S11333D0002B03D1624B9B789B0701D580231F43AD
S11333E02A68D369002BFCD1434659602A68D36903
S11333F0002BFCD143461F600EAB80221A700022C2
S11334005A70DA709A70336B0A93736B0B93B36BC5
S11334100C93F36B02930D9300270AAE63E0082329
S11334200693073B07937AE733680593F36803939E
S113343073690493337E9B462623F35C9A46736830
S11334409946002B18D080235B05994501D00020B4
S113345025E02723F35C002B00D075E7336A1F00B7
S1133460C0B2404B984701000E2206AB9C46624412
S113347038003D4B984712E0082306930023079336
S11334802723F35C002B0ED0069B0093079B0E2290
S113349006A98C466244B16A306A344FB8470028A2
S11334A000D0E0E650E7336A1F00C0B22D4B9847C6
S11334B00100069B0093079B0E2206A884466244E3
S11334C038002A4FB847EAE7F37E002B00D17DE7A6
S11334D08023DB041F4379E72000254B984707E04E
S11334E00137042F0DD0F9B2BB0098590028F3D04E
S11334F0431CF5D00EA90870000CC0B21D4B9847B0
S1133500EEE70023EB602B616B61AB61EB612B6237
S1133510AB626B620022EB85AB853033EA54013336
S1133520EA540133EA540133EA542868074B9847B4
S113353004001149114B9847A400114BE550002099
S113354091E61023069300230793E8E6594400000C
S1133550000400402D500000A14F000095420000DF
S11335600020004149500000D74100000142000002
S1133570E142000025510000B936000095440000E6
S1133580680C0020C2791C23002A01D1180070475E
S1133590C28D92B2173B002AF8D10368DA69002A77
S11335A0FCD1198502211A7E0A42FCD00023EDE7E2
S11335B082791C23002A01D118007047828D92B2AF
S11335C0173B002AF8D10268107E4007F4D5D3696E
S11335D0002BFCD1538BDBB298061DD0980703D582
S11335E0022353831833E7E7580703D5042353838F
S11335F01A33E1E7D80703D5012353831233DBE7FA
S1133600D80603D5102353833233D5E79B0603D55D
S1133610202353832133CFE7138D0B800023CBE783
S1133620F0B5D64600B584B0040001911720002AF5
S113363003D104B004BC9246F0BDA3790530002B3D
S1133640F7D02668013A93B29A460025042719E078
S1133650002302AAD380911D2000154B984700280F
S1133660E7D1691C89B202ABDB88019A53556279B0
S1133670012A14D00D005346013B9BB29A460D4BD0
S11336809A45D6D0337E3B42E2D10A4B327E3A424F
S1133690DED1012B09D0013B002BF7D1D8E702354D
S11336A0ADB21B0A019A5354E5E71220C1E7C046A4
S11336B0B1350000FFFF0000F8B58000624BC5582B
S11336C02C68E369002BFCD1237EA67D1E403023A9
S11336D0EB5C3122AF5C1F40F30722D5EB8D9BB22C
S11336E0002B1CD0AA6A1378DBB2511CA962697939
S11336F001290ED09BB2DB05DB0D2385EB8D013B4D
S11337009BB2EB85002B0CD1013323750133A375D8
S113371007E0517809020B430232AA62EBE7012366
S11337202375B30706D50223237500223133EA54E7
S1133730FB071AD4730765D5AB8D9BB2002B5FD002
S1133740638BDBB21A0714D43F221340002B34D00E
S11337509A0711D51A223223EA54303B63837B073C
S113376050D528006B6998474CE02800EB689847CF
S1133770E0E737221340E9E75A0705D51E22322332
S1133780EA542E3B6383EAE7DA0705D51322322392
S1133790EA54313B6383E2E7DA0605D54222322359
S11337A0EA54223B6383DAE720221A42D7D021323B
S11337B03223EA54123B6383D1E7238DDB05DB0D0F
S11337C0DAB2696A0A706A6A511C69626979012904
S11337D010D0AB8D013B9BB2AB85002B12D10433CF
S11337E0237500222E33EA54BB070BD528002B691E
S11337F0984707E01B0A53706B6A01336B62E8E772
S113380004232375F30604D5102323752376FB06BE
S11338100ED4B30604D52023237523763B070BD49B
S1133820330704D5082323752376BB0608D4F8BDD3
S11338302800EB699847ECE72800AB699847EFE765
S11338402B6A28009847F2E7680C0020F0B5C646BA
S113385000B580000E4BC7583B68DE6ABB6B7A6BC1
S113386013401E4000240B4B984602E00434302CD5
S11338700AD04346E5583542F8D03B195B68380016
S113388098473B68DD62F1E704BC9046F0BDC04652
S1133890080C002048A0000010B50020014B9847F8
S11338A010BDC0464D38000010B50120014B9847AB
S11338B010BDC0464D38000010B50220014B98479A
S11338C010BDC0464D380000F0B5C64600B50C002A
S11338D0904600280FD1002A11DD8F18094E0A4D99
S11338E0306821002B6898470134BC42F8D1404627
S11338F004BC9046F0BD01235B429846F7E780463E
S1133900F5E7C0461C0C0020140C0020F0B5C64698
S113391000B50E0015000138022810D8002A11D075
S113392000240C4B98460C4F43461868315D3B68A5
S11339309847002808DB0134A542F5D106E00124AC
S1133940644203E0140001E001246442200004BC4A
S11339509046F0BD1C0C0020180C002070B582B0FD
S113396005000E0000226B46DA80064C6B46991D5A
S11339702800A0470028F9D16B4606331B88337012
S113398002B070BDB135000070B505008CB2034EB5
S113399021002800B0470028FAD170BD8535000009
S11339A010B582B06B46DC1D012221000F48104B7C
S11339B0984772B6BFF35F8F00220E4B1A700E4BFE
S11339C01B7821780D4AD1549B2B0AD001330A4A23
S11339D013700122074B1A70BFF35F8F62B602B0F7
S11339E010BD0022044B1A70F3E7C046B400002057
S11339F0213600000C00002088010020EC0000208B
S1133A00F0B591B08023DB05009300230193FF22DE
S1133A1069460A8100228B72CB72012424216846F4
S1133A2044540131445401314354013143540A9301
S1133A30053143540131435405930382C37602761E
S1133A400277427613238376427780235B030393C2
S1133A502F4B0C932F4B0D9301235B420E930F932B
S1133A60E1235B0208932C4D2C4B1D602C4A2D4BFB
S1133A701A602D4A2D4B1A606A462D4928002D4B99
S1133A8098472D4F3B68986800212C4EB0473B68FF
S1133A9058680021B0472E683000294B98471F23EF
S1133AA018408440274B1C602A68D369002BFCD142
S1133AB03368022213433360174B1B68DA69002A08
S1133AC0FCD15968802252020A435A600121124AE9
S1133AD0D171DA69002AFCD1DA69002AFCD159686B
S1133AE0802292020A435A6001210B4A9171DA69D9
S1133AF0002AFCD114490020144B984704220C4B93
S1133B009A75FD32FF320F4B1A6011B0F0BDC046FA
S1133B100300040003000500B40000201C0C002076
S1133B2089390000180C00205D390000140C0020B5
S1133B3000080042413200001C00002035820000D1
S1133B40D144000000E100E0A139000095440000E8
S1133B5070B50C0000225B4B1A60002908D00023CA
S1133B60594E584DC25C9A5501332B608B42F9D3A0
S1133B7056495548564B9847002849D0554952480C
S1133B80534B984700284CD053494F48504B9847C3
S1133B9000284ED051494C484D4B9847002850D0EE
S1133BA04F4949484A4B9847002852D04D49464806
S1133BB0474B9847002854D04B494348444B9847B7
S1133BC0002856D049494048414B9847002858D0CE
S1133BD047493D483E4B984700285AD045493A4802
S1133BE03B4B984700285CD043493748384B9847AB
S1133BF000285ED041493448354B984700280ED1FF
S1133C003F4B23221A7013325A7039329A7006E0ED
S1133C103B4B23221A700E325A7032329A702000B3
S1133C2070BD374B23221A700E325A703E329A708E
S1133C30F5E7334B23221A700F325A7031329A70DF
S1133C40EDE72F4B23221A700F325A703D329A70CF
S1133C50E5E72B4B23221A7010325A7030329A70D7
S1133C60DDE7274B23221A7010325A703C329A70C7
S1133C70D5E7234B23221A7011325A702F329A70CF
S1133C80CDE71F4B23221A7011325A703B329A70BF
S1133C90C5E71B4B23221A7012325A702E329A70C7
S1133CA0BDE7174B23221A7012325A703A329A70B7
S1133CB0B5E7134B23221A7013325A702D329A70BF
S1133CC0ADE7C046200C0020E800002078A00000EA
S1133CD0A18300007CA0000080A0000084A000005C
S1133CE088A000008CA0000090A0000094A0000018
S1133CF098A000009CA00000A0A00000A4A00000C8
S1133D00C803002010B5427A837A1B021A43C37A8F
S1133D101B041343007B0006184301780B39C9B216
S1133D200A30014B984710BD513B0000704700001A
S1133D30F0B583B0124B9847124B9847124B9847F3
S1133D4000281CD16B46991D02230B8001AF0F4B39
S1133D503B806B46DE1C0B2333706B469D1C00239B
S1133D602B7053200A4CA04739005020A047310043
S1133D700020A04729000420A04703B0F0BDFEE7BF
S1133D80A53D0000213E000031610000785600008E
S1133D902164000010B50620014B984710BDC046B1
S1133DA07967000070B582B001AC0123637000260E
S1133DB0A670237021005220124DA84721003E20F6
S1133DC0A84721003F20A84721002F20A847210011
S1133DD01420A8478022D2020B4B9A610B4B8022FD
S1133DE0D2059A61802212069A61802212029A6197
S1133DF080225203064B9A61267021005320A84763
S1133E0002B070BDF940000000450041804400410B
S1133E100044004110B5014B984710BD013A000021
S1133E2070B50020084B98470500084CFA2189001A
S1133E30A047074B186007492800A047064B1860A5
S1133E400522064B1A6070BD154F0000857C0000EA
S1133E500400002040420F000800002010E000E0B1
S1133E6030B5084B1C68084A0025802149020138F6
S1133E7007D3002CFBD05460956013680B42FCD030
S1133E80F5E730BD0800002010E000E030B5084B35
S1133E901C68084A002580214902013807D3002CF8
S1133EA0FBD05460956013680B42FCD0F5E730BD3D
S1133EB00400002010E000E00C4B1B68002B06D12E
S1133EC0EFF31083002B07D00022094B1A70074A26
S1133ED0136801331360704772B6BFF35F8F00221B
S1133EE0044B1A700132024B1A70F0E78C01002067
S1133EF0900100200C000020084B1A68013A1A6057
S1133F001B68002B09D1064B1B78002B05D001221E
S1133F10044B1A70BFF35F8F62B670478C010020A8
S1133F20900100200C0000201723002A01D0180063
S1133F3070478B00064A9B58002B03D0834205D060
S1133F401D23F4E7890088500023F0E70023EEE7FF
S1133F50280C00201723002901D0180070470022E4
S1133F601F2800D8024A01238340D3600023F4E7CA
S1133F70001800401723002901D0180070470022C0
S1133F801F2800D8024A0123834093600023F4E7EA
S1133F900018004070B50022104B1A70002310491D
S1133FA01F25104E0D4C0AE00D4908E0237801331B
S1133FB0DBB223700F2B10D800211F2BF4D928005B
S1133FC018400122824008691042EFD00A619B0028
S1133FD09B59002BEAD09847E8E770BD240C0020D9
S1133FE000180040280C0020044A137802210B43D7
S1133FF0137053785BB2002BFBDB70470018004052
S113400000B583B0124A936940210B43936101A91F
S113401000230B7005200F4B984705200E4B984743
S11340200E4A137801210B43137053785BB2002BB3
S1134030FBDB0B4B19004031002204C39942FCD135
S11340401022084B1A60084B984703B000BDC046C5
S1134050000400402D500000A14F00000018004053
S1134060280C002000E100E0E93F00000023036089
S1134070436001220272427283720233C372704738
S1134080F0B583B005000C0001A900234B70CB7080
S113409023790B70237A8B702078154B9847002076
S11340A01F2D00D8134807222A409200E77AA37AEA
S11340B0002B01D008231F43EB089B00C318996908
S11340C00F269640B14397403A000A439A61637AB7
S11340D0002B06D143690122AA409343436103B0F4
S11340E0F0BD42690123AB4013434361F7E7C04687
S11340F0255100000018004000B583B001AB8022B8
S11341001A700A785A704A789A708A78DA701900A4
S1134110014B984703B000BD25510000F0B5DE46C1
S113412057464E464546E0B587B080460491160092
S11341301F000022002300218B463F240120210080
S1134140009601975C4603944446059413E02024AA
S1134150641A0500E540A84614E0009C019D121B6A
S1134160AB415C464D462C43A346039C45462C4339
S11341700394013925D3202464420C19E7D40500A3
S1134180A540A84604008C40A14692185B41140047
S11341901D00059E4F463E40B446049E47463E40A1
S11341A0B246664657463E4303D0060026433200D5
S11341B02B00009C019D9D42DBD8CED19442D8D8DF
S11341C0CBE7039B5846190007B03CBC9046994680
S11341D0A246AB46F0BD10B54908402300248142F5
S11341E002D2180010BD1C00091A631C9BB288423D
S11341F0F9D94023FF2CF4D814800023F1E7000000
S1134200F0B583B00F00160008AA117804004C43DF
S11342104022BC4202D9100003B0F0BD002B14D1DF
S1134220020008000021194CA04701003A000023B5
S11342300020174CA04700220123121A8B41120CB4
S11342401B041A4332800022E5E70022012BF9D136
S11342500A00002300210D4CA04702000B0000922D
S11342600193380000210A4CA047050080239B01DC
S113427040229842CFD8790FF800009A019BA047BA
S1134280EA00821AD2B252032A43DBE7717F0000AC
S11342901D41000010B582B004000E4B1B78002BAA
S11342A007D0002905D10B4B5B78834210D01D2029
S11342B00CE001A90C701320074B98471320074BFF
S11342C09847044B5C7001221A70002002B010BDA4
S11342D00020FBE7940100202D500000A14F0000B6
S11342E0404B984231D00AD93F4B98424DD03F4B76
S11342F098425AD03E4B984237D0002070473D4BED
S113430098420CD03C4B9842F7D1012917D0002990
S11343105DD0022915D0032915D00020EEE701292C
S113432007D0002951D0022905D0032905D0002047
S1134330E4E73248E2E73248E0E73248DEE7324871
S1134340DCE73248DAE73248D8E7012907D0002908
S11343503FD0022905D0032905D00020CEE72D48FF
S1134360CCE72D48CAE72D48C8E7012907D0002922
S113437031D0022905D0032905D00020BEE7284802
S1134380BCE72848BAE72848B8E7012907D000293C
S113439023D0022905D0032905D00020AEE7234805
S11343A0ACE72348AAE72348A8E7012907D0002956
S11343B015D0022905D0032905D000209EE71E4808
S11343C09CE71E489AE71E4898E71E4896E7032094
S11343D094E71D4892E71D4890E71D488EE71D4865
S11343E08CE7C0460010004200180042001C004246
S11343F00014004200080042000C004203000500C3
S113440003000600030007000300010003001E0070
S113441003001F0002000D0002000E0002000F0046
S113442003001100030012000300130005003F0005
S113443005003E00050052000300170003001800A9
S1134440030019000300040002000C000300100024
S1134450050053000300160030B587B00B4B6A46C5
S113446032CB32C232CB32C2009B83420BD0012307
S11344709A0069465258824206D00133062BF7D17E
S1134480002007B030BD0023D8B2FAE7A8A000008E
S113449070470000F0B50A4B1B78002B0CD1094F74
S11344A0094E0A4D0024DE515A1914600433182BA6
S11344B0F9D10122024B1A708000024BC150F0BDA9
S11344C0960100209801002091440000680C00200F
S11344D000B583B009236A46137001335370013366
S11344E093700133D3700133137101335371034B50
S11344F098476B46185603B000BDC04659440000A7
S113450010B5024B1B680020984710BD980100208D
S113451010B5024B5B680120984710BD980100203C
S113452010B5024B9B680220984710BD98010020EB
S113453010B5024BDB680320984710BD980100209A
S113454010B5024B1B690420984710BD9801002048
S113455010B5024B5B690520984710BD98010020F7
S1134560F0B58BB005000C00160029600B681C2008
S11345709B0701D50BB0F0BD0B681738DB07F9D4E6
S11345800800604B9847604A116A871C0123BB40AE
S11345900B43136209A92427F35D0B701430C3B2D3
S11345A001931800594B98470198594B9847F05D6F
S11345B00021584B98473378012B38D02B000C330B
S11345C029002831002204C38B42FCD10023EB6272
S11345D0AB620024AB862B863633EC540133EC54A7
S11345E00133EC54353B6B722C712868454B98476A
S11345F007004949494B9847BF00494BFD502F6874
S113460004AB80221A705C707F3A9A70DC70337845
S1134610002B02D1002204AB9A70B36A0593F36AAB
S11346200693336B0793736B089300240BE02368A2
S11346300C2213432360C1E738003A4B98470AE041
S11346400134042C10D0E1B2A30002AA0C201218E9
S1134650D0580028F0D0431CF2D004A90870000CF4
S1134660C0B2314B9847EBE733786B71337CAB7155
S1134670B37CEB71337D2B72002202ABDA8033788A
S1134680012B28D07368B2681343F2681343317C5A
S1134690727C002A03D1254A9278920701D58022A0
S11346A01343B27C002A02D0802292021143F27C8E
S11346B0002A02D0802292001143327D002A02D0C7
S11346C08022920111433A6813433B607B680B4399
S11346D07B6000204EE728680A4B98471430C0B22C
S11346E0134B9847010002AB9A1DB069114B9847D0
S11346F003001720002B00D03CE702AB06331B78E5
S11347003B73BFE759440000000400402D500000F3
S1134710A14F0000954200002D4800009544000080
S1134720680C0020E14200002551000000200041F7
S113473049500000D741000010B544791523012CDD
S113474001D0180010BD047A0023002CF9D1002AEE
S113475058D04B78002B44D003681B7EDB0710D461
S11347600A78D1090023002904D15309DB012E4919
S11347708C4663441F21114001228A409A6105231B
S1134780DFE70A78D4090023002C04D15309DB01A4
S1134790254CA44663441F2414400122A2405A61BC
S11347A003681A7ED20701D58A789A62C2790023F7
S11347B0002AC6D102680421137E0B42FCD0117E6C
S11347C000234907BDD5538B5B0701D504235383CD
S11347D08379012B02D0936A0023B2E7936A002302
S11347E0AFE70A78D1090023002904D15309DB017A
S11347F00D498C4663441F21114001228A405A61AD
S113480000239EE70A78D1090023002904D1530923
S1134810DB0105498C4663441F21114001228A4073
S11348209A6100238DE7C04600440041F8B580003A
S1134830704BC45826683723E75C3622A25C1740C5
S1134840337EB57D1D40EB0702D56379012B1ED065
S11348506B0711D5738B5B075AD5637A012B08D08C
S11348601E223823E254353B6372023333753B070F
S11348704AD4B36A04237383AB0703D56379012B4A
S113488000D197E06DB2002D00DAA9E0F8BD637A9B
S1134890002B22D0637A002BDAD02168E26A1378E5
S11348A0DBB2501CE062A079012827D09BB2DB0563
S11348B0DB0D8B62A38E013B9BB2A386A38E9BB2BE
S11348C0002BC5D101333375637A012BC0D1E37951
S11348D0002BBDD10233B375BAE7474B1B88B362D3
S11348E0638E013B9BB26386638E9BB2002B01D126
S11348F0013333756379012BCCD0A9E750780002DA
S113490003430232E262D2E72000A3699847B0E78A
S1134910637A012B28D023689B6ADB05DB0DDAB2AE
S1134920A16A0A70A26A511CA162A179012934D03A
S1134930238E013B9BB22386238E9BB2002B00D097
S11349409AE700223833E254343B3375637A022BFE
S113495029D0637A002B00D08EE7BB0700D48BE705
S113496020002369984787E723689B6A638E013B8D
S11349709BB26386638E9BB2002B00D07CE704332A
S1134980337500223433E254353B6372FB0700D4A1
S113499072E72000E36898476EE71B0A5370A36A26
S11349A00133A362C4E77B0700D465E72000636991
S11349B0984761E7637A012B00D063E7E379002B22
S11349C000D05FE70233337501336372002235335D
S11349D0E254FB0700D455E72000E368984751E709
S11349E08023337533767B0600D44FE7636A200057
S11349F098474BE7680C0020800C002010B508286D
S1134A0003D880001B4B1B589F46002030E01A4BF4
S1134A1018692DE0194B1B6A9B059B0F1848D84059
S1134A2026E0154B586923E0134B1B6800209B07B5
S1134A301ED512491022CB681A42FCD00E4B1B68BB
S1134A405B0701D40F4813E000200F4B98470A4B33
S1134A509B681B041B0C58430AE05023074AD35C91
S1134A6000205B0704D5044BD86801E080200002D5
S1134A7010BDC046C0A00000B001002000080040E6
S1134A8000127A00006CDC024950000070B50C4939
S1134A900B6A047885784078012210408001402612
S1134AA0B34303432A40D2018020834313430322A8
S1134AB0224012020348034013430B6270BDC046F8
S1134AC000080040FFFCFFFFF0B5CE46474680B526
S1134AD0194B99469B6941788C4605780679C778C5
S1134AE044798078012108408000042293430343E1
S1134AF060460840C0000432934303433800084032
S1134B0080014027BB43034330000840C001802696
S1134B10B3430343072005402D02084803402B43B9
S1134B2021400903064803400B434A4693610CBCE9
S1134B3090469946F0BDC04600080040FFF8FFFFCC
S1134B40FFEFFFFF10B5037A9B061B0C4289920509
S1134B50920D134318494B608379C27913434288F9
S1134B608488224313434278D20113430B600378B1
S1134B70042B11D0202B0ED1037B9B06028A1343F6
S1134B80C28912040D490A4013430B4A9360116809
S1134B900B4B0B43136010BD037B9B06028A13432C
S1134BA0C289120405490A401343034A93601368F7
S1134BB004210B431360EEE7B00100200000FF0363
S1134BC024040000082803D88000254B1B589F4666
S1134BD0172044E0234A136A02210B431362002086
S1134BE03DE0204A936902210B439361002036E0A3
S1134BF01C4A138A02210B43138200202FE0194A16
S1134C00938A02210B439382002028E016490B6803
S1134C10022213430B60134B9A8419000E32CB68A3
S1134C201A42FCD0104A91680E4BD96252689A62BB
S1134C3000229A8419001032CB681A42FCD00A4B25
S1134C401B689BB2074A9384002008E0054944226C
S1134C508B5C022003438B54002000E0002070474B
S1134C60E4A0000000080040B0010020F0B5CE46EA
S1134C70474680B58DB0C222D200504B9A60504A4C
S1134C8053681E218B431A390B435360032201AB33
S1134C901A7000244B4DE0B201A9A8470134252C19
S1134CA0F9D1494D2B68DB0444498A695B0E1B0426
S1134CB04648024013438B610AA8012383700722EC
S1134CC002700024447144700471C370404B9847CF
S1134CD00420404B984705AB00225C809C809A716D
S1134CE0DA713F2159813B3919705A702B689B0E38
S1134CF03F2B60D005A8037204230382033303739C
S1134D003833C381344B984704A800254570057097
S1134D108570324B984706202E4FB847304B984742
S1134D2001AC012602966570062323702572657214
S1134D30210001202B4B9946984701202A4B984685
S1134D40984765706572042323702023636026727C
S1134D5021000220C8470220C047267021000020FD
S1134D60184B98470020214B98470720B847134910
S1134D70D022CB681340D02BFBD1104A938C8021D6
S1134D800B4393841A4A0023137253729372D3729F
S1134D9001A901224A604B700B724B7207330B70EE
S1134DA00020104B984700200F4B98470DB00CBCC7
S1134DB090469946F0BD203B9CE7C0460008004061
S1134DC0004000412D50000024608000FFFF80FF60
S1134DD0C94A0000C54B0000454B00008D4A000045
S1134DE0F54D0000194E0000D14E0000A14F000007
S1134DF000040040064A936908210B439361012291
S1134E00044B1A7019000B781342FCD17047C0464A
S1134E1000040040000C004070B5060004000D784A
S1134E202D0205434B78002B02D08023DB021D4367
S1134E304B7A002B02D080231B031D4348680128B2
S1134E4010D9431E184234D1022830D9022300223B
S1134E5001325B009842FBD81202324314008023D3
S1134E605B031D430B7A002B02D080239B031D435D
S1134E70134A53785BB2002BFBDB124B9847124B5F
S1134E801E700F4A53785BB2002BFBDB0C4B9C600B
S1134E901A0053785BB2002BFBDB094A536880216C
S1134EA049020B401D435560084B984770BD0022D2
S1134EB0D2E70402344380239B021D43D2E7C04659
S1134EC0000C0040B93E0000080C0040F93E000010
S1134ED010B504000B4A53785BB2002BFBDB0A4B82
S1134EE098470A4B1C70074A53785BB2002BFBDBD4
S1134EF0044A516880235B020B435360044B984778
S1134F0010BDC046000C0040B93E0000040C004037
S1134F10F93E000070B504001A4A53785BB2002BC6
S1134F20FBDB194B9847194B1C70164A53785BB23C
S1134F30002BFBDB134E7068C004C00E144B984763
S1134F400500124B1C707668F602F60F114B1C70AC
S1134F500C4A53785BB2002BFBDB0A4B9C6824029F
S1134F60240C0D4B9847002E07D1012C07D92100A2
S1134F7028000A4B9847050001E00134E540280069
S1134F8070BDC046000C0040B93E0000040C004057
S1134F90FD490000080C0040F93E0000857C00003B
S1134FA010B50400064B9847064B1C70064A5388FC
S1134FB08021C9010B435380044B984710BDC04660
S1134FC0B93E0000020C0040000C0040F93E000015
S1134FD010B504000F4B98470F4B1C700F4A5388B1
S1134FE01B05180F53880E490B40538053880D49F5
S1134FF00B40538011008022D2014B881342FCD114
S113500006494A8803020648024013434B80064B74
S1135010984710BDB93E0000020C0040000C00404F
S1135020FFF0FFFFFFBFFFFFF93E000010B50C7853
S113503024020443024B9847A4B2024B5C8010BD87
S1135040D14F0000000C004010B50400064B9847F7
S1135050064B1C70064B5C882405240F054B9847AF
S11350602000054B984710BDB93E0000020C0040DB
S1135070000C0040F93E0000154F000030B5D37815
S1135080002B35D11378802B29D01B068024640291
S1135090234354780225AC4306D19478002C20D1C4
S11350A08024A402234341605478013C012C1CD980
S11350B00D042D0CA024E4052C431C4384620D0C28
S11350C0D02424062C431C438462D478002C22D19F
S11350D05B031CD59378012B1ED0416117E000239C
S11350E0D7E7C024E4022343DDE70D4C2340DFE788
S11350F041600C04240CA023DB05234383620C0CC5
S1135100D0231B0623438362D378002B03D1537827
S1135110013B012B02D930BD8161F8E78160FAE7D8
S1135120FFFFFBFF10B50A00C1090023002904D1C9
S11351304309DB0105498C4663441F2420400121B7
S113514081401800024B984710BDC04600440041FE
S11351507D5000007047000010B5044B9847044B85
S11351609847044B9847044B984710BD6D4C00007A
S1135170555100000140000055510000931C9B0054
S11351801950022A09D0032A0CD0012393401A0093
S1135190037E1343037600207047037E10221343DB
S11351A00376F8E7037E202213430376F3E7000037
S11351B070B58000164BC45823689D7B227E637EA5
S11351C013401D40EB0706D4AB070BD4EB0610D4F9
S11351D0AB0615D470BD2000A3689847012322684C
S11351E09373F1E72000E3689847022322689373DE
S11351F0ECE7200023699847102322689373E7E7BC
S1135200200063699847236820229A73E2E7C04626
S1135210840C002010B50020014B984710BDC046F7
S1135220B151000010B50120014B984710BDC04694
S1135230B151000010B50220014B984710BDC04683
S1135240B151000030B585B001AA0B4B32CB32C24C
S1135250019B98420DD0029B984208D00023039AE8
S1135260824202D0180005B030BD023302E00123AF
S113527000E00023DBB2F5E708A10000F0B587B039
S113528004000D0016000800854B9847070005AB85
S11352901B221A7001325A709A7003AB80221201D9
S11352A01A80802252015A80802292019A8000231F
S11352B0A360E36023616361237663768200794BA4
S11352C0D4502560B378082B06D023712B88052091
S11352D0DB0705D507B0F0BD1720FA07FAD5F4E7C8
S11352E0EB7B1730DB06F5D42B889B07F2D4337C99
S11352F0002B79D1337F002B00D081E06A49086A02
S11353007A0003ABD35A03430B62B378082B00D162
S113531086E001A933780B7005ABDF5D3800634B81
S113532098473800624B98473189B3880B43B1786A
S1135330B279114319437378002B02D080231B01E7
S113534019432268D37B5BB2002BFBDB2980717B82
S11353504B1E99418900B37B002B01D001231943D3
S11353602268D37B5BB2002BFBDBFF232B7100296C
S113537005D02268D37B5BB2002BFBDB6971B17A69
S1135380F37A002B01D010231943337B002B01D077
S1135390202319432268D37B5BB2002BFBDBA9716A
S11353A02268D37B5BB2002BFBDB2379042B3FD039
S11353B0082B5ED01720002B00D08BE7D37B5BB289
S11353C0002BFBDB338D2B822268D37B5BB2002B5B
S11353D0FBDB738D2B832268D37B5BB2002BFBDB5F
S11353E0B38D6B83002075E702A901238B70002223
S11353F0CA70327E0A704B70307D2E4B984779E725
S113540002A901238B700022CA702432B2181278C8
S11354100A704B701F33F3181878264B98476DE7C2
S1135420086A7A1C520003ABD35A03430B6270E739
S1135430D37B5BB2002BFBDB2823F35C2B74226849
S1135440D37B5BB2002BFBDB2923F35C2B75226837
S1135450D37B5BB2002BFBDB2A23F35C2B76226825
S1135460D37B5BB2002BFBDB2B23F35C6B7600203E
S113547030E7D37B5BB2002BFBDBB36A2B61226882
S1135480D37B5BB2002BFBDBF36AAB612268D37B7B
S11354905BB2002BFBDB336BEB6100201AE7C046E9
S11354A045520000840C0020000400402D500000F0
S11354B0A14F0000255100000268D37B5BB2002B92
S11354C0FBDB0379042B05D0082B09D00020002B2B
S11354D003D07047107CC0B2FBE7108A80B2F8E7B3
S11354E01069F6E710B50468E37B5BB2002BFBDBC5
S11354F00379042B05D0082B14D01720002B08D0D7
S113550010BD17200129FBD8D2B261180A760020F9
S1135510F6E717200129F3D892B20C3149000A5357
S11355200020EDE717200129EAD8063189000A5145
S11355300020E5E7FEE70000F8B52A4A2A4B9A4224
S113554011D01A00294B9A420DD2294A03339B1ACF
S11355509B0801339B000022234822498C58845025
S113556004329A42FAD1234A234B9A420AD2D343B1
S113557021495B1803218B4304339B18002102C289
S11355809342FCD11D4AFF211D4B8B439360FD398F
S113559090235B001B4AD1501B4AD3780325AB43AD
S11355A002242343D370D3780C27BB430826334308
S11355B0D370164B987B302290432022104398736B
S11355C0997BB943314399739A7BAA4322439A73D3
S11355D00F4A536880210B4353600E4B98470E4B80
S11355E09847FEE7ECA500000000002080000020A2
S11355F004000020800000205C0E002000ED00E08C
S113560000000000007000410050004100480041CB
S113561000400041C57F0000357800000300064AC1
S11356201268002A04D0044A1068C3181360704733
S11356300249014A1160F6E7C8010020602E0020EB
S113564001204042704780239B014B60002070473B
S11356500120704700207047F8B50600FF2827D0C6
S1135660154D164F2C88A4B2B8472B889BB29C4288
S1135670F8D1240433012043114A9C58201A114BB9
S1135680984211D832010E4B9B185B7B002B0ED134
S11356900D4B98420BD880B20C4B98473601084BFF
S11356A09E190123737302E00122094B1A70F8BD9D
S11356B0084B9847FBE7C046900C0020A57B0000F0
S11356C0940C0020FEFFFF7FFFFF0000197C000008
S11356D0E40C0020F17B000010B51D4B1B78002B5F
S11356E027D000221A4B1A701A4B1B78002B20D09B
S11356F0194B1B68FF2B1DD0184B186818490B68F1
S11357001A01184B9B1818730860164A13490B6842
S11357101B01D318187B0860114B1B681B01D2189E
S1135720FF2313730B4A1378013BDBB21370002B76
S11357300BD110BD0A4B1B68FF2BDDD1074B1B6837
S1135740074A1360044A1360DFE7074B9847F0E702
S1135750E40C0020D8010020CC010020D40100205A
S1135760D0010020940C00205956000070B5064D5D
S1135770064E2C88A4B2B0472B889BB29C42F8D129
S11357802404204370BDC046900C0020A57B00007B
S1135790F0B5DE4657464E464546E0B583B0EFF3D6
S11357A0108253425341009372B6BFF35F8F0022BD
S11357B0274B1A70009C274B9847FF23234205D0A0
S11357C00122234B1A70BFF35F8F62B6204B9A46B7
S11357D0214C224B99460022FF20214B98461C4B1A
S11357E09C4604E0434618601EE0002E25D11A4B67
S11357F01B68FF2B24D0EFF310814B424B410193E4
S113580072B6BFF35F8F53461A70019F23681B0162
S11358104B44197B5E689D68AB4618735A609A6066
S11358205A732160FF29DDD03842DED0012361465E
S11358300B70BFF35F8F62B6D7E75846B047CAE72D
S113584003B03CBC90469946A246AB46F0BDC04668
S11358500C000020D9560000CC010020940C00203C
S1135860D001002010B5024B9847002010BDC0465F
S1135870096A000010B5014B984710BD915700000C
S113588010B582B00400054B98470190042201A989
S11358902000034B984702B010BDC0466D5700006E
S11358A00D800000F8B50D4E30000D4B98470D4C9F
S11358B00D4D2560210030000C4FB8472B0090336C
S11358C0A360210008313000B8472135FF35256138
S11358D0210010313000B847F8BDC046A4030020B1
S11358E0B15A0000DC010020F4010020C95A000074
S11358F010B500210148024B984710BDA4030020B5
S1135900555B000010B5002803D001000148024B8C
S1135910984710BDA4030020C95A0000F0B5CE4634
S1135920474680B583B0070089461500EFF310831E
S11359305A425341019372B6BFF35F8F00225B4B0F
S11359401A70019B9846037A002B00D1ABE00478CF
S113595043781B022343847824042343C478240615
S11359601C43002D43D0002C30D0260000E01C0046
S113597029796B791B020B43A97909040B43E97953
S113598009061943207863781B020343A0780004B6
S11359900343E078000618432B786A7812021A430E
S11359A0AB781B041A43EB781B0613439847002873
S11359B01ED12379627912021A43A3791B041A4374
S11359C0E3791B0613432600002BD0D10024FF23C8
S11359D04246134205D00122344B1A70BFF35F8F45
S11359E062B6200003B00CBC90469946F0BD260078
S11359F0002CECD04B46002BE9D13B787A7812028C
S1135A001A43BB781B041A43FB781B0613439C42BE
S1135A102FD02379627912021A43A3791B041A4303
S1135A20E3791B06134333711A0A72711A0CB271AB
S1135A301B0EF3713B797A7912021A43BB791B046A
S1135A401A43FB791B0613439C4224D03B7A013B47
S1135A503B723B787A7812021A43BB781B041A43D0
S1135A60FB781B061343B2D13B717B71BB71FB7195
S1135A70ADE72379627912021A43A3791B041A430E
S1135A80E3791B0613433B701A0A7A701A0CBA7036
S1135A901B0EFB70CEE73E71330A7B71330CBB7176
S1135AA0360EFE71D2E7002491E7C0460C000020B8
S1135AB00023037043708370C37003714371837157
S1135AC0C37103727047000010B582B0EFF3108306
S1135AD05A425341019372B6BFF35F8F00221C4BAD
S1135AE01A70019C037A002B20D101700B0A4370B9
S1135AF00B0C83700B0EC37001710B0A43710B0CFA
S1135B00FF2283710B0EC37100230B714B718B71D8
S1135B10CB71037A01330372224205D0FE3A0C4B57
S1135B201A70BFF35F8F62B602B010BD0379427979
S1135B3012021A4383791B041A43C3791B061343C5
S1135B4019710A0A5A710A0C9A710A0EDA71D3E7AA
S1135B500C00002010B50A000021014B984710BD2D
S1135B601D590000F0B583B000221F210120244BF1
S1135B709847082801D003B0F0BD0730214CA04756
S1135B800E20A047050001210E201F4CA047002134
S1135B9000201E4B984709210220A04701A81C4B56
S1135BA098471C4E1A4F0124336A1C4218D1684688
S1135BB0B847009B019A9B1AFA2BF5D91A20114B6E
S1135BC09847C30708D5FE2101401A200E4B984779
S1135BD001A80F4B9847E6E701210143C9B2F4E756
S1135BE00F20084B984701220B4B1A61002100201B
S1135BF00A4B984729000E20034B9847BBE7C04641
S1135C00456D00003D6B0000396C0000753F0000DD
S1135C10815800008044004100180040553F0000B6
S1135C2070B582B00400964B18780F2807D0033C57
S1135C30E3B2162B7CD89C00924B1B599F460F2C29
S1135C4000D17EE00026904B1E709048904B984700
S1135C500125904B1D61002100208F4B9847EFF3E5
S1135C6010835A425341019372B6BFF35F8F8B4B3B
S1135C701E7001991D70BFF35F8F62B680225203BC
S1135C80874B5A61804A1378002BFCD0FF230B42C8
S1135C9005D00122814B1A70BFF35F8F62B60F20CB
S1135CA0804B984780487A4B984708210E207F4BB9
S1135CB098470123022204210D207D4DA847082284
S1135CC06F4B1A700820082C3BD0032C39D0043CAD
S1135CD0E3B2152B2CD89C00764B1B599F4603210D
