S0180000415050535F57534E5F44454D4F5F45442E7372656315
S1130000F8330020912000008D2000008D20000096
S113001000000000000000000000000000000000DC
S11300200000000000000000000000008D2000001F
S113003000000000000000008D2000008D20000062
S11300408D2000008D2000008D2000008D200000F8
S1130050D10200008D2000008D2000008D200000C2
S11300608D200000510900006109000071090000A1
S11300708109000091090000A10900008D20000001
S11300808D2000008D200000F11B0000511C000099
S1130090B11C000000000000000000008D200000E2
S11300A08D200000000000008D20000000000000F2
S11300B00000000010B5064C2378002B07D1054B37
S11300C0002B02D0044800E000BF0123237010BDC0
S11300D0C000002000000000C48B0000084B10B5D5
S11300E0002B03D00749084800E000BF0748036815
S11300F0002B00D110BD064B002BFBD09847F9E72D
S113010000000000C4000020C48B0000C48B000069
S11301100000000070B5094B00209847FA21084CF4
S113012089000500A047074B074918602800A0472D
S11301300522064B1860064B1A6070BD09190000B1
S1130140617800000000002040420F0004000020FD
S113015010E000E0802130B50025084B084A1C68F7
S11301604902013808D3002CFBD054609560136811
S11301700B42FCD00138F6D230BDC046040000204A
S113018010E000E00B4B1A68002A05D1EFF3108150
S1130190002905D008490A701A6801321A607047AC
S11301A072B6BFF35F8F054A1170034A01311170B3
S11301B0F2E7C046DC000020E00000200800002038
S11301C0084B1A68013A1A601B68002B09D1064BC8
S11301D01B78002B05D00122044B1A70BFF35F8FEC
S11301E062B67047DC000020E00000200800002018
S11301F070B50123002682B001AC154D21005220B8
S113020063702370A670A84721003E20A8472100F0
S11302103F20A84721002F20A84721001420A847E9
S113022080220C4BD2029A6180220B4BD2059A6138
S1130230802212069A61802212029A618022074B60
S113024052039A61210053202670A84702B070BD62
S11302501104000000450041804400410044004175
S11302601723002A01D018007047064A89008B58CA
S1130270002B03D0834203D01D23F4E78850F2E718
S11302800023F0E7A00300201723002901D0180061
S113029070471F2805D8163B8340034AD3600023C8
S11302A0F5E7C960FFDEC0460018004017230029A7
S11302B001D0180070471F2805D8163B8340034A15
S11302C093600023F5E78960FFDEC0460018004014
S11302D0F8B5002301260B4C0B4D0C4F2370320054
S11302E09A402969114206D02A619B00DB59002BF0
S11302F000D0984723780133DBB223700F2BEED95B
S1130300F8BDC0469C03002000180040A003002054
S1130310402110B5144A82B0936905200B439361C0
S1130320002301A90B70114B9847114B05209847E6
S11303300122104C23781343237063785BB2002BA3
S1130340FBDB40220C4B00210C48984710220C4B3D
S11303501A6023780E3A1343064A237053785BB22B
S1130360002BFBDB02B010BD00040040911900001B
S1130370F519000000180040197C0000A0030020BB
S113038000E100E000230122036043608372023332
S113039002724272C3727047F0B500230C0083B03E
S11303A001A94B70CB70237905000B70237A207858
S11303B08B70154B984700201F2D00D81348072237
S11303C0A37A2A409200E77A002B01D008231F4326
S11303D00F26974096403A00EB089B00C318996992
S11303E0B1430A439A61637A002B06D10122AA40E1
S11303F043699343436103B0F0BD0123AB404269B9
S113040013434361F7E7C046BD1A000000180040DB
S1130410802200B583B001AB1A700A785A704A780A
S11304209A708A781900DA70014B984703B000BDBE
S1130430BD1A000010B5490840230024814202D2AD
S1130440180010BD1C00631C091A9BB28842F9D91C
S11304504023FF2CF4D814800023F1E7F0B5DE46E6
S1130460454657464E46E0B587B0934610AA1478E1
S11304700200884662434021424507D9080007B07C
S11304803CBC90469946A246AB46F0BD002B5FD1DA
S11304900200002120008A4CA04743460093002319
S11304A0202198468A461F3900278C4641468146BA
S11304B00193D846002200233F200291BB460FE05F
S11304C0BD4252D0A346009C019D0291BD4234D846
S11304D0BD4250D011001C000A002300013832D361
S11304E02021494241183AD464468C402100644694
S11304F0844092185B41049466464C4616430C4271
S113050000D0320014001D0016001F00009A019B49
S1130510A41A9D4122005C462B00049D25432C0017
S1130520029D2943019DBD42CAD95C460299A34656
S1130530009C019D0291BD42CAD931003C000A00D1
S113054023000138CCD25F467F42C3463F0C02E011
S11305500027012B15D05B4600211F808EE75146F2
S11305606446091ACC402100C1E7009DB542A9D9CF
S11305705C460299DBE70099B142ABD931003C00FB
S1130580DDE7220000234E4C0021A04701240B008C
S1130590002102008C46002000213F26A14618E0DD
S11305A004000D0020002900A41A9D410094019527
S11305B0644627438B421ED81BD0BC468B4215D8B9
S11305C012D00098019982460C0050462100013E49
S11305D013D34F46001849414C46B740454604439F
S11305E02F42DDD00D00DDE78242EAD982460C00BD
S11305F0EBE78242E1D96746DFE7802040218001B2
S1130600874200D93AE74146490F0C003F2641464C
S1130610B446C9003E3E0D00B04600215E46894600
S113062005970020674600210496A246AC4618E0D0
S113063004000D0020002900A41A9D414E46029496
S11306400395009C344326008B4228D825D0B1461C
S11306508B421FD81CD0029C039D20002900013F1F
S113066024D3202464423C191BD44546A5400018D9
S11306704941444646460443BE40A3466446009668
S11306803440564635402543D2D05C460D00D1E770
S11306908242E0D904000D00DFE78242D7D94E46FA
S11306A0D5E720244546E41BE540E0E7049B059F8D
S11306B09B46FB00F31ADBB25B031F43BFB24AE75E
S11306C04D7B000030B50E4C83B023780500002B21
S11306D006D0002904D1637883420FD01D200BE09B
S11306E001A91320074B0D7098471320064B984718
S11306F0012300206570237003B030BD0020FBE7A8
S1130700E400002091190000F51900003A4B9842CA
S113071043D00AD9394B984217D0394B984232D03A
S1130720384B98421BD000207047374B984220D05A
S1130730364B9842F7D1012943D000293FD00229F2
S11307403BD00329EFD13248EEE7012931D000290B
S11307502DD002292FD00329E5D12E48E4E7012921
S11307603FD000293BD0022937D00329DBD12A48C6
S1130770DAE701293DD0002939D002292BD00329F9
S1130780D1D12648D0E7012923D000291FD002293E
S11307901BD00329C7D12248C6E7012925D0002947
S11307A021D002290FD00329BDD11E48BCE71E4821
S11307B0BAE71E48B8E71E48B6E71E48B4E71E4825
S11307C0B2E71E48B0E71E48AEE71E48ACE71E4835
S11307D0AAE71E48A8E71E48A6E71E48A4E71E4845
S11307E0A2E71E48A0E71E489EE71E489CE71E4855
S11307F09AE71E4898E7C0460010004200180042DD
S1130800001C00420014004200080042000C004298
S11308100200130005005200020019000300070043
S11308200300190002000F000500530005003F00FB
S113083005003E0002001200020010000200110038
S113084002000E000300180003003E0003003F00F6
S1130850030006000200180005001B0005001C0030
S11308600300080003000900020008000200090058
S113087070B586B001006846154B70CB70C070CB64
S113088070C0009B8B4211D0019B8B4211D0029B04
S11308908B4211D0039B8B4211D0049B8B4211D00D
S11308A0059B00208B4210D006B070BD0020C0B262
S11308B0FAE70120C0B2F7E70220C0B2F4E7032050
S11308C0C0B2F1E70420C0B2EEE70530C0B2EBE7F6
S11308D09C8A00007047C046F8B50C4E050033787A
S11308E00F000B4C002B0DD10A4B182223606360C0
S11308F0A360E360236163610021074B07489847C5
S113090001233370AD006751F8BDC046E6000020F6
S1130910E8000020D5080000197C0000E003002056
S113092000B583B06A460923137001335370013351
S113093093700133D3700133137101335371034B3B
S113094098476B46185603B000BDC04671080000B6
S113095010B5024B00201B68984710BDE80000202A
S113096010B5024B01205B68984710BDE8000020D9
S113097010B5024B02209B68984710BDE800002088
S113098010B5024B0320DB68984710BDE800002037
S113099010B5024B04201B69984710BDE8000020E5
S11309A010B5024B05205B69984710BDE800002094
S11309B0F0B54E464546DE465746E0B5050029608B
S11309C00B6887B00E0014009B070CD401270B683A
S11309D005201F4200D1DFE007B03CBC9046994699
S11309E0A246AB46F0BD136B906A9846536BD76A28
S11309F09946002800D1BFE0431C1ED00204000C1D
S1130A00130CC0B29B46C1094309002900D0BEE0C3
S1130A101F3101408C46D349DB018A466146534469
S1130A205918403109788A4601215246114200D0B2
S1130A303CE180235B4500D09AE0002F00D1A0E088
S1130A407B1C19D03A043F0C130CF8B29A46C10926
S1130A504309002900D09AE0C2491F278C4601228D
S1130A60DB0107406344D919403109780A4200D0B8
S1130A702CE1802353457BD14346002B00D13DE13B
S1130A804346013319D043461A04130C9A4643468D
S1130A90180CC0B24309C10979D1B2491F278C4649
S1130AA00122DB0107406344D919403109780A4225
S1130AB000D017E180239A455AD14B46002B00D130
S1130AC022E14B46013327D04B4619040B0C9A46BE
S1130AD04B46180CC0B24309C20958D1A14A1F277A
S1130AE09446DB0163440740DA1940321278904699
S1130AF0012294467F32914661464246114209D012
S1130B007F08DB1930331A78D2B2014200D101E1F7
S1130B1013099946CA452BD11320934B9847227841
S1130B200027012A00D109E1A2686368617C1343AC
S1130B30E26813433B43227C002901D080210B430C
S1130B40A17C002902D0802189020A43E17C00298A
S1130B5002D0802189000A43217D002902D080210E
S1130B6089010A430220316803438B4200D1D5E056
S1130B7000231C202B602FE7002130007B4B98477B
S1130B803AE701213000794B9847070058E71F23C3
S1130B90184040300378FFDE0800754B9847811CED
S1130BA08F40744B14301A6A694617431F6224231A
S1130BB06A469846E35CC7B2137038006E4B984798
S1130BC038006E4B984743460021E05C6C4B9847D5
S1130BD02378012B00D1ABE02A6869469146802234
S1130BE00A71002268464A710121C2718171002B89
S1130BF000D18371A36A02AF0293E36A00267B608B
S1130C00236BBB60636BFB60584B9B465D4B9A4602
S1130C10B300F858F1B2002845D0431C05D06B4608
S1130C201871000CC0B201A9D0470136042EEFD1CF
S1130C3023786A466B71237CAB71A37CEB71237DB3
S1130C402B72002353802378012B00D1A0E0A268EB
S1130C506368217C1343E2681343627C002A1FD13A
S1130C60494A927892071BD4A27C002A02D080229F
S1130C7092021143E27C002A02D0802292001143A6
S1130C80227D002A02D08022920111434A46126832
S1130C90002013434A46136053680B4353609BE69A
S1130CA080221343E0E74846D847B6E76246520835
S1130CB09446634430331B78DBB29C461B090142E3
S1130CC000D0B7E60F2362461340B3E67F08DB1972
S1130CD030331978C9B20B09024200D0CAE60F2397
S1130CE00B40C7E67F08DB1930331978C9B20B090A
S1130CF0024200D0DFE60F230B40DCE60221300085
S1130D001A4B98478046BBE603213000174B98479F
S1130D108146D6E60F231A409146FBE67368934258
S1130D2000D025E7237800206B71237CAB7153E658
S1130D300C2233681343336023784DE70100134BCF
S1130D4002AAA069984703001720002B00D043E6AD
S1130D506A46337B127A05309A4200D03CE60C375F
S1130D60E2E6C04600440041251A00000D070000D9
S1130D70710800000004004091190000F5190000FA
S1130D80C5060000BD1A0000002000413504000023
S1130D900B4B2868984714300A4BC0B298476B46EF
S1130DA001009A1CA069084B984703001720002BE8
S1130DB000D011E66B464A469B78137347E7C0465A
S1130DC071080000251A00003504000070B543794D
S1130DD01524012B01D0200070BD047A002C3AD1D7
S1130DE0002A3AD04A78002A46D00268127E1A4075
S1130DF00DD108784109C4093CD11F320240934007
S1130E00CA01264905348C4662449361E3E70D78B0
S1130E106A09EE093FD11F242C401D00A5402C0077
S1130E201E4DD201AC466244546102688C78117E36
S1130E300B4200D09462C379002B0CD104210268C8
S1130E40137E1942FCD0137E194204D0538B5B07E6
S1130E5000D55183936A0024BDE708784109C40989
S1130E6008D11F2202409340CA010C498C466244B7
S1130E709361B0E79261FFDE08784109C40908D1A3
S1130E801F2202409340CA0104498C4662445361C4
S1130E90A1E75261FFDE6461FFDEC0460044004109
S1130EA0F0B54E464546DE465746E0B50500BC4B18
S1130EB00C0091B029600800904699469847012398
S1130EC0226806000520134206D011B03CBC9046AF
S1130ED09946A246AB46F0BD022722681730174058
S1130EE0F3D1B01C8340AF4A1436116AF6B20B43F7
S1130EF013622D239A46434652469B5C0AA90B7003
S1130F003000A94B98473000A84B984752464346B7
S1130F100021985CA64B98474346DB7A42466B71A6
S1130F202423D35C0CAEAB712523D35CEB71D37E4D
S1130F302B72137F6B722B6818009A46C84743467E
S1130F4037801A8A802314300292DB019A4200D13E
S1130F50D2E000D8EEE0C023DB019A4200D1F7E0F2
S1130F6080231B029A4200D0EDE00323099300235F
S1130F70089343461B68424603934346DB68049345
S1130F8043465B69059343461B7E06932623D35C45
S1130F90079353689B46002B00D1B7E080235B0581
S1130FA09B4500D0B0E02723D35C0021002B00D167
S1130FB0EAE043465B7E002B03D0434652469B7EC9
S1130FC093732A68029FD369002BFCD15346049A79
S1130FD09981039B1343059A13435A4613431F43B2
S1130FE0069B42461B021F43079B5B071F432723A5
S1130FF0D35C002B01D104331F43434642465B7E3E
S1131000127F9B02520213434246527F4146120210
S1131010134324228A5C5204134325228A5C897A6E
S1131020120413434246D27A1143194343461B899F
S1131030FF2B00D191E080225204174319432C2343
S11310404246D35C002B03D15A4B9B789B0701D5B6
S113105080231F432A68D369002BFCD1534659606F
S11310602A68D369002BFCD1524608A917604B7338
S1131070CB738B7343461B6B80220C9343465B6B91
S11310800027736043469B6B0A73B3604346DB6B74
S1131090F360494B9B46494B9A46BB00F058F9B262
S11310A000282ED0431C05D008AB1873000CC0B226
S11310B00BA9D0470137042FEFD1280000211822B3
S11310C03F4B0C30984700220023EA85AA626A62EB
S11310D0AA853032AB540132AB540132AB540132E5
S11310E0AB542868C8470400364B37499847374BF8
S11310F0A400E5500020E8E60823099300230893A0
S113110037E72000D847CDE7002152E7272342469E
S1131110D35C002B2AD041464046099B3200009301
S1131120896A089B006A2A4FB847002800D0CCE699
S113113031883EE780239B019A4204D1102309930E
S11311400F3B089315E7102309930023089310E736
S113115008230993073B08930BE74346DB7E002BE8
S113116000D16CE78023DB041F4368E7136AC0B235
S11311701F00184B9847099B010000933200089BFD
S11311803800134FB847D0E7136AC0B21F00114BA1
S1131190984732000100104B38009847C5E7C04615
S11311A0710800000004004091190000F5190000C6
S11311B0C5060000002000410D070000BD1A000014
S11311C0197C0000D908000085130000E00300200A
S11311D05D040000251A000035040000C2791C23B8
S11311E0002A01D118007047C28D173B002AF9D19B
S11311F00368DA69002AFCD1198502211A7E11429A
S1131200FCD00023EEE7C046827903001C20002AAC
S113121000D170479A8D1738002AFAD11A68137EC4
S11312205B07F6D5D369002BFCD1538BDBB2980650
S113123005D00220184206D050831830E9E7138DF8
S113124000200B80E5E70420184202D050831A30B6
S1131250DFE70120184202D050831230D9E7102072
S1131260034202D050833230D3E720200342E6D039
S113127050832130CDE7C046F0B5DE4657464E4692
S11312804546E0B5172383B0002A07D1180003B000
S11312903CBC90469946A246AB46F0BD8379002BF0
S11312A001D11C23F2E70225AB46013DAA460F35C6
S11312B0A946334D00260423A846013A046892B295
S11312C0257E2B4207D12E4D02E0013D002D0AD090
S11312D0277E3B42F9D08579002DE2D0858D002D03
S11312E003D00523D2E71223D0E705682F7E3B42C3
S11312F0F7D0EF69002FFCD16F8BAC463F25FFB2CE
S11313003D4207D05D463D421BD05B4665466B833C
S11313101A23BBE765462D8D771CBFB2ADB201978A
S11313208D554779012F06D0019E013A92B242456C
S1131330C6D10023AAE7019F02362D0AB6B2CD55C5
S1131340F3E73B4203D065466B831E239EE7554675
S11313503D4204D0534665466B83132396E74D46BE
S11313602F4204D04B4665466B8342238EE72025EB
S11313702F42CFD0202365466B83412386E7C046A6
S1131380FFFF0000F8B5624B8000C5582C68E36984
S1131390002BFCD1237EA67D31221E403023AF5C7E
S11313A0EB5C1F400123334219D0EA8D002A4DD053
S11313B0AA6A511C1378A9626979DBB2012900D1A8
S11313C075E09BB2DB05DB0D2385EB8D013B9BB206
S11313D0EB85002B03D1013323750133A37502235D
S11313E0334205D0002223753133EA54FB073BD442
S11313F00423334212D0AA8D002A25D0638BDBB29A
S11314001A0735D53722134035D002221A4254D058
S11314101A213223E95462837B0759D410233342BF
S113142003D0237523763B4216D12023334203D0C5
S1131430237523763B0713D40823334203D0237543
S11314402376BB0604D4F8BD2375E7E72375C6E706
S11314502B6A28009847F6E72800EB699847E4E7E9
S11314602800AB699847E7E72800EB689847BFE78F
S11314703F221340C9D1238D696ADB05DB0DDAB243
S11314800A706A6A511C69626979012929D0AB8D95
S1131490013B9BB2AB85002BC0D1042222752E32B6
S11314A0AB54BB07BAD528002B699847B6E75178E7
S11314B0023209020B43AA6284E704221A420BD1C6
S11314C001221A4213D013213223E9546283A3E781
S11314D028006B699847A1E71E213223E9546283EF
S11314E09AE71B0A53706B6A01336B62CFE71022D1
S11314F01A4204D042213223E95462838CE7202229
S11315001A4200D188E741213223E954628383E7F8
S1131510E003002010B508282DD81C4B80001B5870
S11315209F468020000210BD194B5869FBE7194BF8
S113153019481B6A9B059B0FD840F4E7144C002004
S113154023689B07EFD510221249CB681A42FCD0BE
S1131550242322681340042B0FD01048E3E70C4BDC
S11315601869E0E750230B4A0020D35C5B07DAD507
S1131570074BD868D7E70020D5E7094B00209847E8
S1131580A3681B041B0C5843CDE7C046B48A000073
S1131590000100200008004000127A00006CDC0208
S11315A0251A000010B5037A42899B069205920D14
S11315B01B0C1343174A5360C179837984880B4306
S11315C0418821430B434178C9010B4313600378DD
S11315D0042B10D0202B0DD1037B018A9B060B43D7
S11315E0C1890D48090401400B43936011680B4BFA
S11315F00B43136010BD017B048A8906C089214313
S1131600054C000420400143916011680B431360B2
S1131610F0E7C046000100200000FF03240400009E
S1131620F0B54646D6464F46C2221E21C0B5624B8F
S1131630D2009A60614A0024536888B08B431A39F7
S11316400B435360032303AD5D4E2B70E0B22900BE
S11316500134B047252CF9D15A49574A0B6890698F
S1131660594CDB045B0E20401B0404240343082074
S11316709361936923438343383003434030834366
S1131680E020C00003435148034002209361936962
S113169003439361002200236A80AA803F32AB7126
S11316A0EB716A812C706B700B689B0E3F2B00D121
S11316B080E02B7204232B8203333F4F2B73383388
S11316C02800EB81424B98473B6A424A134002226E
S11316D03B623B6A914613433B623F4B984701236D
S11316E09A460193002398466B4642465A70062355
S11316F06A4613706B46424669460120374D1A729A
S11317005A72A8470120364CA0476B4642465A708D
S11317105A7204236A4613702023524601936B467F
S1131720694602201A72A8470220A04752466B4617
S1131730694600201A70B04700202A4B98474A4651
S113174010212948036813430360BA84FB681942D3
S1131750FCD083681021FB624368174ABB620023F4
S1131760BB84D3681942FCD0D02103689BB2938414
S1131770114AD3680B40D02BFBD18021938C0020DD
S11317800B4393840023194A69461372537293726C
S1131790D372012201926A46537013725372073353
S11317A01370A8470020A04708B01CBC9046994677
S11317B0A246F0BD203B7CE7000800400040004109
S11317C09119000024608000FFFF80FFFFEFFFFFFE
S11317D0A51500003FFCFFFFF117000015180000DD
S11317E0C9180000F51900000001002000040040A1
S11317F00821064A93690B4393610123044A07397C
S1131800137013781942FCD17047C046000400409D
S1131810000C004070B50B7806001B0203431D004A
S11318204B780400002B02D08023DB021D434B7A4B
S1131830002B02D080231B031D43486801280FD9C5
S1131840431E18422FD1022833D00223002401342E
S11318505B009842FBD8240280235B0334431D437E
S11318600B7A002B02D080239B031D43124A53782A
S11318705BB2002BFBDB114B9847114B0E4A1E70D9
S113188053785BB2002BFBDB0B4994604A7852B26D
S1131890002AFBDB80224B68520213402B434B602F
S11318A0084B984770BD802304029B0234431D43B8
S11318B0D6E70024D0E7C046000C004085010000B4
S11318C0080C0040C101000010B504000A4A537816
S11318D05BB2002BFBDB094B9847094B064A1C7093
S11318E053785BB2002BFBDB802351685B020B4314
S11318F05360044B984710BD000C00408501000064
S1131900040C0040C101000070B50400194A53786A
S11319105BB2002BFBDB184B9847184B154D1C7022
S11319206B785BB2002BFBDB6868154BC004C00E00
S113193098470600114B0F4A1C706D68114BED025D
S1131940ED0F1C7053785BB2002BFBDB91680E4BE0
S113195009020C0C9847002D03D00134E6403000F6
S113196070BD012CFBD930002100084B98470600BC
S1131970F5E7C046000C004085010000040C00405F
S113198015150000080C0040C1010000617800003A
S113199070B504000D78114B2D0205439847104B88
S11319A0104A1C70104C63881B05190F6388134080
S11319B0638063880D4A134080226380D201638868
S11319C01342FCD162880B020649ADB20A401343AC
S11319D06380074B9847658070BDC0468501000051
S11319E0020C0040FFF0FFFF000C0040FFBFFFFFB0
S11319F0C101000010B50400064B9847064B074A86
S1131A001C7080235188DB010B435380044B98479F
S1131A1010BDC04685010000020C0040000C0040CF
S1131A20C1010000F8B504001C4FB8471C4B1D4D04
S1131A301C706C881C4E2405240FB0476B785BB275
S1131A40002BFBDBB847194B164D1C706B785BB24F
S1131A50002BFBDB6868164BC004C00E98470700D8
S1131A60124B104A1C706D68124BED02ED0F1C7086
S1131A7053785BB2002BFBDB916809020C0CB04776
S1131A80002D03D00134E7403800F8BD012CFBD908
S1131A9038002100084B98470700F5E7850100004E
S1131AA0020C0040000C0040C1010000040C004086
S1131AB015150000080C00406178000070B5C209DB
S1131AC00023002A04D12F4A43099446DB016344CE
S1131AD01F2210401E3A8240C878002831D108786D
S1131AE0802847D080240006640220434C780225D5
S1131AF02600AE4307D18C78002C37D18024A40271
S1131B0020435A604C78013C012C35D9A02415049B
S1131B102D0CE4052C4304439C62D024150C2406AC
S1131B202C4304439C62CC78002C09D1400303D598
S1131B308878012823D05A6149780139012913D9B9
S1131B4070BDA0201404240CC00520435A60986280
S1131B50D020140C000620439862C8780028EFD1E6
S1131B60497801390129EBD89A60E9E7C024E402F5
S1131B702043C6E70020B9E7034C2040C6E79A613A
S1131B80DAE7C04600440041FFFFFBFF7047C04650
S1131B9010B5054B9847054B9847054B9847054B9F
S1131BA09847054B984710BD21160000F10100002D
S1131BB08D1B0000110300008D1B0000931C9B0073
S1131BC01950022A09D0032A0CD0012393401A0089
S1131BD0037E13430376002070471022037E1343D1
S1131BE00376F8E72022037E13430376F3E7C04627
S1131BF070B50126154B1D682B682A7E6C7E9B7B75
S1131C0014401C4026421AD10226264211D1102625
S1131C10264208D12026264204D06B692800984722
S1131C202B689E7370BD2B69280098472B689E73A0
S1131C30F0E7EB68280098472B689E73E7E7AB68EA
S1131C40280098472B689E73DEE7C046F8030020FF
S1131C5070B50126154B5D682B682A7E6C7E9B7BD4
S1131C6014401C4026421AD10226264211D11026C5
S1131C70264208D12026264204D06B6928009847C2
S1131C802B689E7370BD2B69280098472B689E7340
S1131C90F0E7EB68280098472B689E73E7E7AB688A
S1131CA0280098472B689E73DEE7C046F80300209F
S1131CB070B50126154B9D682B682A7E6C7E9B7B34
S1131CC014401C4026421AD10226264211D1102665
S1131CD0264208D12026264204D06B692800984762
S1131CE02B689E7370BD2B69280098472B689E73E0
S1131CF0F0E7EB68280098472B689E73E7E7AB682A
S1131D00280098472B689E73DEE7C046F80300203E
S1131D100E4B0100180070B584B001AA70C870C2DF
S1131D20019A914208D05A68914208D09B680020D9
S1131D308B4207D004B070BD0020C0B2FAE7012086
S1131D40C0B2F7E70230C0B2F4E7C046D88A000058
S1131D50F0B54746CE4680B5A74B87B003AD0F001C
S1131D60904619002A0004009C4649C949C2039AB6
S1131D70BA4200D10DE163465A68974200D10BE1A3
S1131D8000229B6891469F4200D108E11B2301AECB
S1131D90337001337370B37080231B012B80802355
S1131DA05B016B8080239B01AB800023A360E36015
S1131DB023616361237663764B46904A9B009C5073
S1131DC0434627609B78082B0AD023713B88012265
S1131DD00520DB0709D507B00CBC90469946F0BD39
S1131DE04A461720D207F6D5EFE7FB7B1730DB0610
S1131DF0F1D4022339880B40EDD14146097C0029F6
S1131E0000D0D2E043461B7F002B00D0D9E04B46E4
S1131E107B4A5B00116AEB5A0B43136243469B787F
S1131E20082B00D1DFE043466A461B7869461370ED
S1131E304B46F55C734B28009847734B2800984732
S1131E404346424619899B880B4391789279114302
S1131E50194343465B78002B02D080231B011943AE
S1131E602268D37B5BB2002BFBDB434639805B7B70
S1131E70002B00D096E00121002243469B7B002BDF
S1131E8000D111002268D37B5BB2002BFBDBFF2364
S1131E903B71002905D02268D37B5BB2002BFBDBAE
S1131EA079714346997ADB7A002B01D010231943C8
S1131EB043461B7B002B01D0202319432268D37B8C
S1131EC05BB2002BFBDBB9712268D37B5BB2002BC6
S1131ED0FBDB2379042B1ED0082B41D01720002BC9
S1131EE000D078E7D37B5BB2002BFBDB43461B8D32
S1131EF03B822268D37B5BB2002BFBDB43465B8DCA
S1131F003B832268D37B5BB2002BFBDB43469B8D78
S1131F1000207B835FE7D37B5BB2002BFBDB424675
S1131F202823D35C3B742268D37B5BB2002BFBDB9E
S1131F3042462923D35C3B752268D37B5BB2002BDA
S1131F40FBDB42462A23D35C3B762268D37B5BB21D
S1131F50002BFBDB2B234246D35C00207B763AE745
S1131F60D37B5BB2002BFBDB43469B6A3B6122685D
S1131F70D37B5BB2002BFBDB4346DB6ABB6122688D
S1131F80D37B5BB2002BFBDB43461B6B0020FB6166
S1131F9021E700239946F9E601239946F6E6022350
S1131FA09946F3E60521042267E702A9CB7043466C
S1131FB01B7E8A700B704346187D144B4A709847F9
S1131FC020E7002202A9CA702420424601231218E5
S1131FD012788B700A704B70202243469B18187835
S1131FE00A4B984713E74B46591C4900106A6B5A31
S1131FF00343136217E7C046D88A0000F8030020A1
S11320000004004091190000F5190000BD1A0000F9
S11320100268D37B5BB2002BFBDB0379042B0AD071
S1132020082B06D00020002B00D07047108A80B205
S1132030FBE71069F9E7107CC0B2F6E710B5046855
S1132040E37B5BB2002BFBDB0379042B16D0082B5C
S11320500CD01720002B00D010BD17200129FBD86D
S11320600C3192B249000A530020F5E717200129E8
S1132070F2D8063189000A510020EDE71720012922
S1132080EAD8D2B261180A760020E5E7FEE7C04636
S113209025492648F8B5814209D0254B984206D2F5
S11320A0C243D218920801329200224B9847224828
S11320B0224B984207D2C243D218920801329200AE
S11320C000211F4B9847FF211E4B1F4A8B439360EF
S11320D09023032502240C2708261C4AFD395B00A3
S11320E0D1501B4AD378AB432343D370D378BB433B
S11320F03343D3703022174B987B904320221043F4
S11321009873997BB9433143997380219A7BAA438D
S113211022439A73104A53680B4353600F4B9847FA
S11321200F4B9847FEE7C046C48B00000000002018
S1132130BC000020077C0000C0000020F813002031
S1132140197C00000000000000ED00E00070004178
S1132150005000410048004100400041A17B0000C4
S1132160E9480000F0B5C6460C0000B590460028CA
S113217012D1002A0DDD0A4E0A4D8F182100306855
S11321802B6801349847BC42F8D1404604BC9046C1
S1132190F0BD00239846F8E701235B429846F4E734
S11321A00C04002004040020F0B5C646013800B534
S11321B00E001500022810D80024002A0FD00A4B64
S11321C00A4F984602E00134A54208D04346315DE7
S11321D018683B6898470028F5DA01246442200017
S11321E004BC9046F0BDC0460C0400200804002046
S11321F0044A1368002B03D01818106018007047A5
S1132200014BF9E718010020F83300200120404277
S11322107047C04680239B0100204B607047C04636
S113222000207047F0B583B06B469C1D0023060068
S11322300F00054D238021003000A8470028FAD163
S113224023883B7003B0F0BD0912000070B506008E
S1132250034D8CB221003000A8470028FAD170BD8C
S1132260DD11000010B582B06B46DC1D0122210097
S11322700D4B0E48984772B6BFF35F8F00230C4A8C
S11322800C49137024780B780B48C4549B2B09D049
S11322900133DBB20B7001231370BFF35F8F62B69F
S11322A002B010BD0023F5E7791200001C010020E4
S11322B008000020EC0100205001002070B590B00F
S11322C06946FF2280230A810222DB050093002352
S11322D0FF320992D53A8B5401328B548B72CB72F4
S11322E00B8201930A93059313238B76C4239B03D8
S11322F0039301235B420C930D932F4B00220E9307
S11323002E4B2F4C0F9396231B0208932D4BCA760A
S11323100A760A774A764A771C602B4A2B4B2C495B
S11323201A602C4A2C4B20001A606A462B4B9847A3
S11323302B4E2C4D336800219868A8473368002140
S11323405868A8472568284B280098471F23184039
S11323501E3B8340254A13602268D369002BFCD1BD
S113236002222B6813432B602368DA69002AFCD10C
S11323708022596852020A435A600122E271DA69E2
S1132380002AFCD1DA69002AFCD180225968920221
S11323900A435A600122A271DA69002AFCD1144965
S11323A00220144B98470422094B9A7580220F4B44
S11323B012011A6010B070BD02000E0002000F007E
S11323C01C0100200C0400204D2200000804002001
S11323D0001000422522000004040020A10E000089
S11323E058000020297C00002109000000E100E0E1
S11323F065220000D908000010B5094B0278094C89
S11324001A7042785A700A78188822704A78064BF3
S1132410627098472088054B9847012010BDC0463C
S1132420140400202C040020C52C0000A52C00005E
S113243010B500280AD10B781A2B00D910BD044A14
S113244018001370034B98470120F7E70020F5E7C5
S11324502E040020812C000030B5124B83B0019172
S113246000909847104D6C462B0006CC06C30F4BCA
S1132470984704000E4B012098470B220D4B6868C7
S11324801C700D4B1A700D4B984700227F210C4B8A
S113249001201A705A547F315A547E21FF315A5404
S11324A003B030BDC12B00001C040020ED2A000045
S11324B0092C0000100400202E0400203D2D0000F3
S11324C030040020F0B557464E464546DE468C465D
S11324D0E0B5A7B0994630AB1D7831AB03AF1B789C
S11324E00390C0B27960810616000193CB0F00936C
S11324F06346360ABA600293D2B2F6B2430700D5F5
S1132500012203240440012C00D1CEE06342634144
S1132510DBB29C467B899A46794B98461B88534587
S113252000D1D0E009218B4600210F238A46002ADE
S113253000D05B46002E68D024210233DBB2084071
S1132540202868D0032C6BD006AC5B19237063463B
S1132550202039786370009B81435B011943CB438E
S113256039709B0700D1A3E0002A60D0002E00D070
S1132570B7E0C823A370634A1378581C1070E37043
S1132580BB7A2371FB7A63714B0700D4ACE0FF2361
S113259008220921A371E371F73B504600280AD1B0
S11325A040460078A05440469A1C40780333D2B287
S11325B06054D9B21300002E54D053480233067825
S11325C0DBB2A65442786254002D09D04A46ED1875
S11325D0EDB21078591CE054CBB20132AB42F8D1C1
S11325E04A464A4B20001A60329A494B1A606A469E
S11325F0484B12791A70484B9847012027B03CBCCD
S113260090469946A246AB46F0BD24210833DBB27E
S11326100840202896D1614601438C46032C93D16F
S11326200023012600939A469C4607338CE7002E2C
S113263063D1CC23A370334A1378581C1070E37011
S1132640BB7A2371FB7A63714B07A0D402AB9C461F
S1132650162008220299314B604498470E220F211C
S11326600E239AE72E4A52681178E1545078591C87
S1132670C9B260549078991CC9B26054D078D91CFE
S1132680C9B260541079191DC9B260545079591DEA
S1132690C9B260549079991DC9B26054D179DA1DD8
S11326A0D2B20833A154DBB28EE703239C4631E750
S11326B08023144AA3701378591C1170E370042208
S11326C00521042369E717498B4200D12AE74023F7
S11326D0614619438C4607218B460639333B8A46AB
S11326E025E78823A37046E7029A09211378A3718A
S11326F053780822E37108234FE78C23A3709AE7E9
S11327002C0400201004002014040020F8010020F0
S1132710F0010020F4010020812A0000077C000061
S11327201C040020FFFF0000044B1B78032B04D87B
S11327300021DA01D31A024A995470470900002093
S113274030040020F0B5DE4657464E464546FF238A
S1132750E0B5AF49AF4A0B701378002B00D0F6E018
S11327607F33D35C002B00D036E1FE33D35C002BE7
S113277000D034E17E23FF33D35C002B06D100204C
S11327803CBC90469946A246AB46F0BD03200327C5
S1132790FC010870E11B56188B4671788C46402169
S11327A060460840814600209B490870C873B07891
S11327B08246332055468543882D37D00BD9C82D02
S11327C000D18EE0CC2D76D08C2D5BD00023E41B81
S11327D013550020D4E7082D48D0802DF6D17C2055
S11327E0404208707D30C87330795D460874707952
S11327F008354874584606301018486018005519B2
S11328000B3808738D60082065462840DED1072503
S113281066463540012D00D180E0002D00D191E0C5
S1132820032D00D188E0E41B1055A8E7B079FF28F8
S113283000D1DEE080200D7840422843087001205A
S1132840C8734846002800D095E0E01B15182E7A7E
S11328506D7A0E744D7405000A3555194D601D00CE
S11328600C300F3D10180D738860CCE7B079FF2849
S113287000D1B7E018000A380873E01B08301018BC
S11328808860C0E78020404208708130C8734846A1
S1132890002800D180E030795D46087470791035E5
S11328A0487458460E3010184860180055191338EB
S11328B008738D60A7E780204042087048460028CE
S11328C07AD030795D460874707916354874584664
S11328D00E301018486018005519193808738D60A7
S11328E091E7B079FF2800D18AE080200D7840423A
S11328F028430870484600282CD0E01B15182E7970
S11329006D790E744D740500083555194D601D0020
S11329101030133D10180D73886074E70325087890
S1132920A8430870E41B1219D01801380078D35C4E
S113293088734B73012023E70878A84301252843B3
S11329400870EFE70325087828430870EAE70020B9
S113295000271DE7E01B15182E7A6D7A0E744D744E
S113296005000A3555194D601D001230153D10182B
S11329700D73886047E7E01B15182E796D790E7486
S11329804D740500083555194D601D000A300D3D84
S113299010180D73886036E7707B5D460874B07B51
S11329A01235487458460F301018486018005519ED
S11329B0153808738D6026E7B07B5D460874F07B9C
S11329C018354874584610301018486018005519C6
S11329D01B3808738D6016E701200127D8E6022012
S11329E00227D5E6F079FF2800D043E704200870D9
S11329F040E7F079FF2800D01CE70420087019E7AD
S1132A00F079FF2800D070E7042008706DE7C04615
S1132A1009000020300400208C13002000017047BE
S1132A200048704700F8FF070122024B1870024B60
S1132A301A70704724040020ED0100200A4B10B5E1
S1132A4098470A4B1B68002B0CD0094C2278002AAB
S1132A5008D0084A08490948126809780078984754
S1132A600023237010BDC0465D2D0000F00100203E
S1132A70ED010020F801002024040020F4010020CE
S1132A80F8B507001F26144D144C03210220A84753
S1132A900120A04730400828F7D11F261921022021
S1132AA0A8470120A04730401928F7D10A38A04789
S1132AB0397838008B1C01313B70C9B2084B9847F8
S1132AC00322084B1A708022074B52039A61C046B6
S1132AD0C0465A61F8BDC046613F0000653E000033
S1132AE0A94100007D02002000440041F8B5CE4613
S1132AF047461F2680B52D4D2D4C03210220A847A3
S1132B000120A04730400828F7D11F2606210220C3
S1132B10A8470120A04730400628F7D10023994652
S1132B20244B0026984603270120C0470620A047CF
S1132B30400938404B46B040184383B202369946A8
S1132B40102EF1D10F3603210220A8470120A047FF
S1132B5030400828F7D11F2608210220A847012069
S1132B60A04730400828F7D10730A047124B1B7804
S1132B70002B04D148460CBC90469946F8BD1F264C
S1132B8003210220A8470120A04730400828F7D19C
S1132B901F2616210220A8470120A04730401628EE
S1132BA0F7D10122054B1A70E4E7C046613F0000EB
S1132BB0653E0000550100007C0200207D020020DB
S1132BC070B50C4B98470C4B984700221F250B4BB4
S1132BD00B4C0C4E1A7008210220A0470120B0476C
S1132BE028400828F7D12E210438A047A0210C2022
S1132BF0A04770BD193D0000353E00007C02002056
S1132C00613F0000653E0000F8B51F26184F194DBE
S1132C10194C387003210220A8470120A0473040F6
S1132C200828F7D11F2608210220A8470120A04721
S1132C3030400828F7D10730A0473B78002B00D15B
S1132C40F8BD1F2603210220A8470120A0473040D9
S1132C500828F7D11F2616210220A8470120A047E3
S1132C6030401628F7D10122044B1A70E8E7C04619
S1132C707C020020613F0000653E00007D020020D0
S1132C8010B5064B0400082098471F230100994300
S1132C902143C9B20820024B984710BD653E00008D
S1132CA0613F000030B583B06B46C1B29D1DD88032
S1132CB0034C2220A04769782320A04703B030BDED
S1132CC0613F000070B582B06B46C4B29E1DD880CF
S1132CD0064D21002020A847767821203100A41930
S1132CE0A847E1B22D20A84702B070BD613F0000A3
S1132CF070B51F260D4C0E4D03210220A047012064
S1132D00A84730400828F7D11F2608210220A047F1
S1132D100120A84730400828F7D18022054B5203F0
S1132D209A610222044B1A7070BDC046613F0000D4
S1132D30653E0000004400417D02002070B505009E
S1132D402424054E200001342978E4B2B04701352B
S1132D502C2CF7D170BDC046613F0000F0B5CE46C3
S1132D60474680B54F4D83B02B78022B09D00F20F6
S1132D704D4CA047030704D52B78012B32D0032BED
S1132D8004D003B00CBC90469946F0BD0220A04785
S1132D904009C3B29946002B05D0032B73D0052BF1
S1132DA074D0012399461F27404E03210220B047C7
S1132DB00120A04738400828F7D11F270821022006
S1132DC0B0470120A04738400828F7D10730A04772
S1132DD0374B1B78002B3FD1012348462B70354BD2
S1132DE09847CEE7344D2B78002B52D07F23EB5CF1
S1132DF0002B51D0FE23EB5C002B50D07E23FF33FD
S1132E00EB5C002BBDD1032398466B46DF1D2B4B97
S1132E1001213800994698473978294E0231C9B2C0
S1132E203000C84742463878D1010230C3B2891A0B
S1132E306B547D2B09D8012201236D18B15C013339
S1132E40DBB2A9541A008342F8DD1F250120A047F4
S1132E5028401628FAD194E71F239846032102201C
S1132E60B0470120A047434618400828F6D11F2345
S1132E70984616210220B0470120A0474346184037
S1132E801628F6D1A8E7022399468CE7032399462E
S1132E9089E700239846B8E701239846B5E702235B
S1132EA09846B2E77D020020653E0000613F0000C5
S1132EB07C020020292A0000300400206D4000001C
S1132EC0FC01002010B5014B984710BDA13A000049
S1132ED0F0B557464E464546DE46E0B589B09946BC
S1132EE012AB1B789B4F9A4613AB1C7814AB1B7820
S1132EF080469B463B780E001500002B06D002222C
S1132F00954B1A70954B984700233B70631EDBB2B8
S1132F10062B00D9B3E0924AD75C924AD35C029361
S1132F2007239C4300D09CE04346002B00D198E04B
S1132F30002E00D195E053464B440393DB197F2BBD
S1132F4000DD8EE0884B1B78002B00D09EE0002D26
S1132F5064D0864CAA7BA37BE17B5340EA7B521A64
S1132F60511E8A4113435A1E9341697B627B4A4036
S1132F7013435A1E9341297B227B4A4013435A1E12
S1132F809341E97AE27A4A4013435A1E9341A97A5B
S1132F90A27A4A4013435A1E9341697A627A4A409C
S1132FA013435A1E9341297A227A4A4013435A1EE4
S1132FB09341E979E2794A4013435A1E9341A9792E
S1132FC0A2794A4013435A1E9341697962794A406F
S1132FD013435A1E9341297922794A4013435A1EB6
S1132FE09341E978E2784A4013435A1E9341A97801
S1132FF0A2784A4013435A1E9341697862784A4042
S113300013435A1E9341227829784A4013431A00E5
S1133010511E8A4154490A70002B3AD1002F59D1CC
S11330200123012433704B46002B02D040231C4360
S113303034700023B3735B46002B38D1002F51D179
S1133040012340463370484453463A003100484C0B
S1133050A047414B1B78012B5CD0464B984700207E
S113306006E03D4B1B78012B0DD0424B98470120C5
S113307009B03CBC90469946A246AB46F0BD00233D
S1133080002702934CE73C4B9847EEE7002D39D0DC
S1133090364C00220021394B280098471022384B27
S11330A029002000984700232F4A1370B6E7029B9B
S11330B0012B32D0002FCCD0534604ACF373039BC6
S11330C03A004344180021002E4B98470028C0D0F2
S11330D00320CDE70123BC1E6410E4001C43E4B2CA
S11330E03470A0E75346F373029B012BA8D1039BD2
S11330F0320043441900534640460093224C4B4649
S1133100A0479DE7144B1B78012B20D0194B9847FF
S11331100220ADE7184B98479FE76B4640461B7A61
S1133120484433703A0053463100114DA847002FEC
S113313000D18EE75346F3735346347004AC0093C6
S113314032004B46210040460F4DA847B7E70A4BD3
S11331509847DBE79102002090020020213C000008
S1133160E48A0000EC8A000048000020800200206D
S1133170E9320000713C0000F12C0000A53A000087
S1133180077C0000E97B00008D310000F0B5DE46CD
S1133190574645464E46E0B515008BB000221C004C
S11331A0804614AB8A46002000214A4F1E78B84757
S11331B028000021484DA847002202210020B847DA
S11331C0002C2CD144440F2E0ED93700103FFFB2EF
S11331D03F0901373F01E719200000211034A847B7
S11331E0BC42F9D10F231E40002E0ED03200210024
S11331F03A4B06A89847102206AB98190021921B57
S1133200374B9847002106A8A8475046354B9847A6
S11332100BB03CBC90469946A246AB46F0BD231C7D
S11332200E2C45D8DBB29946002302AA1370130072
S1133230981C2A4B547041464A469B4698474B4635
S11332409F1CFFB2102F35D1002102A8A8474C457E
S1133250B8D94B464746E01AC3B24F4401930F2BEB
S113326011D9103BDBB21B0901331B019946B94448
S1133270380000211037A8474F45F9D10F23019A90
S11332801A4013000192002B9CD099461A00390071
S113329006A8D84706A98C464B461022D21A634486
S11332A0180000210E4B9847002106A8A84789E77B
S11332B00E23B7E73A0002A906A8D847102206ABA6
S11332C0D819D21B0021064B9847002106A8A8470D
S11332D0BDE7C046A53A0000753C0000077C00002D
S11332E0197C0000E93C0000F0B5DE464E46454638
S11332F05746E0B589B00E000191029204001D000A
S113330000226D4B0021002098470123F373002D08
S113331000D0ADE001230393684B9846029B9B4683
S11333204DE00023019A04A9D3731000644B98471D
S11333306B1EDBB2002D4DD0581CC2B29446A207BE
S113334052D16246052A4FD9DA1ED2B2920801320E
S11333509700914600262200FFB20093B10004AB0F
S1133360595813680136594002C2F1B28945F5D85B
S113337004AE3900B146009BE219DB1B4944DBB2C1
S1133380BC4517D01678B4460E78B14666464F460B
S11333907E401670002B0DD04E78B4465678B14658
S11333A066464F467E405670012B03D08B78917849
S11333B04B4093702418102D0CD9103DEDB2102DF4
S11333C06ED85B46002BACD104A8C0476B1EDBB2A1
S11333D0002DB1D1029B002B10D109B03CBC90460A
S11333E09946A246AB46F0BD002304AAE15CD25C38
S11333F04A40E25401338342F7D1DBE72F4B04A860
S11334009847029A1300013BDBB2A1073DD1052A7C
S11334103BD9043AD2B2920801329500EDB2022BA4
S11334202BD927000020810004AE71583E6801307A
S1133430714002C7C1B28A42F5D804AA9446290051
S1133440029A5B1B64196144DBB2AA42C5D022789C
S1133450087842402270002BBFD04A7860784240FE
S11334606270012BB9D08B78A2785340A370B4E773
S113347000210198124B98474CE704A92278087858
S113348042402270002BE8D1A7E7581C002304A96E
S1133490E25CC95C4A40E25401339842F7D19CE7AC
S11334A0039B019A0133DBB20393D37304A9044B46
S11334B0100098470F233FE7A53A0000E93C0000BD
S11334C0753C0000A0282FD8A422264B9A5C002A21
S11334D02CD0A62252009A5C002A30D0FA22520044
S11334E09A5C002A2DD0A72292009A5C002A2AD046
S11334F0D12292009A5C002A27D0FB2292009A5C87
S1133500002A24D0184A9A5C002A22D0174A9A5CCE
S1133510002A20D0164A9A5C002A1ED0154A0020A0
S11335209A5C002A1BD070470020FCE70022A820E8
S11335305043181802000121A4321170F3E701224C
S1133540F5E70222F3E70322F1E70422EFE705227D
S1133550EDE70622EBE70722E9E70822E7E709326D
S1133560E5E7C046140C0020940400003C0500006C
S1133570E40500008C060000A4213C4B0200595CC9
S1133580002901D098425FD0A6214900595C002946
S113359003D01900A8318A424DD0FA214900595C60
S11335A0002904D019005131FF318A424ED0A7219D
S11335B08900595C002904D01900F931FF318A428D
S11335C048D0D1218900595C002904D0A821890060
S11335D059188A423CD0FB218900595C002904D047
S11335E0D221890059188A4238D02149595C0029CE
S11335F004D0FC21890059188A422DD01D49595CF8
S1133600002904D09321C90059188A422AD01A49A2
S1133610595C002904D0A821C90059188A421FD036
S11336201649FF20595C002904D0BD21C90059184E
S11336308A4219D070470121A8224A439B180022CC
S1133640A4331A700020F5E70021F5E70221F3E71F
S11336500421F1E70321EFE70621EDE70521EBE77C
S11336600821E9E70721E7E70921E5E7140C002031
S1133670940400003C050000E40500008C060000F2
S113368000230360436003727047C04672B6BFF301
S11336905F8F00230A4A1370037A002B0DD043680E
S11336A01960002341600B60037A01330372012324
S11336B01370BFF35F8F62B670470160F1E7C046D5
S11336C008000020F0B5C646070000B50D0072B62C
S11336D0BFF35F8F204B9846002342461370037A52
S11336E0002B29D0046800292AD0002C24D02600DD
S11336F004E023682600002B1ED01C006968606863
S11337002B6898470028F4D03B68A34221D0236853
S1133710336079683A683B7AA14218D0013B3B7226
S1133720002A0BD0012342461370BFF35F8F62B6A9
S1133730200004BC9046F0BD0024F3E77A60F1E772
S1133740261EF9D0226879683A60A142E6D17E60EB
S1133750E4E73B7AF6E7C0460800002010B5044AC7
S1133760044813780133DBB21370034B984710BD40
S1133770A412002010270000BD4C000010B5002446
S1133780064B07481C70074B9847074B9847074858
S1133790074B9847074B1C6010BDC046A41200207D
S11337A05D370000AD4D0000294D000010270000DA
S11337B0BD4C00009402002070B5154E3568002DF4
S11337C021D0A84216D02B0001E0984212D01B68E9
S11337D0002BFAD181682A0000E0220054688C4250
S11337E009D8091B14681300002CF6D141601A682B
S11337F00260186070BD641A54604160002BF6D1F9
S113380005603060F6E78368056043603060F1E787
S1133810940200200D4B1A68002A08D0824203D17A
S113382011E0984204D01A001368002BF9D17047B4
S1133830036813600268002AF9D0516843688C4613
S113384063445360F3E702681A60F4E794020020CB
S1133850F0B52E4B83B01A78002A27D0EFF31081ED
S11338604A424A41019272B6BFF35F8F002228494F
S11338700A7001981C781A70E4B200282ED1254DE4
S1133880A3001C192868640000280FD043689C42D8
S113389033D30668E41A2E60037B012B0AD0036934
S11338A0002B05D0984728680028EFD103B0F0BD5D
S11338B03000E9E7002E23D082683300002700E0BF
S11338C00B00596891420FD8521A19681F00002939
S11338D0F6D142603B6803603860E0E701230B7077
S11338E0BFF35F8F62B6CAE7891A59604260002F3E
S11338F0F0D1066028600600D1E71C1B4460D5E7C0
S113390083680660436028600600C8E7A4120020AC
S1133910080000209402002010B5014B984710BD08
S1133920914D000010B5014B984710BD494D000062
S113393010B50248024B984780B210BDDC1200203B
S1133940112000001021034B1A6811735A7E8A4318
S11339505A767047DC12002010B50A4C0A4B2068D6
S113396098471F22094B1B5C1A4001239340084AC5
S113397013601022637E13431022637623685A7304
S113398010BDC046DC120020111D0000F48A0000A6
S113399000E100E010B5020000210248024B984704
S11339A010BDC046DC1200203D200000F8B5002305
S11339B0CE46474600212D4A2D4C80B51370937096
S11339C093801381536193611362536213859385CA
S11339D0013B917151709172D17211739173517352
S11339E01174117753852349234B20009847234DA5
S11339F0002223492000A847022222492000A84788
S1133A000125214B2068994698471F262A001F4B01
S1133A101F4F98461B5C33409A403A600122637EF4
S1133A201343637623685D731800C84743461B5CE1
S1133A3010221E40B5403D60637E1343637610231D
S1133A4022685373D37B5BB2002BFBDB0221138808
S1133A5000200B4313800F4B98470F490F4B984797
S1133A60C0B20CBC90469946F8BDC046A8120020CE
S1133A70DC120020002C0042511D0000BD1B000080
S1133A802539000019390000111D0000F48A0000D6
S1133A9000E100E00919000040420F0061780000D5
S1133AA07047C046F0B557464546DE464E46E0B53B
S1133AB0140085B007000D00002818D000224D4BDB
S1133AC001001A704C4B02321A704C4E0E324C48A4
S1133AD0B0474C4B39009846102342461370501C93
S1133AE01022B047112241468320474B9847002CAF
S1133AF042D0012C38D1404F3B78012B1DD0414B93
S1133B00984610239B4643465A461A70394B9946A9
S1133B101B789A46002B41D03B4B384E9A463B4B80
S1133B209B4643461022581C5946B0471122414631
S1133B308320D04701234A4613703C70002D01D0E6
S1133B40022D11D170232D011D40E400683B1C405F
S1133B502C43802501222B4B6D421C702C435C743A
S1133B602B4B01201A7000E0002005B03CBC9046AD
S1133B709946A246AB46F0BD1F4F3B78012BDCD1E2
S1133B80204E0F333370701C10221D491B4B984775
S1133B901122310083201C4B9847CEE743465246FE
S1133BA01A7080225A741A4B69461C7043461022BC
S1133BB0581C124EB047414612228320154B984799
S1133BC05246134B18201A70434680225A74124BE3
S1133BD0984743465A461A700B4B414601228320AC
S1133BE09A469847094B10229B46190084200B4B98
S1133BF0984796E7AA02002049000020077C0000AD
S1133C00BC02002098020020E5420000AC02002023
S1133C10CC020020FD450000550100006D44000069
S1133C2070B50C4B1B78002B12D00B4910230B4C96
S1133C3010222578601C2370094B9847112221001B
S1133C408320084B98470122074B25701A7070BDDA
S1133C500649EBE749000020AC020020980200204E
S1133C60077C0000E5420000CC020020BC020020DA
S1133C707047C046F8B5CE464746164C80B5671C1B
S1133C800E0010220100144D3800A847637C9946A9
S1133C90124B98461B78002B16D01222104B210091
S1133CA083209847002342461370002E03D0611CE2
S1133CB010223000A8474B4618206374094B9847DC
S1133CC00CBC90469946F8BD112239008420044B5F
S1133CD09847EAE798020020077C0000CC02002005
S1133CE0FD4500005501000010B50100102284209C
S1133CF0014B984710BDC0466D440000012210B529
S1133D00034B1A61034B1B68002B00D0984710BD6E
S1133D1000180040D002002070B53F220024344B2C
S1133D2084B01A705C709C7001256B46314E5D70D6
S1133D309C701D703F20304B694632707470B470B3
S1133D40984730784209C30950D11F210140280007
S1133D508840010029482A4C8446D201624491617A
S1133D60200024226360A354A36023746374237526
S1133D70183A0021234B18302570A574E574984730
S1133D8080235B02E360204B204DA361204B220083
S1133D90A36201235B42E3621E4B1F4923631F4B53
S1133DA0280063631E4B98472B68DC69002CFCD108
S1133DB002251A6868462A431A601A4B98478023DA
S1133DC020229B03009201936B466A461D720123D5
S1133DD069465372D3720020134B947298470022A1
S1133DE00021124B1248984704B070BDA461FFDE55
S1133DF0FC120020001300201104000000440041C4
S1133E0004130020197C000000093D003C1300202D
S1133E100500530005003E00001800420500520052
S1133E20B10900008503000099030000610200004D
S1133E30FD3C000070B580228025A520064C074B70
S1133E402D025203A561064E5A614000B0476561D8
S1133E500A20B047A56170BD804400410044004180
S1133E6055010000F0B5CE46474680B583B0EFF368
S1133E7010835A425341019372B6BFF35F8F0023FC
S1133E80324F334C3B70019B324E9846802318438B
S1133E9031008146012220002F4DA84701212368CB
S1133EA01A7E1142FCD01A7E114201D04A469A620F
S1133EB002211A7E1142FCD004211A7E1142FCD048
S1133EC01A7E11420AD05A8B520700D55983A2791F
S1133ED0012A34D09A6A2149D2B20A8001211A7E79
S1133EE01142FCD01A7E114201D000229A620221B2
S1133EF01A7E1142FCD004211A7E1142FCD000200B
S1133F001A7E8146114205D05A8B520715D49B6AFA
S1133F10DBB29946002231002000A847FF23424625
S1133F20134204D0FE3B3B70BFF35F8F62B648463A
S1133F3003B00CBC90469946F0BD5983E7E79A6AF2
S1133F400649D205D20D0A80C8E7C0460800002001
S1133F503C13002000130020CD0D0000F8120020B7
S1133F60F0B54F46D6464646C0B5894682B0EFF313
S1133F7010835A425341019372B6BFF35F8F0023FB
S1133F80354F364C3B70019B354E9846C023184341
S1133F903100824601222000324DA84701212368C6
S1133FA01A7E1142FCD01A7E114201D052469A6206
S1133FB002211A7E1142FCD004211A7E1142FCD047
S1133FC01A7E11420AD05A8B520700D55983A2791E
S1133FD0012A3AD09A6A2449D2B20A8001211A7E6F
S1133FE01142FCD01A7E114201D04A469A62022143
S1133FF01A7E1142FCD004211A7E1142FCD01A7E92
S113400011420AD05A8B520700D55983A2799B6A70
S1134010012A15D0144ADBB213800022310020009B
S1134020A847FF234246134204D0FE3B3B70BFF334
S11340305F8F62B602B01CBC90469946A246F0BDA2
S1134040DB05094ADB0D1380E7E79A6A0649D205C6
S1134050D20D0A80C2E7C046080000203C130020AD
S113406000130020CD0D0000F8120020F0B54546E5
S1134070DE4657464E46E0B5040085B08846EFF369
S113408010835A425341039372B6BFF35F8F0023E8
S1134090404A414D1370039B40490193404B012218
S11340A028009A46984701212B681A7E1142FCD0B9
S11340B01A7E114201D020229A6202211A7E1142F4
S11340C0FCD004211A7E1142FCD01A7E11420AD07F
S11340D05A8B520700D55983AA79012A53D09A6A78
S11340E03049D2B20A8042464146013AD2B200294E
S11340F034D0013291462022904600220121934679
S1134100022704200426A1441A7E1142FCD01A7E00
S1134110114201D05A469A621A7E1742FCD01A7E86
S11341201042FCD01A7E164209D05A8B104200D09D
S11341305883AA799B6A012A08D0DBB29846434681
S1134140237001344C4509D02B68DDE7DB05DB0D1A
S113415098464346237001344C45F5D100220F495B
S11341602800D047FF23019A134205D00123094AAE
S11341701370BFF35F8F62B605B03CBC904699469E
S1134180A246AB46F0BD9A6A0649D205D20D0A8012
S1134190A9E7C046080000203C13002000130020BB
S11341A0CD0D0000F8120020F0B54E46DE4657460D
S11341B04546E0B5040085B00E00EFF310835A4283
S11341C05341039372B6BFF35F8F0023404A4148C3
S11341D01370039B012201933F4B190098463F4BF8
S11341E0984701213B4B1B681A7E1142FCD01A7E72
S11341F0114201D060229A6202211A7E1142FCD03F
S113420004211A7E1142FCD01A7E11420BD05A8B23
S1134210520700D559832F4A9279012A51D09A6ABC
S11342202F49D2B20A802B4A0421927989469246B8
S11342302B49013EF6B220000122022504248B46BC
S1134240D446FF2E21D0197E0A42FCD0197E07786D
S11342500A4200D09F62197E0D42FCD0197E0C42A6
S1134260FCD04F46197E0F420AD0598B0C4200D025
S11342705C83614601291DD05F46996AC9B23980C1
S11342800130013EF6B2FF2EDDD1144B002241462F
S113429010489847019B1E4205D001230C4A137015
S11342A0BFF35F8F62B605B03CBC90469946A24608
S11342B0AB46F0BD996A0A4FC905C90D3980013072
S11342C0DFE79A6A0649D205D20D0A80ABE7C046F9
S11342D0080000203C13002000130020CD0D000036
S11342E0F8120020F0B54E464546DE465746E0B586
S11342F00C0085B005001600EFF310835A425341B9
S1134300039372B6BFF35F8F0023534A534813706D
S1134310039B01220193524B19009846514B984735
S113432001214E4B1B681A7E1142FCD01A7E1142A9
S113433001D040229A6202211A7E1142FCD004214B
S11343401A7E1142FCD01A7E11420CD05A8B5207AD
S113435000D55983414A9279012A00D176E09A6ABC
S11343604149D2B20A8001211A7E1142FCD01A7E40
S1134370114200D09D6202211A7E1142FCD0042118
S11343801A7E1142FCD01A7E11420BD05A8B52076E
S113439000D55983314A9279012A51D09A6A324917
S11343A0D2B20A802D4A013E9279F6B29246042294
S11343B091462D4A21000120022504249346D44627
S11343C0FF2E21D01A7E1042FCD01A7E0F781042A4
S11343D000D09F621A7E1542FCD01A7E1442FCD093
S11343E04F461A7E17420AD05A8B144200D05C837F
S11343F06246012A1DD05F469A6AD2B23A800131E0
S1134400013EF6B2FF2EDDD1164B00224146134881
S11344109847019B1E4205D001230F4A1370BFF336
S11344205F8F62B605B03CBC90469946A246AB4647
S1134430F0BD9A6A0C4FD205D20D3A800131DFE704
S11344409A6A0949D205D20D0A80ABE79A6A0649ED
S1134450D205D20D0A8086E7080000203C13002014
S113446000130020CD0D0000F8120020F0B5DE4648
S11344704E4645465746E0B55A4B85B006000120E6
S11344800C0090469847EFF310835A42534103932C
S113449072B6BFF35F8F0023534A544D1370039BCE
S11344A053490193534B012228009A46984701210E
S11344B02B681A7E1142FCD01A7E114201D00022D0
S11344C09A6202211A7E1142FCD004211A7E114202
S11344D0FCD01A7E11420BD05A8B520700D5598357
S11344E0AA79012A00D176E09A6A4349D2B20A80B5
S11344F001211A7E1142FCD01A7E114200D09E6224
S113450002211A7E1142FCD004211A7E1142FCD0F1
S11345101A7E11420AD05A8B520700D55983AA79C0
S1134520012A52D09A6A3449D2B20A80424641469C
S1134530013AD2B2002933D001329146002201213E
S113454090469346022704200426A1441A7E114271
S1134550FCD01A7E114201D05A469A621A7E174242
S1134560FCD01A7E1042FCD01A7E164209D05A8B17
S1134570104200D05883AA799B6A012A08D0DBB282
S113458098464346237001344C4509D02B68DDE737
S1134590DB05DB0D98464346237001344C45F5D1C9
S11345A0002213492800D047FF23019A134205D063
S11345B001230D4A1370BFF35F8F62B605B03CBC94
S11345C090469946A246AB46F0BD9A6A0A49D2057E
S11345D0D20D0A80AAE79A6A0749D205D20D0A8049
S11345E086E7C04655010000080000203C13002067
S11345F000130020CD0D0000F8120020F0B5DE46B7
S11346004E4657464546E0B57C4B83B00600012034
S11346109146019198470021794B00209847794BA6
S1134620794C19009A46794B012220009846984704
S1134630012123681A7E1142FCD01A7E114201D056
S113464040229A6202211A7E1142FCD004211A7E71
S11346501142FCD01A7E11420BD05A8B520700D55E
S11346605983A279012A00D1B7E09A6A6849D2B283
S11346700A8001211A7E1142FCD01A7E114200D018
S11346809E6202211A7E1142FCD004211A7E11423C
S1134690FCD01A7E11420BD05A8B520700D5598395
S11346A0A279012A00D192E09A6A5949D2B20A80C9
S11346B001211A7E1142FCD0019A10781A7E11420F
S11346C000D0986202211A7E1142FCD004211A7E85
S11346D01142FCD01A7E11420BD05A8B520700D5DE
S11346E05983A279012A00D17DE09A6A4849D2B25D
S11346F00A804A46002A00D17EE00199013A8C469C
S1134700D2B20132944462460192002291460432AC
S11347100E0002270121042094461A7E1142FCD087
S1134720727893461A7E114201D05A469A621A7ED2
S11347301742FCD01A7E1042FCD065461A7E154200
S113474009D05A8B104200D05883A2799B6A012A5F
S11347500CD0DBB299464B466A46D370D278019BA3
S113476032700136B34205D02368D6E7DB05DB0D92
S11347709946F0E723680120197E0842FCD0197E8F
S1134780084201D0002199620220197E0842FCD01F
S11347900420197E0842FCD0197E084204D05A8BAA
S11347A0520712D49A6AD2B2019B51461A70200061
S11347B00022C0470021174B0020984703B03CBC9F
S11347C090469946A246AB46F0BD5883EAE79A6AFA
S11347D00F49D205D20D0A806AE79A6A0C49D205BC
S11347E0D20D0A8045E79A6A0949D205D20D0A809A
S11347F04A46002A00D080E70022BCE755010000A9
S1134800AD020000001300203C130020CD0D000079
S1134810F8120020890200008022024B1203DA61A0
S11348207047C04600440041802210B5034B120378
S11348309A610348034B984710BDC04600440041A9
S1134840E8020020153800000022054B1A73054ABF
S11348501A610122044B1A73044A1A617047C04654
S1134860D402002029480000E80200201948000072
S1134870F8B5037A002B03D044682278102A00D0BC
S1134880F8BD052BFCD1114E114F3000B847114D26
S11348902800B847A37862781B021343B36000234F
S11348A033730D4B300033610C4EB0472379E278FB
S11348B01B021343AB6001232B73094B28002B61AC
S11348C0B0478022074B12035A61D9E7D402002073
S11348D015380000E802002029480000B93700001C
S11348E0194800000044004110B5094B9847094B92
S11348F098470122084B1A70BFF35F8F62B6074BCB
S11349009847074B9847074CA047A047FCE7C04689
S1134910911B00001501000008000020BD220000CA
S1134920794A0000914A00008022024B1203DA61A6
S11349307047C046004400410523002800D0033BD3
S1134940014A13707047C0465003002010B5054B50
S11349501A78082A03D00448044B984710BD033A38
S11349601A70FBE75003002048130020B9370000F9
S11349708021064A090310B54368D161827A5A76C8
S1134980427A9A76024B984710BDC04600440041D3
S1134990714800008022114B120310B59A61104C2B
S11349A0002909D12178002910D00E4B1A78062A43
S11349B001D101321A7010BD21780029F5D09A6115
S11349C009480A4B984700232370EEE75A610648CA
S11349D0074B984701232370E7E7C0460044004192
S11349E038030020500300203C030020B9370000A6
S11349F015380000022210B5024B03481A70034B0D
S1134A00984710BD500300204813002015380000BB
S1134A1030B583B000280FD04B7A002B22D10A0086
S1134A2001231B3205E014785D1C1232002C08D1DE
S1134A302B00DCB2A042F6D802220C4B1A7003B051
S1134A4030BDDA00D21852001032D800C3185B000F
S1134A508A18C918064B087B064C009302210623CA
S1134A60A047ECE710220023EFE7C04650030020E4
S1134A70394900002D72000010B502490248034B69
S1134A80984710BD0C000020300000201150000099
S1134A90F0B5D6464F4680B56D4B87B098476D4DFF
S1134AA02B78022B00D1C9E000D875E0052B0BD080
S1134AB0072B04D1684B6948984708232B7007B02B
S1134AC00CBC91469A46F0BD122601236A46002783
S1134AD06E445B42624C3380938217336B441F8075
S1134AE09A4623001D33DF700B22230062772133A3
S1134AF00B321A705F709F70DF7023000B32253306
S1134B001A705F709F70DF70564B31000220994617
S1134B10A777E777984733880020638163801B0C6D
S1134B20A380514BE780278198472100E075000A54
S1134B30207616310020C84705A90120C8476B46D6
S1134B4080229B8A1203A382484B20005A612022B0
S1134B502923E2540F3A0133E2544549454B2B30A3
S1134B609847200032884449444B35309847444B99
S1134B70444E02930123019333783C22009351461F
S1134B8023000220404CA0470723002896D0337806
S1134B9001333370062391E7002B00D08FE73048B0
S1134BA0002443808380C38003814381C3750C2325
S1134BB0037703001D33DC70882203005204213381
S1134BC0C2601C705C709C70DC70802203009204D4
S1134BD0253302611C705C709C70DC7020222923D8
S1134BE001260227C2540F3A01332149C2540670E8
S1134BF04770047644768476C67644778477C4779F
S1134C001C4B2B309847154B204A1C739A60204A42
S1134C1020481A61204B06731C70FA239B008360A2
S1134C201E4B03610C4B98471D4B98471D4B1E4868
S1134C3098471E481E4B98472F7040E780211D4B14
S1134C401D4A89040A20984703232B7037E7C0467E
S1134C505151000050030020B937000048130020D0
S1134C60FC0200203153000079530000004400414D
S1134C70F88A0000077C0000048B0000957D00008A
S1134C809549000051030020ED5100001027000059
S1134C904D4900003C03002038030020294900004E
S1134CA049480000F563000071490000F54900001F
S1134CB0097600001D730000114A000010B5041CA1
S1134CC0134B9847134B1A7862438118124B59605F
S1134CD05968090C59605B68002B07D00E4B596862
S1134CE00132801818810D4B984704E082180A4B52
S1134CF01A810B4B9847084B1B89632B02D86433EA
S1134D00054A1381044B1889064B984710BDC046C9
S1134D10313900005C1300205403002045390000A1
S1134D20593900009539000008B50022034B1A7068
S1134D30034B9847034B187008BDC046540300202A
S1134D40AD3900005C13002008B50E4B5B68002BE6
S1134D5007D00C4A5368013B5360002B01D10A4B26
S1134D609847084A13780133DBB21370074A127864
S1134D709A4206D8034B00221A70DB68002B00D03D
S1134D80984708BD54030020593900005C130020E3
S1134D9008B5044B9847044B1B69002B00D0984777
S1134DA008BDC0464539000054030020014B18617A
S1134DB07047C0465403002070B50124074B1C7093
S1134DC0074C23681B69002B04D09847054D2068C5
S1134DD0A84770BD1000034DA847F8E74A0000201B
S1134DE08413002079350000F0B54646D6464F4678
S1134DF0C0B5234E337A002B33D0224B002598467E
S1134E00214B224F9A46C14616E0437C002B2DD0FD
S1134E10013BDBB24374002B28D18368002B03D001
S1134E20807C2200032198472000194B98470135C4
S1134E30337AEDB2AB4214D900213000B847041ED6
S1134E400FD0037C002B04D0013BDBB20374002B96
S1134E50DBD021003000C0470135337AEDB2AB42DC
S1134E60EAD81CBC90469946A246F0BD53461B683E
S1134E702100DB7A300001332374C847D7E7C046EA
S1134E80741300208D3600006C130020C53600001A
S1134E9079350000F0B5DE46574645464E46E0B546
S1134EA0937883B0824698461000324B9346019122
S1134EB09847FF22304B1B881A4256D12F4E337A23
S1134EC0002B31D02E4B00242E4F994607E02900A9
S1134ED03000C8470134337AE4B2A34224D9002114
S1134EE03000B847051E1FD02023C35C4345EED1D4
S1134EF0807C5045EBD1019B002B2AD06B7C002B8E
S1134F0019D0013BDBB26B74002B14D1AB68002BBE
S1134F1002D05A4601999847164B28009847013405
S1134F20337AE4B2A342DAD803B03CBC9046994643
S1134F30A246AB46F0BD144B1B78082BE6D02900E3
S1134F4030000F4B9847A989104A2800104B984706
S1134F50C0E7104B29001A683000D37A01332B7450
S1134F60137B6B74064B9847B4E701980A4B984738
S1134F70A4E7C04679350000B41300207413002060
S1134F808D360000C536000068030020954E0000F1
S1134F90316A00006C1300201D760000F0B5C6468F
S1134FA0154E00B58046100015000F00B047134B96
S1134FB0002113489847FF22124B04001B881A4211
S1134FC010D1002C13D0A368002B03D02A00390081
S1134FD040469847237D002B01D12000B04704BCF4
S1134FE09046F0BD3800084B9847002CEBD1074B96
S1134FF01B78082BF3D1E6E779350000C5360000AD
S113500060130020B41300201D7600006803002004
S113501070B5204B84B018601F4B012519601F4BDD
S1135020984702211E4C1F4B02AA238013780126A5
S11350300B4387210B4040210B43C3210B40AB435F
S1135040137019490298194B9847194B98476B46A6
S11350507642981D2100174B068098471649174B36
S113506000209847164B174C1D70174B17481E808D
S1135070A0471748A0471748A047FA2316489B00A3
S11350808360164B05730361154B9847012004B0E8
S113509070BDC0466C130020701300207D370000E3
S11350A0A0130020341200004C00002059240000FA
S11350B0C52E0000F92300008013002031240000D5
S11350C06803002081360000B4130020741300200C
S11350D060130020A81300206C030020E94D000099
S11350E0B937000030B50C0083B0022815D08028F1
S11350F00CD0002802D0002003B030BD0E4B9847DE
S11351000028F9D022780D4B1A70F5E70B780120AE
S11351105A1E93410A4A1370EEE70B7801AD2B70C7
S11351204B7828006B700749074B98470028E3D059
S11351302A88064B1A80DFE7312400008013002000
S11351404B000020A0130020F9230000B41300201A
S113515070B5194B84B098471848037A002B03D0D4
S1135160174C2378002B0CD1164B9847002804D0F9
S1135170154B16489847164B9847164B984704B05A
S113518070BD154B1D78002DEED10021134B9847AF
S1135190021EE9D0124B134918604369029125217C
S11351A0415C114E01912421415C0091D1698069D7
S11351B0126AB0472570D7E73D2A0000A8130020E3
S11351C04A00002045270000256600008C130020BB
S11351D0292700005138000084030020C536000050
S11351E084130020B94D0000C5240000F0B55746D3
S11351F04E464546DE46E0B583B01E000CAB1F7834
S11352000DAB1C783D4B15001B78063B012B07D9D1
S1135210002003B03CBC90469946A246AB46F0BD84
S11352200228F5D14B780A781B021A438E30344B8E
S11352309146984780460028EAD00322437E1021F5
S1135240934343766A464B46D380D3888B4699462C
S11352502C4B4A469A461B888283C38301232340EE
S11352601A01437E8B43134343763823C5540023EA
S11352700E9AC374037582608774234B2A0031002D
S113528039309847214B994514D85346FF221B883F
S1135290934342469381002C1DD1547441461C48CB
S11352A01C4B984743461C4A998940461B4B9847D8
S11352B00120AEE743465A465B7E4146934342464D
S11352C013485376134B9847134A15494046134BDA
S11352D0984701209DE74146124B13481A68D37A38
S11352E001330B74137B4B740A4B984743460F4AA4
S11352F099894046094B984720008AE768030020B3
S1135300C5340000B4130020077C0000FCFF00003B
S1135310601300208D3600009D4F0000316A0000AC
S1135320FFFF00006C13002074130020954E000052
S1135330012816D000280FD0022809D0032809D14B
S1135340094B01201A880A701B881B0A4B7070478E
S1135350064BF6E70020FAE7054B01201B780B709B
S1135360F5E7044BEDE7C04654000020B4130020D9
S113537080130020A0130020024B1888FF239843B9
S11353807047C046B4130020F0B54E46DE4657467B
S11353904546E0B5F54B87B01B7803900E000093AB
S11353A0002B01D000F065FE11780B02490209B20E
S11353B018B28C46804660464446ED495B00414045
S11353C09BB289B20493181C002C01DA00F05BFE36
S11353D084B2E7496400614009B289B2440003041D
S11353E001D500F053FEA0B2E1494000414089B22A
S11353F06000230401D500F054FE84B2DC4964004B
S1135400614089B24400030401D500F055FEA0B206
S1135410D7494000414089B26000230401D500F01F
S113542056FE84B2D2496400614089B24400030448
S113543001D500F057FEA0B2CD494000414089B2E9
S11354406000230401D500F058FE84B2C84964000A
S113545061400124145789B224024500030401D594
S113546000F04EFE65402DB2A9B2C1484900484043
S113547080B2002D01DA00F046FEBD488DB26D0009
S11354804540ADB248000B0401D500F047FE85B29B
S1135490B7496D00694089B24500030401D500F0A5
S11354A048FEA8B2B2494000414089B268002B04CA
S11354B001D500F049FE85B2AD496D00694089B25D
S11354C04500030401D500F04AFEA8B2A8494000F3
S11354D0414089B268002B0401D500F04BFE85B22F
S11354E0A3496D00694089B24500030401D500F069
S11354F04CFEA8B29E4940004140022010566F0065
S113550089B20002B9462B0401D500F041FE4D4694
S113551045402DB2A9B2490089464F469449794085
S113552089B28A464946002D01DA00F034FE8DB274
S11355306D00A9464F468E4D7D40ADB2A9464D0043
S11355400B0401D500F02AFEA9B2490089464F4652
S1135550874979406F0089B2B9462B0401D500F020
S113556020FE49466B468DB2998081496D006940A1
S11355704F464D4689B26D003B0401D500F014FE40
S1135580A9B2490089464F46794979406F0089B2EA
S1135590B9462B0401D500F00AFE49466B468DB28C
S11355A0998073496D0069404F464D4689B26D003C
S11355B03B0401D500F0FEFDA9B2490089464F46DF
S11355C06B4979406F0089B2BA462B0401D500F0CB
S11355D0F4FD51466B468DB2998065496D00694072
S11355E089B2894603215546574651566D00090232
S11355F03B0401D500F0E4FD4D402DB26B46A946B5
S11356005B4FADB26D006F409F80BFB2BA464F464C
S1135610002F01DA00F0D7FDAFB27F00BA46544F35
S1135620B94657464B465F403B1C6F46BB80BB8820
S11356309A466B0099462B0401D500F0C7FD4B46F2
S11356406D46AB80AD886B00494D5D404B465B00B9
S11356509A464B46ADB21B0401D500F0BAFD534641
S11356606D46AB80AD886B00414D5D4053465B0099
S113567099465346ADB21B0401D500F0ADFD4B462F
S11356806D46AB80AD886B00394D5D404B465B0089
S11356909A464B46ADB21B0401D500F0A0FD53461B
S11356A06D46AB80AD886B00314D5D4053465B0069
S11356B099465346ADB21B0401D500F093FD4B4609
S11356C06D46AB80AD886B00294D5D404B465B0059
S11356D09A464B46ADB21B0401D500F086FD5346F5
S11356E06D46AB80AD886B00214D5D40ABB20425A7
S11356F0555799462B029B4653465D001B0401D522
S113570000F076FD5B465D402BB26D469946AB805A
S1135710174BAD881F006D006F403B1C6F46BB806C
S1135720BB889A464B46002B01DA00F064FDABB20D
S11357305B009A4657460E4B5F403B1C6F46BB804E
S1135740BB889A466B0099462B0401D500F056FDA0
S11357504B466D46AB80AD886B00054D5D404B46B6
S11357605B009A464B46ADB204E0C0464B000020B5
S1135770211000001B0401D500F043FD53466D4683
S1135780AB80AD886B00E94D5D4053465B009946A4
S11357905346ADB21B0401D500F036FD4B466D46B1
S11357A0AB80AD886B00E14D5D404B465B009A4693
S11357B04B46ADB21B0401D500F029FD53466D469E
S11357C0AB80AD886B00D94D5D4053465B00994674
S11357D05346ADB21B0401D500F01CFD4B466D468B
S11357E0AB80AD886B00D14D5D404B465B009A4663
S11357F04B46ADB21B0401D500F00FFD53466D4678
S1135800AB80AD886B00C94D5D40ABB205255557E3
S113581099462B02019353465D001B0401D500F009
S1135820FFFC019B5D402BB26D4699462B81BF4B1B
S11358302D891F006D006F403B1C6F463B813B89E7
S11358409A464B46002B01DA00F0EDFCABB25B004C
S11358509A465746B54B5F403B1C6F463B813B899C
S11358609A466B0099462B0401D500F0DFFC4B46A9
S11358706D462B812D896B00AC4D5D404B465B0022
S11358809A464B46ADB21B0401D500F0D2FC5346F8
S11358906D462B812D896B00A44D5D4053465B0002
S11358A099465346ADB21B0401D500F0C5FC4B46E6
S11358B06D462B812D896B009C4D5D404B465B00F2
S11358C09A464B46ADB21B0401D500F0B8FC5346D2
S11358D06D462B812D896B00944D5D4053465B00D2
S11358E099465346ADB21B0401D500F0ABFC4B46C0
S11358F06D462B812D896B008C4D5D404B465B00C2
S11359009A464B46ADB21B0401D500F09EFC5346AB
S11359106D462B812D896B00844D5D40ABB206250D
S1135920555799462B02029353465D001B0401D53B
S113593000F08EFC029B5D402BB26D469946AB8213
S11359407A4BAD8A1F006D006F403B1C6F46BB82D3
S1135950BB8A9A464B46002B01DA00F07CFCABB2C2
S11359605B009A465746714B5F403B1C6F46BB82B7
S1135970BB8A99466B009A462B0401D500F06EFC55
S113598053466D46AB82AD8A6B00684D5D4053460D
S11359905B0099465346ADB21B0401D500F061FC8F
S11359A04B466D46AB82AD8A6B00604D5D404B4605
S11359B05B009A464B46ADB21B0401D500F054FC83
S11359C053466D46AB82AD8A6B00584D5D405346DD
S11359D05B0099465346ADB21B0401D500F047FC69
S11359E04B466D46AB82AD8A6B00504D5D404B46D5
S11359F05B009A464B46ADB21B0401D500F03AFC5D
S1135A0053466D46AB82AD8A6B00484D5D405346AC
S1135A105B0099465346ADB21B0401D500F02DFC42
S1135A204B466D46AB82AD8AD2796B003F4D52B284
S1135A305D4013029A464B46ADB25A001B0401D591
S1135A4000F01EFC53465A40384B12B21F0095B268
S1135A506D006F403B1C6F46BB82BB8AADB2002A0F
S1135A6000DA0EE32A1C6F4695B26B002F4D5D40A1
S1135A705300BB82BB8AADB29946130401D500F032
S1135A80B4FC4A466F4695B26B00284D5D40530006
S1135A90BB82BB8AADB29946130400D44D466F460F
S1135AA0AAB25300214A5A406B00BB82BB8A92B20D
S1135AB099462B0400D44A466F4695B26B001B4DA1
S1135AC05D405300BB82BB8AADB29946130400D437
S1135AD04D466F46AAB25300144A5A406B00BB822B
S1135AE0BB8A92B299462B0400D44A4695B26B0005
S1135AF00E4D5D40ABB255009946ADB2130401D5CD
S1135B0000F070FC2A1C95B213B21F006B00074D05
S1135B1052005D40ABB2059393B299466346044A82
S1135B2045465A406B4692B21B8A03E0211000009E
S1135B300580FFFF002D01DA00F051FC9DB2E94A17
S1135B406D006A4012B295B25A0092B21B0401D59C
S1135B5000F042FCE34B95B26D005D405300ADB2E2
S1135B609BB2120401D500F034FCDE4A9DB26D00F4
S1135B7055405A00ADB292B21B0401D500F026FC88
S1135B80D84B95B26D005D405300ADB29BB2120488
S1135B9001D500F018FCD34A9DB26D0055405A005F
S1135BA0ADB292B21B0401D500F00AFCCD4B95B204
S1135BB06D005D405300ADB29BB2120400D5C1E349
S1135BC09AB2C84D520055405A00ADB292B21B046D
S1135BD000D5B5E3544024B2A2B2C24B52005340A4
S1135BE09DB293B2002C00DAA8E3BE4A9CB26400D2
S1135BF054405A00A4B292B21B0400D59CE3B94BA2
S1135C0094B264005C405300A4B29BB2120400D569
S1135C1090E3B44A9CB2640054405A00A4B292B2D5
S1135C201B0400D584E3AF4B94B264005C40530082
S1135C30A4B29BB2120400D578E3AA4A9CB26400D1
S1135C4054405A00A4B292B21B0400D56CE3A54B95
S1135C5094B264005C405300A4B29BB2120400D519
S1135C6060E39AB29F4C520054405A00A4B292B2DC
S1135C701B0400D554E3504000B282B2994B520049
S1135C8053409CB293B2002800DA47E3954A98B295
S1135C90400050405A0080B292B21B0400D53BE34E
S1135CA0904B90B240005840530080B29BB2120413
S1135CB000D52FE38B4A98B2400050405A0080B27E
S1135CC092B21B0400D523E3864B90B240005840A7
S1135CD0530080B29BB2120400D517E3814A98B2F4
S1135CE0400050405A0080B292B21B0400D50BE32E
