S0170000415050535F57534E5F44454D4F5F432E737265635C
S1130000D8570020555200005152000051520000B0
S113001000000000000000000000000000000000DC
S11300200000000000000000000000005152000029
S11300300000000000000000515200005152000076
S11300405152000051520000515200005152000020
S1130050B9340000515200005152000051520000C6
S113006051520000293C0000393C0000493C00008A
S1130070593C0000693C0000793C000051520000EA
S11300805152000051520000314F0000414F000016
S1130090514F000000000000000000005152000019
S11300A05152000000000000515200000000000006
S11300B00000000010B5064C2378002B07D1054B37
S11300C0002B02D0044800E000BF0123237010BDC0
S11300D0300100200000000070ED0000084B10B556
S11300E0002B03D00749084800E000BF0748036815
S11300F0002B00D110BD064B002BFBD09847F9E72D
S1130100000000003401002070ED000070ED0000DC
S11301100000000070B50020084B98470500084C0B
S1130120FA218900A047074B186007492800A04717
S1130130064B18600522064B1A6070BD294C00005E
S1130140D5C400000000002040420F00040000203D
S113015010E000E030B5084B1C68084A00258021F7
S11301604902013807D3002CFBD054609560136812
S11301700B42FCD0F5E730BD0400002010E000E0A5
S113018030B5084B1C68084A002580214902013813
S113019007D3002CFBD05460956013680B42FCD04D
S11301A0F5E730BD0000002010E000E010B5034B7F
S11301B01B68002B00D0984710BDC0464C0100209E
S11301C070B5441E002804D0024D0120A847013C0C
S11301D0FBD270BD81010000F8B5074C8027FF01F8
S11301E067618025AD0165610120044EB047A761B8
S11301F00A20B047A561F8BD00440041C1010000D8
S113020070B582B00023164A136001AC01256570F5
S1130210A370257021000D20124EB04721000E203E
S1130220B04721001620B0470F4B8022D2015A61FB
S1130230802292015A610D4B1B681D4203D00B4B67
S11302401B689B0701D40A4B98470A4B9847012225
S1130250094B1A70BFF35F8F62B6002002B070BD05
S11302604C0100201D3600000044004110E000E075
S113027015010000D90100000A00002010B584B067
S11302800E4B186001AC20000D4B98470F230193CF
S113029000236360013323720133E37221000F20D2
S11302A0084B984700220F210748084B9847002124
S11302B00F20074B984704B010BDC0464C010020E6
S11302C091350000A5350000AD0100004D3400005B
S11302D07934000010B5002804D100210F20044B0C
S11302E0984710BD00210F20024B9847F9E7C046FC
S11302F0993400007934000010B590B02B4C1123D0
S1130300237000236370A37001A901224A708B70CB
S11303100A701120264B98472278D109002300291E
S113032004D15309DB0123498C4663441F21114046
S1130330012210008840986102AC227000230393CC
S1130340049323746374A274E27423752332A35454
S1130350183A002108A8184B984780235B02E360F1
S1130360164BA36201235B42E362154B2363154BD7
S11303706363154BA361220014491548154B984734
S1130380002810D1124B1A68D369002BFCD11368D2
S113039002210B431360104B984701200F4B9847E1
S11303A0002010B010BD06204042FAE7F0090020FA
S11303B01D360000004400418DC8000003001000F9
S11303C00300120003001300001BB70000140042D6
S11303D0F4090020893C0000D9010000C10100009B
S11303E0F0B5DE4657464E464546E0B583B0032891
S11303F000D075E00E684D680C8900226B46DA71F6
S1130400002D27D0002C65D0002E00D176E00023EB
S1130410984600239B4601223B493C483C4B984765
S11304203A4B9A4601270422994659464B42594170
S11304308B46307853461B68197E3942FCD0197EAE
S11304403942FCD09862197E1142FCD04946897920
S11304508C4611E0002E3AD0002C3ED00023984662
S113046001339B466B46DD1DD5E7604601280DD060
S1130470986AC0B200290DD0197E1142FCD0588B65
S113048000211042F1D05A831E31EEE7986AC0056C
S1130490C00DEFE72870013CA4B25D4443465942C5
S11304A04B41F618002CC4D1184B196802220B7E5C
S11304B01342FCD0002214491448154B98470020DD
S11304C003B03CBC90469946A246AB46F0BD0F2013
S11304D04042F5E70F204042F2E70F204042EFE7A9
S11304E0FD220C490C480D4B98470D480D4B98477D
S11304F00D200D4B984701204042E1E70123984627
S11305006B46DE1D85E7C046F0090020F409002093
S11305104D3F0000F0DD000000DE00009DC800003B
S113052014DE0000B9C90000D1C8000010B582B0C3
S113053001AB00221A709A705A700E4B1A68D36974
S1130540002BFCD18F3313751376136802218B4370
S1130550136001A91220084CA04701A91020A0474C
S113056001A91320A04701A91120A047002002B02F
S113057010BDC046F40900201D360000002A06D034
S113058082180B780370013001319042F9D1704721
S1130590002A04D08218017001309042FBD17047C8
S11305A003000278002A07D00020013080B2013312
S11305B01A78002AF9D170470020FCE7024AD37860
S11305C00133DBB2D3707047000A0020704700008B
S11305D000B583B000220A4B9A700120094B98475A
S11305E001A90948094B9847002801D003B000BD70
S11305F00221019B194301910348054B9847F5E7F4
S1130600000A0020D502000070100000DD1900006F
S1130610E919000010B50C4B9B780020002B0DD17C
S1130620094B5B78002B03D1074B1B78002B06D1B9
S1130630054A53780133DBB25370002010BD034BDD
S113064098470028F4D0F9E7000A0020C5160000F6
S1130650054B5B78002B04D0034A5378013BDBB293
S1130660537000207047C046000A002010B50B4BA1
S11306705B78002B04D0094A5378013BDBB25370FA
S1130680064B5B780020002B03D1044B1B78002B16
S113069000D110BD024B9847FBE7C046000A00207A
S11306A05D160000F0B5DE46574680B589B0834636
S11306B08A460192009310AB80CB1E8812AB1D8832
S11306C07F220A4007AB5A70187008225A80002F04
S11306D03DD05A889219AA1892B25A80694B984709
S11306E0041E00D0C1E00023059302AAD380049322
S11306F0049B5A461A430492049A53461B0213431A
S1130700049307AB5B88049A1B0413430493049972
S11307105D485E4B9847041E57D100230493049B05
S113072002221343049304995948584B9847041ED2
S11307304BD10022059202ABDA8006331B889BB2B0
S1130740544A934249D8544C544B9A4617E007AB49
S11307505A8800998C46624492B25A80BEE70120BE
S1130760D047049B9B0728D502ABDA88013292B2AA
S1130770DA8006331B889BB2464A93422DD804A9DB
S11307804348A047002828D102AB06331B889BB2FC
S1130790F422FF329342E4D902AB06331B889BB2A6
S11307A001329342DBD83E483E4B98473E483F4B8C
S11307B098470D203E4B9847D1E705A93D48364B55
S11307C09847041E09D0002305933B4B984720000B
S11307D009B00CBC92469B46F0BD059B002B3FD054
S11307E0059B069307A94B889BB24B800698082269
S11307F0324B9847041EE8D1069B08330693019BAD
S1130800002B0BD00698009A19002C4B9847041E15
S1130810DBD1069B009A944663440693002F0ED0C6
S1130820069B009AAD1AED18069506983200390019
S1130830224B9847041EC8D1069BF3180693059BC8
S11308409B000493049B02221343049304991C48C1
S11308500E4B9847041EB8D11A4B98470400B6E7CC
S1130860184B984703246442B1E79A22FF32164991
S113087016480C4B984716480C4B98470D200C4BC8
S11308809847A4E7150600008C100000E919000041
S113089078100000E7030000DD190000C10100002A
S11308A030E100009DC800003CE10000B9C900002F
S11308B0D1C8000000041500510600005D1A0000B4
S11308C06C1000006D06000048DE000000DE000031
S11308D04CE10000F0B5CE46474680B587B0CF4B1B
S11308E09846994681E0CD4B059A5A609D6004AFC5
S11308F0042239000598CA4B984704007B889BB2B0
S11309007B80002834D104AB5B889BB29D4204D029
S113091004AB5B88EB1A042B3ADC04AB1B78012B89
S11309204FD004AB1B78022B79D004AB1B78042B7B
S113093000D191E004AB1B78062B00D1A9E004ABF5
S11309401B78072B00D1C1E004AB1B78052B00D129
S1130950D8E085229200B349B348B44B9847B448D1
S1130960B44B98470D20B44B98470624644215E1D4
S1130970EB225200AB49AC48AC4B9847AF48AD4B67
S113098098470D20AC4B98470120AD4B984705E1A3
S1130990E022FF32A349A448A44CA04704A94A88F2
S11309A092B20B78DBB2497800912900A548A047A0
S11309B00D20A14B98470120A14B9847062464427F
S11309C0ECE0964BDB68002B1CD0944BDB6804AA4C
S11309D05078C0B25188059A0832083989B29847CC
S11309E08E4B9B78002B00D09DE04346DB78002B98
S11309F000D157E14B46DB78013BDBB24A46D3706A
S1130A00914ED6E0EC22FF3286498748874B9847BF
S1130A108E48884B98470D20874B9847E0E77F4BDB
S1130A201B69002B0BD07D4B1B6904AA5078C0B204
S1130A305188059A0832083989B29847D0E7F422D8
S1130A40FF3278497848794B98478148794B9847E1
S1130A500D20794B9847C3E7704B5B69002B0BD093
S1130A606E4B5B6904AA5078C0B25188059A08326B
S1130A70083989B29847B3E7FC22FF3269496A48CA
S1130A806A4B984773486B4B98470D206A4B9847BD
S1130A90A6E7624B1B6A002B0BD0604B1B6A04AAAF
S1130AA05078C0B25188059A0832083989B29847FB
S1130AB096E7812292005B495B485C4B9847664805
S1130AC05C4B98470D205C4B984789E7534B9B69D7
S1130AD0002B0BD0514B9B6904AA5078C0B25188AB
S1130AE0059A0832083989B2984779E75B4A4D4933
S1130AF04D484E4B98475A484E4B98470D204E4B05
S1130B0098476DE7454B5B6A002B00D168E7434B80
S1130B105B6A04AA5078C0B25188059A0832083931
S1130B2089B298475CE74F4A3E493F483F4CA0474B
S1130B3004AB1978C9B25A78D2B24B48A0470D20F9
S1130B403D4B9847494B9847041E27D14DE7484AE7
S1130B5034493548354B98474648364B98470D201D
S1130B60354B98470224644218E0434A2D492E48E5
S1130B702E4CA04703994148A0470D202E4B98477F
S1130B800C2464420AE03E4A26492748274B9847EA
S1130B903C48284B98470D20274B98473A4A3B49F5
S1130BA02148224FB84721003948B8470D20224B2D
S1130BB0984703A93748B047041EE4D1039BDB07D9
S1130BC0D3D500201E4B98470123039999430391E1
S1130BD03048314B9847041EE0D101220F4B9A70E4
S1130BE0039B9D042D0DB2D00023059305A92B482A
S1130BF0154B9847041E00D175E6E62252000949B8
S1130C0009480A4B984726480A4B98470D200A4B37
S1130C10984701200A4B9847C0E7C046000A0020C5
S1130C20F519000054DE000000DE00009DC800003D
S1130C30B0DF0000B9C90000D1C80000ACDE00007C
S1130C40D5020000C4DE0000DD19000004DF00004E
S1130C5024DF000048DF000068DF00000B02000012
S1130C608CDF00001A020000C8DF0000D10500007C
S1130C7021020000F4DF00002902000008E0000067
S1130C803202000024E00000560200005CDE000096
S1130C9048E0000070100000E91900008410000012
S1130CA088DE0000002007B00CBC90469946F0BDD9
S1130CB070B514001D00002803D0002901D0002ABB
S1130CC012D1002D02D0274B984770BD264A2749E0
S1130CD02748284B98472848284B98470D20284BED
S1130CE098470C204042F0E7264B9B689A421AD85A
S1130CF0244B5B68984226D38618224A536892682C
S1130D009B189E421FD822001F4B98470028DCD115
S1130D101C4A536892689B189E4201D0002DD4D07F
S1130D20104B9847D1E7194A10491148114DA8476B
S1130D30144B9A6821001648A8470D20104B984779
S1130D400C204042C1E7134A08490948094B984717
S1130D5011480A4B98470D20094B98470C204042F4
S1130D60B3E7C046D1050000770200006CDE000046
S1130D7000DE00009DC8000078E00000B9C9000052
S1130D80D1C80000000A0020F51900007F0200000D
S1130D9098E0000085020000E0E0000070B5040067
S1130DA007281FD88300164AD3589F46154B19614C
S1130DB0002070BD134BD9600020FAE7114B596134
S1130DC00020F6E70F4BD9610020F2E70D4B1962C2
S1130DD00020EEE70B4B99610020EAE7094B5962CA
S1130DE00020E6E7084A094909480A4DA8472100B6
S1130DF00948A8470D20094B98470C204042D8E7E2
S1130E0028DE0000000A0020BD02000078DE000099
S1130E1000DE00009DC8000024E10000D1C80000ED
S1130E2010B5282200210648064B98470648074B70
S1130E30984707490320074B9847002010BDC04638
S1130E40000A002091050000BD0500007D0200009D
S1130E50CD0500009D0D000030B59FB004001500C5
S1130E602C282FD01B283DD006284BD00E2827D065
S1130E70322857D02F2865D0342800D177E01128A4
S1130E8000D196E0132800D1ACE0042800D1BBE0E7
S1130E90652800D1CAE0092800D1D9E02A2800D168
S1130EA0E8E0202800D1F7E09522520089498A48D9
S1130EB08A4DA84721008A48A8470D20894B9847A6
S1130EC01FB030BD0023042203A92800864CA0478C
S1130ED00028F5D1854B1B68002BF1D003A92C30D9
S1130EE09847EDE70023082203A928007E4CA04779
S1130EF00028E5D17D4B1B68002BE1D003A91B30F2
S1130F009847DDE70123302203A92800764CA04747
S1130F100028D5D1754B1B68002BD1D003A906300E
S1130F209847CDE70023142203A928006E4CA0475C
S1130F300028C5D16D4B1B68002BC1D003A93230EA
S1130F409847BDE76422002103A8694B9847002312
S1130F50642203A92800644CA0470028B0D1634B45
S1130F601B68002BACD003A92F309847A8E70023B7
S1130F70042203A928005C4CA0470028A0D15D48A6
S1130F80564DA847039C230AFF200340220C02402D
S1130F90210E204000905848A8470D20514B9847F7
S1130FA0524B1B68002B00D18AE70021342098475C
S1130FB086E70022514B1A700023043203A928004B
S1130FC0494CA047002800D07AE703AB1A784C4B71
S1130FD01A70464B1B68002B00D171E703A911302E
S1130FE098476DE700232C2203A928003E4CA04714
S1130FF0002800D064E73D4B1B68002B00D15FE75D
S113100003A9133098475BE7002304221CA9280096
S1131010354CA047002800D052E7344B1B68002B06
S113102000D14DE71CA90430984749E70023042266
S11310301CA928002C4CA047002800D040E72B4BCB
S11310401B68002B00D13BE71CA96530984737E7A4
S11310500123642203A92800234CA047002800D0C0
S11310602EE7224B1B68002B00D129E703A9093086
S1131070984725E70123042203A928001A4CA04716
S1131080002800D01CE7194B1B68002B00D117E780
S113109003A92A30984713E70023082203A928004C
S11310A0114CA047002800D00AE703AB9A88280017
S11310B00830012303990C4CA047002800D0FFE618
S11310C00A4B1B68002B00D1FAE603A9203098478D
S11310D0F6E6C04668E1000000DE00009DC800009E
S11310E0B8E10000D1C80000B10C0000500100209C
S11310F09105000030E1000098E100005501002056
S113110054010020F0B58FB001220F236B441A70F4
S1131110002861D00268324B1A600022314B1A70E9
S11311200F206844304B9847041E02D020000FB0B3
S1131130F0BD00202D4B9847041E49D12C490120B5
S11311402C4B984704AE30002B4B984704002B4897
S11311502B4DA847B37972793179308C00902948A6
S1131160A8470D20284FB8472448A84726226A4498
S11311701A2169442548A8470D20B8471F48A847A5
S1131180737A327AF1792248A8470D20B8471B4870
S1131190A8470223052213211E48A8470D20B8475B
S11311A01648A8471C4A1D491D48A8470D20B847A2
S11311B023000D33BAD1F82252001A491A48104BB1
S11311C098471A481A4B98470D200F4B9847ADE79C
S11311D00020184B9847A9E70C246442A6E7C046B0
S11311E05001002055010020A91B0000210E000021
S11311F0590E00009D0D0000C51A000030E10000EA
S11312009DC8000074E20000D1C800009CE2000008
S1131210B8E20000DCE20000F4E2000000E30000B9
S11312200CE3000074E1000000DE000024E3000091
S1131230B9C900007D1C000010B5014B984710BDD2
S1131240D5080000F0B5CE46474680B5A3B005905A
S11312500C0015001F002AAB1B8899462BAB1B788A
S11312609846012A03D0002F40D0022A4CD0631E96
S11312701F2B00D978E04B46013B9BB20D2B03D9C1
S11312804B46FF2B00D07DE007AE220005995A2083
S113129002AB9C466044784B98473419463400238B
S11312A0237044334A46F25243465A1E93416722FE
S11312B0B3544123F554032D00D171E0022D00D124
S11312C0AAE0042D00D1C2E0012D00D0C5E0002326
S11312D00293019300936C3307AA28210120674CE1
S11312E0A04723B00CBC90469946F0BD644A6549BA
S11312F06548664B98476648664B98470D20664B91
S113130098470C204042ECE73800644B984740284B
S1131310ADD13B781A00303A362A17D80A3A062A51
S113132014D9473B192B11D97A1C38004030137853
S113133019003039362909D80A39062906D9473B14
S1131340192B03D901328242F1D190E7544A4D4915
S11313504D484E4B984753484E4B98470D204E4BA3
S113136098470C204042BCE74F4A46494648474B01
S113137098474E48474B98470D20474B98470C20B9
S11313804042AEE74A4A3F493F48404B98474948A4
S1131390404B98470D20404B98470C204042A0E713
S11313A03B78013BDBB207AA1370032B17D87A787A
S11313B0511E07AB59701023110099430B291DD0FE
S11313C03D4A30493048314CA04707AB59783B4837
S11313D0A0470D20304B98470C20404281E7384A03
S11313E028492948294CA04707AB19783548A04714
S11313F00D20294B98470C20404272E7B91C162057
S113140002AB9C4660441C4B98477B7807AA9446E1
S1131410634400229A705AE73800204B9847431ED1
S11314209BB23F2B05D8421C390007A8124B9847A2
S11314304DE7254A13491448144B98472348154B44
S113144098470D20144B98470C20404249E73E2210
S1131450390007A8084B984739E71D4A09490A4843
S11314600A4B98471B480B4B98470D200A4B98474B
S11314700C20404235E7C0467D050000A50600006B
S11314801F02000084E1000000DE00009DC800008F
S1131490CCE10000B9C90000D1C80000A1050000DA
S11314A02B020000E0E1000036020000ECE1000045
S11314B03F02000000E200005D02000028E200009C
S11314C0560200000CE200006902000044E2000041
S11314D07602000060E2000030B583B006AC2488D8
S11314E0002501950094024CA04703B030BDC046CE
S11314F04512000000207047F0B583B080256D00D0
S11315000543A5246401084F084E29002000B8476C
S11315100023019301A92000B0470028F5D1019BC5
S11315209D42F2D103B0F0BDE9190000DD190000BD
S113153000B583B00023019301A91148114B9847CA
S1131540002801D003B000BD80214900019B19434C
S113155001910B480C4B98470028F3D101A9D020E6
S11315604001084B98470028ECD180214902019B97
S113157019430191D0204001034B9847E2E7C0464C
S113158008140000DD190000E919000010B582B04C
S1131590284B1C68002C04D0264B1C68200002B089
S11315A010BD190080204001234B9847002803D028
S11315B00022204B1A60F1E701A920481E4B9847EE
S11315C0002803D000221B4B1A60E7E7194B1B6865
S11315D01B4A93420ED01B4A934212D01A4A93429A
S11315E01CD01449194A0B681A40A023DB02134388
S11315F00B60D1E7019B012BF3D0154A0D4B1A6008
S1131600EFE7019B032BECD0042B03D0114A094BC9
S11316101A60E6E7104A074B1A60E2E70549EC2036
S11316208003054B98470028DBD00022014B1A6049
S1131630B4E7C04658010020DD190000F41300008F
S1131640A0021000B0021000F0001000FFFFF0FF35
S1131650A1021000B2021000B102100030B583B034
S1131660164C012501A91020A04700281CD1019B7C
S11316702B42F7D101A90130104B9847002813D110
S113168001998B0707D502239943019101300C4B33
S11316909847002808D101A90B20084B9847002837
S11316A002D10199CB0701D403B030BD0123994382
S11316B001910B30024B9847F6E7C046DD19000054
S11316C0E9190000F0B583B000230193009301A948
S11316D00B20284B9847041E30D10199CB0706D420
S11316E0012319430B20244B9847041E26D101A93A
S11316F00120204B9847041E20D101998B0720D547
S113170005251C4F1D4E69460F20B847041E20D1E5
S1131710009B5B072BD40220B047013D002DF2D182
S1131720AF22520016491748174B98471748184BD1
S113173098470D20174B984704246442200003B0B7
S1131740F0BD0223194301200B4B9847041ED7D048
S1131750F4E7AA2252000A490A480B4DA847009A06
S113176021000D48A8470D200A4B9847E6E70B4B8C
S11317709847E3E7DD190000E9190000C101000002
S113178040E3000000DE00009DC8000088E3000084
S1131790B9C90000D1C8000070E30000C5190000F9
S11317A0F8B507002D4D2E4C2E4E2800A0470028DA
S11317B002DB0120B047F8E72B48294B9847C307C1
S11317C009D4284E294C264D0120B0472000A847B3
S11317D0274B9842F8D1022F21D0032F29D0042F70
S11317E030D024492448254B98470024244B98475B
S11317F00005000D234B98422AD82000224B98471D
S11318002248234CA0471B492248A0470D20224BC5
S1131810984722491548194B98470020F8BD20499C
S11318202048164CA047802149031348A0470024B0
S1131830DCE71B491B48114CA04700210E48A04778
S11318400024D3E70B490C480C4B98478024CDE780
S1131850022020430C4B9847D2E7C04614100000E6
S1131860D1190000C1010000BC0702000C000C00EB
S11318709ED0AD10521352138C100000E9190000D1
S11318808D1500009F030000F914000030E10000F2
S11318909DC80000A4E30000D1C80000612F52EFEE
S11318A07DD51C3CAC07020070B582B0154B01938A
S11318B0154B00930238012811D9012464420020F9
S11318C0124E134D009B98420ED00220B04701984F
S11318D0A847013C002CF5D10520404209E00D4BFE
S11318E001930D4B0093E8E7009A074B00209A42BE
S11318F001D002B070BD00210248084B9847002077
S1131900F7E7C0468C10000036265302C1010000E0
S1131910D1190000AC070200C3C15DD7E91900006A
S113192010B582B00023019301A9A0204001144BFB
S11319309847041E15D11349019B19400191A02019
S11319404001114B9847041E16D0104A1049114803
S1131950114B98471148124B98470D20114B98474B
S11319600AE0114A0A490B480B4B98470B480C4BA9
S113197098470D200B4B9847200002B010BDC0467D
S1131980DD190000FFFBFFFFE91900000B02000056
S11319904CE3000000DE00009DC8000058E3000096
S11319A0B9C90000D1C800000502000010B5014B00
S11319B0984710BDF902000010B5014B984710BDBF
S11319C02D05000010B5014B984710BD7123000090
S11319D010B5014B984710BDA923000010B5014B69
S11319E0984710BDBD23000010B5014B984710BDAA
S11319F0D5230000F0B5D6464F464646C0B582B062
S1131A00804689461500134B1F88083FBBB20193DB
S1131A101E0004009A421AD90F4B9A46371A4346BD
S1131A20E11A4944019A2000D047002809D1AD1B8E
S1131A303919A419B542F2D8AAB249442000064B78
S1131A40984702B01CBC90469946A246F0BD0021BE
S1131A50F2E7C0460800002019250000F0B5D6467C
S1131A604F464646C0B582B0804689461500134BA2
S1131A701F88083FBBB201931E0004009A421AD982
S1131A800F4B9A46371A4346E11A4944019A2000FB
S1131A90D047002809D1AD1B3919A419B542F2D891
S1131AA0AAB249442000064B984702B01CBC904699
S1131AB09946A246F0BD0021F2E7C0460800002086
S1131AC07126000070B584B004000023039308223B
S1131AD0002101A82D4B9847002C44D02822002136
S1131AE020002B4B984703A92A482B4B98470028E2
S1131AF03AD1039B002B39D0C0208002184308221E
S1131B0001A9264B984700282ED1029B1804000CEB
S1131B1003902ED0C0239B021843282221001F4B80
S1131B209847002820D121790902A2790F231A406D
S1131B300A4361790901FF2529400A43E179090231
S1131B40667A33400B43217A09010D402B43002A66
S1131B5012D0002B13D012498B4213D8114B9A4246
S1131B6002D80D3800E0002004B070BD0C204042C3
S1131B70FAE70C204042F7E70C204042F4E70C203F
S1131B804042F1E70D204042EEE7C0468DC8000018
S1131B909105000008000C00DD190000F519000093
S1131BA0521300005113000070B5002837D0057897
S1131BB06B1E032B00D901250020204B9847041EDF
S1131BC02FD11F481F4CA0471F4B984701001F48A7
S1131BD0A0470D201E4B98471E4B984728001E4BCC
S1131BE09847041E17D128001C4B9847041E12D195
S1131BF0023D012D11D91A4B9847041E0DD06022C5
S1131C00FF32184918480F4B98471848184B984703
S1131C100D200F4B9847174B9847200070BD0125A6
S1131C20CAE7962252000F490F48064B98471248BC
S1131C300F4B98470D20064B9847EEE7AD1900006F
S1131C4030E100009DC800008D15000074E4000020
S1131C50D1C80000ED230000A1170000A91800005E
S1131C6031150000BCE3000000DE000038E4000091
S1131C70B9C90000B919000058E4000010B51C4BA4
S1131C809847041E0BD100201A4B9847041E14D108
S1131C90194B9847041E1DD1184B98470BE0BB22E3
S1131CA0520017491748184B98471848184B98473B
S1131CB00D20184B9847200010BD7E22FF3210499A
S1131CC01048114B98471448114B98470D20114B5D
S1131CD09847F0E78422FF3209490A480A4B98479B
S1131CE00E480B4B98470D200A4B9847E3E7C04634
S1131CF02119000021320000B919000099230000C5
S1131D00C8E3000000DE00009DC80000D8E3000026
S1131D10B9C90000D1C80000F8E300001CE40000C9
S1131D2000B585B001AB019000220292198119001F
S1131D300320024B984705B000BDC046E1030000F4
S1131D4070B584B008AC257801AC20703F30C4B2C3
S1131D500E2C00D984E0A0004F4C2058874601ABDC
S1131D600A0C5A700A0A9A70D97005214B4B1B78D9
S1131D70002B77D00139C9B283E00B0ADBB2002D06
S1131D8007D101AA537001AB99700022DA700521C2
S1131D90ECE780225242134301AA5370F3E701ABEC
S1131DA000225A709A70DA700521DFE701AB002235
S1131DB05A709A70DA700521D8E701ABFF225A7085
S1131DC09A70DA700521D1E701AA080C5070080A4C
S1131DD09070D170190A117153710721C6E701AAD5
S1131DE0080C5070080A9070D170190C1171190AFE
S1131DF0517193710821B9E70B0ADBB2002D0CD1A4
S1131E0001A8437001AB9970110ED970110C1971AE
S1131E10110A59719A710821A8E7802040420343AE
S1131E2001A84370EEE701AB080C5870080A9870DB
S1131E30D970110E1971110C5971110A9971DA7155
S1131E40092193E73422FF3215491648164B984767
S1131E501648174B98470D20164B9847002317E058
S1131E60002315E04E1E01AA95197F23124C5B0036
S1131E7010784340E35C0132AA42F8D15B0001AA26
S1131E80935589B201A80D4B984701230028D9D155
S1131E90180004B070BDC04684E400005C0100205A
S1131EA0C4E4000000DE00009DC8000054E9000006
S1131EB0B9C90000D1C8000050E50000211D000090
S1131EC000B585B001AB002201920290198119007E
S1131ED00320024B984705B000BDC046E103000053
S1131EE0F0B5C64600B582B00700CF282BD003005A
S1131EF03B33DBB2012B26D90B246B46DE1D264B6C
S1131F00984601213000C047051E25D13378BB42D5
S1131F1030D0013CE4B2002CF3D10B346B46DE1D0F
S1131F201D4F01213000B847002825D13378002BFC
S1131F302FD0013CE4B2002CF3D10125280002B0DB
S1131F4004BC9046F0BD01216B46D81D124B984746
S1131F5000250028D0D0F1E7B72252000F491048DD
S1131F60104B98471048114B98470D20104B984739
S1131F700025E3E70B24D1E7BE22520007490848B5
S1131F80084B98470848094B98470D20084B984739
S1131F90D4E70125D2E7C046C11E0000DCE40000FE
S1131FA000DE00009DC8000080E90000B9C90000FF
S1131FB0D1C80000F0B5DE4657464E464546E0B56A
S1131FC087B001908946029200239A4680239B01A0
S1131FD09B466A46D3813B4B98462FE0C32292002E
S1131FE039493A483A4B98473A483B4B98470D2071
S1131FF03A4B98470025280007B03CBC90469946C8
S1132000A246AB46F0BD002C2EDD019B53441800C4
S113201039002C4B9847041E33D1029B002B03D16B
S11320202F4B1B78002B38D05346FB181BB29A4613
S11320304B46DF1BBBB29946002B41D04F46D945D6
S113204001D96B46DF89BFB20A2404ABDE1C01212F
S11320503000C047051EC1D133781B090F2BD2D0E5
S1132060013C24B2631CF2D11E4A17491748184C8C
S1132070A04704ABD9781C48A0470D20174B9847BC
S1132080B9E71A4A10491148114B98471848124B9E
S113209098470D20114B9847ADE7022105A8094B3D
S11320A098470028C0D0134A07490848084B984766
S11320B01148094B98470D20084B984725009AE78B
S11320C0012598E7C11E0000E8E4000000DE0000DE
S11320D09DC80000B4E90000B9C90000D1C80000DF
S11320E05C01002017030000E8E900002103000060
S11320F018EA00002F03000048EA0000F0B5D646B5
S11321004F464646C0B586B00390049130280FD898
S1132110304B1F78FBB205930023302203998A4287
S11321205B41DBB29A460A252B4B9846D14633E0F5
S11321302A4B1F78EEE70598294B9847040001289D
S113214041D0284A28492948294EB04703992948AB
S1132150B0470D20284B98470120284EB047002354
S1132160009300220021CF201B4FB847CF201C4BE7
S11321709847F02292001C491C481D4FB847049B05
S1132180039A29001E48B8470D201B4B984701208D
S1132190B047013D002D16D04B4600930423049A0A
S11321A0039F39000598C04704000128C3D0154A8D
S11321B00D490E480E4EB04739001348B0470D2064
S11321C00D4B9847C8E7200006B01CBC90469946C2
S11321D0A246F0BDC0E40000411D0000C1E40000BF
S11321E0E11E0000AD03000008E5000000DE000071
S11321F09DC8000040EB0000D1C80000C1010000F0
S113220078EB0000A703000014EB0000F0B5DE46F5
S113221057464E464546E0B587B002908B46FF28A8
S11322200FD8424B1F78FBB203930023FF2202997D
S11322308A425B41DBB29A460A253D4B9846D14619
S113224032E03C4B1F78EEE703983B4B9847040081
S1132250012840D08622D20038493948394EB04747
S113226002993948B0470D20384B98470120384E21
S1132270B0470023009300220021CF202C4FB84701
S1132280CF202D4B9847334A2C492D482D4FB84722
S1132290029A29003048B8470D202C4B984701205A
S11322A0B047013D002D38D04B4600930423002253
S11322B0029F39000398C04704000128C4D0274A6C
S11322C01E491F481F4EB04739002548B0470D200E
S11322D01E4B9847CAE74A46042105A8214B984754
S11322E0040001280CD08722D20014491448154B4D
S11322F098471D481D4B98470D20144B9847B5E748
S113230005AA53781B02917809040B4311780B43F7
S1132310D278120613435A461360200007B03CBC1F
S113232090469946A246AB46F0BDC046C2E40000C2
S1132330411D0000C3E40000E11E000028E5000088
S113234000DE00009DC80000A8EA0000D1C800001B
S1132350C101000051040000FCEA0000290400004F
S11323607CEA0000B51F0000DCEA0000B9C90000E7
S113237010B582B00023009300220021CF20044C2A
S1132380A047CF20034B9847002002B010BDC046A1
S1132390411D0000E11E00000022024B1A700020C3
S11323A07047C0465C01002000B583B001A9024B10
S11323B09847019803B000BD0D22000010B5044BEE
S11323C098470023012801D1180010BD063BFBE704
S11323D00D22000010B5044B98470023012801D1B9
S11323E0180010BD063BFBE7FD20000010B582B0CD
S11323F000230093354A137069463548354B984796
S1132400002828D0314B1B78002B0DD17C33009948
S113241099432C3B194300912D482F4B9847041E98
S113242039D00122294B1A7001A980204001294B7F
S1132430984700283BD0264C2000284B984770230F
S113244001009943502001432000254B9847002464
S1132450200002B010BD01221C4B1A70214A2249EF
S11324602248234B98472348234B98470D20234B5E
S1132470984769461648174B9847041EC2D1204A0C
S113248019491A481A4B98471E481B4B98470D2068
S11324901A4B9847DCE71C4A13491448144B9847D5
S11324A01A48154B98470D20144B9847D0E7184A03
S11324B00D490E480E4B984716480F4B98470D2070
S11324C00E4B984706246442C2E7C0465C010020D4
S11324D024E800000D220000FD200000A9230000D4
S11324E0D5230000DC04000044E5000000DE000009
S11324F09DC8000050E60000B9C90000D1C8000022
S1132500DF040000A0E60000E9040000CCE60000BF
S1132510F304000000E70000F0B5DE4657464E46DF
S11325204546E0B587B00290039116000A250023C2
S11325309B4600243F4B9846A94638E001239B461E
S1132540013636E0C8203C4B9847012846D08F22FC
S1132550D2003A493A483B4FB84702993A48B847FB
S11325600D203A4B98470120394FB8470094230077
S113257022002100CF202F4DA847CF202E4B984773
S1132580344A2E492E482F4B9A4698473300029AD4
S113259049463148D0470D202C4B98470120B84775
S11325A001235B429C46E1444B46002B39D0012E6B
S11325B0C4D0009433002200029D2900C820C047E3
S11325C00128BFD0254A1D491D481E4FB847290080
S11325D02348B8470D201D4B9847C4E75B46002BA2
S11325E017D005AF2200310038001E4B98473B78C6
S11325F0039A1370012812D09122D2000F49104877
S1132600104B98471848194B98470D200F4B984783
S1132610A9E7220031000398124B9847EAE700200B
S113262001E00620404207B03CBC90469946A246D1
S1132630AB46F0BD411D0000E11E000038E500007E
S113264000DE00009DC8000054E70000D1C800006F
S1132650C101000099040000B4E700007204000006
S113266024E70000B51F00008CE70000B9C9000092
S1132670F0B5DE46474680B589B004908B46039298
S11326800A268027BF016B46DF8235002DE0013327
S113269003932DE0824A83498348844CA047310048
S11326A08348A0470D20834B98470120824CA047C4
S11326B00023009300220021CF20804EB047CF207A
S11326C07F4B98477F4A77497748784EB047039BBA
S11326D0049A29007C48B0470D20764B9847012086
S11326E0A047013D002D00D1D2E0039B012BCED0A9
S11326F000230093039B0022049E3100C7206F4CEB
S1132700A0470128C6D1C7206D4B984701280BD09C
S11327106E4A64496448654CA04704996C48A047D4
S11327200D20644B9847C0E7002207AB1A80039C36
S11327300026A8463500260021E00023B7425B416D
S113274002330B2004AA94466044102252421343DD
S1132750037001215F4B984700281DD15B4658192F
S113276021005C4B984700282ED15B4B1B78002B33
S113277037D065192DB2361BB6B2002E52D0341C98
S1132780BE4201D96B46DC8AA4B2002DD5D1032305
S1132790BE42D6D9023BD4E74546504A5049424846
S11327A0424B98474F48504B98470D20414B984710
S11327B04E4A3C493C483D4B98474D484A4B984704
S11327C00D203C4B984770E745464A4A44493648F1
S11327D0364B98474848444B98470D20354B98470B
S11327E0E6E7022107A83B4B98470028C1D045469D
S11327F0DD2292003A492C482C4B98473F483A4BEB
S113280098470D202B4B9847D2E74822FF323C498A
S11328102548264B98473B48334B98470D20254B7A
S1132820984727E045462C4B1C78631E9C41023494
S1132830A1B207A8344B98470028E6D108AB1B196E
S1132840053B1B78002B06D108AB9C466444063C30
S11328502378C32B1AD0A722520029491248134CBB
S1132860A04707A98B784A7809782848A0470D2003
S1132870104B9847264A0B490B480C4B98471C4869
S1132880194B98470D200B4B98470EE7002001E0A9
S11328900620404209B00CBC90469B46F0BDC046A1
S11328A0DB03000018E5000000DE00009DC8000006
S11328B0D0E70000D1C80000C1010000411D0000A4
S11328C0E11E000003040000B4E70000E10300007F
S11328D000E80000211D00005C01002061030000ED
S11328E0F8E4000038E80000B9C90000F103000072
S11328F02CE900006A03000070E80000A4E800006E
S1132900CCE40000DCE80000C11E0000FCE800008C
S1132910F9030000F0B5DE4657464E464546E0B59D
S113292085B001900E0002921D000EAB1C88002C95
S113293064D0030135495B58002B5FD00101334B50
S11329405B189B889BB2002B58D0304B5B189B7A4A
S1132950012B53D1F4802D4B9B468B445B460A22BA
S11329609046D8448A460095039315E02500012338
S11329701CE00133002200210020254CA0473DE04B
S11329802448254DA84721002448A8470D20244B5E
S1132990984733E0002C31D05B469B88E31A1BB286
S11329A0002BE3DD039B9D88ADB20023174A5146FB
S11329B089582A000098164FB8470028E0D1134BD5
S11329C05246D3583360B580F3885B1BF380154BB4
S11329D01B68002B05D0134B1B6832000299019829
S11329E09847641BA4B2009B9C46AC446346009386
S11329F043461B78002BCDD1002CBAD105B03CBC8A
S1132A0090469946A246AB46F0BDC0462C0A00202B
S1132A10B10C000030E100009DC8000094EB000000
S1132A20D1C80000DC0A0020F0B5D6464F46464621
S1132A30C0B59AB00D001400412839D0542837D0BD
S1132A40422853D043286AD0442800D1AFE04B2811
S1132A5000D1ACE04A2800D1CFE0462800D1E5E01F
S1132A60482800D10EE14D2800D1DCE0452800D1F2
S1132A702CE1472800D14DE107254C2800D126E15F
S1132A8052282DD10123142209A92000A24CA047C9
S1132A90002825D1A14B0A9A1A601B68002B1FD06D
S1132AA09E4B1C6809AB1A7C0B990998A04717E048
S1132AB00023042209A92000974CA04700280FD125
S1132AC009AB5A7805AB1A70954B1B68002B07D0DD
S1132AD0934B1B6809AA0020105605AA01219847A8
S1132AE01AB01CBC90469946A246F0BD00230422AD
S1132AF009A92000884CA0470028F1D109AB5A78D5
S1132B0005AB1A70864B1B68002BE9D0844B1B68FD
S1132B1009AA0020105605AA02219847E0E70023DD
S1132B200C2205A920007C4CA0470028D8D105AB75
S1132B3009229A56002A24DB180008215956794B99
S1132B4009015918C97AC9B214011B19D972012192
S1132B5099724189083989B2198173490B88013303
S1132B609BB20B800B889BB2002B03D10B880133E3
S1132B709BB20B806C4B198889B21001694B1B18EE
S1132B80D98009AB1A7002229A8005AA5188D9808B
S1132B90069A0B92624B1B68002BA1D0604B1B68FA
S1132BA005AA0820105609AA0421984798E700238B
S1132BB0042209A92000584CA047002800D08FE720
S1132BC009AB0020185605AA10705B785BB25370ED
S1132BD0002B07D109AB5B88083B9BB20101514A2A
S1132BE0521813814E4B1B68002B00D178E74C4BD5
S1132BF01B6805AA0521984772E70023442209A906
S1132C002000454CA047002800D069E7474B1B68CB
S1132C10002B00D164E7454B1B68199A03921100FD
S1132C2009A898475CE706239A4601E006239A46DA
S1132C300023102205A92000374FB847002800D0F0
S1132C404EE705AA0C201056D38907013549C91946
S1132C5000270F730826975FB8465789B94609AF0E
S1132C6056887E81069A0C92CA8892B293420CD0FE
S1132C70102D00D834E70123002200210020264C27
S1132C80A0472DE709239A46D2E74346002B01DDEE
S1132C90A8450FDB09AB42469A8000230993204BD9
S1132CA01B68002B00D11BE71D4B1B6809AA51466A
S1132CB0984715E723004B44424669468A818A892E
S1132CC00092524639001A4CA04709E70725002311
S1132CD0082209A92000104CA047002800D0FFE6D4
S1132CE009AB002018569A88598805AB1980010150
S1132CF00C4B5B18DB889BB29A4200D0F0E6084B81
S1132D001B68002B00D1EBE6054B1B6805AA2900C4
S1132D109847E5E60825DAE7B10C0000E00A002050
S1132D20DC0A00202C0A00205E010020E40A0020B6
S1132D301529000010B50A4B1B78002B00D010BDDC
S1132D40B02200210748084B984708490220084B45
S1132D5098470122024B1A700022064B1A80EEE7B4
S1132D605D0100202C0A002091050000292A0000A2
S1132D709D0D00005E010020024B1860024B19609B
S1132D807047C046DC0A0020E40A0020F0B5D646AD
S1132D904F4680B589B00592022800D090E0012901
S1132DA009D0022965D001256D42280009B00CBC68
S1132DB091469A46F0BD444F3D78EDB23C78E4B27A
S1132DC0387801300631414B9847C9B23970220135
S1132DD03F4B9B189B7A0627002B18D03A4E3B4B4F
S1132DE09A463B4B99463578EDB23478E4B2307864
S1132DF001300721D047C9B2317023014B449B7A7B
S1132E00002B07D0013FFFB2002FECD1CBE7304BB2
S1132E10D41802E024012E4BE4186DB2002DC4DB5B
S1132E201022002120002B4B98470123A3722A4A29
S1132E30138801339BB2138013889BB2002B03D1F8
S1132E40138801339BB21380234B1B889BB2E3800E
S1132E50059BDB07A9D507AA15702123E37200237C
S1132E600293019300930433502102201B4CA0478A
S1132E709BE71B4B1D78EDB21C782401194AA4185A
S1132E801978013103220A401A70A37A002B14D056
S1132E9003221349134F03200D78EDB20C7824015B
S1132EA0E4190B78013303400B70A37A002B04D090
S1132EB0013AD2B2002AEFD175E707356DB2ADE71A
S1132EC001256D4271E7C04660010020B5C70000CE
S1132ED02C0A0020910500005E010020A5060000D8
S1132EE0610100209C0A002070B588B0040000290C
S1132EF02BD000282CDB00011A4B1B189B7A012BCA
S1132F0029D1002A2AD0174B1B18DB7A4126DB076C
S1132F1000D5133605AD2C7208222800124B9847B1
S1132F202401104B1C19E3886B8100230293019345
S1132F3000930C332A00310002200C4CA0470028D7
S1132F4001D00920404208B070BD06204042FAE793
S1132F5006204042F7E706204042F4E706204042BC
S1132F60F1E7C0462C0A00207D050000A5060000FC
S1132F7010B586B000281CDB0201114B9B189B7A0C
S1132F80012B19D105AA1070517000010C4B1818AF
S1132F90C388538000230293019300930433422196
S1132FA00220084CA047002801D00920404206B066
S1132FB010BD06204042FAE706204042F7E7C0462B
S1132FC02C0A0020A5060000002807DB0001064BA0
S1132FD01818837A012B04D1002070470620404240
S1132FE0FBE706204042F8E72C0A002070B588B0C1
S1132FF0041E30DB002931D000011D4B1B189B7AC5
S1133000012B2ED1002A2FD0194B1B18DB7A442612
S1133010DB0705D5164B1B18DA7A05AB5A7207364F
S113302005AD2C7208222800124B98472401104B3E
S11330301C19E3886B8100230293019300930C33E2
S11330402A00310002200C4CA047002801D009209E
S1133050404208B070BD06204042FAE706204042D4
S1133060F7E706204042F4E706204042F1E7C04675
S11330702C0A00207D050000A506000030B589B0AB
S1133080002836DB002937D0AF23DB009A4236D83C
S113309004011E4B1B199B7A012B33D104AB18700E
S11330A05A802500194C6419E4889C81502506280F
S11330B000DD0C3D0401154B1B19DC7A4523E407A4
S11330C005D50001114B18180589ADB24C23802099
S11330D01843029501920091102304AA01000220D2
S11330E00B4CA0470023002800D00E3B180009B069
S11330F030BD06235B42F9E706235B42F6E706236D
S11331005B42F3E706235B42F0E7C0462C0A00204B
S1133110A506000030B587B0002834DB002935D07F
S1133120002A36D005011E4C6419A47A012C33D12F
S11331301B4C29516419A280217B002200291DD136
S113314001212173E27A4531D20700D50731002BE2
S113315017D1013B049304AA10710001104B1818F5
S1133160C388D38000230293019300930833022081
S11331700C4CA0470022002800D00E3A100007B0E3
S113318030BD0493E7E706225242F7E70622524293
S1133190F4E706225242F1E706225242EEE7C04625
S11331A02C0A0020A506000030B587B0041E2ADBD7
S11331B00201184B9B189B7A012B27D105A9087093
S11331C0144B9B18DA884A8000229A72DA80DB7AE0
S11331D04921DB0700D505310023029301930093B5
S11331E0043305AA02200C4DA847051E01D0092569
S11331F06D4224010748201810220021074B9847EC
S1133200280007B030BD06256D42F9E706256D425A
S1133210F6E7C0462C0A0020A50600009105000030
S113322070B582B004002A4B98470005000D294B65
S11332300025984202D8280002B070BD01A9264892
S1133240264B9847051EF6D1254B019A1340254974
S1133250194301912048244B9847002C20D0002189
S11332602248214CA047AB212148A04701212148F5
S1133270A04700212048A04781212048A047204E94
S1133280204C3000A0470128FBD1154B019A134074
S113329080214902194301910F48134B9847CAE70B
S11332A000211248104CA047B9211148A047012120
S11332B01048A04700211048A04781210F48A0478B
S11332C00F4E104C3000A0470128FBD1DDE7C0466B
S11332D08D1500009F03000010140000DD1900008C
S11332E0FF8F88F800101101E9190000080201009D
S11332F00C020100140201001C020100040201007E
S113330018020100D11900000C4B1B68002B06D1D8
S1133310EFF31083002B07D00022094B1A70074AE1
S1133320136801331360704772B6BFF35F8F0022D6
S1133330044B1A700132024B1A70F0E7640100204A
S1133340680100200A000020084B1A68013A1A603C
S11333501B68002B09D1064B1B78002B05D00122DA
S1133360044B1A70BFF35F8F62B67047640100208C
S1133370680100200A000020F0B5C64600B582B0FE
S113338001AC012666700027A77026702100132067
S1133390274DA847274B984680231B034246936139
S11333A02770667021001C20A8476670A7702670DD
S11333B021005220A84721003E20A84721003F2099
S11333C0A84721002F20A84721001420A8478022C5
S11333D0D202194B9A61194B8022D2059A6180223C
S11333E012069A61802212029A6180235B0342468C
S11333F09361277021005320A847114A116A802342
S11334009B030B43136204220E4B1A806B469E707F
S1133410DF7005236A4613705670694609200A4C0A
S1133420A04769460C20A04702B004BC9046F0BDFA
S11334301D36000000440041004500418044004125
S11334400004004000540042394E00001723002AB3
S113345001D0180070478B00064A9B58002B03D0FC
S1133460834205D01D23F4E7890088500023F0E748
S11334700023EEE7EC0A00201723002901D01800EE
S1133480704700221F2800D8024A01238340D360DA
S11334900023F4E7001800401723002901D0180086
S11334A0704700221F2800D8024A012383409360FA
S11334B00023F4E70018004070B50022104B1A7086
S11334C0002310491F25104E0D4C0AE00D4908E059
S11334D023780133DBB223700F2B10D800211F2B6C
S11334E0F4D9280018400122824008691042EFD024
S11334F00A619B009B59002BEAD09847E8E770BD0E
S1133500E80A002000180040EC0A0020044A13785E
S113351002210B43137053785BB2002BFBDB704723
S11335200018004000B583B0124A936940210B4350
S1133530936101A900230B7005200F4B98470520C8
S11335400E4B98470E4A137801210B43137053789E
S11335505BB2002BFBDB0B4B19004031002204C390
S11335609942FCD11022084B1A60084B984703B0CB
S113357000BDC04600040040414D0000B54C0000B1
S113358000180040EC0A002000E100E00D350000C6
S11335900023036043600122027242728372023389
S11335A0C3727047F0B583B005000C0001A9002375
S11335B04B70CB7023790B70237A8B702078154B6A
S11335C0984700201F2D00D8134807222A40920054
S11335D0E77AA37A002B01D008231F43EB089B0052
S11335E0C31899690F269640B14397403A000A439D
S11335F09A61637A002B06D143690122AA4093435E
S1133600436103B0F0BD42690123AB4013434361FE
S1133610F7E7C046394E00000018004000B583B0FB
S113362001AB80221A700A785A704A789A708A78A4
S1133630DA701900014B984703B000BD394E000001
S11336400368987AC009704770B504000668054D90
S11336502000A8470028FBD133880222134333807B
S113366070BDC0464136000070B504000668064DC2
S11336702000A8470028FBD1C123B37133723388DB
S113368002229343338070BD4136000070B50400BC
S11336900668064B9847064D2000A8470028FBD132
S11336A0338801221343338070BDC046693600005D
S11336B04136000070B5040006684379002B0ED132
S11336C00F4B73800F4D2000A8470028FBD12379AE
S11336D0002B12D00020012B00D1306970BD7388FB
S11336E05B04F4D47388C022120213437380054D23
S11336F02000A8470028FBD1E9E7308A80B2EDE733
S11337000080FFFF41360000F0B583B00400019152
S113371015000668114F2000B8470028FBD1237913
S1133720002B0AD0012B16D11730012D14D80635E1
S1133730AD00019BAB5100200EE01720022D0BD8E9
S1133740074B019A9A4207D86B469B880C356D004B
S1133750AB53002000E01A2003B0F0BD4136000056
S1133760FFFF0000F0B583B00400160001602E4A8C
S1133770936920210B43936101A902230B70042058
S11337802A4B984704202A4B98472000294B9847F6
S1133790B378237133796371274B1C6027683388AE
S11337A03B80B378002B21D01720012B1CD13B8800
S11337B09BB23B80F378002B03D03B8880221343D9
S11337C03B801E4D2000A8470028FBD10022B16891
S11337D020001B4B984733790020002B04D07B88B2
S11337E08022D20113437B8003B0F0BD3B880422C6
S11337F013433B80F3781720002BF5D10F4D2000A5
S1133800A8470028FBD10022B16820000C4B984740
S11338100A4D2000A8470028FBD10122F1682000AE
S1133820074B9847D7E7C04600040040414D0000CD
S1133830B54C00008D3600002C0B002041360000F2
S113384009370000F0B5DE4657464E464546E0B51A
S113385087B08046049116001F0000220023002137
S11338608B463F2401202100009601975C46039477
S11338704446059413E02024641A0500E540A84654
S113388014E0009C019D121BAB415C464D462C4349
S1133890A346039C45462C430394013925D3202495
S11338A064420C19E7D40500A540A84604008C40E6
S11338B0A14692185B4114001D00059E4F463E40F0
S11338C0B446049E47463E40B246664657463E438B
S11338D003D00600264332002B00009C019D9D422C
S11338E0DBD8CED19442D8D8CBE7039B58461900F5
S11338F007B03CBC90469946A246AB46F0BD10B515
S1133900490840230024814202D2180010BD1C0043
S1133910091A631C9BB28842F9D94023FF2CF4D8BE
S113392014800023F1E70000F0B583B00F00160007
S113393008AA117804004C434022BC4202D910006A
S113394003B0F0BD002B14D1020008000021194C73
S1133950A04701003A0000230020174CA047002292
S11339600123121A8B41120C1B041A4332800022C9
S1133970E5E70022012BF9D10A00002300210D4CB8
S1133980A04702000B0000920193380000210A4C6A
S1133990A047050080239B0140229842CFD8790F8D
S11339A0F800009A019BA047EA00821AD2B252039F
S11339B02A43DBE7C1C700004538000010B582B0D8
S11339C004000E4B1B78002B07D0002905D10B4BAC
S11339D05B78834210D01D200CE001A90C701320E9
S11339E0074B98471320074B9847044B5C70012200
S11339F01A70002002B010BD0020FBE76C0100200B
S1133A00414D0000B54C0000404B984231D00AD9DA
S1133A103F4B98424DD03F4B98425AD03E4B984230
S1133A2037D0002070473D4B98420CD03C4B984215
S1133A30F7D1012917D000295DD0022915D0032917
S1133A4015D00020EEE7012907D0002951D0022922
S1133A5005D0032905D00020E4E73248E2E73248E4
S1133A60E0E73248DEE73248DCE73248DAE732485A
S1133A70D8E7012907D000293FD0022905D003291E
S1133A8005D00020CEE72D48CCE72D48CAE72D48C5
S1133A90C8E7012907D0002931D0022905D003291C
S1133AA005D00020BEE72848BCE72848BAE72848E4
S1133AB0B8E7012907D0002923D0022905D003291A
S1133AC005D00020AEE72348ACE72348AAE7234803
S1133AD0A8E7012907D0002915D0022905D0032918
S1133AE005D000209EE71E489CE71E489AE71E4822
S1133AF098E71E4896E7032094E71D4892E71D487F
S1133B0090E71D488EE71D488CE7C0460010004230
S1133B1000180042001C0042001400420008004249
S1133B20000C004203000500030006000300070028
S1133B300300010003001E0003001F0002000D002B
S1133B4002000E0002000F00030011000300120027
S1133B500300130005003F0005003E00050052006D
S1133B6003001700030018000300190003000400F9
S1133B7002000C00030010000500530003001600AF
S1133B8030B587B00B4B6A4632CB32C232CB32C22D
S1133B90009B83420BD001239A006946525882420B
S1133BA006D00133062BF7D1002007B030BD002327
S1133BB0D8B2FAE7A8EB000070470000F0B50A4B52
S1133BC01B78002B0CD1094F094E0A4D0024DE51FD
S1133BD05A1914600433182BF9D10122024B1A70BC
S1133BE08000024BC150F0BD6E0100207001002026
S1133BF0B93B0000300B002000B583B009236A46AE
S1133C00137001335370013393700133D370013354
S1133C10137101335371034B98476B46185603B025
S1133C2000BDC046813B000010B5024B1B6800205C
S1133C30984710BD7001002010B5024B5B6801204D
S1133C40984710BD7001002010B5024B9B680220FC
S1133C50984710BD7001002010B5024BDB680320AB
S1133C60984710BD7001002010B5024B1B69042059
S1133C70984710BD7001002010B5024B5B69052008
S1133C80984710BD70010020F0B5D6464F4680B568
S1133C908BB081460F001400030019600B689B076A
S1133CA009D40B680520DB0700D498E00BB00CBCEA
S1133CB091469A46F0BD936A0593D36A0693136BB3
S1133CC00793536B0893002605AB01930AE0380071
S1133CD0934B98470CE00F23184081422DD10136B5
S1133CE0042E2FD0F1B2B300019A98580028EED0D8
S1133CF0431CF4D00104090C000CC3B29C460023FD
S1133D00020605D463465B09DB01864A92465344A6
S1133D101F22604602409818403000788246802076
S1133D205546ED07D9D552089B1830331878C0B2E0
S1133D306346DB07CFD50009CFE700234A4613606B
S1133D401C20B3E71320784B984722780025012ADA
S1133D5027D06368A2681343E26813432B43227C91
S1133D60617C002901D080210B43A17C002902D071
S1133D70802189020A43E17C002902D08021890044
S1133D800A43217D002902D0802189010A43396830
S1133D90022003438B4218D000234A4613601C20A0
S1133DA084E704AA0100A069604B98470300172028
S1133DB0002B00D07AE73B7BDBB204AA12780530F3
S1133DC09A4200D072E70C35C3E77B689342E3D193
S1133DD023784A465371237C9371002066E70800D8
S1133DE0534B9847534A116A851C0123AB400B433C
S1133DF0136209A92426A35D0B701430C5B22800F0
S1133E004D4B984728004D4B9847A05D00214C4BE3
S1133E1098472378012B19D04B461E6804AB8022A7
S1133E201A7000225A7001219970DA702378002BDD
S1133E3001D104AB9A70A36A0593E36A0693236BDA
S1133E400793636B0893002705AD11E03B680C22D0
S1133E5013433B60E0E73000314B98470DE004A981
S1133E600870000CC0B2374B98470137042F07D0B5
S1133E70F9B2BB0058590028EDD0431CEFD1F4E748
S1133E8023784A465371237C9371A37CD371237D99
S1133E901372002202ABDA802378012B28D06368E6
S1133EA0A2681343E2681343217C627C002A03D195
S1133EB0254A9278920701D580221343A27C002AD6
S1133EC002D0802292021143E27C002A02D0802296
S1133ED092001143227D002A02D0802292011143D4
S1133EE032681343336073680B4373600020DDE66C
S1133EF04B4618680E4B98471430C0B20A4B98478B
S1133F00010002AB9A1DA069084B984703001720D3
S1133F10002B00D0CAE602AB06331B783373BEE72E
S1133F20093A0000004400415D4D0000FF380000E4
S1133F30813B000000040040414D0000B54C0000EE
S1133F40BD390000394E00000020004110B544790D
S1133F501523012C01D0180010BD047A0023002C75
S1133F60F9D1002A58D04B78002B44D003681B7E2B
S1133F70DB0710D40A78D1090023002904D153099E
S1133F80DB012E498C4663441F21114001228A40E3
S1133F909A610523DFE70A78D4090023002C04D1B1
S1133FA05309DB01254CA44663441F241440012219
S1133FB0A2405A6103681A7ED20701D58A789A62B0
S1133FC0C2790023002AC6D102680421137E0B4261
S1133FD0FCD0117E00234907BDD5538B5B0701D567
S1133FE0042353838379012B02D0936A0023B2E71D
S1133FF0936A0023AFE70A78D1090023002904D18A
S11340005309DB010D498C4663441F2111400122F1
S11340108A405A6100239EE70A78D10900230029C7
S113402004D15309DB0105498C4663441F21114027
S113403001228A409A6100238DE7C0460044004172
S1134040F0B5DE4657464E464546E0B591B005000C
S11340500C00160029600800BC4B98470200236836
S11340600520DB0706D511B03CBC90469946A24614
S1134070AB46F0BD236817309B07F4D4B449086AF3
S1134080971C0123BB4003430B620FA92D27F35D4B
S11340900B701432D3B202931800AE4B98470298B7
S11340A0AD4B9847F05D0021AC4B9847F37A6B71A8
S11340B02423F35CAB712523F35CEB71F37E2B7249
S11340C0337F6B722B6898461800A04B98471430C6
S11340D000220E2306A98C4663441A80328A029277
S11340E08023DB019A4200D19EE00FD9C023DB017B
S11340F0029A9A4200D192E080231B029A4200D095
S11341001FE1032306930023079308E080239B0108
S11341109A4200D015E1102306930F3B07933368AE
S11341200593F368039373690493337E9B462623B4
S1134130F35C9A4673689946002B00D1A0E0802373
S11341405B05994500D184E0737E002B02D0B37ED9
S1134150424693732A68029FD369002BFCD10E3325
S113416006AA944663441B8842469381059B039A9E
S11341701343049A13434A4613431F435B461B02EB
S11341801F4353465B071F432723F35C002B01D1D6
S113419004331F43737E9B02327F52021343727FA8
S11341A0120213432422B25C520413432522B25C4C
S11341B012041343B17AF27A114319433389FF2B62
S11341C000D181E080225204174319432C23F35C6D
S11341D0002B03D1624B9B789B0701D580231F439F
S11341E02A68D369002BFCD1434659602A68D369F5
S11341F0002BFCD143461F600EAB80221A700022B4
S11342005A70DA709A70336B0A93736B0B93B36BB7
S11342100C93F36B02930D9300270AAE63E008231B
S11342200693073B07937AE733680593F368039390
S113423073690493337E9B462623F35C9A46736822
S11342409946002B18D080235B05994501D00020A6
S113425025E02723F35C002B00D075E7336A1F00A9
S1134260C0B2404B984701000E2206AB9C46624404
S113427038003D4B984712E0082306930023079328
S11342802723F35C002B0ED0069B0093079B0E2282
S113429006A98C466244B16A306A344FB847002894
S11342A000D0E0E650E7336A1F00C0B22D4B9847B8
S11342B00100069B0093079B0E2206A884466244D5
S11342C038002A4FB847EAE7F37E002B00D17DE798
S11342D08023DB041F4379E72000254B984707E040
S11342E00137042F0DD0F9B2BB0098590028F3D040
S11342F0431CF5D00EA90870000CC0B21D4B9847A2
S1134300EEE70023EB602B616B61AB61EB612B6229
S1134310AB626B620022EB85AB853033EA54013328
S1134320EA540133EA540133EA542868074B9847A6
S113433004001149114B9847A400114BE55000208B
S113434091E61023069300230793E8E6813B0000DF
S113435000040040414D0000B54C0000BD39000090
S1134360002000415D4D0000FF38000029390000A5
S1134370093A0000394E000079450000BD3B0000B9
S1134380300B0020C2791C23002A01D11800704789
S1134390C28D92B2173B002AF8D10368DA69002A69
S11343A0FCD1198502211A7E0A42FCD00023EDE7D4
S11343B082791C23002A01D118007047828D92B2A1
S11343C0173B002AF8D10268107E4007F4D5D36960
S11343D0002BFCD1538BDBB298061DD0980703D574
S11343E0022353831833E7E7580703D50423538381
S11343F01A33E1E7D80703D5012353831233DBE7EC
S1134400D80603D5102353833233D5E79B0603D54F
S1134410202353832133CFE7138D0B800023CBE775
S1134420F0B5CE46474680B583B00500019117200C
S1134430002A04D103B00CBC90469946F0BDEB7938
S11344400530002BF6D02C68E369002BFCD1013A2F
S113445093B29946002601271F4B984611E0731C1E
S11344609BB2019A915D6A79012A17D089B21E0024
S113447028001A4B98474B46013B9BB2994643454B
S113448013D0237E3B42EAD1134B227E3A42E6D13B
S1134490012B19D0013B002BF7D1E0E70236B6B26D
S11344A0019AD35C1B021943E2E7237E9B070DD4D8
S11344B0094B0221227E0A420AD1012B0AD0013B78
S11344C0002BF7D10020B5E71220B3E70020B1E7B5
S11344D00020AFE71220ADE7FFFF00008543000096
S11344E0F0B5D64600B584B0040001911720002A27
S11344F003D104B004BC9246F0BDA3790530002B6F
S1134500F7D02668013A93B29A460025042719E0A9
S1134510002302AAD380911D2000154B9847002840
S1134520E7D1691C89B202ABDB88019A53556279E1
S1134530012A14D00D005346013B9BB29A460D4B01
S11345409A45D6D0337E3B42E2D10A4B327E3A4280
S1134550DED1012B09D0013B002BF7D1D8E702357E
S1134560ADB21B0A019A5354E5E71220C1E7C046D5
S1134570B1430000FFFF0000F8B58000624BC5584E
S11345802C68E369002BFCD1237EA67D1E403023DA
S1134590EB5C3122AF5C1F40F30722D5EB8D9BB25D
S11345A0002B1CD0AA6A1378DBB2511CA96269796A
S11345B001290ED09BB2DB05DB0D2385EB8D013B7E
S11345C09BB2EB85002B0CD1013323750133A3750A
S11345D007E0517809020B430232AA62EBE7012398
S11345E02375B30706D50223237500223133EA5419
S11345F0FB071AD4730765D5AB8D9BB2002B5FD034
S1134600638BDBB21A0714D43F221340002B34D03F
S11346109A0711D51A223223EA54303B63837B076D
S113462050D528006B6998474CE02800EB68984700
S1134630E0E737221340E9E75A0705D51E22322363
S1134640EA542E3B6383EAE7DA0705D513223223C3
S1134650EA54313B6383E2E7DA0605D5422232238A
S1134660EA54223B6383DAE720221A42D7D021326C
S11346703223EA54123B6383D1E7238DDB05DB0D40
S1134680DAB2696A0A706A6A511C69626979012935
S113469010D0AB8D013B9BB2AB85002B12D1043300
S11346A0237500222E33EA54BB070BD528002B694F
S11346B0984707E01B0A53706B6A01336B62E8E7A3
S11346C004232375F30604D5102323752376FB06F0
S11346D00ED4B30604D52023237523763B070BD4CD
S11346E0330704D5082323752376BB0608D4F8BD05
S11346F02800EB699847ECE72800AB699847EFE797
S11347002B6A28009847F2E7300B002010B50828E0
S113471003D880001C4B1B589F46002032E01B4BE3
S113472018692FE01A4B1B6A9B059B0F1948D84048
S113473028E0164B586925E0144B1B6800209B07A2
S113474020D513491022CB681A42FCD00F4B1A68AB
S113475024231340042B01D00F4813E000200F4BF7
S113476098470A4B9B681B041B0C58430AE05023D0
S1134770074AD35C00205B0704D5044BD86801E0EA
S11347808020000210BDC046C0EB0000880100205C
S11347900008004000127A00006CDC025D4D00004D
S11347A070B50C490B6A0478857840780122104072
S11347B080014026B34303432A40D201802083432F
S11347C013430322224012020348034013430B62A3
S11347D070BDC04600080040FFFCFFFFF0B5CE46A8
S11347E0474680B5194B99469B6941788C460578B4
S11347F00679C77844798078012108408000042232
S11348009343034360460840C00004329343034388
S11348103800084080014027BB4303433000084070
S1134820C0018026B3430343072005402D020848F6
S113483003402B4321400903064803400B434A46E7
S113484093610CBC90469946F0BDC04600080040F8
S1134850FFF8FFFFFFEFFFFF10B5037A9B061B0C69
S113486042899205920D134318494B608379C279AA
S1134870134342888488224313434278D20113436A
S11348800B600378042B11D0202B0ED1037B9B06E5
S1134890028A1343C28912040D490A4013430B4A86
S11348A0936011680B4B0B43136010BD037B9B0695
S11348B0028A1343C289120405490A401343034A76
S11348C09360136804210B431360EEE78801002012
S11348D00000FF0324040000082803D88000254BAF
S11348E01B589F46172044E0234A136A02210B43B6
S11348F0136200203DE0204A936902210B43936137
S1134900002036E01C4A138A02210B431382002044
S11349102FE0194A938A02210B439382002028E056
S113492016490B68022213430B60134B9A84190037
S11349300E32CB681A42FCD0104A91680E4BD962F1
S113494052689A6200229A8419001032CB681A4283
S1134950FCD00A4B1B689BB2074A9384002008E0F2
S1134960054944228B5C022003438B54002000E061
S113497000207047E4EB000000080040880100209C
S1134980F0B5CE46474680B58DB0C222D200504B1A
S11349909A60504A53681E218B431A390B43536063
S11349A0032201AB1A7000244B4DE0B201A9A847C1
S11349B00134252CF9D1494D2B68DB0444498A691B
S11349C05B0E1B044648024013438B610AA8012373
S11349D08370072202700024447144700471C37010
S11349E0404B98470420404B984705AB00225C801D
S11349F09C809A71DA713F2159813B3919705A7040
S1134A002B689B0E3F2B60D005A8037204230382FE
S1134A10033303733833C381344B984704A8002508
S1134A20457005708570324B984706202E4FB84765
S1134A30304B984701AC012602966570062323701B
S1134A4025726572210001202B4B9946984701205D
S1134A502A4B984698476570657204232370202377
S1134A606360267221000220C8470220C0472670D6
S1134A7021000020184B98470020214B984707201D
S1134A80B8471349D022CB681340D02BFBD1104A2E
S1134A90938C80210B4393841A4A0023137253721C
S1134AA09372D37201A901224A604B700B724B724C
S1134AB007330B700020104B984700200F4B98478A
S1134AC00DB00CBC90469946F0BD203B9CE7C04617
S1134AD00008004000400041414D00002460800077
S1134AE0FFFF80FFDD470000D9480000594800005F
S1134AF0A1470000094B00002D4B0000E54B0000CE
S1134B00B54C000000040040064A936908210B4399
S1134B1093610122044B1A7019000B781342FCD1E3
S1134B207047C04600040040000C004070B5060009
S1134B3004000D782D0205434B78002B02D080230E
S1134B40DB021D434B7A002B02D080231B031D4341
S1134B504868012810D9431E184234D1022830D99C
S1134B600223002201325B009842FBD81202324336
S1134B70140080235B031D430B7A002B02D0802397
S1134B809B031D43134A53785BB2002BFBDB124B90
S1134B909847124B1E700F4A53785BB2002BFBDB15
S1134BA00C4B9C601A0053785BB2002BFBDB094A68
S1134BB05368802149020B401D435560084B9847B8
S1134BC070BD0022D2E70402344380239B021D43BC
S1134BD0D2E7C046000C004009330000080C004036
S1134BE04933000010B504000B4A53785BB2002B24
S1134BF0FBDB0A4B98470A4B1C70074A53785BB29D
S1134C00002BFBDB044A516880235B020B43536097
S1134C10044B984710BDC046000C00400933000007
S1134C20040C00404933000070B504001A4A53785C
S1134C305BB2002BFBDB194B9847194B1C70164ACF
S1134C4053785BB2002BFBDB134E7068C004C00EBC
S1134C50144B98470500124B1C707668F602F60F49
S1134C60114B1C700C4A53785BB2002BFBDB0A4BD4
S1134C709C682402240C0D4B9847002E07D1012C6C
S1134C8007D9210028000A4B9847050001E00134A8
S1134C90E540280070BDC046000C00400933000008
S1134CA0040C00400D470000080C0040493300008C
S1134CB0D5C4000010B50400064B9847064B1C7081
S1134CC0064A53888021C9010B435380044B9847FB
S1134CD010BDC04609330000020C0040000C004027
S1134CE04933000010B504000F4B98470F4B1C705C
S1134CF00F4A53881B05180F53880E490B405380E5
S1134D0053880D490B40538011008022D2014B88F7
S1134D101342FCD106494A88030206480240134361
S1134D204B80064B984710BD09330000020C00402D
S1134D30000C0040FFF0FFFFFFBFFFFF49330000FE
S1134D4010B50C7824020443024B9847A4B2024BDA
S1134D505C8010BDE54C0000000C004010B5040060
S1134D60064B9847064B1C70064B5C882405240FA1
S1134D70054B98472000054B984710BD09330000A8
S1134D80020C0040000C004049330000294C000094
S1134D9030B5D378002B35D11378802B29D01B065E
S1134DA080246402234354780225AC4306D19478CA
S1134DB0002C20D18024A402234341605478013C78
S1134DC0012C1CD90D042D0CA024E4052C431C43F8
S1134DD084620D0CD02424062C431C438462D478B2
S1134DE0002C22D15B031CD59378012B1ED041618A
S1134DF017E00023D7E7C024E4022343DDE70D4C8A
S1134E002340DFE741600C04240CA023DB0523438B
S1134E1083620C0CD0231B0623438362D378002BBC
S1134E2003D15378013B012B02D930BD8161F8E7EE
S1134E308160FAE7FFFFFBFF10B50A00C1090023F8
S1134E40002904D14309DB0105498C4663441F242E
S1134E502040012181401800024B984710BDC046F4
S1134E6000440041914D00007047000010B5054B0F
S1134E709847054B9847054B9847054B9847054B72
S1134E80984710BD8149000079330000694E000045
S1134E9025350000694E0000931C9B001950022A1E
S1134EA009D0032A0CD0012393401A00037E134334
S1134EB0037600207047037E102213430376F8E73D
S1134EC0037E202213430376F3E7000070B58000CD
S1134ED0164BC45823689D7B227E637E13401D407D
S1134EE0EB0706D4AB070BD4EB0610D4AB0615D4F2
S1134EF070BD2000A3689847012322689373F1E7EB
S1134F002000E3689847022322689373ECE72000AB
S1134F1023699847102322689373E7E720006369A5
S1134F209847236820229A73E2E7C046480B002082
S1134F3010B50020014B984710BDC046CD4E00006F
S1134F4010B50120014B984710BDC046CD4E00005E
S1134F5010B50220014B984710BDC046CD4E00004D
S1134F6030B585B001AA0B4B32CB32C2019B9842BB
S1134F700DD0029B984208D00023039A824202D0AB
S1134F80180005B030BD023302E0012300E0002325
S1134F90DBB2F5E708EC0000F0B587B004000D00C3
S1134FA016000800854B9847070005AB1B221A70B2
S1134FB001325A709A7003AB802212011A80802247
S1134FC052015A80802292019A800023A360E360F8
S1134FD023616361237663768200794BD450256024
S1134FE0B378082B06D023712B880520DB0705D561
S1134FF007B0F0BD1720FA07FAD5F4E7EB7B1730BA
S1135000DB06F5D42B889B07F2D4337C002B79D1B3
S1135010337F002B00D081E06A49086A7A0003AB31
S1135020D35A03430B62B378082B00D186E001A95D
S113503033780B7005ABDF5D3800634B984738005D
S1135040624B98473189B3880B43B178B2791143E5
S113505019437378002B02D080231B011943226863
S1135060D37B5BB2002BFBDB2980717B4B1E994108
S11350708900B37B002B01D0012319432268D37B21
S11350805BB2002BFBDBFF232B71002905D02268C8
S1135090D37B5BB2002BFBDB6971B17AF37A002B13
S11350A001D010231943337B002B01D02023194353
S11350B02268D37B5BB2002BFBDBA9712268D37B14
S11350C05BB2002BFBDB2379042B3FD0082B5ED093
S11350D01720002B00D08BE7D37B5BB2002BFBDBCC
S11350E0338D2B822268D37B5BB2002BFBDB738D69
S11350F02B832268D37B5BB2002BFBDBB38D6B83EA
S1135100002075E702A901238B700022CA70327E49
S11351100A704B70307D2E4B984779E702A9012322
S11351208B700022CA702432B21812780A704B7045
S11351301F33F3181878264B98476DE7086A7A1CD2
S1135140520003ABD35A03430B6270E7D37B5BB2C9
S1135150002BFBDB2823F35C2B742268D37B5BB22C
S1135160002BFBDB2923F35C2B752268D37B5BB21A
S1135170002BFBDB2A23F35C2B762268D37B5BB208
S1135180002BFBDB2B23F35C6B76002030E7D37B17
S11351905BB2002BFBDBB36A2B612268D37B5BB26F
S11351A0002BFBDBF36AAB612268D37B5BB2002B81
S11351B0FBDB336BEB6100201AE7C046614F000054
S11351C0480B002000040040414D0000B54C000095
S11351D0394E00000268D37B5BB2002BFBDB037902
S11351E0042B05D0082B09D00020002B03D07047D6
S11351F0107CC0B2FBE7108A80B2F8E71069F6E7CA
S113520010B50468E37B5BB2002BFBDB0379042B52
S113521005D0082B14D01720002B08D010BD172060
S11352200129FBD8D2B261180A760020F6E71720CC
S11352300129F3D892B20C3149000A530020EDE75A
S113524017200129EAD8063189000A510020E5E730
S1135250FEE70000F8B52A4A2A4B9A4211D01A00F8
S1135260294B9A420DD2294A03339B1A9B080133D6
S11352709B000022234822498C58845004329A42CD
S1135280FAD1234A234B9A420AD2D34321495B18C9
S113529003218B4304339B18002102C29342FCD1A7
S11352A01D4AFF211D4B8B439360FD3990235B0006
S11352B01B4AD1501B4AD3780325AB430224234312
S11352C0D370D3780C27BB4308263343D370164BD3
S11352D0987B30229043202210439873997BB943E2
S11352E0314399739A7BAA4322439A730F4A5368B2
S11352F080210B4353600E4B98470E4B9847FEE7B3
S113530070ED0000000000202C01002004000020AB
S113531030010020D837002000ED00E0000000003C
S1135320007000410050004100480041004000412D
S113533015C80000297D0000F0B5C64600B50C0074
S1135340904600280FD1002A11DD8F18094E0A4D0E
S1135350306821002B6898470134BC42F8D140469C
S113536004BC9046F0BD01235B429846F7E78046B3
S1135370F5E7C0465C0B0020540B0020F0B5C64690
S113538000B50E0015000138022810D8002A11D0EB
S113539000240C4B98460C4F43461868315D3B681B
S11353A09847002808DB0134A542F5D106E0012422
S11353B0644203E0140001E001246442200004BCC0
S11353C09046F0BD5C0B0020580B00200300064AF9
S11353D01268002A04D0044A1068C3181360704786
S11353E00249014A1160F6E7A0010020D8570020C5
S11353F001204042704780239B014B60002070478E
S1135400012070470020704770B582B005000E007F
S113541000226B46DA80064C6B46991D2800A04793
S11354200028F9D16B4606331B88337002B070BD77
S1135430B143000070B505008CB2034E2100280072
S1135440B0470028FAD170BD8543000010B582B082
S11354506B46DC1D012221000F48104B984772B6A1
S1135460BFF35F8F00220E4B1A700E4B1B7821780E
S11354700D4AD1549B2B0AD001330A4A13700122DE
S1135480074B1A70BFF35F8F62B602B010BD0022E3
S1135490044B1A70F3E7C046A4010020E144000065
S11354A00A00002075020020D8010020F0B591B058
S11354B08023DB05009300230193FF2269460A81C0
S11354C000228B72CB72012424216846445401319A
S11354D0445401314354013143540A930531435434
S11354E00131435405930382C376027602774276F0
S11354F013238376427780235B0303932F4B0C9310
S11355002F4B0D9301235B420E930F93E1235B0218
S113551008932C4D2C4B1D602C4A2D4B1A602D4AA0
S11355202D4B1A606A462D4928002D4B98472D4F64
S11355303B68986800212C4EB0473B6858680021AE
S1135540B0472E683000294B98471F2318408440E9
S1135550274B1C602A68D369002BFCD133680222D4
S113556013433360174B1B68DA69002AFCD159686E
S1135570802252020A435A600121124AD171DA6927
S1135580002AFCD1DA69002AFCD1596880229202EF
S11355900A435A6001210B4A9171DA69002AFCD14D
S11355A014490020144B984704220C4B9A75FD3281
S11355B0FF320F4B1A6011B0F0BDC0460300040067
S11355C003000500A40100205C0B002035540000FA
S11355D0580B002009540000540B0020000800421E
S11355E041400000C800002045CA0000F93B00000B
S11355F000E100E04D540000BD3B000070B5020026
S11356001F4B1C781F4B1B789C421ED3E31A1E4869
S113561003701D4B1878002830D09B281BD9194BD8
S11356201C709C20184B1870081C9C2901D9174B1E
S11356301878C0B2002821D0124B1B78441EE4B263
S113564001341419124D00260EE020006438C31AE8
S11356500D480370DDE7031C884200D90B1CD8B247
S1135660E8E73300944207D0E95C117001329B2BC8
S1135670F7D00133DBB2F5E7024A137070BDC046C0
S113568075020020740200207602002014EC000051
S1135690D801002010B50278084B1A7042785A706D
S11356A00A78074C22704A7862701888054B98472C
S11356B02088054B9847012010BDC046640B00208C
S11356C07C0B0020B55F0000955F000010B500283A
S11356D009D10B781A2B07D8044A13701800044B0D
S11356E09847012000E0002010BDC0467E0B00203A
S11356F0715F000030B583B06C4600900191104B8F
S11357009847104D2B0006CC06C30F4B9847040056
S113571001200E4B98470E4B1C700B220D4B1A7038
S113572068680D4B98470D4B00221A707F215A541C
S11357307F315A547E21FF315A54012003B030BDC9
S1135740115F00006C0B0020C15E00005D5F000073
S1135750600B00207E0B002065600000800B0020A1
S1135760F0B5DE4657464E464546E0B5A5B0019035
S11357700E000291111C1400240A039200932EAA15
S113578015782FAA13789B46C7B2B806C30F99465B
S1135790C9B2E2B27B0700D5012103233B40012BB0
S11357A03BD05C425C41E0B2824601AC64897B48F8
S11357B00088A04234D000240720844688466146ED
S11357C008314046002800D00639002A37D002317B
S11357D0C9B28C4624213940202934D0032B36D039
S11357E004A9AC4463460B7053464B7001A94B4665
S11357F05B019C460878202398436346184308704D
S11358008446C1438B072AD04346002B49D0002A43
S11358102FD0882004A988702EE003208246C4E794
S11358205F48844207D040245046204382463F3C90
S113583005208446C2E7002407208446BEE70831D9
S1135840C9B28C46C6E7504608438246C6E70122E1
S11358500023994600249A4607339C46C0E704A9CE
S1135860802088704F4E3078431C3370C8700421F8
S11358702EE0C82004A988704A490878431C0B709C
S113588004A9C87001A8837A0B71C07A4871634671
S11358905B0718D404A9307888717078C87108211E
S11358A016E0002A5CD004A98C2088703D4B18783F
S11358B0471C1F70C87001AB987A0871D87A487178
S11358C063465B0760D504A9FF208871C87108216D
S11358D0002C09D1481CC0B204AC304E3378635458
S11358E00231C9B276782654002A2AD004A82E4C54
S11358F0227842548A1CD2B20131C9B26478445429
S1135900002D0AD000995519EDB204AE501C0C7844
S1135910B4540131C2B29542F8D1244A009B1360B9
S1135920234B309A1A60234B5A461A7004A8224B10
S11359309847012025B03CBC90469946A246AB4608
S1135940F0BD1E4A50680B000833DBB204AE4A1C9B
S1135950D2B204787454013011009A42F7D1CFE7DF
S113596004A9CC2088700F4B98461878431C99469C
S113597043464F461F70C87001A8837A0B71C07AE2
S1135980487163465B079ED4002004AB1918335C4E
S11359908B7101300828F8D10E2199E77C0B002087
S11359A0FFFF0000600B0020640B00208002002039
S11359B0780200207C020020755E00006C0B002041
S11359C0044B1B78032B04D8DA01D31A0021024AB2
S11359D0995470470B000020800B002070B5FF2203
S11359E0CD4B1A70CD4B1B78002B00D0BDE17F331B
S11359F0CA4AD35C002B0BD1FE33D35C002B2ED1CF
S1135A007E23FF33D35C00200322002B01D170BD21
S1135A100122C14B1A700020032AF8D81000D101CA
S1135A20891ABE4B5B185D7840242540BC4900248C
S1135A300C70CC739B7833218B43D9B2882900D165
S1135A40C4E00ED9D9B2C82946D0CC2900D18AE005
S1135A508C2900D104E1B34B98470020D7E70222F8
S1135A60D7E7082B00D131E18029F4D1AC4B197868
S1135A700424214380246442214319700121D973F1
S1135A80A64CD101881A21180D791D7449795974CD
S1135A90D1018A1A911D09195960015D0B391973D5
S1135AA0083212199A609C4B1B78D901C91A9B4A77
S1135AB0521851780A0700D529E107220A40012A21
S1135AC000D131E1002A00D149E1032A00D13EE1AD
S1135AD0944B984700209AE7D101891A8F4B5B18A1
S1135AE09B79FF2B1CD08E490C7880235B42234387
S1135AF00B70002D21D0894CC301181A23181D796D
S1135B000D745B794B74D3019A1A130008331B1973
S1135B104B60035D133B0B73103212198A60C2E7AA
S1135B20D101891A7D4B5B18DB79FF2BDBD17C49D2
S1135B300B78042423430B70D5E77949774CC301D0
S1135B40181A23181D7A0D745B7A4B74D3019A1AB0
S1135B5013000A331B194B60035D153B0B731232A0
S1135B6012198A609FE76E490C7880235B422343B5
S1135B700B70002D14D0694CD301981A23181D7989
S1135B800D745B794B74D3019A1A13000E331B19ED
S1135B904B60035D193B0B73163212198A6082E75E
S1135BA05F495E4CD301981A23189D7B0D74DB7BEF
S1135BB04B74D3019A1A130010331B194B60035D05
S1135BC01B3B0B73183212198A606CE7D101891AD6
S1135BD0524B5B189B79FF2B1FD0514B1C788021B3
S1135BE04942214319700121D973002D22D1190092
S1135BF04A4CC301181A23181D7A0D745B7A4B742E
S1135C00D3019A1A13000A331B194B60035D0F3B2F
S1135C100B730C3212198A6045E7D101891A3F4B84
S1135C205B18DB79FF2BD8D13D490B78042423433F
S1135C300B70D2E73A49394CC301181A23181D795D
S1135C400D745B794B74D3019A1A130008331B1932
S1135C504B60035D0D3B0B730A3212198A6022E715
S1135C602F4B1C7880214942214319700121D9739B
S1135C70002D15D01900294CD301981A23181D7929
S1135C800D745B794B74D3019A1A13000E331B19EC
S1135C904B60035D133B0B73103212198A6002E7E9
S1135CA01F491E4CD301981A23185D7B0D749B7BEE
S1135CB04B74D3019A1A13000F331B194B60035D05
S1135CC0153B0B73123212198A60ECE6D101891A62
S1135CD0124B5B189B79FF2B0CD011490F4CC3015D
S1135CE0181A035D0A3B0B73D3019A1A083212196E
