S0170000415050535F57534E5F44454D4F5F432E737265635C
S1130000A0570020D1490000CD490000CD4900008F
S113001000000000000000000000000000000000DC
S1130020000000000000000000000000CD490000B6
S11300300000000000000000CD490000CD49000090
S1130040CD490000CD490000CD490000CD49000054
S1130050212D0000CD490000CD490000CD4900000C
S1130060CD4900008D3200009D320000AD32000009
S1130070BD320000CD320000DD320000CD49000069
S1130080CD490000CD490000AD460000BD4600004A
S1130090CD4600000000000000000000CD49000033
S11300A0CD49000000000000CD4900000000000020
S11300B00000000010B5064C2378002B07D1054B37
S11300C0002B02D0044800E000BF0123237010BDC0
S11300D0200100200000000060E00000084B10B583
S11300E0002B03D00749084800E000BF0748036815
S11300F0002B00D110BD064B002BFBD09847F9E72D
S1130100000000002401002060E0000060E0000026
S11301100000000070B50020084B98470500084C0B
S1130120FA218900A047074B186007492800A04717
S1130130064B18600522064B1A6070BDA5430000EB
S11301405DBB00000000002040420F0004000020BE
S113015010E000E030B5084B1C68084A00258021F7
S11301604902013807D3002CFBD054609560136812
S11301700B42FCD0F5E730BD0400002010E000E0A5
S113018030B5084B1C68084A002580214902013813
S113019007D3002CFBD05460956013680B42FCD04D
S11301A0F5E730BD0000002010E000E010B5034B7F
S11301B01B68002B00D0984710BDC0463C010020AE
S11301C070B5441E002804D0024D0120A847013C0C
S11301D0FBD270BD81010000F8B5074C8027FF01F8
S11301E067618025AD0165610120044EB047A761B8
S11301F00A20B047A561F8BD00440041C1010000D8
S113020070B582B00023164A136001AC01256570F5
S1130210A370257021000D20124EB04721000E203E
S1130220B04721001620B0470F4B8022D2015A61FB
S1130230802292015A610D4B1B681D4203D00B4B67
S11302401B689B0701D40A4B98470A4B9847012225
S1130250094B1A70BFF35F8F62B6002002B070BD05
S11302603C010020852E00000044004110E000E025
S113027015010000D90100000A00002010B584B067
S11302800E4B186001AC20000D4B98470F230193CF
S113029000236360013323720133E37221000F20D2
S11302A0084B984700220F210748084B9847002124
S11302B00F20074B984704B010BDC0463C010020F6
S11302C0F92D00000D2E0000AD010000B52C00003A
S11302D0E12C000010B5002804D100210F20044BAC
S11302E0984710BD00210F20024B9847F9E7C046FC
S11302F0012D0000E12C000010B590B02B4C11230F
S1130300237000236370A37001A901224A708B70CB
S11303100A701120264B98472278D109002300291E
S113032004D15309DB0123498C4663441F21114046
S1130330012210008840986102AC227000230393CC
S1130340049323746374A274E27423752332A35454
S1130350183A002108A8184B984780235B02E360F1
S1130360164BA36201235B42E362154B2363154BD7
S11303706363154BA361220014491548154B984734
S1130380002810D1124B1A68D369002BFCD11368D2
S113039002210B431360104B984701200F4B9847E1
S11303A0002010B010BD06204042FAE7DC0900200E
S11303B0852E00000044004115BF0000030010001A
S11303C00300120003001300001BB70000140042D6
S11303D0E0090020ED320000D9010000C101000055
S11303E0F0B5DE4657464E464546E0B583B0032891
S11303F000D075E00E684D680C8900226B46DA71F6
S1130400002D27D0002C65D0002E00D177E00023EA
S1130410984600239B4601223B493C483C4B984765
S11304203A4B9A4601270422994659464B42594170
S11304308B46307853461B68197E3942FCD0197EAE
S11304403942FCD09862197E1142FCD04946897920
S11304508C4611E0002E3AD0002C3ED00023984662
S113046001339B466B46DD1DD5E7604601280DD060
S1130470986AC0B200290DD0197E1142FCD0588B65
S113048000211042F1D05A831E31EEE7986AC0056C
S1130490C00DEFE72870013CA4B25D4443465942C5
S11304A04B41F618002CC4D1184B196802220B7E5C
S11304B01342FCD0002214491448154B98470020DD
S11304C003B03CBC90469946A246AB46F0BD0F2013
S11304D04042F5E70F204042F2E70F204042EFE7A9
S11304E0832252000B490C480C4B98470C480D4B87
S11304F098470D200C4B984701204042E0E7012328
S113050098466B46DE1D84E7DC090020E0090020E4
S1130510B135000078D4000088D4000025BF000065
S11305209CD4000041C0000059BF000010B582B047
S113053001AB00221A709A705A700E4B1A68D36974
S1130540002BFCD18F3313751376136802218B4370
S1130550136001A91220084CA04701A91020A0474C
S113056001A91320A04701A91120A047002002B02F
S113057010BDC046E0090020852E0000002A06D0E8
S113058082180B780370013001319042F9D1704721
S1130590002A04D08218017001309042FBD17047C8
S11305A003000278002A07D00020013080B2013312
S11305B01A78002AF9D170470020FCE7024AD37860
S11305C00133DBB2D3707047EC09002070470000A0
S11305D000B583B000220A4B9A700120094B98475A
S11305E001A90948094B9847002801D003B000BD70
S11305F00221019B194301910348054B9847F5E7F4
S1130600EC090020D5020000701000003115000034
S11306103D15000010B50C4B9B780020002B0DD12C
S1130620094B5B78002B03D1074B1B78002B06D1B9
S1130630054A53780133DBB25370002010BD034BDD
S113064098470028F4D0F9E7EC09002019120000BB
S1130650054B5B78002B04D0034A5378013BDBB293
S1130660537000207047C046EC09002010B50B4BB6
S11306705B78002B04D0094A5378013BDBB25370FA
S1130680064B5B780020002B03D1044B1B78002B16
S113069000D110BD024B9847FBE7C046EC0900208F
S11306A0B1110000F0B5DE46574680B589B08346E7
S11306B08A460192009310AB80CB1E8812AB1D8832
S11306C07F220A4007AB5A70187008225A80002F04
S11306D03DD05A889219AA1892B25A80694B984709
S11306E0041E00D0C1E00023059302AAD380049322
S11306F0049B5A461A430492049A53461B0213431A
S1130700049307AB5B88049A1B0413430493049972
S11307105D485E4B9847041E57D100230493049B05
S113072002221343049304995948584B9847041ED2
S11307304BD10022059202ABDA8006331B889BB2B0
S1130740544A934249D8544C544B9A4617E007AB49
S11307505A8800998C46624492B25A80BEE70120BE
S1130760D047049B9B0728D502ABDA88013292B2AA
S1130770DA8006331B889BB2464A93422DD804A9DB
S11307804348A047002828D102AB06331B889BB2FC
S1130790F422FF329342E4D902AB06331B889BB2A6
S11307A001329342DBD83E483E4B98473E483F4B8C
S11307B098470D203E4B9847D1E705A93D48364B55
S11307C09847041E09D0002305933B4B984720000B
S11307D009B00CBC92469B46F0BD059B002B3FD054
S11307E0059B069307A94B889BB24B800698082269
S11307F0324B9847041EE8D1069B08330693019BAD
S1130800002B0BD00698009A19002C4B9847041E15
S1130810DBD1069B009A944663440693002F0ED0C6
S1130820069B009AAD1AED18069506983200390019
S1130830224B9847041EC8D1069BF3180693059BC8
S11308409B000493049B02221343049304991C48C1
S11308500E4B9847041EB8D11A4B98470400B6E7CC
S1130860184B984703246442B1E79822FF32164993
S113087016480C4B984716480C4B98470D200C4BC8
S11308809847A4E7150600008C1000003D150000F1
S113089078100000E703000031150000C1010000DA
S11308A0B0D5000025BF0000BCD5000041C0000049
S11308B059BF00000004150051060000B1150000E6
S11308C06C1000006D060000D0D4000088D4000035
S11308D0CCD5000070B514001D00002803D00029F9
S11308E001D0002A13D1002D02D0284B984770BDA7
S11308F09E22920026492748274B98472748284B91
S113090098470D20274B98470C204042EFE7264B91
S1130910DB689A421AD8244B9B68984227D38618DE
S1130920214A9368D2689B189E4220D822001F4B0C
S113093098470028DBD11C4A9368D2689B189E42D2
S113094001D0002DD3D0114B9847D0E7A0229200BC
S11309500F491048104DA847134BDA68210014487A
S1130960A8470D200F4B98470C204042BFE7114A7F
S113097007490848084B98470F48094B98470D20EA
S1130980084B98470C204042B1E7C046D10500000F
S1130990DCD4000088D4000025BF0000F8D4000097
S11309A041C0000059BF0000EC09002049150000B7
S11309B018D500008602000060D5000070B5040060
S11309C007281FD88300164AD3589F46154B5961F0
S11309D0002070BD134B19610020FAE7114B996197
S11309E00020F6E70F4B19620020F2E70D4B596225
S11309F00020EEE70B4BD9610020EAE7094B99622E
S1130A000020E6E7084A094909480A4DA847210099
S1130A100948A8470D20094B98470C204042D8E7C5
S1130A20B0D40000EC090020BE020000E8D40000AD
S1130A3088D4000025BF0000A4D5000059BF0000E1
S1130A4010B52C2200210648064B98470648074B50
S1130A50984707490320074B9847002010BDC0461C
S1130A60EC09002091050000BD0500007D02000096
S1130A70CD050000BD09000030B59FB0040015008D
S1130A802C282FD01B283DD006284BD00E2827D049
S1130A90322857D02F2865D0342800D177E0112888
S1130AA000D196E0132800D1ACE0042800D1BBE0CB
S1130AB0652800D1CAE0092800D1D9E02A2800D14C
S1130AC0E8E0202800D1F7E02422FF3289498A484F
S1130AD08A4DA84721008A48A8470D20894B98478A
S1130AE01FB030BD0023042203A92800864CA04770
S1130AF00028F5D1854B1B68002BF1D003A92C30BD
S1130B009847EDE70023082203A928007E4CA0475C
S1130B100028E5D17D4B1B68002BE1D003A91B30D5
S1130B209847DDE70123302203A92800764CA0472B
S1130B300028D5D1754B1B68002BD1D003A90630F2
S1130B409847CDE70023182203A928006E4CA0473C
S1130B500028C5D16D4B1B68002BC1D003A93230CE
S1130B609847BDE76422002103A8694B98470023F6
S1130B70642203A92800644CA0470028B0D1634B29
S1130B801B68002BACD003A92F309847A8E700239B
S1130B90042203A928005C4CA0470028A0D15D488A
S1130BA0564DA847039C230AFF200340220C024011
S1130BB0210E204000905848A8470D20514B9847DB
S1130BC0524B1B68002B00D18AE700213420984740
S1130BD086E70022514B1A700023043203A928002F
S1130BE0494CA047002800D07AE703AB1A784C4B55
S1130BF01A70464B1B68002B00D171E703A9113012
S1130C0098476DE700232C2203A928003E4CA047F7
S1130C10002800D064E73D4B1B68002B00D15FE740
S1130C2003A9133098475BE7002304221CA928007A
S1130C30354CA047002800D052E7344B1B68002BEA
S1130C4000D14DE71CA90430984749E7002304224A
S1130C501CA928002C4CA047002800D040E72B4BAF
S1130C601B68002B00D13BE71CA96530984737E788
S1130C700123642203A92800234CA047002800D0A4
S1130C802EE7224B1B68002B00D129E703A909306A
S1130C90984725E70123042203A928001A4CA047FA
S1130CA0002800D01CE7194B1B68002B00D117E764
S1130CB003A92A30984713E70023082203A9280030
S1130CC0114CA047002800D00AE703AB9A882800FB
S1130CD00830012303990C4CA047002800D0FFE6FC
S1130CE00A4B1B68002B00D1FAE603A92030984771
S1130CF0F6E6C046E8D5000088D4000025BF000011
S1130D0028D6000059BF0000D5080000400100208B
S1130D1091050000B0D5000008D600004501002070
S1130D204401002010B58CB001226B46DA71002812
S1130D3020D00268114B1A600022114B1A706B46C6
S1130D40D81D104B9847041E02D020000CB010BDD3
S1130D5000200D4B9847041E03D000200B4B9847EE
S1130D60F3E70B4901200B4B984702A80A4B98471D
S1130D700400EAE70C246442E7E7C046400100208F
S1130D8045010020FD160000410A000095170000EF
S1130D90790A0000BD09000019160000F0B5CE461E
S1130DA0474680B5A3B005900C0015001F002AAB80
S1130DB01B8899462BAB1B789846012A03D0002F39
S1130DC040D0022A4CD0631E1F2B00D978E04B463A
S1130DD0013B9BB20D2B03D94B46FF2B00D07EE089
S1130DE007AE220005995A2002AB9C466044794B19
S1130DF09847341946340023237044334A46F25248
S1130E0043465A1E93416722B3544123F554032D9C
S1130E1000D172E0022D00D1ACE0042D00D1C4E079
S1130E20012D00D0C7E000230293019300936C339B
S1130E3007AA28210120684CA04723B00CBC904687
S1130E409946F0BD654A66496648674B98476748C6
S1130E50674B98470D20674B98470C204042ECE7BE
S1130E603800654B98474028ADD13B781A00303A9A
S1130E70362A17D80A3A062A14D9473B192B11D90E
S1130E807A1C38004030137819003039362909D8D3
S1130E900A39062906D9473B192B03D90132824264
S1130EA0F1D190E7554A4E494E484F4B9847544824
S1130EB04F4B98470D204F4B98470C204042BCE7BE
S1130EC08C22920046494748474B98474D48484B27
S1130ED098470D20474B98470C204042ADE74A4ABB
S1130EE03F494048404B98474848414B98470D205C
S1130EF0404B98470C2040429FE73B78013BDBB2D4
S1130F0007AA1370032B17D87A78511E07AB5970B0
S1130F101023110099430B291ED03D4A3049314812
S1130F20314CA04707AB59783A48A0470D20314BC4
S1130F3098470C20404280E794229200284929488F
S1130F40294CA04707AB19783348A0470D20294BFB
S1130F5098470C20404270E7B91C162002AB9C460F
S1130F6060441C4B98477B7807AA9446634400224C
S1130F709A7058E73800204B9847431E9BB23F2B8A
S1130F8005D8421C390007A8124B98474BE7234A5F
S1130F9013491448144B98472148154B98470D2082
S1130FA0144B98470C20404247E73E22390007A8DB
S1130FB0084B984737E71B4A09490A480A4B9847A0
S1130FC019480B4B98470D200A4B98470C20404278
S1130FD033E7C0467D050000A50600001A020000A4
S1130FE0F4D5000088D4000025BF00003CD60000E2
S1130FF041C0000059BF0000A10500002602000006
S113100050D600005CD600003902000070D6000003
S11310105702000098D600007CD60000660200004B
S1131020B4D6000076020000D0D6000030B583B0FC
S113103006AC2488002501950094024CA04703B017
S113104030BDC0469D0D000000207047F0B583B050
S113105080256D000543A5246401084F084E29002E
S11310602000B8470023019301A92000B0470028BD
S1131070F5D1019B9D42F2D103B0F0BD3D150000B6
S11310803115000000B583B00023019301A9114874
S1131090114B9847002801D003B000BD80214900BE
S11310A0019B194301910B480C4B98470028F3D13D
S11310B001A9D0204001084B98470028ECD1802199
S11310C04902019B19430191D0204001034B9847E9
S11310D0E2E7C04608140000311500003D15000089
S11310E010B582B0284B1C68002C04D0264B1C6819
S11310F0200002B010BD190080204001234B984706
S1131100002803D00022204B1A60F1E701A92048EF
S11311101E4B9847002803D000221B4B1A60E7E7B8
S1131120194B1B681B4A93420ED01B4A934212D0A0
S11311301A4A93421CD01449194A0B681A40A02336
S1131140DB0213430B60D1E7019B012BF3D0154A5B
S11311500D4B1A60EFE7019B032BECD0042B03D05B
S1131160114A094B1A60E6E7104A074B1A60E2E796
S11311700549EC208003054B98470028DBD000226A
S1131180014B1A60B4E7C046480100203115000045
S1131190F4130000A0021000B0021000F0001000D0
S11311A0FFFFF0FFA1021000B2021000B102100014
S11311B030B583B0164C012501A91020A0470028A2
S11311C01CD1019B2B42F7D101A90130104B984748
S11311D0002813D101998B0707D502239943019164
S11311E001300C4B9847002808D101A90B20084B6B
S11311F09847002802D10199CB0701D403B030BD30
S11312000123994301910B30024B9847F6E7C046FE
S1131210311500003D150000F0B583B000230193A3
S1131220009301A90B20284B9847041E30D1019943
S1131230CB0706D4012319430B20244B9847041EE3
S113124026D101A90120204B9847041E20D10199E1
S11312508B0720D505251C4F1D4E69460F20B84726
S1131260041E20D1009B5B072BD40220B047013D14
S1131270002DF2D1AD22520016491748174B98475A
S11312801748184B98470D20174B9847042464427D
S1131290200003B0F0BD0223194301200B4B9847F3
S11312A0041ED7D0F4E7A82252000A490A480B4D7D
S11312B0A847009A21000D48A8470D200A4B9847DB
S11312C0E6E70B4B9847E3E7311500003D150000B6
S11312D0C1010000E4D6000088D4000025BF00004E
S11312E02CD7000041C0000059BF000014D70000F3
S11312F019150000F8B507002D4D2E4C2E4E280070
S1131300A047002802DB0120B047F8E72B48294B0F
S11313109847C30709D4284E294C264D0120B047CD
S11313202000A847274B9842F8D1022F21D0032F41
S113133029D0042F30D024492448254B9847002431
S1131340244B98470005000D234B98422AD82000CF
S1131350224B98472248234CA0471B492248A047C8
S11313600D20224B984722491548194B98470020D5
S1131370F8BD20492048164CA04780214903134852
S1131380A0470024DCE71B491B48114CA04700215F
S11313900E48A0470024D3E70B490C480C4B984750
S11313A08024CDE7022020430C4B9847D2E7C04667
S11313B01410000025150000C1010000BC07020044
S11313C00C000C009ED0AD10521330138C10000092
S11313D03D150000E11000009F0300004D100000C7
S11313E0B0D5000025BF000048D7000059BF000059
S11313F0612F52EF7DD51C3CAC07020070B582B062
S1131400154B0193154B00930238012811D901247F
S113141064420020124E134D009B98420ED00220CD
S1131420B0470198A847013C002CF5D10520404263
S113143009E00D4B01930D4B0093E8E7009A074B2D
S113144000209A4201D002B070BD00210248084B2E
S113145098470020F7E7C0468C1000003626530258
S1131460C101000025150000AC070200C3C15DD70F
S11314703D15000010B582B00023019301A9A020FE
S11314804001144B9847041E15D11349019B194080
S11314900191A0204001114B9847041E16D0104A18
S11314A010491148114B98471148124B98470D2089
S11314B0114B98470AE0114A0A490B480B4B9847CD
S11314C00B480C4B98470D200B4B9847200002B05B
S11314D010BDC04631150000FFFBFFFF3D150000A5
S11314E007020000F0D6000088D4000025BF0000E9
S11314F0FCD6000041C0000059BF000001020000FA
S113150010B5014B984710BDF902000010B5014B0E
S1131510984710BD2D05000010B5014B984710BD2C
S1131520851E000010B5014B984710BDBD1E00007C
S113153010B5014B984710BDD11E000010B5014BEA
S1131540984710BDE91E0000F0B5D6464F46464602
S1131550C0B582B0804689461500134B1F88083FEA
S1131560BBB201931E0004009A421AD90F4B9A464B
S1131570371A4346E11A4944019A2000D04700280B
S113158009D1AD1B3919A419B542F2D8AAB24944FC
S11315902000064B984702B01CBC90469946A246D0
S11315A0F0BD0021F2E7C04608000020CD1F000076
S11315B0F0B5D6464F464646C0B582B08046894609
S11315C01500134B1F88083FBBB201931E00040093
S11315D09A421AD90F4B9A46371A4346E11A49449C
S11315E0019A2000D047002809D1AD1B3919A4194C
S11315F0B542F2D8AAB249442000064B984702B03B
S11316001CBC90469946A246F0BD0021F2E7C046B4
S1131610080000202921000070B584B004000023D4
S113162003930822002101A82D4B9847002C44D095
S11316302822002120002B4B984703A92A482B4B32
S1131640984700283AD1039B002B39D0C020800250
S11316501843082201A9264B984700282ED1029B43
S11316601804000C03902ED0C0239B021843282298
S113167021001F4B9847002820D121790902A27923
S11316800F231A400A4361790901FF2529400A43BF
S1131690E1790902667A33400B43217A09010D404E
S11316A02B43002A12D0002B13D012498B4213D89B
S11316B0114B9A4202D80D3800E0002004B070BDEE
S11316C00C204042FAE70C204042F7E70C2040424D
S11316D0F4E70C204042F1E70D204042EEE7C0461B
S11316E015BF00009105000008000C003115000032
S11316F049150000521300005113000070B5002872
S11317000BD005786B1E032B00D901250020154B47
S11317109847041E03D0200070BD0125F6E7124B44
S113172098472800114B9847041E17D12800104BE6
S11317309847041E12D1023D012DECD90D4B984758
S1131740041EE8D0A72252000B490C480C4B9847C2
S11317500C480D4B98470D200C4B98470C4B984761
S1131760D9E7C04601150000011F0000F512000072
S1131770FD1300008510000060D7000088D400002D
S113178025BF0000DCD7000041C0000059BF0000A5
S11317900D15000010B51C4B9847041E0BD10020FA
S11317A01A4B9847041E14D1194B9847041E1DD197
S11317B0184B98470BE06622FF3217491748184B1D
S11317C098471848184B98470D20184B9847200005
S11317D010BDB622520010491048114B98471448C6
S11317E0114B98470D20114B9847F0E7B92252004E
S11317F009490A480A4B98470E480B4B98470D2055
S11318000A4B9847E3E7C04675140000892A000094
S11318100D150000AD1E00006CD7000088D4000038
S113182025BF00007CD7000041C0000059BF000064
S11318309CD70000C0D7000000B585B001AB019073
S113184000220292198119000320024B984705B027
S113185000BDC046E103000070B584B008AC257833
S113186001AC20703F30C4B20E2C00D984E0A0003B
S11318704F4C2058874601AB0A0C5A700A0A9A70DA
S1131880D97005214B4B1B78002B77D00139C9B295
S113189083E00B0ADBB2002D07D101AA537001AB20
S11318A099700022DA700521ECE78022524213433A
S11318B001AA5370F3E701AB00225A709A70DA70F0
S11318C00521DFE701AB00225A709A70DA70052116
S11318D0D8E701ABFF225A709A70DA700521D1E77C
S11318E001AA080C5070080A9070D170190A11717D
S11318F053710721C6E701AA080C5070080A9070BA
S1131900D170190C1171190A517193710821B9E739
S11319100B0ADBB2002D0CD101A8437001AB997006
S1131920110ED970110C1971110A59719A7108218B
S1131930A8E780204042034301A84370EEE701ABCF
S1131940080C5870080A9870D970110E1971110C8E
S11319505971110A9971DA71092193E790225200A1
S113196015491648164B98471648174B98470D20AB
S1131970164B9847002317E0002315E04E1E01AADA
S113198095197F23124C5B0010784340E35C0132CD
S1131990AA42F8D15B0001AA935589B201A80D4B64
S11319A0984701230028D9D1180004B070BDC0465F
S11319B028D800004C01002068D8000088D400001A
S11319C025BF000048DC000041C0000059BF0000F2
S11319D0F4D800003918000000B585B001AB00222E
S11319E001920290198119000320024B984705B017
S11319F000BDC046E1030000F0B5C64600B582B0A4
S1131A000700CF282BD003003B33DBB2012B26D9B0
S1131A100B246B46DE1D264B984601213000C0473F
S1131A20051E25D13378BB4230D0013CE4B2002CF2
S1131A30F3D10B346B46DE1D1D4F01213000B84736
S1131A40002825D13378002B2FD0013CE4B2002CA0
S1131A50F3D10125280002B004BC9046F0BD012159
S1131A606B46D81D124B984700250028D0D0F1E7CB
S1131A705C22FF320F491048104B98471048114B15
S1131A8098470D20104B98470025E3E70B24D1E736
S1131A906A22FF3207490848084B98470848094B0F
S1131AA098470D20084B9847D4E70125D2E7C04654
S1131AB0D919000080D8000088D4000025BF000098
S1131AC074DC000041C0000059BF0000F0B5DE46E0
S1131AD057464E464546E0B587B001908946029286
S1131AE000239A4680239B019B466A46D3813C4B44
S1131AF098462FE0BE2292003A493B483B4B984718
S1131B003B483C4B98470D203B4B98470025280009
S1131B1007B03CBC90469946A246AB46F0BD002CAB
S1131B202EDD019B5344180039002D4B9847041EA9
S1131B3034D1029B002B03D1304B1B78002B39D0BE
S1131B405346FB181BB29A464B46DF1BBBB2994661
S1131B50002B43D04F46D94501D96B46DF89BFB22C
S1131B600A2404ABDE1C01213000C047051EC1D18C
S1131B7033781B090F2BD2D0013C24B2631CF2D161
S1131B80C122920017491848184CA04704ABD978D1
S1131B901B48A0470D20184B9847B8E7194A11492C
S1131BA01148124B98471848124B98470D20124B76
S1131BB09847ACE7022105A8094B98470028BFD0F5
S1131BC0C622920007490848084B98470F48094B1A
S1131BD098470D20084B9847250098E7012596E77C
S1131BE0D91900008CD8000088D4000025BF00005B
S1131BF0A8DC000041C0000059BF00004C010020D7
S1131C00DCDC00000D0300000CDD00003CDD000006
S1131C10F0B5D6464F464646C0B586B0039004910B
S1131C2030280FD8304B1F78FBB2059300233022A5
S1131C3003998A425B41DBB29A460A252B4B9846AC
S1131C40D14633E02A4B1F78EEE70598294B984795
S1131C500400012841D0284A28492948294EB04780
S1131C6003992948B0470D20284B98470120284E56
S1131C70B0470023009300220021CF201B4FB84718
S1131C80CF201C4B9847EA2292001C491C481D4F48
S1131C90B847049B039A29001E48B8470D201B4BE4
S1131CA098470120B047013D002D16D04B460093C4
S1131CB00423049A039F39000598C04704000128AF
S1131CC0C3D0154A0D490E480E4EB047390013488B
S1131CD0B0470D200D4B9847C8E7200006B01CBC48
S1131CE090469946A246F0BD64D8000059180000F9
S1131CF065D80000F919000095030000ACD8000075
S1131D0088D4000025BF000034DE000059BF000065
S1131D10C10100006CDE00008F03000008DE00003B
S1131D20F0B5DE4657464E464546E0B587B00290CC
S1131D308B46FF280FD8414B1F78FBB20393002337
S1131D40FF2202998A425B41DBB29A460A253C4B48
S1131D509846D14631E03B4B1F78EEE703983A4B67
S1131D6098470400012840D0384A394939483A4E46
S1131D70B04702993948B0470D20394B98470120A4
S1131D80384EB0470023009300220021CF202C4F6F
S1131D90B847CF202C4B9847334A2D492D482E4F16
S1131DA0B847029A29003148B8470D202C4B984770
S1131DB00120B047013D002D38D04B460093042349
S1131DC00022029F39000398C04704000128C5D0AF
S1131DD08222D2001E491F481F4EB04739002448B2
S1131DE0B0470D201E4B9847C9E74A46042105A871
S1131DF0204B9847040001280BD01F4A144915486A
S1131E00154B98471D481E4B98470D20144B984777
S1131E10B5E705AA53781B02917809040B4311789E
S1131E200B43D278120613435A461360200007B0BE
S1131E303CBC90469946A246AB46F0BD66D800002D
S1131E405918000067D80000F919000016040000B2
S1131E50CCD8000088D4000025BF00009CDD000021
S1131E6059BF0000C101000035040000F0DD00008E
S1131E7070DD0000CD1A00001D040000D0DD00005C
S1131E8041C0000010B582B000230093002200215D
S1131E90CF20044CA047CF20034B9847002002B02A
S1131EA010BDC04659180000F91900000022024B69
S1131EB01A7000207047C0464C01002000B583B062
S1131EC001A9024B9847019803B000BD211D0000F1
S1131ED010B5044B98470023012801D1180010BD08
S1131EE0063BFBE7211D000010B5044B9847002377
S1131EF0012801D1180010BD063BFBE7111C0000AE
S1131F0010B582B000230093234A13706946234816
S1131F10234B9847002827D01F4B1B78002B0DD14B
S1131F207C33009999432C3B194300911B481D4B6A
S1131F309847002816D00122174B1A7001A9802057
S1131F404001174B9847002818D0144C2000164B1A
S1131F509847702301009943502001432000134BFC
S1131F609847002002B010BD01220B4B1A7069463D
S1131F700A480B4B98470028CED1F3E70C4A0D4989
S1131F800D480E4B98470E480E4B98470D200E4BAC
S1131F90984706204042E5E74C01002024E8000071
S1131FA0211D0000111C0000BD1E0000E91E0000E0
S1131FB0D7040000E8D8000088D4000025BF000042
S1131FC0F4D9000041C0000059BF0000F0B5DE465E
S1131FD057464E464546E0B587B002900391160039
S1131FE00A2500239B4600243E4B9846A94637E029
S1131FF001239B46013635E0C8203B4B9847012816
S113200045D03A4A3A493B483B4FB84702993B4886
S1132010B8470D203A4B984701203A4FB8470094EF
S1132020230022002100CF202E4DA847CF202E4B85
S11320309847354A2E492F482F4B9A4698473300E4
S1132040029A49463148D0470D202D4B984701202C
S1132050B84701235B429C46E1444B46002B38D0F1
S1132060012EC5D0009433002200029D2900C8200F
S1132070C0470128C0D0264A1D491E481E4FB847F4
S113208029002448B8470D201D4B9847C4E75B46F8
S1132090002B16D005AF2200310038001E4B9847A4
S11320A03B78039A1370012811D01C4A1049114837
S11320B0114B98471A481B4B98470D20104B9847D3
S11320C0AAE7220031000398134B9847EBE700205E
S11320D001E00620404207B03CBC90469946A24627
S11320E0AB46F0BD59180000F91900005C0400006B
S11320F0DCD8000088D4000025BF000048DA0000C6
S113210059BF0000C10100007D040000A8DA0000EE
S11321105604000018DA0000CD1A00006C04000018
S113212080DA000041C00000F0B5DE46474680B5C5
S113213089B004908B4603920A268027BF016B4620
S1132140DF8235002DE0013303932DE0824A834979
S11321508348844CA04731008348A0470D20834B1B
S113216098470120824CA0470023009300220021BD
S1132170CF20804EB047CF207F4B98477F4A774986
S11321807748784EB047039B049A29007C48B047AF
S11321900D20764B98470120A047013D002D00D12A
S11321A0D2E0039B012BCED000230093039B00229B
S11321B0049E3100C7206F4CA0470128C6D1C72018
S11321C06D4B984701280BD06E4A64496448654CAE
S11321D0A04704996C48A0470D20644B9847C0E77A
S11321E0002207AB1A80039C0026A846350026006F
S11321F021E00023B7425B4102330B2004AA94463A
S11322006044102252421343037001215F4B9847EC
S113221000281DD15B46581921005C4B98470028C3
S11322202ED15B4B1B78002B37D065192DB2361B92
S1132230B6B2002E52D0341CBE4201D96B46DC8AA1
S1132240A4B2002DD5D10323BE42D6D9023BD4E794
S11322504546504A50494248424B98474F48504B94
S113226098470D20414B98474E4A3C493C483D4BCA
S113227098474D484A4B98470D203C4B984770E788
S113228045464A4A44493648364B98474848444BA1
S113229098470D20354B9847E6E7022107A83B4BAA
S11322A098470028C1D04546D72292003A492C4885
S11322B02C4B98473F483A4B98470D202B4B984757
S11322C0D2E79A2252003C492548264B98473B487E
S11322D0334B98470D20254B984727E045462C4B18
S11322E01C78631E9C410234A1B207A8344B984762
S11322F00028E6D108AB1B19053B1B78002B06D13F
S113230008AB9C466444063C2378C32B1AD03C2279
S1132310FF3229491248134CA04707A98B784A7801
S113232009782848A0470D20104B9847264A0B49A6
S11323300B480C4B98471C48194B98470D200B4BE6
S113234098470EE7002001E00620404209B00CBC8B
S113235090469B46F0BDC046C3030000BCD80000B5
S113236088D4000025BF0000C4DA000059BF000073
S1132370C101000059180000F9190000EB03000026
S1132380A8DA0000C9030000F4DA000039180000DC
S11323904C010020490300009CD800002CDB000005
S11323A041C00000D903000020DC000052030000FB
S11323B064DB000098DB000070D80000D0DB000074
S11323C0D9190000F0DB0000E1030000F0B5DE469F
S11323D057464E464546E0B585B001900E00029240
S11323E01D000EAB1C88002C64D0030135495B58DA
S11323F0002B5FD00101334B5B189B889BB2002BF1
S113240058D0304B5B189B7A012B53D1F4802D4B61
S11324109B468B445B460A229046D8448A460095E4
S1132420039315E0250001231CE001330022002161
S11324300020254CA0473DE02448254DA847210015
S11324402448A8470D20244B984733E0002C31D072
S11324505B469B88E31A1BB2002BE3DD039B9D883C
S1132460ADB20023174A514689582A000098164FE6
S1132470B8470028E0D1134B5246D3583360B58097
S1132480F3885B1BF380154B1B68002B05D0134BA3
S11324901B683200029901989847641BA4B2009B00
S11324A09C46AC446346009343461B78002BCDD135
S11324B0002CBAD105B03CBC90469946A246AB4626
S11324C0F0BDC0461C0A0020D5080000B0D50000AD
S11324D025BF000088DE000059BF0000CC0A0020A0
S11324E0F0B5D6464F464646C0B59AB00D00140026
S11324F0412839D0542837D0422853D043286AD0B1
S1132500442800D1AFE04B2800D1ACE04A2800D1E8
S1132510CFE0462800D1E5E0482800D10EE14D285F
S113252000D1DCE0452800D12CE1472800D14DE161
S113253007254C2800D126E152282DD1012314224D
S113254009A92000A24CA047002825D1A14B0A9A32
S11325501A601B68002B1FD09E4B1C6809AB1A7CA9
S11325600B990998A04717E00023042209A9200029
S1132570974CA04700280FD109AB5A7805AB1A70C5
S1132580954B1B68002B07D0934B1B6809AA0020AE
S1132590105605AA012198471AB01CBC90469946CA
S11325A0A246F0BD0023042209A92000884CA047BC
S11325B00028F1D109AB5A7805AB1A70864B1B6819
S11325C0002BE9D0844B1B6809AA0020105605AAE9
S11325D002219847E0E700230C2205A920007C4C47
S11325E0A0470028D8D105AB09229A56002A24DB3B
S11325F0180008215956794B09015918C97AC9B2EA
S113260014011B19D972012199724189083989B2BF
S1132610198173490B8801339BB20B800B889BB2E1
S1132620002B03D10B8801339BB20B806C4B1988B0
S113263089B21001694B1B18D98009AB1A700222A8
S11326409A8005AA5188D980069A0B92624B1B681E
S1132650002BA1D0604B1B6805AA0820105609AABC
S11326600421984798E70023042209A92000584C24
S1132670A047002800D08FE709AB0020185605AA10
S113268010705B785BB25370002B07D109AB5B8889
S1132690083B9BB20101514A521813814E4B1B68EF
S11326A0002B00D178E74C4B1B6805AA05219847FD
S11326B072E70023442209A92000454CA0470028C2
S11326C000D069E7474B1B68002B00D164E7454BFA
S11326D01B68199A0392110009A898475CE706231E
S11326E09A4601E006239A460023102205A92000F9
S11326F0374FB847002800D04EE705AA0C201056E3
S1132700D38907013549C91900270F730826975F34
S1132710B8465789B94609AF56887E81069A0C9205
S1132720CA8892B293420CD0102D00D834E701230A
S1132730002200210020264CA0472DE709239A46B9
S1132740D2E74346002B01DDA8450FDB09AB424627
S11327509A8000230993204B1B68002B00D11BE7B0
S11327601D4B1B6809AA5146984715E723004B44A3
S1132770424669468A818A890092524639001A4C37
S1132780A04709E707250023082209A92000104CC7
S1132790A047002800D0FFE609AB002018569A880D
S11327A0598805AB198001010C4B5B18DB889BB27F
S11327B09A4200D0F0E6084B1B68002B00D1EBE6F0
S11327C0054B1B6805AA29009847E5E60825DAE7C2
S11327D0D5080000D00A0020CC0A00201C0A0020E2
S11327E04E010020D40A0020CD23000010B50A4B6E
S11327F01B78002B00D010BDB02200210748084BE5
S1132800984708490220084B98470122024B1A7046
S11328100022064B1A80EEE74D0100201C0A00201E
S113282091050000E1240000BD0900004E010020D4
S1132830024B1860024B19607047C046CC0A002056
S1132840D40A002010B586B000281CDB0201114B0D
S11328509B189B7A012B19D105AA107051700001A5
S11328600C4B1818C38853800023029301930093E0
S1132870043342210220084CA047002801D009203B
S1132880404206B010BD06204042FAE7062040420E
S1132890F7E7C0461C0A0020A5060000002807DB55
S11328A00001064B1818837A012B04D100207047CD
S11328B006204042FBE706204042F8E71C0A0020BD
S11328C030B589B0002836DB002937D0AF23DB00D0
S11328D09A4236D804011E4B1B199B7A012B33D123
S11328E004AB18705A802500194C6419E4889C8143
S11328F05025062800DD0C3D0401154B1B19DC7A1C
S11329004523E40705D50001114B18180589ADB21C
S11329104C2380201843029501920091102304AAAD
S1132920010002200B4CA0470023002800D00E3BDE
S1132930180009B030BD06235B42F9E706235B4269
S1132940F6E706235B42F3E706235B42F0E7C04663
S11329501C0A0020A506000030B587B0002834DB2F
S1132960002935D0002A36D005011E4C6419A47AFA
S1132970012C33D11B4C29516419A280217B0022E4
S113298000291DD101212173E27A4531D20700D5F6
S11329900731002B17D1013B049304AA10710001E5
S11329A0104B1818C388D38000230293019300931B
S11329B0083302200C4CA0470022002800D00E3A15
S11329C0100007B030BD0493E7E706225242F7E750
S11329D006225242F4E706225242F1E7062252420C
S11329E0EEE7C0461C0A0020A506000030B587B0FB
S11329F004001E481E4DA84721001E48A8470D206C
S1132A001D4B9847002C2ADB22011C4B9B189B7AF8
S1132A10012B27D105A90C70184B9B18DA884A8022
S1132A2000229A72DA80DB7A4921DB0700D505316E
S1132A300023029301930093043305AA0220104D4E
S1132A40A847051E01D009256D4224010B48201812
S1132A50102200210B4B9847280007B030BD0625F3
S1132A606D42F9E706256D42F6E7C046B0D5000091
S1132A7025BF00009CDE000059BF00001C0A002096
S1132A80A50600009105000070B582B004002A4B31
S1132A9098470005000D294B0025984202D82800CC
S1132AA002B070BD01A92648264B9847051EF6D1F1
S1132AB0254B019A13402549194301912048244B81
S1132AC09847002C20D000212248214CA047AB215C
S1132AD02148A04701212148A04700212048A047C0
S1132AE081212048A047204E204C3000A0470128D7
S1132AF0FBD1154B019A13408021490219430191DE
S1132B000F48134B9847CAE700211248104CA047BE
S1132B10B9211148A04701211048A04700211048BD
S1132B20A04781210F48A0470F4E104C3000A0470A
S1132B300128FBD1DDE7C046E11000009F0300003F
S1132B401014000031150000FF8F88F800101101E7
S1132B503D150000080201000C02010014020100EE
S1132B601C020100040201001802010025150000E6
S1132B700C4B1B68002B06D1EFF31083002B07D0FE
S1132B800022094B1A70074A136801331360704717
S1132B9072B6BFF35F8F0022044B1A700132024BEE
S1132BA01A70F0E750010020540100200A000020B0
S1132BB0084B1A68013A1A601B68002B09D1064BAE
S1132BC01B78002B05D00122044B1A70BFF35F8FD2
S1132BD062B6704750010020540100200A00002012
S1132BE0F0B5C64600B582B001AC01266670002778
S1132BF0A770267021001320274DA847274B98461D
S1132C0080231B03424693612770667021001C20B9
S1132C10A8476670A770267021005220A84721009B
S1132C203E20A84721003F20A84721002F20A84785
S1132C3021001420A8478022D202194B9A61194B13
S1132C408022D2059A61802212069A6180221202A1
S1132C509A6180235B0342469361277021005320CD
S1132C60A847114A116A80239B030B431362042271
S1132C700E4B1A806B469E70DF7005236A461370F4
S1132C805670694609200A4CA04769460C20A047A3
S1132C9002B004BC9046F0BD852E00000044004103
S1132CA000450041804400410004004000540042BB
S1132CB0B54500001723002A01D0180070478B0087
S1132CC0064A9B58002B03D0834205D01D23F4E70A
S1132CD0890088500023F0E70023EEE7DC0A002097
S1132CE01723002901D01800704700221F2800D89C
S1132CF0024A01238340D3600023F4E70018004014
S1132D001723002901D01800704700221F2800D87B
S1132D10024A0123834093600023F4E70018004033
S1132D2070B50022104B1A70002310491F25104E55
S1132D300D4C0AE00D4908E023780133DBB223701F
S1132D400F2B10D800211F2BF4D928001840012282
S1132D50824008691042EFD00A619B009B59002B06
S1132D60EAD09847E8E770BDD80A00200018004070
S1132D70DC0A0020044A137802210B4313705378B1
S1132D805BB2002BFBDB70470018004000B583B03A
S1132D90124A936940210B43936101A900230B70EC
S1132DA005200F4B984705200E4B98470E4A137881
S1132DB001210B43137053785BB2002BFBDB0B4BED
S1132DC019004031002204C39942FCD11022084B5F
S1132DD01A60084B984703B000BDC0460004004089
S1132DE0BD4400003144000000180040DC0A00200B
S1132DF000E100E0752D0000002303604360012220
S1132E000272427283720233C3727047F0B583B0A8
S1132E1005000C0001A900234B70CB7023790B70C3
S1132E20237A8B702078154B984700201F2D00D8EB
S1132E30134807222A409200E77AA37A002B01D094
S1132E4008231F43EB089B00C31899690F2696407B
S1132E50B14397403A000A439A61637A002B06D142
S1132E6043690122AA409343436103B0F0BD426920
S1132E700123AB4013434361F7E7C046B545000067
S1132E800018004000B583B001AB80221A700A78A4
S1132E905A704A789A708A78DA701900014B984708
S1132EA003B000BDB5450000F0B5DE4657464E46BA
S1132EB04546E0B587B08046049116001F00002205
S1132EC0002300218B463F24012021000096019716
S1132ED05C4603944446059413E02024641A0500D8
S1132EE0E540A84614E0009C019D121BAB415C46E2
S1132EF04D462C43A346039C45462C430394013979
S1132F0025D3202464420C19E7D40500A540A84623
S1132F1004008C40A14692185B4114001D00059EDC
S1132F204F463E40B446049E47463E40B24666463F
S1132F3057463E4303D00600264332002B00009C34
S1132F40019D9D42DBD8CED19442D8D8CBE7039BD8
S1132F505846190007B03CBC90469946A246AB4679
S1132F60F0BD10B5490840230024814202D2180064
S1132F7010BD1C00091A631C9BB28842F9D9402376
S1132F80FF2CF4D814800023F1E70000F0B583B0DF
S1132F900F00160008AA117804004C434022BC42DA
S1132FA002D9100003B0F0BD002B14D102000800B8
S1132FB00021194CA04701003A0000230020174CBF
S1132FC0A04700220123121A8B41120C1B041A433E
S1132FD032800022E5E70022012BF9D10A00002308
S1132FE000210D4CA04702000B0000920193380011
S1132FF000210A4CA047050080239B0140229842EF
S1133000CFD8790FF800009A019BA047EA00821AF2
S1133010D2B252032A43DBE749BE0000A92E0000C6
S113302010B582B004000E4B1B78002B07D000298A
S113303005D10B4B5B78834210D01D200CE001A915
S11330400C701320074B98471320074B9847044BE9
S11330505C7001221A70002002B010BD0020FBE752
S113306058010020BD44000031440000404B984208
S113307031D00AD93F4B98424DD03F4B98425AD059
S11330803E4B984237D0002070473D4B98420CD0BD
S11330903C4B9842F7D1012917D000295DD0022971
S11330A015D0032915D00020EEE7012907D0002907
S11330B051D0022905D0032905D00020E4E7324885
S11330C0E2E73248E0E73248DEE73248DCE73248FC
S11330D0DAE73248D8E7012907D000293FD002298E
S11330E005D0032905D00020CEE72D48CCE72D4894
S11330F0CAE72D48C8E7012907D0002931D00229A1
S113310005D0032905D00020BEE72848BCE728489D
S1133110BAE72848B8E7012907D0002923D00229B3
S113312005D0032905D00020AEE72348ACE72348A7
S1133130AAE72348A8E7012907D0002915D00229C6
S113314005D0032905D000209EE71E489CE71E48B1
S11331509AE71E4898E71E4896E7032094E71D481F
S113316092E71D4890E71D488EE71D488CE7C0464E
S11331700010004200180042001C004200140042EB
S113318000080042000C0042030005000300060092
S1133190030007000300010003001E0003001F00DA
S11331A002000D0002000E0002000F0003001100D7
S11331B0030012000300130005003F0005003E0059
S11331C00500520003001700030018000300190053
S11331D00300040002000C0003001000050053006B
S11331E00300160030B587B00B4B6A4632CB32C2AF
S11331F032CB32C2009B83420BD001239A00694632
S11332005258824206D00133062BF7D1002007B072
S113321030BD0023D8B2FAE7B4DE000070470000E6
S1133220F0B50A4B1B78002B0CD1094F094E0A4DFF
S11332300024DE515A1914600433182BF9D10122E9
S1133240024B1A708000024BC150F0BD5A0100209D
S11332505C0100201D3200001C0B002000B583B06F
S113326009236A4613700133537001339370013399
S1133270D3700133137101335371034B98476B4679
S1133280185603B000BDC046E531000010B5024B2E
S11332901B680020984710BD5C01002010B5024B4C
S11332A05B680120984710BD5C01002010B5024BFB
S11332B09B680220984710BD5C01002010B5024BAA
S11332C0DB680320984710BD5C01002010B5024B59
S11332D01B690420984710BD5C01002010B5024B07
S11332E05B690520984710BD5C010020F0B5D64607
S11332F04F4680B58BB081460F001400030019605F
S11333000B689B0709D40B680520DB0700D498E001
S11333100BB00CBC91469A46F0BD936A0593D36AF0
S11333200693136B0793536B0893002605AB019325
S11333300AE03800934B98470CE00F231840814271
S11333402DD10136042E2FD0F1B2B300019A985832
S11333500028EED0431CF4D00104090C000CC3B2C5
S11333609C460023020605D463465B09DB01864ABA
S1133370924653441F226046024098184030007819
S1133380824680205546ED07D9D552089B18303324
S11333901878C0B26346DB07CFD50009CFE7002316
S11333A04A4613601C20B3E71320784B98472278D1
S11333B00025012A27D06368A2681343E2681343F7
S11333C02B43227C617C002901D080210B43A17C0A
S11333D0002902D0802189020A43E17C002902D01D
S11333E0802189000A43217D002902D0802189019E
S11333F00A433968022003438B4218D000234A460B
S113340013601C2084E704AA0100A069604B98475C
S113341003001720002B00D07AE73B7BDBB204AA21
S1133420127805309A4200D072E70C35C3E77B6806
S11334309342E3D123784A465371237C937100204D
S113344066E70800534B9847534A116A851C0123C9
S1133450AB400B43136209A92426A35D0B701430FF
S1133460C5B228004D4B984728004D4B9847A05DA6
S113347000214C4B98472378012B19D04B461E68EA
S113348004AB80221A7000225A7001219970DA70FC
S11334902378002B01D104AB9A70A36A0593E36AE5
S11334A00693236B0793636B0893002705AD11E024
S11334B03B680C2213433B60E0E73000314B9847F4
S11334C00DE004A90870000CC0B2374B98470137CF
S11334D0042F07D0F9B2BB0058590028EDD0431C83
S11334E0EFD1F4E723784A465371237C9371A37C8C
S11334F0D371237D1372002202ABDA802378012B6F
S113350028D06368A2681343E2681343217C627C79
S1133510002A03D1254A9278920701D580221343C9
S1133520A27C002A02D0802292021143E27C002A6B
S113353002D0802292001143227D002A02D08022F0
S11335409201114332681343336073680B43736011
S11335500020DDE64B4618680E4B98471430C0B285
S11335600A4B9847010002AB9A1DA069084B984783
S113357003001720002B00D0CAE602AB06331B78E9
S11335803373BEE76D30000000440041D9440000AD
S1133590632F0000E531000000040040BD4400003A
S11335A03144000021300000B545000000200041F6
S11335B010B544791523012C01D0180010BD047AEC
S11335C00023002CF9D1002A58D04B78002B44D08A
S11335D003681B7EDB0710D40A78D1090023002975
S11335E004D15309DB012E498C4663441F21114049
S11335F001228A409A610523DFE70A78D40900236F
S1133600002C04D15309DB01254CA44663441F2438
S113361014400122A2405A6103681A7ED20701D5E0
S11336208A789A62C2790023002AC6D102680421EA
S1133630137E0B42FCD0117E00234907BDD5538B6A
S11336405B0701D5042353838379012B02D0936A4A
S11336500023B2E7936A0023AFE70A78D109002375
S1133660002904D15309DB010D498C4663441F2111
S1133670114001228A405A6100239EE70A78D10949
S11336800023002904D15309DB0105498C46634416
S11336901F21114001228A409A6100238DE7C04610
S11336A000440041F0B5DE4657464E464546E0B577
S11336B091B005000C00160029600800BC4B984727
S11336C0020023680520DB0706D511B03CBC9046F8
S11336D09946A246AB46F0BD236817309B07F4D445
S11336E0B449086A971C0123BB4003430B620FA92A
S11336F02D27F35D0B701432D3B202931800AE4B36
S113370098470298AD4B9847F05D0021AC4B984721
S1133710F37A6B712423F35CAB712523F35CEB71B7
S1133720F37E2B72337F6B722B6898461800A04B84
S11337309847143000220E2306A98C4663441A804D
S1133740328A02928023DB019A4200D19EE00FD993
S1133750C023DB01029A9A4200D192E080231B022B
S11337609A4200D01FE1032306930023079308E045
S113377080239B019A4200D015E1102306930F3B4E
S1133780079333680593F368039373690493337E53
S11337909B462623F35C9A4673689946002B00D116
S11337A0A0E080235B05994500D184E0737E002B63
S11337B002D0B37E424693732A68029FD369002BDA
S11337C0FCD10E3306AA944663441B884246938177
S11337D0059B039A1343049A13434A4613431F4316
S11337E05B461B021F4353465B071F432723F35CBF
S11337F0002B01D104331F43737E9B02327F52029C
S11338001343727F120213432422B25C5204134303
S11338102522B25C12041343B17AF27A114319439C
S11338203389FF2B00D181E08022520417431943CE
S11338302C23F35C002B03D1624B9B789B0701D5AF
S113384080231F432A68D369002BFCD14346596067
S11338502A68D369002BFCD143461F600EAB80223B
S11338601A7000225A70DA709A70336B0A93736B71
S11338700B93B36B0C93F36B02930D9300270AAE77
S113388063E008230693073B07937AE733680593BD
S1133890F368039373690493337E9B462623F35C96
S11338A09A4673689946002B18D080235B05994586
S11338B001D0002025E02723F35C002B00D075E71E
S11338C0336A1F00C0B2404B984701000E2206AB7A
S11338D09C46624438003D4B984712E00823069307
S11338E0002307932723F35C002B0ED0069B009341
S11338F0079B0E2206A98C466244B16A306A344F93
S1133900B847002800D0E0E650E7336A1F00C0B291
S11339102D4B98470100069B0093079B0E2206A897
S11339208446624438002A4FB847EAE7F37E002B06
S113393000D17DE78023DB041F4379E72000254B7A
S1133940984707E00137042F0DD0F9B2BB0098590E
S11339500028F3D0431CF5D00EA90870000CC0B2A7
S11339601D4B9847EEE70023EB602B616B61AB6165
S1133970EB612B62AB626B620022EB85AB8530336B
S1133980EA540133EA540133EA540133EA5428680F
S1133990074B984704001149114B9847A400114B59
S11339A0E550002091E61023069300230793E8E6F0
S11339B0E531000000040040BD4400003144000033
S11339C02130000000200041D9440000632F000092
S11339D08D2F00006D300000B5450000DD3B000078
S11339E0213200001C0B0020C2791C23002A01D1C3
S11339F018007047C28D92B2173B002AF8D10368B1
S1133A00DA69002AFCD1198502211A7E0A42FCD007
S1133A100023EDE782791C23002A01D118007047A6
S1133A20828D92B2173B002AF8D10268107E4007BB
S1133A30F4D5D369002BFCD1538BDBB298061DD08F
S1133A40980703D5022353831833E7E7580703D5B0
S1133A50042353831A33E1E7D80703D5012353839F
S1133A601233DBE7D80603D5102353833233D5E76B
S1133A709B0603D5202353832133CFE7138D0B807B
S1133A800023CBE7F0B5CE46474680B583B00500AA
S1133A9001911720002A04D103B00CBC904699462A
S1133AA0F0BDEB790530002BF6D02C68E369002BD0
S1133AB0FCD1013A93B29946002601271F4B984640
S1133AC011E0731C9BB2019A915D6A79012A17D0A7
S1133AD089B21E0028001A4B98474B46013B9BB203
S1133AE09946434513D0237E3B42EAD1134B227EB1
S1133AF03A42E6D1012B19D0013B002BF7D1E0E784
S1133B000236B6B2019AD35C1B021943E2E7237E64
S1133B109B070DD4094B0221227E0A420AD1012BB4
S1133B200AD0013B002BF7D10020B5E71220B3E700
S1133B300020B1E70020AFE71220ADE7FFFF00004F
S1133B40E9390000F0B5D64600B584B0040001910F
S1133B501720002A03D104B004BC9246F0BDA37917
S1133B600530002BF7D02668013A93B29A46002517
S1133B70042719E0002302AAD380911D2000154BCD
S1133B8098470028E7D1691C89B202ABDB88019A07
S1133B9053556279012A14D00D005346013B9BB260
S1133BA09A460D4B9A45D6D0337E3B42E2D10A4B1E
S1133BB0327E3A42DED1012B09D0013B002BF7D1F2
S1133BC0D8E70235ADB21B0A019A5354E5E7122037
S1133BD0C1E7C046153A0000FFFF0000F8B58000B9
S1133BE0624BC5582C68E369002BFCD1237EA67D6B
S1133BF01E403023EB5C3122AF5C1F40F30722D51B
S1133C00EB8D9BB2002B1CD0AA6A1378DBB2511C3B
S1133C10A962697901290ED09BB2DB05DB0D2385EE
S1133C20EB8D013B9BB2EB85002B0CD1013323754B
S1133C300133A37507E0517809020B430232AA62EB
S1133C40EBE701232375B30706D50223237500226E
S1133C503133EA54FB071AD4730765D5AB8D9BB295
S1133C60002B5FD0638BDBB21A0714D43F221340BE
S1133C70002B34D09A0711D51A223223EA54303B50
S1133C8063837B0750D528006B6998474CE0280074
S1133C90EB689847E0E737221340E9E75A0705D570
S1133CA01E223223EA542E3B6383EAE7DA0705D562
S1133CB013223223EA54313B6383E2E7DA0605D563
S1133CC042223223EA54223B6383DAE720221A4257
S1133CD0D7D021323223EA54123B6383D1E7238DB8
S1133CE0DB05DB0DDAB2696A0A706A6A511C696223
S1133CF06979012910D0AB8D013B9BB2AB85002BB8
S1133D0012D10433237500222E33EA54BB070BD59A
S1133D1028002B69984707E01B0A53706B6A01332C
S1133D206B62E8E704232375F30604D51023237597
S1133D302376FB060ED4B30604D5202323752376FD
S1133D403B070BD4330704D5082323752376BB061E
S1133D5008D4F8BD2800EB699847ECE72800AB6964
S1133D609847EFE72B6A28009847F2E71C0B0020DE
S1133D7010B5082803D880001C4B1B589F46002010
S1133D8032E01B4B18692FE01A4B1B6A9B059B0FF3
S1133D901948D84028E0164B586925E0144B1B6895
S1133DA000209B0720D513491022CB681A42FCD06F
S1133DB00F4B1A6824231340042B01D00F4813E03F
S1133DC000200F4B98470A4B9B681B041B0C58435D
S1133DD00AE05023074AD35C00205B0704D5044B58
S1133DE0D86801E08020000210BDC046CCDE00008F
S1133DF0740100200008004000127A00006CDC020C
S1133E00D944000070B50C490B6A04788578407871
S1133E100122104080014026B34303432A40D201CB
S1133E2080208343134303222240120203480340A9
S1133E3013430B6270BDC04600080040FFFCFFFF47
S1133E40F0B5CE46474680B5194B99469B694178F3
S1133E508C4605780679C778447980780121084032
S1133E60800004229343034360460840C0000432A8
S1133E70934303433800084080014027BB43034376
S1133E8030000840C0018026B343034307200540A7
S1133E902D02084803402B432140090306480340F0
S1133EA00B434A4693610CBC90469946F0BDC0460C
S1133EB000080040FFF8FFFFFFEFFFFFF0B5DE460C
S1133EC057464E464546E0B50100264B9B469B8A25
S1133ED0457800784242424191468878CA789446AF
S1133EE00A7990464E7B0F7B8C7B8A681E494A6117
S1133EF001214A4692009146042293434A461343C1
S1133F0042460A40D2009046082293434246134355
S1133F1062460A40120194461022934362461343B8
S1133F20084040012022934303430F40BF01402037
S1133F3083433B430E40F601403083433343793897
S1133F4005402D02094803402B432140090308483A
S1133F5003400B435A4693823CBC90469946A24682
S1133F60AB46F0BD0008004074010020FFF8FFFFDD
S1133F70FFEFFFFF10B5037A9B061B0C42899205E5
S1133F80920D134318494B608379C27913434288D5
S1133F908488224313434278D20113430B6003788D
S1133FA0042B11D0202B0ED1037B9B06028A1343D2
S1133FB0C28912040D490A4013430B4A93601168E5
S1133FC00B4B0B43136010BD037B9B06028A134308
S1133FD0C289120405490A401343034A93601368D3
S1133FE004210B431360EEE7740100200000FF037B
S1133FF024040000082803D88000254B1B589F4642
S1134000172044E0234A136A02210B431362002061
S11340103DE0204A936902210B439361002036E07E
S11340201C4A138A02210B43138200202FE0194AF1
S1134030938A02210B439382002028E016490B68DF
S1134040022213430B60134B9A8419000E32CB687F
S11340501A42FCD0104A91680E4BD96252689A6297
S113406000229A8419001032CB681A42FCD00A4B01
S11340701B689BB2074A9384002008E00549442248
S11340808B5C022003438B54002000E00020704727
S1134090F0DE00000008004074010020F0B5DE46A8
S11340A057464E464546E0B591B0C222D200654B14
S11340B09A60654A53681E218B431A390B43536037
S11340C0032201AB1A700024604DE0B201A9A84795
S11340D00134252CF9D10CA800230370802212028C
S11340E08260C370012202710373837306214170DD
S11340F082704373564B98470520564B9847514955
S11341000222CB681A42FCD04E498B8A8022134388
S11341108B82514C2368DB048A695B0E1B044F4875
S1134120024013438B610AA8012343708370037117
S11341300722027000254571C370494B984704203B
S1134140444B984705AB00225D809D809A71DA71DB
S11341503F2159813B3919705A7023689B0E3F2BBC
S11341606DD005A803723F4B038203239946037362
S11341701F23C3813C4B984704A800254570057054
S113418085703A4B98470620324B9A469847384BED
S1134190984701AC657025726572052323701B3343
S11341A09846636021000120324FB8470120324E07
S11341B0B0476570657204232370434663601F3BF8
S11341C09B46237221000220B8470220B047657045
S11341D0257265724B4623704346636021000420B8
S11341E0B8470420B0475B46237021000020174BDA
S11341F098470020214B98470720D0471149D022E7
S1134200CB681340D02BFBD11D4A00231372537289
S11342109372D37201A901224A604B700B724B72E4
S113422007330B700020134B98470020124B98471C
S113423011B03CBC90469946A246AB46F0BD203B2B
S11342408FE7C0460008004000400041BD44000024
S1134250BD3E0000F53F000024608000FFFF80FFAA
S1134260413E00001BB7FFFF753F0000053E000004
S113427085420000A942000061430000314400006F
S113428000040040064A936908210B43936101220C
S1134290044B1A7019000B781342FCD17047C046C6
S11342A000040040000C004070B5060004000D78C6
S11342B02D0205434B78002B02D08023DB021D43E3
S11342C04B7A002B02D080231B031D43486801282E
S11342D010D9431E184234D1022830D902230022B7
S11342E001325B009842FBD812023243140080234F
S11342F05B031D430B7A002B02D080239B031D43D9
S1134300134A53785BB2002BFBDB124B9847124BDA
S11343101E700F4A53785BB2002BFBDB0C4B9C6086
S11343201A0053785BB2002BFBDB094A53688021E7
S113433049020B401D435560084B984770BD00224D
S1134340D2E70402344380239B021D43D2E7C046D4
S1134350000C0040712B0000080C0040B12B000041
S113436010B504000B4A53785BB2002BFBDB0A4BFD
S113437098470A4B1C70074A53785BB2002BFBDB4F
S1134380044A516880235B020B435360044B9847F3
S113439010BDC046000C0040712B0000040C00400E
S11343A0B12B000070B504001A4A53785BB2002B9D
S11343B0FBDB194B9847194B1C70164A53785BB2B8
S11343C0002BFBDB134E7068C004C00E144B9847DF
S11343D00500124B1C707668F602F60F114B1C7028
S11343E00C4A53785BB2002BFBDB0A4B9C6824021B
S11343F0240C0D4B9847002E07D1012C07D921001E
S113440028000A4B9847050001E00134E5402800E4
S113441070BDC046000C0040712B0000040C00402D
S1134420713D0000080C0040B12B00005DBB000092
S113443010B50400064B9847064B1C70064A538877
S11344408021C9010B435380044B984710BDC046DB
S1134450712B0000020C0040000C0040B12B000046
S113446010B504000F4B98470F4B1C700F4A53882C
S11344701B05180F53880E490B40538053880D4970
S11344800B40538011008022D2014B881342FCD18F
S113449006494A8803020648024013434B80064BF0
S11344A0984710BD712B0000020C0040000C004026
S11344B0FFF0FFFFFFBFFFFFB12B000010B50C782A
S11344C024020443024B9847A4B2024B5C8010BD03
S11344D061440000000C004010B50400064B9847EE
S11344E0064B1C70064B5C882405240F054B98472B
S11344F02000054B984710BD712B0000020C0040B2
S1134500000C0040B12B0000A543000030B5D37867
S1134510002B35D11378802B29D01B06802464020C
S1134520234354780225AC4306D19478002C20D13F
S11345308024A402234341605478013C012C1CD9FB
S11345400D042D0CA024E4052C431C4384620D0CA3
S1134550D02424062C431C438462D478002C22D11A
S11345605B031CD59378012B1ED0416117E0002317
S1134570D7E7C024E4022343DDE70D4C2340DFE703
S113458041600C04240CA023DB05234383620C0C40
S1134590D0231B0623438362D378002B03D15378A3
S11345A0013B012B02D930BD8161F8E78160FAE754
S11345B0FFFFFBFF10B50A00C1090023002904D145
S11345C04309DB0105498C4663441F242040012133
S11345D081401800024B984710BDC046004400417A
S11345E00D4500007047000010B5054B9847054B7A
S11345F09847054B9847054B9847054B984710BD7E
S11346009D400000E12B0000E54500008D2D0000D9
S1134610E5450000931C9B001950022A09D0032A87
S11346200CD0012393401A00037E13430376002029
S11346307047037E102213430376F8E7037E20229B
S113464013430376F3E7000070B58000164BC4589B
S113465023689D7B227E637E13401D40EB0706D4B6
S1134660AB070BD4EB0610D4AB0615D470BD2000F9
S1134670A3689847012322689373F1E72000E36855
S11346809847022322689373ECE720002369984734
S1134690102322689373E7E720006369984723682F
S11346A020229A73E2E7C046340B002010B50020A4
S11346B0014B984710BDC0464946000010B5012083
S11346C0014B984710BDC0464946000010B5022072
S11346D0014B984710BDC0464946000030B585B02F
S11346E001AA0B4B32CB32C2019B98420DD0029BE4
S11346F0984208D00023039A824202D0180005B0E1
S113470030BD023302E0012300E00023DBB2F5E711
S113471014DF0000F0B587B004000D001600080097
S1134720854B9847070005AB1B221A7001325A705B
S11347309A7003AB802212011A80802252015A809F
S1134740802292019A800023A360E3602361636165
S1134750237663768200794BD4502560B378082B96
S113476006D023712B880520DB0705D507B0F0BDE3
S11347701720FA07FAD5F4E7EB7B1730DB06F5D4FC
S11347802B889B07F2D4337C002B79D1337F002B09
S113479000D081E06A49086A7A0003ABD35A034324
S11347A00B62B378082B00D186E001A933780B7033
S11347B005ABDF5D3800634B98473800624B984780
S11347C03189B3880B43B178B279114319437378B3
S11347D0002B02D080231B0119432268D37B5BB2D8
S11347E0002BFBDB2980717B4B1E99418900B37B35
S11347F0002B01D0012319432268D37B5BB2002B29
S1134800FBDBFF232B71002905D02268D37B5BB22D
S1134810002BFBDB6971B17AF37A002B01D01023F2
S11348201943337B002B01D0202319432268D37B07
S11348305BB2002BFBDBA9712268D37B5BB2002B3C
S1134840FBDB2379042B3FD0082B5ED01720002BF1
S113485000D08BE7D37B5BB2002BFBDB338D2B8249
S11348602268D37B5BB2002BFBDB738D2B83226826
S1134870D37B5BB2002BFBDBB38D6B83002075E72E
S113488002A901238B700022CA70327E0A704B7019
S1134890307D2E4B984779E702A901238B700022C3
S11348A0CA702432B21812780A704B701F33F3188E
S11348B01878264B98476DE7086A7A1C520003ABB8
S11348C0D35A03430B6270E7D37B5BB2002BFBDB51
S11348D02823F35C2B742268D37B5BB2002BFBDBB5
S11348E02923F35C2B752268D37B5BB2002BFBDBA3
S11348F02A23F35C2B762268D37B5BB2002BFBDB91
S11349002B23F35C6B76002030E7D37B5BB2002B68
S1134910FBDBB36A2B612268D37B5BB2002BFBDB2E
S1134920F36AAB612268D37B5BB2002BFBDB336B96
S1134930EB6100201AE7C046DD460000340B00207E
S113494000040040BD44000031440000B5450000AF
S11349500268D37B5BB2002BFBDB0379042B05D00D
S1134960082B09D00020002B03D07047107CC0B264
S1134970FBE7108A80B2F8E71069F6E710B504681F
S1134980E37B5BB2002BFBDB0379042B05D0082B04
S113499014D01720002B08D010BD17200129FBD8F4
S11349A0D2B261180A760020F6E717200129F3D85D
S11349B092B20C3149000A530020EDE71720012977
S11349C0EAD8063189000A510020E5E7FEE7000035
S11349D0F8B52A4A2A4B9A4211D01A00294B9A4216
S11349E00DD2294A03339B1A9B0801339B000022F2
S11349F0234822498C58845004329A42FAD1234ADB
S1134A00234B9A420AD2D34321495B1803218B4397
S1134A1004339B18002102C29342FCD11D4AFF219A
S1134A201D4B8B439360FD3990235B001B4AD1508F
S1134A301B4AD3780325AB4302242343D370D37892
S1134A400C27BB4308263343D370164B987B302284
S1134A509043202210439873997BB943314399734F
S1134A609A7BAA4322439A730F4A536880210B43CB
S1134A7053600E4B98470E4B9847FEE760E00000EA
S1134A80000000201C010020040000202001002060
S1134A90A037002000ED00E000000000007000419D
S1134AA00050004100480041004000419DBE00000C
S1134AB0CD740000F0B5C64600B50C009046002841
S1134AC00FD1002A11DD8F18094E0A4D30682100DC
S1134AD02B6898470134BC42F8D1404604BC904648
S1134AE0F0BD01235B429846F7E78046F5E7C046F0
S1134AF0480B0020400B0020F0B5C64600B50E0060
S1134B0015000138022810D8002A11D000240C4BBB
S1134B1098460C4F43461868315D3B689847002817
S1134B2008DB0134A542F5D106E00124644203E028
S1134B30140001E001246442200004BC9046F0BD4E
S1134B40480B0020440B00200300064A1268002A88
S1134B5004D0044A1068C318136070470249014A1C
S1134B601160F6E78C010020A0570020012040428C
S1134B70704780239B014B600020704701207047E1
S1134B800020704770B582B005000E0000226B460D
S1134B90DA80064C6B46991D2800A0470028F9D1FD
S1134BA06B4606331B88337002B070BD153A0000A3
S1134BB070B505008CB2034E21002800B0470028D0
S1134BC0FAD170BDE939000010B582B06B46DC1D26
S1134BD0012221000F48104B984772B6BFF35F8F34
S1134BE000220E4B1A700E4B1B7821780D4AD154BB
S1134BF09B2B0AD001330A4A13700122074B1A7007
S1134C00BFF35F8F62B602B010BD0022044B1A706E
S1134C10F3E7C04690010020453B00000A00002055
S1134C2061020020C4010020F0B591B08023DB05AF
S1134C30009300230193FF2269460A8100228B72AC
S1134C40CB72012424216846445401314454013177
S1134C504354013143540A930531435401314354BD
S1134C6005930382C3760276027742761323837612
S1134C70427780235B0303932F4B0C932F4B0D93AD
S1134C8001235B420E930F93E1235B0208932C4DA7
S1134C902C4B1D602C4A2D4B1A602D4A2D4B1A604B
S1134CA06A462D4928002D4B98472D4F3B6898683C
S1134CB000212C4EB0473B6858680021B0472E684D
S1134CC03000294B98471F2318408440274B1C6011
S1134CD02A68D369002BFCD1336802221343336062
S1134CE0174B1B68DA69002AFCD1596880225202EA
S1134CF00A435A600121124AD171DA69002AFCD1AF
S1134D00DA69002AFCD15968802292020A435A6067
S1134D1001210B4A9171DA69002AFCD1144900205F
S1134D20144B984704220C4B9A75FD32FF320F4BFB
S1134D301A6011B0F0BDC046030004000300050072
S1134D4090010020480B0020B14B0000440B0020D0
S1134D50854B0000400B002000080042A5360000EF
S1134D60B8000020CDC000005D32000000E100E08A
S1134D70C94B000021320000F0B583B00600019158
S1134D806B469D88054C064F2A0031002000B84729
S1134D900028F9D1019803B0F0BDC046900100206D
S1134DA0853A000070B502001F4B1C781F4B1B781E
S1134DB09C421ED3E31A1E4803701D4B187800282A
S1134DC030D09B281BD9194B1C709C20184B187091
S1134DD0081C9C2901D9174B1878C0B2002821D08F
S1134DE0124B1B78441EE4B201341419124D0026F0
S1134DF00EE020006438C31A0D480370DDE7031C7D
S1134E00884200D90B1CD8B2E8E73300944207D09B
S1134E10E95C117001329B2BF7D00133DBB2F5E76B
S1134E20024A137070BDC046610200206002002077
S1134E306202002020DF0000C401002000B583B01E
S1134E406B46D871073301211800024B984703B011
S1134E5000BDC046794D000010B50278084B1A70A9
S1134E6042785A700A78074C22704A78627018881F
S1134E70054B98472088054B9847012010BDC04634
S1134E80500B0020680B0020795700005957000090
S1134E9010B5002809D10B781A2B07D8044A1370CF
S1134EA01800044B9847012000E0002010BDC046C4
S1134EB06A0B00203557000030B583B06C46009073
S1134EC00191104B9847104D2B0006CC06C30F4B95
S1134ED09847040001200E4B98470E4B1C700B2280
S1134EE00D4B1A7068680D4B98470D4B00221A70D1
S1134EF07F215A547F315A547E21FF315A54012064
S1134F0003B030BDD5560000580B00208556000074
S1134F10215700004C0B00206A0B00202958000088
S1134F206C0B0020F0B5DE4657464E464546E0B5CC
S1134F30A5B001900E000291111C1400240A0392E2
S1134F4000932EAA15782FAA13789B46C7B2B806E9
S1134F50C30F9946C9B2E2B27B0700D501210323EE
S1134F603B40012B3BD05C425C41E0B2824601AC49
S1134F7064897B480088A04234D0002407208446FA
S1134F808846614608314046002800D00639002A88
S1134F9037D00231C9B28C4624213940202934D07B
S1134FA0032B36D004A9AC4463460B7053464B70B4
S1134FB001A94B465B019C4608782023984363462D
S1134FC0184308708446C1438B072AD04346002BFC
S1134FD049D0002A2FD0882004A988702EE003200D
S1134FE08246C4E75F48844207D0402450462043A9
S1134FF082463F3C05208446C2E7002407208446BD
S1135000BEE70831C9B28C46C6E75046084382461B
S1135010C6E701220023994600249A4607339C469A
S1135020C0E704A9802088704F4E3078431C337049
S1135030C87004212EE0C82004A988704A49087861
S1135040431C0B7004A9C87001A8837A0B71C07A41
S1135050487163465B0718D404A930788871707866
S1135060C871082116E0002A5CD004A98C2088703D
S11350703D4B1878471C1F70C87001AB987A0871B3
S1135080D87A487163465B0760D504A9FF2088710C
S1135090C8710821002C09D1481CC0B204AC304EA0
S11350A0337863540231C9B276782654002A2AD060
S11350B004A82E4C227842548A1CD2B20131C9B2BF
S11350C064784454002D0AD000995519EDB204AE09
S11350D0501C0C78B4540131C2B29542F8D1244A20
S11350E0009B1360234B309A1A60234B5A461A7064
S11350F004A8224B9847012025B03CBC9046994611
S1135100A246AB46F0BD1E4A50680B000833DBB222
S113511004AE4A1CD2B204787454013011009A428D
S1135120F7D1CFE704A9CC2088700F4B98461878A4
S1135130431C994643464F461F70C87001A8837AA2
S11351400B71C07A487163465B079ED4002004ABA0
S11351501918335C8B7101300828F8D10E2199E7B6
S1135160680B0020FFFF00004C0B0020500B0020B8
S11351706C020020640200206802002039560000FE
S1135180580B0020044B1B78032B04D8DA01D31AE4
S11351900021024A995470470B0000206C0B002038
S11351A070B5FF22CD4B1A70CD4B1B78002B00D06D
S11351B0BDE17F33CA4AD35C002B0BD1FE33D35CF1
S11351C0002B2ED17E23FF33D35C00200322002B3F
S11351D001D170BD0122C14B1A700020032AF8D8F6
S11351E01000D101891ABE4B5B185D78402425401C
S11351F0BC4900240C70CC739B7833218B43D9B207
S1135200882900D1C4E00ED9D9B2C82946D0CC2906
S113521000D18AE08C2900D104E1B34B98470020E7
S1135220D7E70222D7E7082B00D131E18029F4D156
S1135230AC4B19780424214380246442214319701F
S11352400121D973A64CD101881A21180D791D7436
S113525049795974D1018A1A911D09195960015D5E
S11352600B391973083212199A609C4B1B78D901B7
S1135270C91A9B4A521851780A0700D529E1072216
S11352800A40012A00D131E1002A00D149E1032A70
S113529000D13EE1944B984700209AE7D101891A46
S11352A08F4B5B189B79FF2B1CD08E490C78802385
S11352B05B4223430B70002D21D0894CC301181A83
S11352C023181D790D745B794B74D3019A1A13005A
S11352D008331B194B60035D133B0B731032121917
S11352E08A60C2E7D101891A7D4B5B18DB79FF2BF9
S11352F0DBD17C490B78042423430B70D5E779492F
S1135300774CC301181A23181D7A0D745B7A4B74F9
S1135310D3019A1A13000A331B194B60035D153B22
S11353200B73123212198A609FE76E490C7880233E
S11353305B4223430B70002D14D0694CD301981A9F
S113534023181D790D745B794B74D3019A1A1300D9
S11353500E331B194B60035D193B0B731632121984
S11353608A6082E75F495E4CD301981A23189D7BBB
S11353700D74DB7B4B74D3019A1A130010331B1981
S11353804B60035D1B3B0B73183212198A606CE788
S1135390D101891A524B5B189B79FF2B1FD0514BBB
S11353A01C7880214942214319700121D973002DB1
S11353B022D119004A4CC301181A23181D7A0D74FE
S11353C05B7A4B74D3019A1A13000A331B194B608E
S11353D0035D0F3B0B730C3212198A6045E7D10150
S11353E0891A3F4B5B18DB79FF2BD8D13D490B78E9
S11353F0042423430B70D2E73A49394CC301181AE9
S113540023181D790D745B794B74D3019A1A130018
S113541008331B194B60035D0D3B0B730A321219E1
S11354208A6022E72F4B1C7880214942214319705E
S11354300121D973002D15D01900294CD301981AD4
S113544023181D790D745B794B74D3019A1A1300D8
S11354500E331B194B60035D133B0B73103212198F
S11354608A6002E71F491E4CD301981A23185D7BFA
S11354700D749B7B4B74D3019A1A13000F331B19C1
S11354804B60035D153B0B73123212198A60ECE614
S1135490D101891A124B5B189B79FF2B0CD011494F
S11354A00F4CC301181A035D0A3B0B73D3019A1AFC
S11354B0083212198A60D8E6D101891A084B5B18A0
S11354C0DB79FF2BEBD107490B78042423430B70C2
S11354D0E5E7054B984700207BE6C0460B0000201B
S11354E06C0B0020283700208551000012490A78EF
S11354F0032082430A70114AD901CB1A985C0E49E1
S1135500D3181A18013A12788A731B5C4B73012062
S11355105FE609490A7803208243012002430A70A6
S1135520E9E705490A78032002430A70E3E7002209
S1135530034B1A7054E6C046283700206C0B002039
S11355400B00002010B50023012801D0180010BD65
S1135550014B98470300F9E7C95700000001704761
S11355600048704700F8FF07024B18700122024BF5
S11355701A707047600B00206302002010B50B4BBB
S113558098470B4B1B68002B03D00A4A1278002A59
S113559000D110BD084A1268084909780848007803
S11355A098470022034B1A70F3E7C046495800009D
S11355B064020020630200206C020020600B0020C3
S11355C068020020F8B504000B4F0C4E1F25032180
S11355D00220B8470120B04728400828F7D1064FD9
S11355E0064E1F2521000220B8470120B04728405D
S11355F08442F7D1F8BDC046E1660000E5650000CD
S113560010B50820084B98470F20084B9847084BC3
S11356101B78002B00D110BD1620034B98470122A4
S1135620044B1A70F7E7C046C5550000E565000055
S1135630F0020020F102002010B5040019200C4BE8
S113564098470F200B4B984721788B1C237001310E
S1135650C9B22000084B98470322084B1A70084B24
S1135660802252039A61C046C0465A6110BDC046AA
S1135670C5550000E565000011690000F102002035
S113568000440041F0B5C64600B506200D4B9847CE
S1135690002400250C4F0D4E032398460120B847E3
S11356A00620B047400943461840A0400543ADB228
S11356B00234102CF2D1064B9847280004BC9046C3
S11356C0F0BDC046C555000055010000E565000069
S11356D00156000070B50D4B98470D4B98470022BA
S11356E00C4B1A700C4E0D4D1F2408210220B0479C
S11356F00120A84720400828F7D12E210438064C61
S1135700A047A0210C20A04770BDC04699640000AA
S1135710B5650000F0020020E1660000E5650000C8
S113572010B5024B1870024B984710BDF0020020D0
S11357300156000010B504000820054B98471F23AC
S1135740010099432143C9B20820024B984710BD78
S1135750E5650000E166000030B583B06B469D1D31
S1135760D880C1B22220034CA04769782320A047E7
S113577003B030BDE166000070B582B06B469E1D7B
S1135780D880C4B221002020054DA8477678310086
S11357902120A847A419E1B22D20A84702B070BD6A
S11357A0E166000010B50820044B9847802252039C
S11357B0034B9A610222034B1A7010BDC5550000B9
S11357C000440041F102002070B50920124DA847A1
S11357D00F20124CA0471520A04706008021494203
S11357E00143C9B215200E4CA0470620A847FF214B
S11357F00720A047094D10240F20A8470442FBD0DE
S11358000720064B98470400064B984731001520A3
S1135810034B9847200070BDC5550000E5650000A6
S1135820E16600000156000070B505002424054E11
S113583029782000B04701350134E4B22C2CF7D18B
S113584070BDC046E166000070B582B0364B1B786F
S1135850022B0AD00F20354B9847030705D5324B4E
S11358601B78012B03D0032B45D002B070BD304B05
S11358701C78002C10D07F232D4AD35C002B0AD037
S1135880FE23D35C002B24D07E23FF33D35C03247C
S1135890002BEAD100E001246B46DD1D0121280024
S11358A0244EB04729780231C9B22348B0472100B9
S11358B02878831CDBB2E201141B1D4AA3547D2B00
S11358C009D91A4D1F240120A84720401628FAD1CF
S11358D0CBE70224E0E7023001220123CC01611A64
S11358E0134C6418144DA95CA1540133DBB21A00A3
S11358F08342F8DDE5E702200C4B98474009C4B227
S1135900002C04D0032C0BD0052C0BD001240B4B02
S113591098470122044B1A702000094B9847A4E7CA
S11359200224F4E70324F2E7F1020020E565000015
S11359306C0B0020E167000070020020015600009B
S11359406955000010B5014B984710BD6D62000009
S1135950F0B5DE4657464E464546E0B58BB003905B
S11359600D001400049314AB1E7815AB1F7816AB0E
S11359701B789A46774B1B78002B07D00222764B74
S11359801A70764B98470022724B1A70072F17D85B
S1135990BB00734AD3589F46002398460827BBE0B0
S11359A0012398460027B7E0012398460427B3E073
S11359B0012398460827AFE0012398461027ABE05F
S11359C007239F4300D0B5E0B846A5E0654B984750
S11359D0B5E0654B1B78002B1AD0002C0DD00022AB
S11359E000212000614B9847102221006048614B40
S11359F0984700225C4B1A701EE0574B1B78012B12
S1135A0003D05D4B984702209CE0564B9847F8E73B
S1135A10002C11D00F2256491800AC46535CA55CEB
S1135A206B400343581E8341D8B2013AF6D265460F
S1135A304D4A10700028D2D1002F29D101232B7098
S1135A40049B002B03D02B78402213432B702B781C
S1135A5099460023AB735346002B2AD1002F03D061
S1135A60EE734346012B1AD001232B70039B049A37
S1135A7094466344180033003A0029003F4CA04781
S1135A80354B1B78012B3DD03B4B9847002059E008
S1135A90059B023B9B00012213432B70D0E7049B20
S1135AA0991903988446614400962A00344CA0470F
S1135AB0DAE74346012B0DD0002FE1D0EE73039BB0
S1135AC05B4418003A0006A92E4B98470028D7D00B
S1135AD0032037E02B70039B049A94466344180018
S1135AE033003A002900254CA047002FC8D04B466C
S1135AF02B70EE730096049B2A0006A90398204C91
S1135B00A047DCE7174B9847BEE7002398460427D5
S1135B1002E0002398461027039B002B0AD0002D97
S1135B2008D0049B9B46B34405975B46DB197F2B47
S1135B3000DC4EE7084B1B78012B00D146E70E4BE7
S1135B40984701200BB03CBC90469946A246AB4610
S1135B50F0BDC0460503002004030020716200006C
S1135B6024DF0000A55700006C0000203163000012
S1135B70F402002003BF0000C1620000795C000051
S1135B80ED5B0000E5BE0000F0B585B004000E003A
S1135B900F290FD90D00103DEDB22D0901352D014E
S1135BA045190F4F00212000B8471034AC42F9D1F9
S1135BB00F231E40002E01D105B0F0BD320021009C
S1135BC06846084B98471022921B30006844002115
S1135BD0054B984700216846014B9847ECE7C046BF
S1135BE0C562000003BF000015BF0000F0B587B018
S1135BF00500009101921C000CAB1E7800220021CC
S1135C000020184FB84700210198174B98470022ED
S1135C1002210020B847002C08D128193100134B69
S1135C2098470098124B984707B0F0BD271C0E2CDC
S1135C3000D90E27FFB2002302AA13701300547078
S1135C403A002900981C0B4B9847B91CC9B202A80A
S1135C50064B9847BC42E0D9E11BC9B2E819034B93
S1135C609847DAE731630000C5620000895B0000F1
S1135C706964000003BF0000F0B5D6464F464646AF
S1135C80C0B584B004000F0016001D0000220021DE
S1135C900020314B98470123FB73002D06D10123CB
S1135CA09A462E4B99462E4B98462EE000213800FA
S1135CB02B4B9847F3E76846C8472FE05346013318
S1135CC0DBB29A46FB7369463800254B98472B1C78
S1135CD0102D00D91023DBB2581EC0B2002B05D101
S1135CE011E0DBB2581EC0B2002B1CD001300023DF
