S0170000415050535F57534E5F44454D4F5F432E737265635C
S113000020260020351600003116000031160000AD
S113001000000000000000000000000000000000DC
S11300200000000000000000000000003116000085
S1130030000000000000000031160000311600002E
S11300403116000031160000311600003116000090
S1130050C502000031160000311600003116000000
S113006031160000A5070000B5070000C507000011
S1130070D5070000E5070000F50700003116000071
S113008031160000311600000116000011160000A0
S113009021160000000000000000000031160000DE
S11300A031160000000000003116000000000000BE
S11300B00000000010B5064C2378002B07D1054B37
S11300C0002B02D0044800E000BF0123237010BDC0
S11300D07000002000000000582D0000084B10B5EF
S11300E0002B03D00749084800E000BF0748036815
S11300F0002B00D110BD064B002BFBD09847F9E72D
S11301000000000074000020582D0000582D00004D
S11301100000000070B50020084B98470500084C0B
S1130120FA218900A047074B186007492800A04717
S1130130064B18600522064B1A6070BD2D13000093
S1130140891A00000000002040420F000400002033
S113015010E000E030B5084B1C68084A00258021F7
S11301604902013807D3002CFBD054609560136812
S11301700B42FCD0F5E730BD0000002010E000E0A9
S11301800C4B1B68002B06D1EFF31083002B07D018
S11301900022094B1A70074A136801331360704731
S11301A072B6BFF35F8F0022044B1A700132024B08
S11301B01A70F0E78C000020900000200800002056
S11301C0084B1A68013A1A601B68002B09D1064BC8
S11301D01B78002B05D00122044B1A70BFF35F8FEC
S11301E062B670478C0000209000002008000020B8
S11301F0F0B5C64600B582B001AC01266670002792
S1130200A770267021001320274DA847274B984636
S113021080231B03424693612770667021001C20D3
S1130220A8476670A770267021005220A8472100B5
S11302303E20A84721003F20A84721002F20A8479F
S113024021001420A8478022D202194B9A61194B2D
S11302508022D2059A61802212069A6180221202BB
S11302609A6180235B0342469361277021005320E7
S1130270A847114A116A80239B030B43136204228B
S11302800E4B1A806B469E70DF7005236A4613700E
S11302905670694609200A4CA04769460C20A047BD
S11302A002B004BC9046F0BD9D0300000044004130
S11302B000450041804400410004004000540042D5
S11302C03D15000070B50022104B1A700023104930
S11302D01F25104E0D4C0AE00D4908E02378013328
S11302E0DBB223700F2B10D800211F2BF4D9280068
S11302F018400122824008691042EFD00A619B0035
S11303009B59002BEAD09847E8E770BDA80100206C
S113031000180040AC010020044A137802210B436A
S1130320137053785BB2002BFBDB7047001800405E
S113033000B583B0124A936940210B43936101A92C
S113034000230B7005200F4B984705200E4B984750
S11303500E4A137801210B43137053785BB2002BC0
S1130360FBDB0B4B19004031002204C39942FCD142
S11303701022084B1A60084B984703B000BDC046D2
S11303800004004045140000B913000000180040A8
S1130390AC01002000E100E01903000000B583B0C7
S11303A001AB80221A700A785A704A789A708A7857
S11303B0DA701900014B984703B000BD3D150000E9
S11303C0F0B5DE4657464E464546E0B587B0804612
S11303D0049116001F000022002300218B463F24B5
S11303E001202100009601975C460394444605943D
S11303F013E02024641A0500E540A84614E0009C9C
S1130400019D121BAB415C464D462C43A346039C05
S113041045462C430394013925D3202464420C1906
S1130420E7D40500A540A84604008C40A1469218D4
S11304305B4114001D00059E4F463E40B446049E99
S113044047463E40B246664657463E4303D0060002
S1130450264332002B00009C019D9D42DBD8CED167
S11304609442D8D8CBE7039B5846190007B03CBC4C
S113047090469946A246AB46F0BD10B549084023C4
S11304800024814202D2180010BD1C00091A631C0A
S11304909BB28842F9D94023FF2CF4D8148000235E
S11304A0F1E70000F0B583B00F00160008AA117838
S11304B004004C434022BC4202D9100003B0F0BDFA
S11304C0002B14D1020008000021194CA0470100A0
S11304D03A0000230020174CA04700220123121ADF
S11304E08B41120C1B041A4332800022E5E70022E0
S11304F0012BF9D10A00002300210D4CA047020072
S11305000B0000920193380000210A4CA04705001B
S113051080239B0140229842CFD8790FF800009A9B
S1130520019BA047EA00821AD2B252032A43DBE7B6
S1130530A11B0000C103000010B582B004000E4BE3
S11305401B78002B07D0002905D10B4B5B78834225
S113055010D01D200CE001A90C701320074B984704
S11305601320074B9847044B5C7001221A7000203B
S113057002B010BD0020FBE79400002045140000E9
S1130580B9130000404B984231D00AD93F4B9842EE
S11305904DD03F4B98425AD03E4B984237D0002022
S11305A070473D4B98420CD03C4B9842F7D10129FF
S11305B017D000295DD0022915D0032915D00020B9
S11305C0EEE7012907D0002951D0022905D00329DB
S11305D005D00020E4E73248E2E73248E0E7324859
S11305E0DEE73248DCE73248DAE73248D8E7012967
S11305F007D000293FD0022905D0032905D00020C7
S1130600CEE72D48CCE72D48CAE72D48C8E7012995
S113061007D0002931D0022905D0032905D00020B4
S1130620BEE72848BCE72848BAE72848B8E70129C4
S113063007D0002923D0022905D0032905D00020A2
S1130640AEE72348ACE72348AAE72348A8E70129F3
S113065007D0002915D0022905D0032905D0002090
S11306609EE71E489CE71E489AE71E4898E71E48E6
S113067096E7032094E71D4892E71D4890E71D483C
S11306808EE71D488CE7C046001000420018004267
S1130690001C00420014004200080042000C00420A
S11306A00300050003000600030007000300010027
S11306B003001E0003001F0002000D0002000E00D4
S11306C002000F00030011000300120003001300D6
S11306D005003F0005003E0005005200030017001E
S11306E003001800030019000300040002000C00BA
S11306F003001000050053000300160030B587B056
S11307000B4B6A4632CB32C232CB32C2009B83429D
S11307100BD001239A0069465258824206D0013315
S1130720062BF7D1002007B030BD0023D8B2FAE77A
S1130730302C000070470000F0B50A4B1B78002BEA
S11307400CD1094F094E0A4D0024DE515A19146088
S11307500433182BF9D10122024B1A708000024B8A
S1130760C150F0BD9600002098000020350700001D
S1130770EC01002000B583B009236A4613700133ED
S11307805370013393700133D37001331371013308
S11307905371034B98476B46185603B000BDC046CF
S11307A0FD06000010B5024B1B680020984710BDE1
S11307B09800002010B5024B5B680120984710BDDB
S11307C09800002010B5024B9B680220984710BD8A
S11307D09800002010B5024BDB680320984710BD39
S11307E09800002010B5024B1B690420984710BDE7
S11307F09800002010B5024B5B690520984710BD96
S113080098000020F0B5DE4657464E464546E0B512
S113081091B005000C00160029600800BC4B9847F5
S1130820020023680520DB0706D511B03CBC9046C6
S11308309946A246AB46F0BD236817309B07F4D413
S1130840B449086A971C0123BB4003430B620FA9F8
S11308502D27F35D0B701432D3B202931800AE4B04
S113086098470298AD4B9847F05D0021AC4B9847F0
S1130870F37A6B712423F35CAB712523F35CEB7186
S1130880F37E2B72337F6B722B6898461800A04B53
S11308909847143000220E2306A98C4663441A801C
S11308A0328A02928023DB019A4200D19EE00FD962
S11308B0C023DB01029A9A4200D192E080231B02FA
S11308C09A4200D01FE1032306930023079308E014
S11308D080239B019A4200D015E1102306930F3B1D
S11308E0079333680593F368039373690493337E22
S11308F09B462623F35C9A4673689946002B00D1E5
S1130900A0E080235B05994500D184E0737E002B31
S113091002D0B37E424693732A68029FD369002BA8
S1130920FCD10E3306AA944663441B884246938145
S1130930059B039A1343049A13434A4613431F43E4
S11309405B461B021F4353465B071F432723F35C8D
S1130950002B01D104331F43737E9B02327F52026A
S11309601343727F120213432422B25C52041343D2
S11309702522B25C12041343B17AF27A114319436B
S11309803389FF2B00D181E080225204174319439D
S11309902C23F35C002B03D1624B9B789B0701D57E
S11309A080231F432A68D369002BFCD14346596036
S11309B02A68D369002BFCD143461F600EAB80220A
S11309C01A7000225A70DA709A70336B0A93736B40
S11309D00B93B36B0C93F36B02930D9300270AAE46
S11309E063E008230693073B07937AE7336805938C
S11309F0F368039373690493337E9B462623F35C65
S1130A009A4673689946002B18D080235B05994554
S1130A1001D0002025E02723F35C002B00D075E7EC
S1130A20336A1F00C0B2404B984701000E2206AB48
S1130A309C46624438003D4B984712E008230693D5
S1130A40002307932723F35C002B0ED0069B00930F
S1130A50079B0E2206A98C466244B16A306A344F61
S1130A60B847002800D0E0E650E7336A1F00C0B260
S1130A702D4B98470100069B0093079B0E2206A866
S1130A808446624438002A4FB847EAE7F37E002BD5
S1130A9000D17DE78023DB041F4379E72000254B49
S1130AA0984707E00137042F0DD0F9B2BB009859DD
S1130AB00028F3D0431CF5D00EA90870000CC0B276
S1130AC01D4B9847EEE70023EB602B616B61AB6134
S1130AD0EB612B62AB626B620022EB85AB8530333A
S1130AE0EA540133EA540133EA540133EA542868DE
S1130AF0074B984704001149114B9847A400114B28
S1130B00E550002091E61023069300230793E8E6BE
S1130B10FD0600000004004045140000B913000065
S1130B203905000000200041611400007B0400002E
S1130B30A5040000850500003D1500007D0C0000A3
S1130B4039070000EC010020C2791C23002A01D1DE
S1130B5018007047C28D92B2173B002AF8D103687F
S1130B60DA69002AFCD1198502211A7E0A42FCD0D6
S1130B700023EDE782791C23002A01D11800704775
S1130B80828D92B2173B002AF8D10268107E40078A
S1130B90F4D5D369002BFCD1538BDBB298061DD05E
S1130BA0980703D5022353831833E7E7580703D57F
S1130BB0042353831A33E1E7D80703D5012353836E
S1130BC01233DBE7D80603D5102353833233D5E73A
S1130BD09B0603D5202353832133CFE7138D0B804A
S1130BE00023CBE7F0B5D64600B584B004000191EC
S1130BF01720002A03D104B004BC9246F0BDA379A7
S1130C000530002BF7D02668013A93B29A460025A6
S1130C10042719E0002302AAD380911D2000154B5C
S1130C2098470028E7D1691C89B202ABDB88019A96
S1130C3053556279012A14D00D005346013B9BB2EF
S1130C409A460D4B9A45D6D0337E3B42E2D10A4BAD
S1130C50327E3A42DED1012B09D0013B002BF7D181
S1130C60D8E70235ADB21B0A019A5354E5E71220C6
S1130C70C1E7C046750B0000FFFF0000F8B5800017
S1130C80624BC5582C68E369002BFCD1237EA67DFA
S1130C901E403023EB5C3122AF5C1F40F30722D5AA
S1130CA0EB8D9BB2002B1CD0AA6A1378DBB2511CCB
S1130CB0A962697901290ED09BB2DB05DB0D23857E
S1130CC0EB8D013B9BB2EB85002B0CD101332375DB
S1130CD00133A37507E0517809020B430232AA627B
S1130CE0EBE701232375B30706D5022323750022FE
S1130CF03133EA54FB071AD4730765D5AB8D9BB225
S1130D00002B5FD0638BDBB21A0714D43F2213404D
S1130D10002B34D09A0711D51A223223EA54303BDF
S1130D2063837B0750D528006B6998474CE0280003
S1130D30EB689847E0E737221340E9E75A0705D5FF
S1130D401E223223EA542E3B6383EAE7DA0705D5F1
S1130D5013223223EA54313B6383E2E7DA0605D5F2
S1130D6042223223EA54223B6383DAE720221A42E6
S1130D70D7D021323223EA54123B6383D1E7238D47
S1130D80DB05DB0DDAB2696A0A706A6A511C6962B2
S1130D906979012910D0AB8D013B9BB2AB85002B47
S1130DA012D10433237500222E33EA54BB070BD52A
S1130DB028002B69984707E01B0A53706B6A0133BC
S1130DC06B62E8E704232375F30604D51023237527
S1130DD02376FB060ED4B30604D52023237523768D
S1130DE03B070BD4330704D5082323752376BB06AE
S1130DF008D4F8BD2800EB699847ECE72800AB69F4
S1130E009847EFE72B6A28009847F2E7EC010020A7
S1130E1010B5082803D880001C4B1B589F4600209F
S1130E2032E01B4B18692FE01A4B1B6A9B059B0F82
S1130E301948D84028E0164B586925E0144B1B6824
S1130E4000209B0720D513491022CB681A42FCD0FE
S1130E500F4B1A6824231340042B01D00F4813E0CE
S1130E6000200F4B98470A4B9B681B041B0C5843EC
S1130E700AE05023074AD35C00205B0704D5044BE7
S1130E80D86801E08020000210BDC046482C000054
S1130E90B00000200008004000127A00006CDC0260
S1130EA06114000070B50C490B6A047885784078A9
S1130EB00122104080014026B34303432A40D2015B
S1130EC08020834313430322224012020348034039
S1130ED013430B6270BDC04600080040FFFCFFFFD7
S1130EE0F0B5CE46474680B5194B99469B69417883
S1130EF08C4605780679C7784479807801210840C2
S1130F00800004229343034360460840C000043237
S1130F10934303433800084080014027BB43034305
S1130F2030000840C0018026B34303430720054036
S1130F302D02084803402B4321400903064803407F
S1130F400B434A4693610CBC90469946F0BDC0469B
S1130F5000080040FFF8FFFFFFEFFFFF10B5037A22
S1130F609B061B0C42899205920D134318494B6052
S1130F708379C27913434288848822431343427895
S1130F80D20113430B600378042B11D0202B0ED114
S1130F90037B9B06028A1343C28912040D490A404B
S1130FA013430B4A936011680B4B0B43136010BD42
S1130FB0037B9B06028A1343C289120405490A4033
S1130FC01343034A9360136804210B431360EEE751
S1130FD0B00000200000FF0324040000082803D808
S1130FE08000254B1B589F46172044E0234A136A70
S1130FF002210B43136200203DE0204A9369022141
S11310000B439361002036E01C4A138A02210B43F0
S1131010138200202FE0194A938A02210B43938202
S1131020002028E016490B68022213430B60134B7F
S11310309A8419000E32CB681A42FCD0104A916887
S11310400E4BD96252689A6200229A8419001032B7
S1131050CB681A42FCD00A4B1B689BB2074A9384A4
S1131060002008E0054944228B5C022003438B5492
S1131070002000E0002070476C2C000000080040B5
S1131080B0000020F0B5CE46474680B58DB0C222F0
S1131090D200504B9A60504A53681E218B431A3930
S11310A00B435360032201AB1A7000244B4DE0B292
S11310B001A9A8470134252CF9D1494D2B68DB043B
S11310C044498A695B0E1B044648024013438B6102
S11310D00AA801238370072202700024447144701B
S11310E00471C370404B98470420404B984705ABAC
S11310F000225C809C809A71DA713F2159813B39CE
S113110019705A702B689B0E3F2B60D005A8037290
S113111004230382033303733833C381344B984766
S113112004A80025457005708570324B9847062049
S11311302E4FB847304B984701AC01260296657094
S11311400623237025726572210001202B4B9946DA
S1131150984701202A4B9846984765706572042386
S1131160237020236360267221000220C8470220D6
S1131170C047267021000020184B98470020214BBF
S113118098470720B8471349D022CB681340D02B87
S1131190FBD1104A938C80210B4393841A4A002379
S11311A0137253729372D37201A901224A604B7075
S11311B00B724B7207330B700020104B98470020C2
S11311C00F4B98470DB00CBC90469946F0BD203BA0
S11311D09CE7C04600080040004000414514000060
S11311E024608000FFFF80FFE10E0000DD0F00009F
S11311F05D0F0000A50E00000D120000311200006A
S1131200E9120000B913000000040040064A936983
S113121008210B4393610122044B1A7019000B78C7
S11312201342FCD17047C04600040040000C00404B
S113123070B5060004000D782D0205434B78002B91
S113124002D08023DB021D434B7A002B02D0802383
S11312501B031D434868012810D9431E184234D18A
S1131260022830D90223002201325B009842FBD8C5
S113127012023243140080235B031D430B7A002BBC
S113128002D080239B031D43134A53785BB2002B87
S1131290FBDB124B9847124B1E700F4A53785BB21C
S11312A0002BFBDB0C4B9C601A0053785BB2002BC9
S11312B0FBDB094A5368802149020B401D435560FA
S11312C0084B984770BD0022D2E7040234438023C0
S11312D09B021D43D2E7C046000C00408101000080
S11312E0080C0040C101000010B504000B4A5378FB
S11312F05BB2002BFBDB0A4B98470A4B1C70074A76
S113130053785BB2002BFBDB044A516880235B02F9
S11313100B435360044B984710BDC046000C00407B
S113132081010000040C0040C101000070B50400FC
S11313301A4A53785BB2002BFBDB194B9847194BC5
S11313401C70164A53785BB2002BFBDB134E70689B
S1131350C004C00E144B98470500124B1C707668ED
S1131360F602F60F114B1C700C4A53785BB2002B3B
S1131370FBDB0A4B9C682402240C0D4B9847002E7F
S113138007D1012C07D9210028000A4B98470500F2
S113139001E00134E540280070BDC046000C004067
S11313A081010000040C0040110E0000080C0040F4
S11313B0C1010000891A000010B50400064B9847CB
S11313C0064B1C70064A53888021C9010B43538085
S11313D0044B984710BDC04681010000020C004038
S11313E0000C0040C101000010B504000F4B9847E9
S11313F00F4B1C700F4A53881B05180F53880E4956
S11314000B40538053880D490B40538011008022B8
S1131410D2014B881342FCD106494A88030206488C
S1131420024013434B80064B984710BD81010000D6
S1131430020C0040000C0040FFF0FFFFFFBFFFFF65
S1131440C101000010B50C7824020443024B9847F4
S1131450A4B2024B5C8010BDE9130000000C0040F4
S113146010B50400064B9847064B1C70064B5C886D
S11314702405240F054B98472000054B984710BDC1
S113148081010000020C0040000C0040C10100007A
S11314902D13000030B5D378002B35D11378802B71
S11314A029D01B0680246402234354780225AC43CC
S11314B006D19478002C20D18024A40223434160D7
S11314C05478013C012C1CD90D042D0CA024E405F6
S11314D02C431C4384620D0CD02424062C431C434F
S11314E08462D478002C22D15B031CD59378012B21
S11314F01ED0416117E00023D7E7C024E402234350
S1131500DDE70D4C2340DFE741600C04240CA023ED
S1131510DB05234383620C0CD0231B062343836225
S1131520D378002B03D15378013B012B02D930BD72
S11315308161F8E78160FAE7FFFFFBFF10B50A005D
S1131540C1090023002904D14309DB0105498C4664
S113155063441F242040012181401800024B984716
S113156010BDC046004400419514000070470000BF
S113157010B5054B9847054B9847054B9847054BC5
S11315809847054B984710BD85100000F1010000F5
S11315906D150000310300006D15000070B580006A
S11315A0164BC45823689D7B227E637E13401D40E6
S11315B0EB0706D4AB070BD4EB0610D4AB0615D45B
S11315C070BD2000A3689847012322689373F1E754
S11315D02000E3689847022322689373ECE7200015
S11315E023699847102322689373E7E7200063690F
S11315F09847236820229A73E2E7C0460402002039
S113160010B50020014B984710BDC0469D15000041
S113161010B50120014B984710BDC0469D15000030
S113162010B50220014B984710BDC0469D1500001F
S1131630FEE70000F8B52A4A2A4B9A4211D01A0054
S1131640294B9A420DD2294A03339B1A9B08013332
S11316509B000022234822498C58845004329A4229
S1131660FAD1234A234B9A420AD2D34321495B1825
S113167003218B4304339B18002102C29342FCD103
S11316801D4AFF211D4B8B439360FD3990235B0062
S11316901B4AD1501B4AD3780325AB43022423436E
S11316A0D370D3780C27BB4308263343D370164B2F
S11316B0987B30229043202210439873997BB9433E
S11316C0314399739A7BAA4322439A730F4A53680E
S11316D080210B4353600E4B98470E4B9847FEE70F
S11316E0582D00000000002070000020040000209D
S11316F0700000201C06002000ED00E00000000047
S11317000070004100500041004800410040004189
S1131710F51B00002D1A0000F0B5C64600B50C00FC
S1131720904600280FD1002A11DD8F18094E0A4D6A
S1131730306821002B6898470134BC42F8D14046F8
S113174004BC9046F0BD01235B429846F7E780460F
S1131750F5E7C0461802002010020020F0B5C64686
S113176000B50E0015000138022810D8002A11D047
S113177000240C4B98460C4F43461868315D3B6877
S11317809847002808DB0134A542F5D106E001247E
S1131790644203E0140001E001246442200004BC1C
S11317A09046F0BD18020020140200200300064AEF
S11317B01268002A04D0044A1068C31813607047E2
S11317C00249014A1160F6E7C800002020260020E3
S11317D001204042704780239B014B6000207047EA
S11317E0012070470020704770B582B005000E00DC
S11317F000226B46DA80064C6B46991D2800A047F0
S11318000028F9D16B4606331B88337002B070BDD3
S1131810750B000070B505008CB2034E2100280042
S1131820B0470028FAD170BD490B000010B582B052
S11318306B46DC1D012221000F48104B984772B6FD
S1131840BFF35F8F00220E4B1A700E4B1B7821786A
S11318500D4AD1549B2B0AD001330A4A137001223A
S1131860074B1A70BFF35F8F62B602B010BD00223F
S1131870044B1A70F3E7C046CC000020E50B0000CF
S1131880080000209C01002000010020F0B591B068
S11318908023DB05009300230193FF2269460A811C
S11318A000228B72CB7201242421684644540131F6
S11318B0445401314354013143540A930531435490
S11318C00131435405930382C3760276027742764C
S11318D013238376427780235B0303932F4B0C936C
S11318E02F4B0D9301235B420E930F93E1235B0275
S11318F008932C4D2C4B1D602C4A2D4B1A602D4AFD
S11319002D4B1A606A462D4928002D4B98472D4FC0
S11319103B68986800212C4EB0473B68586800210A
S1131920B0472E683000294B98471F231840844045
S1131930274B1C602A68D369002BFCD13368022230
S113194013433360174B1B68DA69002AFCD15968CA
S1131950802252020A435A600121124AD171DA6983
S1131960002AFCD1DA69002AFCD15968802292024B
S11319700A435A6001210B4A9171DA69002AFCD1A9
S113198014490020144B984704220C4B9A75FD32DD
S1131990FF320F4B1A6011B0F0BDC04603000400C3
S11319A003000500CC0000201802002015180000D8
S11319B014020020E9170000100200200008004271
S11319C0050800000C000020811C000075070000C1
S11319D000E100E02D18000039070000114B00223F
S11319E01A709A7000219A801A8159709972D9726A
S11319F019739973597319745A619A6119771A6230
S1131A005A621A859A8540329A71413A5A85064B30
S1131A101A68D37B5BB2002BFBDB138802210B43D8
S1131A2013807047C4050020FC05002070B50D4BE1
S1131A3098470D4B984701220C4B1A70BFF35F8FE8
S1131A4062B6802212050A4B9A600A4B98470A4BE9
S1131A5098470A4E0A4D0B4C3000A847FA208000E4
S1131A60A047F9E7711500001501000008000020E7
S1131A7000440041DD1900008D180000902C000086
S1131A804D1C000055010000002243088B4274D312
S1131A9003098B425FD3030A8B4244D3030B8B426B
S1131AA028D3030C8B420DD3FF22090212BA030C74
S1131AB08B4202D31212090265D0030B8B4219D355
S1131AC000E0090AC30B8B4201D3CB03C01A524175
S1131AD0830B8B4201D38B03C01A5241430B8B42BD
S1131AE001D34B03C01A5241030B8B4201D30B03A6
S1131AF0C01A5241C30A8B4201D3CB02C01A5241CD
S1131B00830A8B4201D38B02C01A5241430A8B428F
S1131B1001D34B02C01A5241030A8B4201D30B0278
S1131B20C01A5241CDD2C3098B4201D3CB01C01A92
S1131B30524183098B4201D38B01C01A524143099C
S1131B408B4201D34B01C01A524103098B4201D38A
S1131B500B01C01A5241C3088B4201D3CB00C01AF7
S1131B60524183088B4201D38B00C01A524143086F
S1131B708B4201D34B00C01A5241411A00D2014694
S1131B80524110467047FFE701B5002000F006F807
S1131B9002BDC0460029F7D076E770477047C046BB
S1131BA0F0B5CE46474615042D0C2E0080B507042B
S1131BB0140C3F0C9946030C7E435D436743634317
S1131BC07F19340CE4199C46A54203D980235B0297
S1131BD09846C4444B46514343433604360C250CC3
S1131BE024046544A4195918491920000CBC9046D2
S1131BF09946F0BD70B500260C4D0D4C641BA41025
S1131C00A64209D1002601F097F80A4D0A4C641B3C
S1131C10A410A64205D170BDB300EB589847013615
S1131C20EEE7B300EB5898470136F2E7442D000085
S1131C30442D0000442D0000482D000003008218AC
S1131C40934200D1704719700133F9E70FB40B4B7D
S1131C5013B51C68002C05D0A369002B02D1200009
S1131C6000F088FA05AB049AA1682000019300F003
S1131C705DFC16BC08BC04B01847C0460C0000202C
S1131C804A424A41802310B55200DB0000F002F8BA
S1131C9010BD0000F0B51D004F4B85B01E68040058
S1131CA00F000092002E05D0B369002B02D1300042
S1131CB000F060FA494B9C4250D17468009B022B9F
S1131CC005D0012B00D984E0002D00DA81E0210049
S1131CD0300000F0E1F9616B002908D0230044339F
S1131CE0994202D0300000F051FB002363630023CB
S1131CF0A3616360A3891B0603D52169300000F04A
S1131D0045FBA389364A1340A381009B022B5AD07A
S1131D1003AB02AA2100300000F0C2FAA3891843E1
S1131D20A081002D24D1029D280000F025FB0195FF
S1131D30071E42D1029B0193AB4239D1012040429C
S1131D400223A2891343A3810023A3602300473302
S1131D50236023610123636105B0F0BD214B9C42E4
S1131D6001D1B468AAE7204B9C42A7D1F468A5E747
S1131D70002FD9D0B369002B02D1300000F0FAF95A
S1131D80009B012B03D1A389009A1A43A281082046
S1131D90A389276027616561184018D00120184085
S1131DA00023984211D06D42A360A5611800D3E7C7
S1131DB0019800F0E1FA071EC0D08023A289019D9A
S1131DC01343A381D6E70020BAE7A560C4E7A06067
S1131DD0C2E701204042BFE70C000020C42C0000F1
S1131DE05CF3FFFFE42C0000A42C0000F8B5050010
S1131DF00E001400002804D08369002B01D100F0E8
S1131E00B9F9224B9C422DD16C68A369A360A389C4
S1131E101B0731D52369002B2ED023682269F7B222
S1131E20981A6369F6B2984205DB2100280000F095
S1131E3033F9002826D1A3680130013BA36023684D
S1131E405A1C22601F706369984204D0A389DB077F
S1131E501AD50A2E18D12100280000F01DF90028F7
S1131E6012D00FE00A4B9C4201D1AC68CDE7094B7C
S1131E709C42CAD1EC68C8E72100280000F00CF8A5
S1131E800028CAD0012676423000F8BDC42C0000D8
S1131E90E42C0000A42C0000364B70B51D6806002D
S1131EA00C00002D05D0AB69002B02D1280000F0F6
S1131EB061F9314B9C420FD16C680C23E25E93B202
S1131EC019072DD4D90611D40923012033603733DF
S1131ED01343A381404270BD284B9C4201D1AC689E
S1131EE0EBE7274B9C42E8D1EC68E6E75B0713D5A8
S1131EF0616B002908D023004433994202D030009A
S1131F0000F044FA002363632422A3899343A3814A
S1131F1000236360236923600823A2891343A381F8
S1131F202369002B0BD1A0218022A3898900920070
S1131F300B40934203D02100300000F0D9F9012373
S1131F40A289134011D00023A36063695B42A3619B
S1131F50002023698342BED10C23E25E1306BAD566
S1131F6040231343A3810138B5E7920700D4636982
S1131F70A360EDE70C000020C42C0000E42C00005A
S1131F80A42C0000F7B58A8905000C00130760D45F
S1131F904B68002B04DC0B6C002B01DC0020FEBD25
S1131FA0E76A002FFAD000232E682B6080235B01A0
S1131FB01A4034D0606DA3895B0706D56368C01AE4
S1131FC0636B002B01D0236CC01A0200216A00232A
S1131FD02800E76AB847A189431C06D12B681D2B4A
S1131FE031D82C4ADA40D3072DD500236360236906
S1131FF02360CB0405D5431C02D12B68002B00D1F0
S11320006065616B2E600029C8D023004433994277
S113201002D0280000F0BAF900206063BFE7012372
S1132020216A2800B847431CC5D12B68002BC2D0B5
S11320301D2B01D0162B01D12E60AFE74023A289BE
S11320401343A381ABE740230B430120A381404208
S1132050A5E70F69002FA1D00B680F60DB1B01936C
S11320600023920700D14B69A360019B002B00DC85
S113207094E7019B3A00216A2800A66AB047002829
S113208003DC4023A2891343DFE7019B3F181B1A9B
S11320900193EAE7010040200B6970B505000C00CC
S11320A0002B01D1002070BD002804D08369002BCF
S11320B001D100F05FF80B4B9C4209D16C680C22F3
S11320C0A35E002BEED021002800FFF75BFFEAE7B8
S11320D0054B9C4201D1AC68F1E7044B9C42EED124
S11320E0EC68ECE7C42C0000E42C0000A42C0000F5
S11320F010B5024900F0B2F810BDC04699200000A6
S1132100002310B50400036043608360818143664B
S1132110C281036143618361190008225C30FFF7C7
S11321208DFD054B24626362044BA362044BE3629E
S1132130044B236310BDC046992A0000C12A000045
S1132140F92A0000252B000070B568254A1E554366
S11321500E002900743100F063F9041E08D0002138
S11321602A00016046600C30A0606832FFF766FD0B
S1132170200070BD836913B50400002B28D183644B
S1132180C3640365134B144A1B688262019398422B
S113219001D101238361200000F020F86060200059
S11321A000F01CF8A060200000F018F80022E060A5
S11321B004216068FFF7A4FF01220921A068FFF74A
S11321C09FFF02221221E068FFF79AFF0123A36117
S11321D013BDC046A02C0000F1200000F8B51E4B32
S11321E007001E68B369002B02D13000FFF7C2FF5D
S11321F04836B4687368013B04D53368002B07D0B4
S11322003668F6E70C22A55E002D0DD06834F2E79F
S113221004213800FFF798FF30600028F0D10C2328
S113222004003B602000F8BD012320005B42E381F1
S11322300233A38165662560A560656025616561DB
S1132240A561082229005C30FFF7F8FC6563A563EB
S1132250A564E564E6E7C046A02C0000F7B50400D9
S11322600700002601914834002C01D13000FEBD46
S11322706368A5680093009B013B009301D5246823
S1132280F2E7AB89012B08D90E22AB5E013304D0EF
S113229029003800019B984706436835EBE70000A6
S11322A070B50E001D000E23C95E90B01400002905
S11322B007DA00232B60B3891B0611D48023DB00CB
S11322C00FE001AA00F05AFC0028F2DBF022029B86
S11322D012021340054A9B185A4253412B60EDE702
S11322E040230020236010B070BDC04600E0FFFF13
S11322F0F7B502268B8905000C00334206D0230073
S113230047332360236101236361F7BD01AB6A4650
S1132310FFF7C6FF00990700280000F081F80028A5
S113232008D10C22A35E9A05EFD4032293431E43E3
S1132330A681E4E70F4BAB628023A289206013439C
S1132340A381009B20616361019B002B0DD00E23B0
S1132350E15E280000F024FC002806D00322A389B3
S113236093431A0001231343A381A0893843A08116
S1132370CBE7C046F120000010B5034B01001868FC
S113238000F04EF810BDC0460C00002070B50500EA
S1132390002910D00C1F2368002B00DAE418280051
S11323A000F02FFC1D4A1368002B05D163601460F4
S11323B0280000F027FC70BDA34209D921686018E9
S11323C08342F3D118685B6841182160EEE713007B
S11323D05A68002A01D0A242F9D919685818A042B3
S11323E00BD120680918581819608242E0D110688E
S11323F05268411819605A60DAE7A04202D90C23E6
S11324002B60D5E721686018824203D110685268B6
S11324104118216062605C60CAE7C046A0010020E8
S1132420032370B5CD1C9D43083506000C2D1ED228
S11324300C25A9421DD8300000F0E3FB254A14689E
S11324402100002919D1244C2368002B03D130002A
S113245000F010FB20602900300000F00BFB431C4F
S11324602CD10C233000336000F0CCFB03E0002DB2
S1132470DFDA0C233360002070BD0B685B1B1AD4B9
S11324800B2B03D90B60CC18256003E08C420ED1D2
S113249063681360300000F0B5FB200007220B30A6
S11324A0231D9043C31AE7D05A42E250E4E74B6835
S11324B063600C00EEE70C004968C2E70323C41C08
S11324C09C43A042E0D0211A300000F0D3FA431C10
S11324D0DAD1C6E7A0010020A4010020936810B55A
S11324E0013B9360002B05DA9469A34208DBCBB26D
S11324F00A2B05D01368581C10601970C8B210BD9F
S1132500FFF774FCFBE7F8B506000F001400D518BC
S1132510AC4201D1002007E021783A003000FFF7F7
S1132520DDFF0134431CF3D1F8BD0000F0B59FB0CA
S113253006000F0014000593002804D08369002BC3
S113254001D1FFF717FE7F4B9F425CD17768BB89AF
S11325501B0762D53B69002B5FD0002306AD6B617E
S113256020336B761033AB760294029C2378002BD5
S11325705DD1029BE31A04930DD0049B029A3900A7
S11325803000FFF7C0FF431C00D1CCE06A69049B14
S1132590944663446B612378002B00D1C3E001228D
S11325A0002352426A6002A95432521801342B604B
S11325B0EB60AB601370AB6521780522624800F0D4
S11325C015FB631C9C46002835D12968CB0604D52D
S11325D0532302AA20309B1818700B0704D55323E9
S11325E02B2002AA9B18187023782A2B2CD00020A9
S11325F00A21099B2278303A092A00D86BE0002886
S11326002AD0099328E0514B9F4201D1B7689EE735
S11326104F4B9F429BD1F76899E739003000FFF791
S11326203BFC002899D0012040421FB0F0BD252B6F
S11326309FD001349AE7444B2968C01A0123834090
S11326400B432B606446B7E7059B181D1B68059078
S1132650002B3ADB0993644623782E2B0BD1637845
S1132660621C2A2B3FD1059B02341A1D1B6805925C
S1132670002B35DB079321780322364800F0B6FAA5
S1132680002807D0334B2A68C01A402383401343E1
S11326902B6001342178631C06222F48029329768B
S11326A000F0A4FA002844D02C4B002B2FD1296829
S11326B0059B0722C90528D59B1893430833059326
S11326C06B69039A9B186B614FE75B42EB600223D3
S11326D00B432B60BFE74B4301349B18012089E770
S11326E001235B42C6E7002314000A201A006B6032
S11326F021783039092903D9002BBCD00792BAE7D5
S11327004243013452180123F2E70733D5E705ABFE
S113271000933A00124B2900300000E000BF039000
S1132720039B0133CCD1BB895B0600D57BE70B98B7
S11327307BE705AB00933A00094B2900300000F019
S11327407FF8ECE7C42C0000042D0000E42C00000A
S1132750A42C00000A2D00000E2D00000000000033
S113276007250000F7B5150001938A680B690090EE
S11327700C00934200DA130022002B6043321278DB
S1132780002A01D001332B6023689B0602D52B68F5
S113279002332B60062723681F4027D023004333CE
S11327A01B785A1E93412268920630D42200019964
S11327B043320098089EB047431C25D00623206866
S11327C02A68E16803400025042B03D18D1AEB43EA
S11327D0DB171D40A3682269934201DD9B1AED18A3
S11327E00027BD4220D1002010E00137E3682A68A9
S11327F09B1A9F42D2DA22000123193201990098D0
S1132800089EB047431CF0D101204042FEBD302059
S1132810E1184331087021005A1C45310978A21887
S1132820433202331170C1E7220001231A320199A5
S11328300098089EB047431CE6D00137D1E700005A
S1132840F0B58BB006920A004332079305900492C8
S11328500A7E0C00109B6E2A00D18FE017D8632AE1
S11328602CD008D8002A00D199E0582A54D0260048
S11328704236327029E0642A01D0692AF7D12168EE
S11328801A68080623D5111D1960156825E0732AF6
S113289000D188E008D86F2A29D0702AE7D12022F5
S11328A009680A43226003E0752A20D0782ADED121
S11328B022007821453211706C4A30E00E001A680B
S11328C04236111D196013683370012379E04906FB
S11328D0D9D5111D19600023D55E002D03DA2D23EF
S11328E0049A6D421370624B0A2703932FE0206809
S11328F01968050603D5081D18600D6805E0400633
S1132900F9D50D68081D1860ADB2594B082703931B
S11329106F2A18D00A2716E045310A70544A0392E8
S11329201A682168101D18601568080622D5CB079F
S113293002D52023194321601027002D03D1202321
S113294022689A4322602300002243331A7063688A
S1132950A360002B5CDB0422216891432160002DDD
S113296058D1049E002B64D02600039B42361B786A
S113297033705EE04806DAD5ADB2D8E709681A6864
S1132980080605D5111D1960136862691A6006E00E
S11329904906F7D5111D19601368A28A1A8000230D
S11329A0049E236154E01A68111D19601668002101
S11329B06268300000F01AF9002801D0801B6060C2
S11329C0636823610023049A137041E02369320091
S11329D006990598079DA847431C43D02368002502
S11329E09B070FD4099BE06898423DDA18003BE04E
S11329F022000123193206990598079EB047431C0B
S1132A0030D00135E368099A9B1A9D42F0DBE9E76F
S1132A10002DA9D0049E28003900FFF7BBF8039BC2
S1132A20013E5B5C280033703900FFF72DF8051E6A
S1132A30F1D1082F09D12368DB0706D56368226921
S1132A40934202DC3023013E3370049B9B1B2361C1
S1132A50079B09AA00932100069B0598FFF782FEB5
S1132A60431CB3D1012040420BB0F0BD262D000021
S1132A70152D0000002370B5064C050008002360E6
S1132A80FEF794FE431C03D12368002B00D02B6077
S1132A9070BDC0461806002070B50C000E25495FB5
S1132AA000F0B2F8002803DB636D1B18636570BD8A
S1132AB0A389024A1340A381F9E7C046FFEFFFFF51
S1132AC0F8B51F008B8905000C001600DB0505D541
S1132AD00E23C95E0022022300F074F8A389054A7C
S1132AE028001340A38132000E23E15E3B0000F076
S1132AF01FF8F8BDFFEFFFFF70B50C000E25495F0E
S1132B0000F060F8A389421C03D1054A1340A38155
S1132B1070BD802252011343A3816065F8E7C0466B
S1132B20FFEFFFFF10B50E23C95E00F015F810BDCE
S1132B3070B50500080011000022064C22601A003E
S1132B40FEF70CFE431C03D12368002B00D02B603E
S1132B5070BDC04618060020002370B5064C050061
S1132B6008002360FEF734FE431C03D12368002BC6
S1132B7000D02B6070BDC04618060020002370B53D
S1132B80064C0500080011002360FEF724FE431CD8
S1132B9003D12368002B00D02B6070BD18060020E1
S1132BA0002370B5064C050008002360FEF718FEEC
S1132BB0431C03D12368002B00D02B6070BDC0469A
S1132BC01806002070B50500080011000022064C0C
S1132BD022601A00FEF706FE431C03D12368002B73
S1132BE000D02B6070BDC04618060020C9B2821800
S1132BF0904201D10020704703788B42FBD0013012
S1132C00F6E770477047000070B505000800110032
S1132C100022064C22601A00FEF77EFD431C03D1FD
S1132C202368002B00D02B6070BDC046180600201E
S1132C3000080042000C0042001000420014004250
S1132C4000180042001C0042220E00001E0E00006C
S1132C501E0E0000840E0000840E0000360E0000DC
S1132C60280E00003C0E0000720E00000810000048
S1132C70E80F0000E80F000074100000FA0F0000D5
S1132C8016100000EC0F0000241000006410000077
S1132C9048656C6C6F7720576F726C64210000007C
S1132CA010000020000000000000000000000000F0
S1132CB00000000000000000000000000000000010
S1132CC00000000000000000000000000000000000
S1132CD000000000000000000000000000000000F0
S1132CE000000000000000000000000000000000E0
S1132CF000000000000000000000000000000000D0
S1132D0000000000232D302B2000686C4C00656609
S1132D106745464700303132333435363738394128
S1132D20424344454600303132333435363738393E
S1132D306162636465660000F8B5C046F8BC08BC0F
S1132D409E467047DD000000F8B5C046F8BC08BCDC
S10B2D509E467047B500000027
S1132D58401F0000080000000100000010000020CF
S1132D6800000000C42C0000E42C0000A42C000087
S1132D780000000000000000000000000000000047
S1132D880000000000000000000000000000000037
S1132D980000000000000000000000000000000027
S1132DA80000000000000000000000000000000017
S1132DB80000000000000000000000000000000007
S9031635B1
